:020000040800F2
:1000000018880120095000080D0E00080F0E000886
:10001000130E0008170E00081B0E00080000000059
:100020000000000000000000000000001F0E00089B
:10003000210E000800000000230E0008250E000815
:1000400023500008235000082350000823500008C4
:1000500023500008235000082350000823500008B4
:1000600023500008FD140008235000082350000806
:1000700023500008EF1100082350000883130008E4
:100080009B4200082350000823500008235000081A
:10009000235000082350000823500008771400085C
:1000A000235000082B100008D51100082350000829
:1000B0002350000823500008235000082350000854
:1000C0002350000823500008235000082350000844
:1000D000270E0008330E0008530E00086B0E0008B0
:1000E000C7140008235000082350000823500008BC
:1000F0005D14000861100008235000082350000818
:100100002350000823500008235000082350000803
:100110008B0E0008BB0F000857110008B113000830
:1001200023500008235000082350000823500008E3
:1001300023500008235000082350000823500008D3
:1001400023500008235000082350000823500008C3
:1001500023500008235000082350000823500008B3
:1001600023500008235000082350000823500008A3
:100170002350000823500008235000082350000893
:10018000235000082350000800F002F800F0B2F8F5
:100190000AA090E8000C82448344AAF10107DA45E2
:1001A00001D100F0A7F8AFF2090EBAE80F0013F082
:1001B000010F18BFFB1A43F001031847D8B900001C
:1001C000F8B900000A444FF0000C10F8013B13F09E
:1001D000070408BF10F8014B1D1108BF10F8015BA0
:1001E000641E05D010F8016B641E01F8016BF9D193
:1001F00013F0080F1EBF10F8014BAD1C0C1B09D1EA
:100200006D1E58BF01F801CBFAD505E014F8016B5B
:1002100001F8016B6D1EF9D59142D6D370470000ED
:100220000023002400250026103A28BF78C1FBD8FF
:10023000520728BF30C148BF0B6070476E2908F0D5
:100240004B84702908F0838166290BF0108365299F
:100250000BF00D8367290BF00A8361290BF00983EA
:1002600003681B0A28BF41F08001692908F0F48067
:10027000642908F0F180752908F0EE806F2908F0F4
:100280005987782908F04F81E92908F0F386E42995
:1002900008F0F086F52908F0ED86EF2908F056877A
:1002A000F82908F04E810368DB0928BF41F080017E
:1002B000632908F06286732908F06786E32909F04C
:1002C000B181F32909F0B681002070471FB50BF00A
:1002D000C4FA08F089FF0400002000210AF0F2FDB2
:1002E000401C6060002000210AF0D6FDE0601FBDC8
:1002F00010B510BD09F0F2FB1146FFF7E7FF00F063
:1003000051FD09F019FC03B4FFF7F2FF03BC04F040
:100310005DFE0000002005E00021FB4A22F81010DD
:10032000411CC8B20428F7DB704710B52DED088BCF
:10033000F0EE408AB0EE609A39EE680AB0EE40BA4C
:10034000B7EE000AF14880ED040A9FEDF10A80ED56
:10035000060A9FEDF00A80ED050A80ED009AC0EDD7
:10036000018A04F016FAF0EE409A19EE900A0BF0AA
:1003700003FA41EC1A0B53EC1A2BE7A008F036F8FD
:100380009FEDE70A29EE800AB0EE408A9FEDE40A6D
:10039000B4EEC08AF1EE10FA03DD9FEDE10AB0EE93
:1003A000408AD948B0F9000000EE100AB8EEC00A41
:1003B000FFEE000A00EE880ABDEEC00A10EE100A39
:1003C00000B2D14908800846B0F9020000EE100AD8
:1003D000B8EEC00AFFEE000A00EE880ABDEEC00AC1
:1003E00010EE100A00B248800846B0F9040000EE92
:1003F000100AB8EEC00AFFEE000A00EE880ABDEE51
:10040000C00A10EE100A00B288800846B0F9060053
:1004100000EE100AB8EEC00AFFEE000A00EE880AED
:10042000BDEEC00A10EE100A00B2C880BDEC088B09
:1004300010BD10B52DED108BB0EE409AF0EE609A25
:10044000B0EE41AAF0EE61AAB0EE42BAF0EE000AB8
:100450009FEDB40A0AF00EF8B0EE40FAF0EE000A92
:100460009FEDB10A0AF006F83FEE000AF0EE40DA1E
:100470000AF0CEFBDFEDAC0A80EE801AF0EE41BA56
:10048000F0EE000A9FEDA70A09F0F4FFB0EE40FA83
:10049000F0EE000A9FEDA40A09F0ECFF3FEE000A1F
:1004A000F0EE40DA0AF0B4FBDFED9E0A80EE801A2F
:1004B000B0EE41CA3AEE490AB0EE40EA3AEEE90A35
:1004C000F0EE40EAB0EE080A984880ED040A9FED8D
:1004D000900A80ED060A9FED8F0A80ED050A80EDF7
:1004E00000AA80ED019A04F054F9F0EE40CAB0EE93
:1004F000080A8F4880ED040A9FED850A80ED060A00
:100500009FED840A80ED050AC0ED00AAC0ED019AB6
:1005100004F03FF9B0EE40DA2BEEAC0ADFED800AD2
:1005200020EE200AB0EE408A2CEE0D0ADFED7C0AA8
:1005300020EE200AF0EE408A9FED7E0AB4EEC08ADB
:10054000F1EE10FA03DD9FED7B0AB0EE408A9FEDDD
:10055000790AF4EEC08AF1EE10FA03DD9FED750A18
:10056000F0EE408AB0EE4B0A09F0D2FE60EE08DAF7
:10057000B0EE4B0A0AF084FA48EE80DAB0EE4B0A8D
:100580000AF07EFAF1EE480A20EE20FAB0EE4B0AAD
:1005900009F0BEFE08EE80FA7DEE8F0A5A48B0F9E7
:1005A000000000EE100AB8EEC00ABFEE001A01EE1D
:1005B000200ABDEEC00A10EE100A00B252490880AF
:1005C000B0EE4B0A09F0A4FE60EE08DAB0EE4B0A7A
:1005D0000AF056FA48EE80DAB1EE6DFAB0EE4B0A48
:1005E0000AF04EFAF1EE480A60EE20DAB0EE4B0A5D
:1005F00009F08EFE48EE80DA7FEE2D0A4248B0F90F
:10060000020000EE100AB8EEC00ABFEE001A01EEBA
:10061000200ABDEEC00A10EE100A00B23A49488026
:10062000B0EE4B0A09F074FE60EE08DAB0EE4B0A49
:100630000AF026FA48EE80DAB0EE4B0A0AF020FA09
:10064000F1EE480A20EE20FAB0EE4B0A09F060FE07
:1006500008EE80FA7DEE8F0A2B48B0F9040000EE18
:10066000100AB8EEC00AB7EE001A01EE200ABDEE7D
:10067000C00A10EE100A00B223498880B0EE4B0A7F
:1006800009F046FE60EE08DAB0EE4B0A0AF0F8F91F
:1006900048EE80DAB1EE6DFAB0EE4B0A0AF0F0F9EE
:1006A000F1EE480A60EE20DAB0EE4B0A09F030FEB7
:1006B00048EE80DA7FEE2D0A1348B0F9060000EE0E
:1006C000100AB8EEC00AB7EE001A01EE200ABDEE1D
:1006D000C00A10EE100A00B20B49C880BDEC108BA6
:1006E00010BD1CB514A1184804F043FC0648B0F92D
:1006F00006000549B1F90410CDE900100248B0F92F
:100700000230B0F9002021E0300100200402002076
:10071000CDCCCC3D0000000070723A25660A000086
:1007200000007A440000FA430080224424020020A2
:10073000440200200000FA440D4143313030303093
:100740000D44454335300D0000100140B4A1BA48B6
:1007500004F00FFCB9A007F049FEBC48B0F9001046
:10076000BBA007F043FEB948B0F90210BAA007F0E9
:100770003DFEB648B0F90410B9A007F037FEB34803
:10078000B0F90610B8A007F031FE1CBDB84880EDE6
:10079000000AB848C0ED000AB74880ED001A70475B
:1007A000B34890ED000AB548D0ED000A30EE600A7B
:1007B000B0EEC00A5FED2A0AB4EEE00AF1EE10FADC
:1007C00023D8AC4890ED000AAD48D0ED000A30EED9
:1007D000600AB0EEC00A5FED320AB4EEE00AF1EE54
:1007E00010FA12D8A44890ED000AA648D0ED000AED
:1007F00030EE600AB0EEC00A5FED3B0AB4EEE00AEC
:10080000F1EE10FA01D8012070470020FCE700B596
:100810002DED108B8DB003F0D0F9B0EE408A9FED36
:100820009A0A28EE000AB0EE001AC0EE010A9FED07
:10083000970A80EE801AF0EE41FA01F0C8FB30EE24
:100840006F0AF0EE409A924890ED000A39EEC00A25
:10085000F0EE408A9FED8F0A68EE000AB0EE001AB3
:1008600080EE810ADFED890A80EE201AF0EE41FA6F
:1008700001F0DDFB30EE6F0AB0EE40FA864890EDF5
:10088000000A3FEE400AB0EE409A8148C0ED009A5F
:10089000814880ED00FAB0EE480A0AF0F1F8F1EE76
:1008A000490A20EE20AAB0EE480A09F031FD08EE10
:1008B00080AA724890ED000A3AEE000A80ED000A24
:1008C000B0EE480A09F024FD20EE09AAB0EE480A6D
:1008D0000AF0D6F808EE80AA694890ED000A3AEED0
:1008E000000A80ED000A674880ED008A6B480078B6
:1008F000E0B1FFF70FFD6048D0ED000A614890EDD0
:10090000000AFFF712FD5F4890ED002A5948D0ED2C
:10091000001A574890ED001A5948D0ED000A574880
:1009200090ED000AFFF785FDFFF7DBFE52480068F7
:100930000AF022FF41EC1A0B524800680AF01CFF33
:1009400041EC1B0B4B4800680AF016FF41EC1C0BF6
:100950004B4800680AF010FF41EC1D0B444800684A
:100960000AF00AFF41EC1E0B444800680AF004FF3D
:10097000CDE90A018DED08AB8DED06BB8DED04CB05
:100980008DED02DB8DED00EB9DED0A0B53EC102B92
:1009900043A007F02BFD0DB0BDEC108B00BD374818
:1009A00090ED000A7047364890ED000A70473548D0
:1009B00090ED000A70471FB50121480406F08CF83D
:1009C00040F2E7300290A720ADF804000020ADF817
:1009D0000600ADF80C0001A9364806F0AEFC012275
:1009E0001146344807F04AF90121324806F02EFD3D
:1009F00019208DF8000003208DF801008DF8020009
:100A000001208DF80300684604F08BFC1FBD10B573
:100A1000FFF7D1FF10BD002020490870704700008B
:100A20000D305625640D315625640D325625640D62
:100A3000355625640D000000001001406172675FAB
:100A40007370656564733A0A00000000300100208D
:100A500009303A25640A000009313A25640A000089
:100A600009323A25640A000009333A25640A000075
:100A700004000020080000200C00002010000020CE
:100A80001400002018000020E5D0023FDB0F494091
:100A90001C000020C3F5983F20000020000000202B
:100AA00025662025660925662025660925662025F8
:100AB000660A0A000044014010B52DED048B01F0D8
:100AC000EFFC4FF4FA600AF09AF900209D49087093
:100AD00003F00DFF01209B490870FFF768FFB0EE9F
:100AE000408AFFF760FFF0EE408AFFF758FFB0EE54
:100AF000409AB0EE481AF0EE680AFFF747FE00BFD2
:100B0000FFF74EFE0028FBD0FFF74DFFDFED8E0A0A
:100B100030EE600AB0EE408AFFF741FFF0EE408A07
:100B20009FED8A1AF0EE480AFFF730FE00BFFFF78C
:100B300037FE0028FBD0FFF736FFDFED830A30EEEB
:100B4000600AB0EE408A9FED821AF0EE480AB1EEDC
:100B50000C0AFFF71BFE00BFFFF722FE0028FBD0A8
:100B6000BDEC048B10BD10B59FED770A01F058FD68
:100B700010BD10B59FED740A01F052FD10BD10B507
:100B80009FED740A01F04CFD10BD10B50AF06AF932
:100B90009FED710A022000F04AFE01F06BFD4FF458
:100BA00096700AF02CF99FED6D0A002000F03FFED0
:100BB00040F2A4600AF023F99FED690A002000F0DA
:100BC00036FE4FF47A700AF01AF90AF04BF910BDAC
:100BD00010B5FFF720FF10BD10B52DED028BFFF70C
:100BE00016FF0120574908705EA007F0FFFB0120A7
:100BF00061490870002432E0604800EB041090ED79
:100C0000010ADFED5F0A80EE201AB0EE418A5B48F0
:100C100000EB041090ED000ADFED590A80EE201A77
:100C2000F0EE418A554800EB041090ED020AB0EE58
:100C3000401AF0EE480AB0EE680AFFF7A7FD00BFC1
:100C4000FFF7AEFD0028FBD04C4800EB0410C06855
:100C500020B14A4901EB0411C8688047641C474829
:100C600000EB041090ED000AB5EEC00AF1EE10FAA8
:100C7000C2D1424800EB041090ED010AB5EEC00A63
:100C8000F1EE10FAB8D13D4800EB041090ED020AE5
:100C9000B5EEC00AF1EE10FAAED1384800EB041000
:100CA000C0680028A8D1BDEC028B10BD01F05BF834
:100CB0000AF0D8F800203049087032A007F096FBFF
:100CC00001E000F0DFFFFCE71FB50121080205F09D
:100CD000F2FE40F2E7300290A720ADF804000020B9
:100CE000ADF80600ADF80C0001A92C4806F025FB74
:100CF00001221146294806F0C1FF0121274806F0CC
:100D0000A5FB2D208DF8000003208DF801008DF843
:100D1000020001208DF80300684604F002FB1FBDAD
:100D200010B5FFF7D1FF002405E01D4951F824005C
:100D30008047601C84B21A4850F824000028F4D17F
:100D400010BD000000000020CDCC4C3EA8DC55C0FA
:100D5000DB0F59C0CDCCCC3DCDCC4C3D8FC2753DC9
:100D6000B81E853D0A4175746F20636F6E74726F93
:100D70006C6C696E672E0A00240000204000002081
:100D800000007A440A4175746F20636F6E74726F4D
:100D90006C2073746F707065642E0A000020004030
:100DA0006000002007F098FA07F0D4FA4FF4A06032
:100DB00004F0B2FA00F0BEFF4FF4E13004F0C7F8DF
:100DC00004F065F902F08AFA01F07CFC01F01AFAED
:100DD00001F04FFB01F03EFD00F064FDFFF717FE50
:100DE000FFF79EFF03A007F001FB01E000F04AFFC0
:100DF000FCE700000A0A456E746572696E67206D33
:100E000061696E206C6F6F700A0A0000704700BF46
:100E1000FEE700BFFEE700BFFEE700BFFEE770474A
:100E200070477047704710B56021FE4806F084F99E
:100E300010BD10B540F22551FB4807F003FA38B158
:100E4000F94807F03DF904462146F84807F034F91F
:100E500010BD10B540F22551F54807F0F3F918B16F
:100E6000F34807F02DF9C4B210BD10B540F225517A
:100E7000F04807F0E7F938B1EE4807F021F9C4B2BD
:100E80002146ED4801F0B0FC10BD10B540F22551EF
:100E9000EA4807F0D7F900287ED0E94800781328FF
:100EA00064DB0020E649087002F03AFEE54880ED78
:100EB000000A90ED000AE448D0ED000A30EE600A26
:100EC000E248D0ED000A30EE200A80ED000ADD484D
:100ED00090ED000ADFEDDE0AB4EEE00AF1EE10FA62
:100EE00013D2D94890ED000ADFEDDA0AB4EEE00A39
:100EF000F1EE10FA09DDD54890ED000ADFEDD60AD3
:100F000030EE200A80ED000A1CE0CE4890ED000A89
:100F1000DFEDD00AB4EEE00AF1EE10FA12DDCA48B5
:100F200090ED000ADFEDCA0AB4EEE00AF1EE10FA25
:100F300008D2C64890ED000ADFEDC80A30EE200A5C
:100F400080ED000ABF4890ED000ABF4880ED000A1E
:100F5000C348007838B99FEDC30ABC4880ED000A49
:100F60000120BF4908700120BF490870B34807F04D
:100F7000A7F8BE49B24A12788854B14800780428CC
:100F800015DA0846AE490978405CB949AC4A12788E
:100F9000895C884207D100E00EE0A9480078401C37
:100FA000A749087008E00020A549087004E0A4489B
:100FB0000078401CA249087010BD38B540F2255198
:100FC0009A4807F03FF978B3984807F079F8C4B227
:100FD0002146964807F070F80A2C02D0232C1AD12B
:100FE00015E0A448007848B10020A24908702146C5
:100FF000A14801F0F9FB02F057FD07E000BF694688
:101000009D4801F00AFCB0F1FF3FF8D10BE0012050
:101010009849087007E09748007818B1214696482B
:1010200001F0E2FB00BF00BF38BD10B501219348BD
:1010300006F03BFE98B192480078401C9049087039
:1010400008460078642804DDFFF7E1FB00208C49A6
:10105000087000F017FE0121884806F037FE10BD29
:1010600010B54FF4FA740121864806F01EFE0028E0
:1010700070D00121834806F029FE83480088FA28B1
:101080004FDC81480088214690FBF1F201FB120001
:101090000A2190FBF1F0E0BB7C480078012840D1A8
:1010A00000F0F5FF7A48D0ED000A30EE600A79488A
:1010B000D0ED000A9FED781A70EE810AB4EEE00AD6
:1010C000F1EE10FA12DC00F0E2FF7148D0ED000AF8
:1010D00030EE600A6F48D0ED000A9FED6F1A70EE97
:1010E000C10AB4EEE00AF1EE10FA18D200F0CFFF18
:1010F0006748D0ED000A30EE600A6648D0ED000A7D
:10110000B4EEE00AF1EE10FA04D2B2EE040A01F0F5
:1011100007FA06E0B2EE040A01F047FA01E001F036
:101120002FFA59480088FA2801DD01F029FA5648BB
:101130000088401C54490880084600884FF4FA7122
:1011400090FBF1F201FB12004F49088001214D484C
:1011500006F0BCFD10BD10B50121504806F0A5FDFC
:10116000B8B300242FE04E4830F81400401C4C491E
:1011700021F81400084630F814004A4951F82410A8
:1011800088421ED9464830F81400474951F82410C7
:10119000884209D2454A32F81410454A52F82400D0
:1011A000002204F0D5FF0CE0404A32F81410404A07
:1011B00052F82400012204F0CBFF0020384921F826
:1011C0001400601CC4B2052CCDDB0121334806F0AD
:1011D0007DFD10BD10B50121364806F066FD28B131
:1011E00002F03CF90121334806F070FD10BD10B546
:1011F0003149324804F086FA01287DD100212F4878
:1012000004F0D6F902F08CFC0E4880ED000A90ED57
:10121000000A0D48D0ED000A30EE600A0B48D0ED10
:10122000000A4DE00038004000100140005000402E
:10123000004400400048004098060020004C004058
:101240006D000020A4010020A00100209C010020CE
:10125000DB0FC9BFDB0FC93FDB0FC940DB0FC9C0C4
:101260006C000020000000009801002070010020A8
:1012700030B900086E00002008070020004401403B
:101280006F000020002000407000002009010020B5
:101290000C010020100100200AD7233C0010004060
:1012A00064020020700200208402002088000020D8
:1012B000940000200048014000802010406002405F
:1012C00030EE200A80ED000A924890ED000A5FEDB2
:1012D000200AB4EEE00AF1EE10FA15D28E4890ED35
:1012E000000A5FED240AB4EEE00AF1EE10FA0BDD1D
:1012F0008A4890ED000A00E042E05FED290A30EEF6
:10130000200A80ED000A1CE0824890ED000A5FEDA3
:101310002F0AB4EEE00AF1EE10FA12DD7E4890EDED
:10132000000A5FED350AB4EEE00AF1EE10FA08D2D9
:101330007A4890ED000A5FED370A30EE200A80ED22
:10134000000A744890ED000A734880ED000A744862
:10135000007838B91FED3D0A704880ED000A012081
:101360006F49087001206F4908706F496F4804F099
:10137000F3F901216D4804F01BF900206949087058
:1013800010BD10B56A496948303004F0BBF9012836
:101390000DD168A16A4803F0ECFD002163483030AC
:1013A00004F006F962496148303004F0D5F910BD07
:1013B00010B50121634806F078FC00284DD00121CA
:1013C000604806F083FC604806F004F8A0F57A60F7
:1013D0005E49096808445D4908604FF47A605A49DB
:1013E00048625B4805F0F6FFA0F57A605949096844
:1013F0000844584908604FF47A6055492431086020
:10140000554805F0E7FFA0F57A605449096808449B
:10141000524908604FF47A604F49243108605048BF
:1014200005F0D8FFA0F57A604E49096808444D4997
:1014300008604FF47A604A49243108604A4805F050
:10144000C9FFA0F57A60494909680844474908601E
:101450004FF47A6044492431086010BD10B5012171
:10146000434806F022FC28B10121414806F02EFC39
:1014700005F0E7F810BD10B52DED028B0A2009F03C
:10148000BEFC4FF4807004F0FFF9012818D101026E
:10149000384804F03FFE78B900F0F9FDB0EE408A1C
:1014A00000F0F5FDB4EEC08AF1EE10FA01DD01F0B6
:1014B00067F831A006F09AFF4FF4807004F0EFF95E
:1014C000BDEC028B10BD10B50A2009F098FC4FF45A
:1014D000006004F0D9F901280FD1C1022C4804F0B2
:1014E00019FE30B901F04CF801F0C4F822A006F062
:1014F0007DFF4FF4006004F0D2F910BD10B5082153
:10150000234804F007FE08B900F02DFC082004F081
:10151000C6F910BDA4010020A00100209C010020FC
:1015200072000020980100200080201040600240DE
:101530002080002053656E644F4B0D0A00000000B0
:10154000005000400014004000000140B4000020A2
:1015500000040040B000002000080040A800002067
:10156000000C0040AC00002000040140B800002046
:10157000001C0040001002400A73746F705F6661C7
:101580006E5F75705F646F776E28290A0000000037
:10159000001402400CB500200190009076480068CD
:1015A00040F480307449086000BF7348006800F45C
:1015B000003000900198401C0190009818B90198E3
:1015C000B0F5A04FF1D16C48006800F4003010B1C4
:1015D0000120009001E0002000900098012846D1F1
:1015E00065484030006840F08050634940310860F1
:1015F0006248006840F44040604908605E48083036
:1016000000685D49083108600846006840F4004001
:1016100008600846006840F4A05008605848091F58
:101620000860081F006840F08070091F086000BF54
:101630005148006800F000700028F9D040F20570B1
:10164000504908604C480830006820F003004A49BF
:10165000083108600846006840F00200086000BFDA
:1016600045480830006800F00C000828F8D10CBD8F
:1016700010B54548006840F47000434908603E4892
:10168000006840F001003C49086000203A490831F8
:101690000860394800683D490840374908603C48BF
:1016A000091D0860081F006820F48020091F0860D9
:1016B000002031490C310860FFF76CFF4FF00060EB
:1016C00031498039086010BD70B500200022022326
:1016D00000240221284D08352D6805F00C0020B1AA
:1016E000042806D0082834D107E02A4D2A4E356058
:1016F00033E02A4D284E35602FE01F4D2D1D2D68FB
:10170000C5F380541C4D2D1D2D6805F03F0154B1CB
:10171000224DB5FBF1F5184E361D3668C6F3881616
:1017200005FB06F209E01B4DB5FBF1F5124E361D27
:101730003668C6F3881605FB06F20F4D2D1D2D6881
:10174000C5F301456D1C6B00B2FBF3F5124E35601D
:1017500003E0104D104E356000BF00BF064D083548
:101760002D68C5F303150E4E705D0B4D2D68C540F9
:10177000094E356070BD0000003802400070004026
:1017800008544007003C024088ED00E0FFFFF6FEF1
:10179000103000240024F4007400002000127A00AD
:1017A0007800002010B50121084605F03BF9012121
:1017B000042005F037F90121402005F033F910BD70
:1017C0006E4A52F8202000EE902AB8EE601A6C4A59
:1017D00052F8202000EE902AF8EE600AC1EE201A9E
:1017E000B0EE610A674AB2FBF1F2654B43F8202084
:1017F0001A4652F8202000EE902AF8EE600A60EEB9
:10180000800AFCEEE00A10EE902A5C4B43F82020A0
:10181000704730B50546002406E055F824102046F0
:10182000FFF7CEFF601CC4B2052CF6DB30BD544977
:1018300051F8201000EE901AF8EE600A60EE800A6F
:10184000FCEEE00A10EE901A4C4A42F82010704765
:1018500070B50546002422E005EB840090ED000AF7
:10186000B5EEC00AF1EE10FA14DB05EB840090ED42
:10187000000AF7EE000AB4EEE00AF1EE10FA09D819
:1018800005EB8400D0ED000AB0EE600A2046FFF7B9
:10189000CEFF02E03CA006F0A9FD601CC4B2052CFE
:1018A000DADB70BD10B590B014223B490BA807F0ED
:1018B00000F814223849143106A806F0FAFFFFF7A1
:1018C00071FF01208DF8140002208DF81500002012
:1018D0008DF8160001208DF8170000240BE02F482A
:1018E00030F8140004902E4951F8240004A904F0A3
:1018F000AFFB601CC4B2052CF1DB00240AE042F20D
:1019000010701F4941F8240040101C4941F8240080
:10191000601CC4B2052CF2DB0BA8FFF799FF06A8E8
:10192000FFF777FF0121102005F0C5F81320029082
:101930005320ADF804000020ADF80600ADF80C000F
:1019400001A9184805F0F9FC01221146154806F0D6
:1019500095F90121134805F079FD36208DF8000036
:1019600000208DF801008DF8020001208DF80300A1
:10197000684603F0D6FC10B010BD000070020020D5
:1019800084020020A086010057726F6E67204475A4
:101990007479210A0000000078B80008880000204F
:1019A000940000200010004070B52DED028B88B02F
:1019B00007A9E44800F031FF0020069005900026BA
:1019C00000259DF81C0011287DD00BDC26D2DFE815
:1019D00000F025E2E5F2F5DFFAFFEAEFE82525253C
:1019E0002525D50022286FD00CDC142840D004DC3B
:1019F00012286AD0132811D132E1202854D021288E
:101A00000CD16AE042287DD004DC40287DD04128FA
:101A100004D18EE0432877D0802800D02CE1002527
:101A200000240AE006A9C74800F0F7FEE1009DF88F
:101A3000180088400543601CC4B2042CF2DB0495F6
:101A4000002500240AE006A9BE4800F0E6FEE100F9
:101A50009DF8180088400543601CC4B2042CF2DBDA
:101A60000395DDED030A9DED040A02F039FF03E161
:101A700006A9B44800F0D1FE9DF8180030B1012845
:101A800007D0022808D0032809D00BE000F073FE2D
:101A900008E000F05BFE05E000F05FFE02E000F011
:101AA00063FE00BF00BFE7E006A9A64800F0B5FE50
:101AB0009DF818604FF6FF7000EA062606A9A148B7
:101AC00000F0ABFE02E0BCE047E0C4E09DF8180087
:101AD000064330B200F0DFF9CEE006A9994800F0E5
:101AE0009CFE9DF818604FF6FF7000EA062606A9D6
:101AF000944800F092FE9DF81800064330B200F0C2
:101B0000B6F9B9E06DE000E080E0002409E006A944
:101B10008C4800F082FE2D029DF818000543601CE1
:101B2000C4B2042CF3DB01959DED010A00F0A0F98D
:101B3000A2E0002409E006A9824800F06EFE2D0212
:101B40009DF818000543601CC4B2042CF3DB029519
:101B50009DED020A00F078F98EE006A9794800F0C0
:101B60005CFE05A9774800F058FE9DF8140041B2CC
:101B70009DF8180040B200F035F97DE006A97148E3
:101B800000F04BFE9DF8180040B200F011F973E030
:101B900000F082F970E000F0E6F86DE000F083F903
:101BA0006AE01BE004E016E012E00CE006E002E070
:101BB00000F089F960E000F096F95DE0B2EE040A09
:101BC00000F0AEFC58E0B2EE040A00F0EEFC53E088
:101BD00000F0E0FC50E000F018FD4DE009F050F995
:101BE0004AE000240AE006A9564800F016FEE1008B
:101BF0009DF8180088400543601CC4B2042CF2DB39
:101C000000959DED000A00F055FC35E000240AE047
:101C100006A94C4800F001FEE1009DF8180088403C
:101C20000543601CC4B2042CF2DB0095009809F057
:101C3000A3FD41EC180B53EC182B43A006F0D6FB88
:101C40001AE006A93F4800F0E8FD9DF8180040B2F0
:101C500000F054FC10E006A93A4800F0DEFD0BE06D
:101C600006A9384800F0D9FD9DF8182002F00F01B0
:101C7000100900F07AFE00BF00BF002008B0BDECE4
:101C8000028B70BDF8B5002000902E488089002896
:101C90004DDD2C484068401C2A49C989B0FBF1F24F
:101CA00001FB120527480068475D3E112FB96946C0
:101CB000244800F0B2FD0120F8BD22488189B01C03
:101CC000814231DB002410E028191E49C989B0FB8C
:101CD000F1F201FB12001B490968085C9DF8001035
:101CE0000844C0B20090601C84B2B442ECDD2819F4
:101CF0001449C989B0FBF1F201FB120011490968CE
:101D0000085C9DF80010884207D1FFF74DFE694638
:101D10000C4800F082FD0020CEE76946094800F03B
:101D20007CFD6FF00200C7E76FF00100C4E74FF0E1
:101D3000FF30C1E710B54FF480620749014800F059
:101D40004AFD10BD9806002066616E5F6B6F777468
:101D50006F77282566290A009802002001466A4804
:101D600030F91100704710B568A1694803F001F916
:101D70000A2009F044F810BD10B52DED028BB0EE2D
:101D8000408AB0EE480A00F055FEBDEC028B10BD53
:101D900010B52DED028BB0EE408A01F00EFF38EE4B
:101DA000400AF0EE408AFFF7E7FFBDEC028B10BD62
:101DB00010B50446214657A006F018FB204600F057
:101DC000CCFE10BD10B52DED028BB0EE408AF0EECA
:101DD000608AF0EE680AB0EE480A00F00BFFBDEC36
:101DE000028B10BD70B504460D462A4621464DA013
:101DF00006F0FCFA2946204601F089F870BD00B5CE
:101E00002DED068B83B0B0EE408AF0EE608A18EEBE
:101E1000900A09F0B1FC41EC190B18EE100A09F018
:101E2000ABFC41EC1A0B8DED009B53EC1A2B42A03E
:101E300006F0DCFAF0EE680AB0EE480A01F04AF962
:101E400003B0BDEC068B00BD10B52DED048BB0EEDC
:101E5000408A18EE100A09F08FFC41EC190B53EC84
:101E6000192B3AA006F0C2FABDEC048B10BD7047E6
:101E700010B52DED048BB0EE408A18EE100A09F073
:101E80007BFC41EC190B53EC192B34A006F0AEFA95
:101E9000BDEC048B10BD704710B500F0AEFD0A20FC
:101EA00008F0ADFF10BD10B530A1194803F061F87E
:101EB000012008F0A4FF30A1154803F05AF80120D2
:101EC00008F09DFF10BD10B52EA1114803F051F888
:101ED000012008F094FF2EA10D4803F04AF80120DC
:101EE00008F08DFF10BD10B52CA1094803F041F892
:101EF000012008F084FF2BA1054803F03AF80120E7
:101F000008F07DFF10BD00003001002056300D00AC
:101F1000001001400D6F746174655F6328256429AA
:101F20000A0000000A6D6F76655F78795F63282587
:101F3000642C202564290A000A6D6F76655F787924
:101F40002825662C202566290A0000000A6D6F7678
:101F5000655F78282566290A000000000A6D6F7603
:101F6000655F79282566290A000000000D34562D8A
:101F7000383030300D0000000D3356383030300D21
:101F8000000000000D3456313030300D00000000EC
:101F90000D33562D313030300D0000000D345630E9
:101FA0000D0000000D3356300D0000001CB5E04858
:101FB0000068E0490968CDE90010DF480368DF48A0
:101FC0000268DF480168DFA006F010FA1CBD10B5FA
:101FD0002DED0A8BD848006809F0BCF941EC1C0BC8
:101FE0009FEDDD0B53EC102B09F05CF841EC1B0B63
:101FF0009FEDDB0B53EC102B09F0D6F941EC1A0BDB
:102000009FEDD90B53EC102B09F0CEF941EC190BD5
:102010009FEDD70B53EC102B09F0C6F941EC180BD0
:1020200008F066FF00EE100ABDEC0A8B10BD10B57B
:102030002DED0A8BBF48006809F08CF941EC1C0BB0
:102040009FEDC50B53EC102B09F02CF841EC1B0B4A
:102050009FEDC30B53EC102B09F0A6F941EC1A0BC2
:102060009FEDC10B53EC102B09F09EF941EC190BBD
:102070009FEDC10B53EC102B09F096F941EC180BB6
:1020800008F036FF00EE100ABDEC0A8B10BD10B54B
:102090002DED0A8BA948006809F05CF941EC1C0B96
:1020A0009FEDAD0B53EC102B08F0FCFF41EC1B0B2C
:1020B0009FEDB30B53EC102B09F076F941EC1A0BA2
:1020C0009FEDA90B53EC102B09F06EF941EC190BA5
:1020D0009FEDA70B53EC102B09F066F941EC180BA0
:1020E00008F006FF00EE100ABDEC0A8B10BD10B51B
:1020F0002DED0A8B9248006809F02CF941EC1C0B7D
:102100009FED950B53EC102B08F0CCFF41EC1B0B13
:102110009FED930B53EC102B09F046F941EC1A0B91
:102120009FED910B53EC102B09F03EF941EC190B8C
:102130009FED910B53EC102B09F036F941EC180B85
:1021400008F0D6FE00EE100ABDEC0A8B10BD10B5EB
:102150002DED0A8B7648006809F0FCF841EC1C0B69
:102160009FED7D0B53EC102B08F09CFF41EC1B0BFB
:102170009FED7B0B53EC102B09F016F941EC1A0B79
:102180009FED790B53EC102B09F00EF941EC190B74
:102190009FED790B53EC102B09F006F941EC180B6D
:1021A00008F0A6FE00EE100ABDEC0A8B10BD1FB5AC
:1021B0000121202004F07FFCA720ADF8040040F2AC
:1021C000E73002900020ADF80C00ADF8060001A940
:1021D0006D4805F0B2F8012211466B4805F04EFD3E
:1021E0000121694805F032F937208DF800000120FF
:1021F0008DF801008DF802008DF80300684603F0A9
:1022000090F81FBD10B588B00121084604F064FCA9
:10221000002407E05D4951F82400012104F04BFC43
:10222000601C44B2032CF5DB0121022004F054FCB5
:10223000002407E0564951F82400012104F0F2FB84
:10224000601C44B2052CF5DB00240BE0514B1A5DF9
:10225000514B33F81410514B53F8240003F083FF13
:10226000601C44B20A2CF1DB02208DF81C00002017
:102270008DF81D008DF81E0001208DF81F00002430
:102280000BE0474830F814000690444951F8240008
:1022900006A903F0DDFE601C44B20A2CF1DB00202D
:1022A000ADF80C0047F22F5004900020ADF8140058
:1022B000ADF80E00684605F04EFC0620ADF80800AB
:1022C00000242EE0374951F8240003A905F035F821
:1022D000344951F8240000231A46032105F0A1FDDA
:1022E000304951F82400694605F0FEFB4FF47A604E
:1022F0002C4951F8241048622A4951F82400012140
:1023000005F0D0FC274951F824000122114605F0C0
:10231000B5FC244951F82400012105F097F8601C10
:1023200044B2052CCEDBFFF742FF08B010BD000021
:10233000B8000020AC000020A8000020B000002061
:10234000B40000200D0A25640925640925640925C7
:10235000640925640A0000000000000000409F405E
:10236000000000A09999A93F00000060FB210940EE
:10237000000000000000F0BF000000000000F03F7F
:10238000000000E04D62A03F00140040A0B800082B
:10239000B4B80008DCB80008C8B80008BC000020C9
:1023A000E6B80008E40000201CB5002407E0354929
:1023B00051F82400012104F035FB601CC4B2042C48
:1023C000F5DB00208DF804008DF8050001208DF864
:1023D000070000240BE02C4830F8140000902B4933
:1023E00051F82400694603F033FE601CC4B2042C8B
:1023F000F1DB1CBD1CB50121880304F06DFB00243A
:1024000007E0234A115D234A105D04F0B0FE601C12
:10241000C4B2042CF5DB00208DF8040010208DF8E8
:10242000050001208DF80600002408E01A4850F845
:1024300024000090684603F0C1F9601CC4B2042C6B
:10244000F4DB1CBD38B504208DF801008DF80200C6
:1024500001208DF80300002408E01048005D8DF88D
:102460000000684602F05DFF601CC4B2042CF4DB7F
:1024700038BD10B5FFF798FFFFF7BCFFFFF7E2FF8D
:1024800010BD0000FCB800080CB90008F8000020DE
:1024900018B9000814B900081CB900082CB90008C4
:1024A00010B59FED760A0020FFF7C1F901207449AD
:1024B000087010BD10B52DED048BB0EE408A9FED75
:1024C000710A28EE000A9FED701AC0EE010A9FED16
:1024D0006F0A30EE600AF0EE408A0220FFF7A7F99B
:1024E00018EE100A09F048F941EC190B53EC192BBE
:1024F00067A005F07BFFBDEC048B10BD10B5044652
:1025000000EE904AB8EEE01ADFED651ADFED640ADE
:1025100041EE210AB0EE600A0220FFF788F910BDF3
:1025200010B52DED028BB0EE408A002000F000F9CE
:10253000B2EE040AB4EEC08AF1EE10FA05DD9FEDAA
:102540004F0A0120FFF773F917E0BAEE040AB4EE60
:10255000C08AF1EE10FA05D29FED520A0120FFF772
:1025600066F90AE0DFED500A9FED501A41EE480A85
:10257000B0EE600A0120FFF75AF9BDEC028B10BDE6
:1025800010B59FED490A0120FFF751F9002000F036
:10259000C5F810BD10B5B2EE040AFFF7C1FF322036
:1025A00008F02DFCFFF7ECFF10BD10B52DED028BF0
:1025B000B0EE408A002000F0BBF8B2EE040AB4EEA0
:1025C000C08AF1EE10FA05DD9FED2C0A0120FFF71D
:1025D0002EF917E0BAEE040AB4EEC08AF1EE10FA52
:1025E00005D29FED300A0120FFF721F90AE0DFED67
:1025F0002E0A9FED2E1A41EE080AB0EE600A012065
:10260000FFF715F9BDEC028B10BD10B5B2EE040A50
:10261000FFF7CBFF322008F0F2FBFFF7B1FF10BD50
:1026200010B52DED028BB0EE408A012020490870D4
:10263000FFF72DFD1F4880ED000A1F4880ED008A3E
:10264000B3EE040A1D4880ED040A9FED1D0A80EDDB
:10265000050A9FED1B0A80ED060A02F089F815486D
:1026600090ED000A30EE080A144880ED000ABDEC37
:10267000028B10BD00200E4908707047B81E853DC2
:1026800008010020CDCC4C3DDB0FC93F8FC2F53D8A
:102690000A66616E5F726F6C6C282566290A0000FD
:1026A0008FC2753D2DB29D3D7368913D52491D3AD3
:1026B000090100200C01002010010020A8060020C4
:1026C000000000001CB50121402004F0ABF90120FE
:1026D0008DF8040000208DF805008DF8060001201B
:1026E0008DF80700002409E0164830F81400009027
:1026F0006946154803F0ACFC601CC4B2032CF3DB44
:10270000002408E00F4830F8141001220E4803F0AE
:102710001FFD601CC4B2012CF4DB1CBD10B50446C7
:10272000084830F814100122074803F011FD10BDCD
:1027300010B50446034830F814100022024803F094
:1027400007FD10BD140100200018024010B59FEDD8
:102750000D0A0320FFF76BF810BD10B59FED0A0AB4
:102760000320FFF764F810BD10B59FED080A0420A0
:10277000FFF75DF810BD10B59FED050A0420FFF7C7
:1027800056F810BDCDCCCC3D8FC2F53CE7FBA93D42
:102790004260653D10B52DED048B0446B4F5004F45
:1027A0000DDB204608F0EDFD41EC190B9FED270BEA
:1027B00053EC102B08F0F6FE41EC180B04E0204619
:1027C00008F0C8FD41EC180BB0EE480AF0EE680ABC
:1027D000BDEC048B10BD03461960501E9860586014
:1027E00000209881DA81704710B502469089D3891C
:1027F000984202D14FF0FF3010BD9068401CD38941
:10280000B0FBF3F403FB1400906093681068C154AC
:102810009089401C90810020EEE710B50246908917
:1028200010B94FF0FF3010BD5068401CD389B0FB89
:10283000F3F403FB14005060D2E90003C05C08709D
:102840009089401E90810020EDE70000000000000C
:102850000000F0401CB50121102004F0E3F8012134
:10286000402004F0DFF8002416E0584830F8140047
:10287000009001208DF8040000208DF805008DF8EF
:10288000060001208DF80700514951F824006946DF
:1028900003F0DEFB601CC4B2042CE6DB00240AE07B
:1028A0004A4A32F814104A4A52F82400002203F02F
:1028B0004FFC601CC4B2042CF2DB1CBD70B5054695
:1028C0000C4625B1012D1BD0FF2D4BD131E062000C
:1028D0003E4B33F8121062003D4B53F822000122A8
:1028E00003F036FC6200521C384B33F812106200C1
:1028F000521C374B53F82200002203F029FC32E02F
:102900006200324B33F812106200314B53F8220050
:10291000002203F01DFC6200521C2C4B33F81210F5
:102920006200521C2A4B53F82200012203F010FCD3
:1029300019E06200254B33F812106200244B53F863
:102940002200002203F004FC6200521C1F4B33F8EB
:1029500012106200521C1E4B53F82200002203F09A
:10296000F7FB00E000BF00BF70BD70B505460C4628
:1029700025B1012D10D0FF2D21D11BE021460020D3
:10298000FFF79CFF012C03D1C82008F038FA02E0C1
:10299000282008F034FA13E021460120FFF78EFFCB
:1029A000012C03D1C82008F02AFA02E0282008F000
:1029B00026FA05E02146FF20FFF780FF00E000BF78
:1029C00000BF2146FF20FFF779FF70BD18010020EE
:1029D000200100201CB5FE48B0F90600FC49B1F901
:1029E0000410CDE90010FA48B0F90230B0F9002027
:1029F000F8A1FE4802F0BDFA1CBD1CB5002005E0A0
:102A00000021F34A22F81010411CC8B20428F7DB59
:102A1000EF48B0F90600EE49B1F90410CDE9001015
:102A2000EB48B0F90230B0F90020EAA1EF4802F01B
:102A3000A0FA1CBD10B52DED048B88B0B0EE408A15
:102A40009FEDEB0A8DED040AB7EE000A8DED060A44
:102A50009FEDE80A8DED050A684601F089FE01F058
:102A6000ACF8B0EE409A39EE080A8DED000AB5EEEA
:102A7000C08AF1EE10FA24DD9DED000ADFEDDE0ADA
:102A800030EE200A8DED000A11E001F096F88DED90
:102A9000010A684601F07DFEBDEEC00A10EE100A84
:102AA00044B22046FFF784F90A2008F0A8F901F0A3
:102AB00084F878EE090AB4EEE00AF1EE10FAE4D3F5
:102AC00045E0B5EEC08AF1EE10FA40D29DED000A65
:102AD000DFEDC90A30EE600A8DED000A2EE001F04C
:102AE0006CF88DED010A684601F053FEF0EE408A65
:102AF000B0EE000A28EE800AF0EE408A9FEDBF0A91
:102B0000F4EEC08AF1EE10FA03DD9FEDBC0AF0EEA0
:102B1000408A9FEDBB0AF4EEC08AF1EE10FA03D2B0
:102B20009FEDB70AF0EE408ABDEEE80A10EE100AFB
:102B300040B2FFF73DF90A2008F061F901F03DF8D5
:102B400078EE090AB4EEE00AF1EE10FAC7DCFFF7FE
:102B5000A3F908B0BDEC048B10BD7CB5054600EEB2
:102B6000105AF8EEC00A9FEDA71A80EE810ADFED39
:102B7000A60A20EE200ABDEEC00A10EE100A04B22A
:102B8000604200B292490880604200B248806042D0
:102B900000B28880604200B2C8809CA005F026FC8C
:102BA0008B48B0F900109DA005F020FC8848B0F9D2
:102BB00002109CA005F01AFC8548B0F904109BA0F7
:102BC00005F014FC8248B0F906109AA005F00EFC3E
:102BD0007F48B0F906007E49B1F90410CDE9001034
:102BE0007B48B0F90230B0F900207AA17F4802F0AA
:102BF000C0F97CBD00B52DED108B83B0F0EE40DA4E
:102C0000B0EE608A00F0D9FFB0EE40EAB0EEC80A3C
:102C1000B0EE40BA07F034FFCDEE800AF0EE608AE5
:102C2000F0EE000A9FED850A07F024FCF0EE40BAB2
:102C3000F0EE000A9FED820A07F01CFC3BEE800AD2
:102C4000B0EE40BA07F0E4FFDFED7C0A80EE801AB8
:102C5000F0EE41AAB7EE000AF0EE40EA4FF47A60D7
:102C600009EE900AB5EEC08AF1EE10FA12DDB5EE6B
:102C7000000A38EEC00A80EE28AAB5EE000A38EE47
:102C8000800AC0EE280AB0EE609A29EE2E0AB0EE55
:102C9000409A5FE0B5EEC08AF1EE10FA56D218EE17
:102CA000900A08F069FD41EC1C0BB0EE4C0AF0EE06
:102CB0006C0A07F0D5FBB0EE40BAF0EE60BAB5EEA4
:102CC000000A38EE800A10EE101A084608F054FD8B
:102CD00041EC1F0B53EC1B2B08F0E4F9CDE900018C
:102CE0009DED000B51EC100B08F002F90AEE100AF2
:102CF00018EE900A08F040FD41EC1B0BB0EE4B0AB9
:102D0000F0EE6B0A07F0ACFBB0EE40CAF0EE60CA22
:102D1000B5EE000A38EEC00A10EE101A084608F0A8
:102D20002BFD41EC1F0B53EC1C2B08F0BBF9CDE93C
:102D300000019DED000B51EC100B08F0D9F809EEE5
:102D4000100A2AEE2E0AB0EE40AA03E0B7EE00AA5F
:102D5000B7EE009A3AEE09DA8AEE0D0AB0EE40AA12
:102D600089EE0D0AB0EE409AB8EEE90A2AEE800A22
:102D7000FFEE000A20EE200A20EE090ABDEEC00A8E
:102D800010EE100A00B212490880B8EEE90A2AEEE5
:102D9000800AFFEE000A20EE200A20EE090ABDEEAE
:102DA000C00A10EE100A00B24880B8EEE90A2AEE16
:102DB000800AF7EE000A20EE200A20EE0A0ABDEE95
:102DC000C00A10EE100A00B28880B8EEE90A39E0B5
:102DD000300100200D305625640D315625640D322A
:102DE0005625640D355625640D0000000010014085
:102DF0000000484200000000295C8F3D0000FE42B8
:102E00000000FEC20000004300007A456172675F67
:102E10007370656564733A0A0000000009303A2552
:102E2000640A000009313A25640A000009323A2593
:102E3000640A000009333A25640A00000000FA43DE
:102E4000008022442AEE800AF7EE000A20EE200AD3
:102E500020EE0A0ABDEEC00A10EE100A00B2C880C9
:102E6000AFF2580005F0C2FAFE48B0F90010AFF218
:102E7000540005F0BBFAFB48B0F90210AFF25C0059
:102E800005F0B4FAF748B0F90410AFF2600005F0AD
:102E9000ADFAF448B0F90610AFF2680005F0A6FAF2
:102EA000F048B0F90600EF49B1F90410CDE900107F
:102EB000EC48B0F90230B0F90020AFF2E801EA487E
:102EC00002F057F8B5EEC08AF1EE10FA0ADD00BF45
:102ED00000F073FE78EE0E0AB4EEE00AF1EE10FA9E
:102EE000F6D30EE0B5EEC08AF1EE10FA09D200BFBB
:102EF00000F063FE78EE0E0AB4EEE00AF1EE10FA8E
:102F0000F6DCFEF7C9FF03B0BDEC108B00BD30B599
:102F10002DED068B83B004460D46F0EE000A1FED42
:102F2000390A07F0A7FAF0EE40AAF0EE000A1FED0A
:102F30003C0A07F09FFA3AEE800AB0EE40AA07F08A
:102F400067FE5FED410A80EE801AB0EE419AF0EE26
:102F5000000A1FED460A07F08DFAF0EE40AAF0EEE7
:102F6000000A1FED490A07F085FA3AEE800AB0EE32
:102F700040AA07F04DFE5FED4F0A80EE801AF0EE9A
:102F8000419A00EE104AF8EEC00A1FED621A80EE78
:102F9000810A5FED630A20EE200ABDEEC00A10EE42
:102FA000100A00B208EE100A00EE105AF8EEC00A3D
:102FB0001FED6C1A80EE810A5FED6D0A20EE200A8B
:102FC000BDEEC00A10EE100A00B208EE900AB8EE8C
:102FD000C80A29EE000AF8EEE80A09EEA00AFFEE98
:102FE000000A20EE200ABDEEC00A10EE100A00B260
:102FF0009C490880B1EE490AF8EEC80A20EE200A82
:10300000F8EEE80A09EEA00AFFEE000A20EE200A18
:10301000BDEEC00A10EE100A00B24880B8EEC80A31
:1030200029EE000AF8EEE80A09EEA00AF7EE000A17
:1030300020EE200ABDEEC00A10EE100A00B2888011
:10304000B1EE490AF8EEC80A20EE200AF8EEE80AC6
:1030500009EEA00AF7EE000A20EE200ABDEEC00A33
:1030600010EE100A00B2C880AFF2602005F0BEF981
:103070007C48B0F90010AFF25C2005F0B7F9794850
:10308000B0F90210AFF2642005F0B0F97548B0F95C
:103090000410AFF2682005F0A9F97248B0F90610E3
:1030A000AFF2702005F0A2F96E48B0F906006D4944
:1030B000B1F90410CDE900106A48B0F90230B0F956
:1030C0000020AFF2F021684801F053FF03B0BDECDF
:1030D000068B30BD00B52DED088B89B0F0EE408A2F
:1030E000B0EE609AF5EEC08AF1EE10FA0AD1B5EEB4
:1030F000C09AF1EE10FA05D1FEF7CEFE09B0BDEC94
:10310000088B00BD1FEDC60A8DED050AB7EE000A5B
:103110008DED070A1FEDC90A8DED060A01A801F021
:1031200027FBFEF754FF70EE289AFEF780FF30EE83
:1031300009AAF5EEC08AF1EE10FA5CD1B5EEC09A9C
:10314000F1EE10FA49DD9FED490A3AEE000A8DEDE5
:10315000010A3AE0FEF76BFF8DED020A01A801F0CB
:1031600018FBB0EE408A18EE100A08F005FB41EC9F
:103170001B0B53EC1B2B3EA005F038F9B0EE000AF8
:1031800028EE000AB0EE408A1FEDE40AB4EEC08AD1
:10319000F1EE10FA03DD1FEDE70AB0EE408A1FEDF5
:1031A000E80AB4EEC08AF1EE10FA03D21FEDEC0A81
:1031B000B0EE408ABDEEC80A10EE100A41B20020FF
:1031C000FFF7A5FE0A2007F01AFEFEF730FFB4EE67
:1031D000CA0AF1EE10FABDD379E06FF06301002066
:1031E000FFF795FE00BFFEF722FFB4EECA0AF1EE2C
:1031F00010FAF8DC6BE0B5EEC09AF1EE10FA66D189
:10320000F5EEC08AF1EE10FA54DD9FED180A39EEA2
:10321000800A8DED010A45E0FEF7D9FE8DED020A28
:1032200001A801F0B6FAB0EE408A18EE100A08F0D4
:10323000A3FA41EC1B0B53EC1B2B0DA005F0D6F8A9
:10324000B0EE000A28EE000AB0EE408A9FED090AAF
:10325000B4EEC08AF1EE10FA03DD9FED060AB0EE7F
:10326000408A09E03001002000100140CDCCCC3D67
:1032700025660A000000FE429FED170AB4EEC08AE0
:10328000F1EE10FA03D29FED140AB0EE408A00214D
:10329000BDEEC80A10EE100A40B2FFF738FE0A2051
:1032A00007F0ADFDFEF793FEB4EEE90AF1EE10FA79
:1032B000B2D30CE000216FF06300FFF728FE00BFDF
:1032C000FEF785FEB4EEE90AF1EE10FAF8DCFEF73F
:1032D000E3FD00BF12E700000000FEC210B586B09B
:1032E0000121022003F09EFB0121202003F09AFB24
:1032F00000242DE001208DF8140002208DF8150027
:1033000000208DF8160001208DF81700A64830F82F
:1033100014000490A54951F8240004A902F098FE75
:1033200000208DF8140002208DF8150000208DF883
:10333000160001208DF817009D4830F81400049005
:103340009C4951F8240004A902F082FE601CC4B21A
:10335000022CCFDB0121880403F0BEFB4FF4367052
:1033600002900720ADF804000020ADF80600ADF88B
:103370000C0001A9904803F0E0FF01218E4804F001
:1033800091FC012211468C4804F078FC01218A4806
:1033900004F05CF81A208DF8000000208DF8010080
:1033A0008DF8020001208DF80300684601F0B9FF96
:1033B00006B010BD814A125C3AB100227F4B1A540C
:1033C0007F4A115401227F4B1A54704730B504468E
:1033D0000D4600BF7948005D0028FBD029462046F5
:1033E000FFF7E8FF30BD0146774A505C0022774B7B
:1033F0005A54704710B5044600BF7448005D002859
:10340000FBD02046FFF7EFFF10BD0FB430B5ADF590
:10341000037D0546002488A8019040F2012102A8FE
:10342000019B879A04F0C8FF07E02046621CD4B2D3
:1034300002AA115C2846FFF7C9FFB4F5007F03DA42
:1034400002A8005D0028F0D100200190022007F0C2
:10345000D6FC0DF5037D30BC5DF814FB10B50024DF
:103460009EE05B48005D80B35A48005D401EC0B2DC
:103470005849085500283BD1032008555648005D9F
:10348000401EC0B25449085550B95448005D4E49D9
:10349000085500204E49085501204C49085527E0A1
:1034A0004E48005D40104D490855414A32F814100D
:1034B000404A52F8240002F02DFEC8B14748005D92
:1034C00040F080004549085512E0FFE7384A32F8DD
:1034D0001410384A52F8240002F01CFE40B90120B2
:1034E0003B49085504203B49085509203A490855ED
:1034F0003B48005D401EC0B23949085500284DD1F7
:10350000032008552F48005D002847D03548005D4E
:1035100080B9254A32F81410244A52F824000022B7
:1035200002F016FE2648005D2F49085509202D4956
:10353000085533E02B48005D401EC0B229490855AC
:1035400078B9194A32F81410184A52F824000122A6
:1035500002F0FEFD00201B490855012017490855BF
:103560001CE02148005D00F0010048B10E4A32F82D
:1035700014100E4A52F82400012202F0E9FD08E07E
:10358000094A32F81410094A52F82400002202F0C5
:10359000DFFD1548005D401013490855601CC4B29A
:1035A000022CFFF65EAF10BD380100203C01002068
:1035B000440100204801002000480140640100202F
:1035C000500100206001002052010020660100200F
:1035D000620100205A0100205E01002056010020F7
:1035E000580100205C0100205401002010B5024663
:1035F0000020012105E00002531AF74CE35C184358
:10360000491C0429F7D910BD10B54FF48042F24986
:10361000F24801F058FEF04800780A2806D00A2047
:10362000ED4908700120EE49086012E043F6FF748E
:103630000CE0E948005DFF2807D1601EE649085C00
:103640000A2802D1E648046002E0641E012CF0D88A
:1036500000BF4022E349E448FFF7BDF80120E349F9
:10366000087010BD10B5DD4801F0E3FDFFF7CCFF99
:1036700010BD70B5064600242AE0D748005D0A2830
:1036800006D1D549601C085CFF2801D1002070BD1F
:10369000D148005D0A281AD1002514E06019401CA9
:1036A000CD49085CD24948550846405D3D2809D1BE
:1036B000002048553146CE4805F02EF910B9601962
:1036C000801DE4E76D1CC64800688542E6D3641C93
:1036D000C34800688442D0D30020D8E72DE9F047E2
:1036E00081464FF0000A4846FFF7C3FF05460DB973
:1036F000BDE8F0872846FFF779FF82462E4600E0B6
:10370000761EB548805D0A28FAD105EB0A08A8EBB9
:103710000607444605E0B048005DE11BAE4A505440
:10372000641CAF4800688442F5D3E41B03E0FF202B
:10373000A9490855641CAA4800688442F7D3A848E0
:103740000068C01BA649086000BFD1E72DE9F0471B
:10375000074688461646A548007808B9BDE8F087B0
:103760003846FFF786FF10B13846FFF7B7FF3846F7
:1037700005F080F800F0FF0999480568002404E08E
:10378000385D2919944A5054641C4C45F8D33D20A7
:103790002919914A50542819451C002406E0E000DC
:1037A00026FA00F029198C4A5054641C042CF6D3D4
:1037B0002544002405E018F804002919864A5054CD
:1037C000641CB442F7D30A202919834A505428199B
:1037D000401C8349086000BFC0E710B583480078EB
:1037E00000B910BD7D4801F024FD4FF480427A49B4
:1037F0007A4801F03DFD00BFF3E72DE9F041804636
:103800000D467A48007810B90020BDE8F0814046A6
:10381000FFF72FFF064616B900202870F5E730465F
:10382000FFF7E4FE0746002404E030196A49085C0B
:103830002855641CBC42F8D3002028550120E4E739
:103840002DE9F041A2B00546284605F013F8804660
:1038500000272878722876D006DC632874D0642884
:1038600073D0682872D104E0732870D07728F9D11A
:1038700033E0022407E0285D3D2803D10127002022
:10388000285502E0641C202CF5D300BF0FB30024A0
:1038900004E0601C285C11A90855641C601C285CAD
:1038A0000028F6D1A91C081921AA52A104F01EFF74
:1038B000042221A911A8FFF749FF0020219021A986
:1038C00011A8FFF79AFF11A94CA0219A04F08EFDD0
:1038D00002E051A004F08AFDE2E0012407E0285D47
:1038E0003D2803D101270020285502E0641C202C2C
:1038F000F5D300BF67B3012404E0295D601E11AA5F
:103900001154641C285D0028F7D10021601E11AA03
:103910001154661C002404E03019285C01A90855E4
:10392000641C3019285C0A28F6D1002001A908552A
:1039300001AA11A93CA004F059FD224601A911A831
:10394000FFF704FF08E008E0A0E026E0A4E03DE087
:10395000FFE73AA004F04AFDA2E001240BE0295D54
:10396000601E11AA1154285D0A2803D10021601E8F
:10397000115402E0641C202CF1D300BF01A911A84E
:10398000FFF73BFF28B101AA11A932A004F02EFDD8
:1039900002E032A004F02AFD82E001240BE0295D60
:1039A000601E11AA1154285D0A2803D10021601E4F
:1039B000115402E0641C202CF1D300BF11A8FFF7C2
:1039C0008DFE11A92AA004F011FD69E0FFF705FFA3
:1039D0002BA004F00BFD63E0180700200000020894
:1039E00068010020C8060020080700206C010020A4
:1039F0003847002025333278000000000A6E616DE0
:103A0000653A25730A6865783A30782578207361BD
:103A10007665642E0A0000000A496E76616C69645E
:103A2000206865780A0000000A6E616D653A2573AA
:103A30002C646174613A25730A0000000A57726FA2
:103A40006E6720636F646520746F20777269746598
:103A50000A0000000A25733D25730A000A4B6579A8
:103A6000206E6F7420666F756E642E0A0000000071
:103A70000A25732064656C657465640A00000000A3
:103A80000A73796E6320646F6E650A00FFF7EAFDC2
:103A900012A004F0ABFC03E014A004F0A7FC00BFEC
:103AA00000BF22B0BDE8F08110B500240FE014483B
:103AB00001191448FEF7B1FE1148005D0A2804D12F
:103AC00000210F4A601C115403E0601C84B2402C9A
:103AD000EDDB00BF0A48FFF7B3FE10BD0A444220E9
:103AE000434C454152454421210A00000A556E725B
:103AF00065636F676E6973656420636F64650A0050
:103B000058470020080700200146087800064A7838
:103B100040EA02408A7840EA0220CA78104370479F
:103B200030B52848007828490978884241D125488D
:103B300040782549497888423BD1224880782249FB
:103B40008978884235D11F48C0781F49C978884292
:103B50002FD11C48001DFFF7D7FF05461948083034
:103B6000FFF7D2FF044617480C30FFF7CDFF03469E
:103B7000164805601648046016480360134890ED27
:103B8000000ADFED150A20EE200A80ED000A104839
:103B900090ED000ADFED100A20EE200A80ED000A09
:103BA0000C4890ED000ADFED0C0A20EE200A80EDB3
:103BB000000A084890ED000A30BD084890ED000A60
:103BC000704700007001002030B900088C0100200F
:103BD00090010020940100204DF38E3C9C010020B8
:103BE00070B505460E46F8480078012801D1801EC0
:103BF00070BD0121F54802F0B7FBF54C05E020004F
:103C0000A4F1010401D1801EF2E7F249EF4802F06D
:103C1000C5FC0028F3D0EF49EC4802F0E9FC002293
:103C2000D021EA4802F0B8FBE94C05E02000A4F1FD
:103C3000010401D1C01EDBE7E649491CE34802F05C
:103C4000ADFC0028F2D04FF47A7400BF2000A4F13C
:103C50000104FBD11421DD4802F06AFC1821DB4885
:103C600002F066FC2946D94802F01AFCD84C05E05F
:103C70002000A4F1010401D1001FB9E7D549C91CF6
:103C8000D24802F08BFC0028F2D04FF47A7400BFC7
:103C90002000A4F10104FBD13146CC4802F000FC25
:103CA000CB4C05E02000A4F1010401D1401F9FE7A7
:103CB000C849C91CC54802F071FC0028F2D0012196
:103CC000C24802F05DFB4FF47A7400BF2000A4F1FB
:103CD0000104FBD100BF8BE72DE9F04104462078B9
:103CE000BD490870BD4960680860BD49A0680860AA
:103CF000BC49E06808606078BB4908700020BB4997
:103D00000880B548007800F0010030B1084600880E
:103D1000801D08804320B6490870AF480078C0F382
:103D2000400038B1B1480088801CB049088041206B
:103D3000AF490870A8480078C0F3800070B1AB4864
:103D40000088062802D1C01FBDE8F081A74800887E
:103D5000801DA64908803B20A5490870A548006839
:103D600020F00100A3498839C1F8880000BFA148AC
:103D7000006800F001000028F9D19E48006820F09A
:103D800060609C498839C1F888000846D0F88800EE
:103D900040F00070C1F888000846D0F8880020F094
:103DA000F070C1F888000846D0F8880020F4402060
:103DB000C1F888000846D0F8880040F44030C1F8C7
:103DC00088000846D0F8880020F4C040C1F8880078
:103DD0000846D0F8880020F4C050C1F88800084692
:103DE000D0F8880040F48060C1F888000846D0F818
:103DF000880020F40070C1F888000846D0F88800D8
:103E000020F48070C1F888000846D0F8880020F0BF
:103E1000C000C1F888000846D0F8880020F02000D3
:103E2000C1F888000846D0F8880020F01E00C1F8CC
:103E300088000846D0F8880040F01000C1F88800DB
:103E40006A4800886B49091D086060481030091DE8
:103E50000860694867498839C1F894000846D0F875
:103E60009C0020F08000C1F89C000846D0F89C001F
:103E700040F00400C1F89C000846D0F89C0040F0D7
:103E80000300C1F89C005148001D008840F4805098
:103E90004E49091D08800846008840F400600880EB
:103EA000002505E0002700E07F1C0A2FFCDB6D1CCD
:103EB000B5F57A7FF6DB00216B20FFF791FE00213C
:103EC0001920FFF78DFE06211A20FFF789FE182121
:103ED0001B20FFF785FE01211C20FFF781FE06460F
:103EE000002E01DA30462FE700202DE71FB50446EB
:103EF000029401208DF8000000208DF80100684632
:103F0000FFF7EAFE002004B010BD70B506460D466E
:103F10002D480078012801D1801E70BD01212B4859
:103F200002F022FA2A4C05E02000A4F1010401D19C
:103F3000801EF2E72749254802F030FB0028F3D025
:103F40002449224802F054FB0022D0211F4802F0ED
:103F500023FA1F4C05E02000A4F1010401D1C01E8A
:103F6000DBE71C49491C194802F018FB0028F2D075
:103F70001421164802F0DCFA1821144802F0D8FA8D
:103F80001B480178114802F08BFA114C05E0200023
:103F9000A4F1010401D1001FBFE70E49C91C0B4861
:103FA00002F0FCFA0028F2D00121084802F0E8F9FA
:103FB0000121064802F0D8F9054C1FE02000A4F1C9
:103FC00001041BD1401FA8E7AB01002000540040B2
:103FD00040420F0001000010AC010020CC01002085
:103FE000D0010020D4010020AD010020A801002054
:103FF000AA0100208860024098470020FC49FD4843
:1040000002F0CCFA0028D9D0F949FA4802F0F0FAC7
:104010000122D021F74802F0BFF9F74C05E020005B
:10402000A4F1010401D1801F77E7F149491CF1484F
:1040300002F0B4FA0028F2D00021EE4802F0B4F900
:104040000121EC4802F09CF91421EA4802F070FAD0
:104050001821E84802F06CFAE74C05E02000A4F1D2
:10406000010401D1C01F58E7E1493F31E14802F0A6
:1040700095FA0028F2D0DF4802F014FA28700121E6
:10408000DC4802F091F9002047E770B5DB48006892
:1040900000F0010010B14FF0FF3070BDD84800882B
:1040A000D649091D0860D748D4498839C1F8940019
:1040B0000121D04802F058F9CF4C05E02000A4F1CE
:1040C000010401D1801EE8E7C949CA4802F066FA36
:1040D0000028F3D0C649C74802F08AFA0022D0214E
:1040E000C44802F059F9C44C05E02000A4F10104D1
:1040F00001D1C01ED1E7BE49491CBE4802F04EFAAC
:104100000028F2D01421BB4802F012FA1821B94855
:1041100002F00EFABC480178B64802F0C1F9B64C7C
:1041200005E02000A4F1010401D1001FB5E7B0496A
:10413000C91CB04802F032FA0028F2D00121AD4883
:1041400002F01EF9002505E0002600E0761C642E32
:10415000FCD36D1C0A2DF7D30121A64802F004F907
:10416000A54C05E02000A4F1010401D1401F94E713
:104170009F49A04802F012FA0028F3D09C499D48BC
:1041800002F036FA0122D0219A4802F005F99A4C41
:1041900005E02000A4F1010401D1801F7DE79449CE
:1041A000491C944802F0FAF90028F2D093480068BC
:1041B00040F0010091498839C1F8880000BF8F485C
:1041C000006800F001000028F9D01421894802F0AD
:1041D000AFF91821874802F0ABF900205DE710B570
:1041E000FFF753FF041E01DA204610BD0120874966
:1041F00008700020F9E700208449087000BF7F485C
:10420000006800F001000028F9D170470146032939
:104210000DD07F4830F811007E4A22F811009FED42
:104220007E0A7E4800EB810080ED000A02E06420F7
:104230007B4A1060002070477A4901EB800181EDD4
:10424000000A7047774901EB800191ED000A704741
:1042500075480078704700B503467348007830B958
:104260001846FFF7D3FF01206F49087013E06E482E
:10427000007801280FD1694800EB830090ED000A17
:10428000684800EB830080ED000A00206649087052
:104290001846FFF7BBFF002000BD10B52DED048BC5
:1042A0006249564801F02EFA00287DD0012151487C
:1042B00002F066F84FF08040406A5D490968401A94
:1042C0005B49086008460068002802DA594800681F
:1042D000086057480068574908605548006807F06B
:1042E00039F841EC190B9FED540B53EC102B07F0F0
:1042F0005BF841EC180B06F0FBFD51490860514892
:104300000078C0F3800000285ED03E4840783D49E8
:10431000097840EA012000EE100AB8EEC00A4A48C7
:10432000006880ED000A3748C0783649897840EA4D
:10433000012000EE100AB8EEC00A4348006880ED84
:10434000010A304840792F49097940EA012000EEFE
:10435000100AB8EEC00A3C48006880ED020A3948ED
:104360000078C0F3400000282DD02648C0792549A8
:10437000897940EA012000EE100AB8EEC00A3348FD
:10438000006880ED000A2F48007800F00100002846
:1043900019D01C48407A1B49097A40EA012000B232
:1043A0001B490880174800E0BBE1807A40EA002002
:1043B00000B248801348C07A1249097B40EA0120C4
:1043C00000B21349888080E01E480078C0F34000A6
:1043D000F0B30C4840780B49097840EA012000EE20
:1043E000100AB8EEC00A1948006880ED000A30E0F3
:1043F000010000100054004040420F00886002405D
:10440000A801002098470020AA010020AB0100204D
:10441000C6010020C001002000000000A8470020C5
:10442000BC010020B0010020AE0100200088002067
:10443000D8010020DC010020B345D26EF4310F3FDB
:10444000E0010020AC010020CC010020D4010020BC
:1044500020E0B548007800F00100B0B3B348C07860
:10446000B249897840EA012000B2B1490880AF48DA
:104470004079AE49097940EA012000B2AC49488050
:10448000AA48C079A949897940EA012000B2A8491F
:1044900088801AE0A5484078A449097840EA0120BC
:1044A00000B2A3490880A148C078A049897840EAB1
:1044B000012000B29E4948809C4840799B49097977
:1044C00040EA012000B29A4988809748007800F0BD
:1044D000010000287CD097480068D8B19548006852
:1044E000401E94490860924800889349088090488B
:1044F000408848808E48808888801FED390A8F4820
:1045000080ED000A1FED3C0A80ED010A1FED3E0A16
:1045100080ED020A8648B0F900008749B1F9001021
:10452000401A00EE100AF8EEC00A844890ED000A26
:10453000834890ED001A00EE810A804880ED000A61
:104540007B48B0F902007C49B1F90210401A00EE34
:10455000100AF8EEC00A794890ED010A784890ED0B
:10456000001A00EE810A754880ED010A7048B0F922
:1045700004007149B1F90410401A00EE100AF8EE77
:10458000C00A6E4890ED020A6D4890ED001A00EEE8
:10459000810A6A4880ED020A6A48007820B1012841
:1045A00035D0022832D17BE0674890ED000ADFED7C
:1045B000670A80EE801A614890ED000A21EE000A39
:1045C0006348006880ED000A5F4890ED010A00E052
:1045D0007DE0DFED5E0A80EE801A584890ED010A1A
:1045E00021EE000A5A48006880ED010A564890ED15
:1045F000020ADFED560A80EE801A504890ED020A5A
:1046000021EE000A5248006880ED020A5EE04E4842
:1046100090ED000ADFED4D0A80EE801A474890EDDC
:10462000000A21EE000ADFED4B0A80EE201A9FED12
:104630004A0A21EE000A4648006880ED000A424816
:1046400090ED010ADFED410A80EE801A3B4890EDC3
:10465000010A21EE000ADFED3F0A80EE201A9FEDED
:104660003E0A21EE000A3A48006880ED010A364809
:1046700090ED020ADFED350A80EE801A2F4890EDAA
:10468000020A21EE000ADFED330A80EE201A9FEDC8
:10469000320A21EE000A2E48006880ED020A15E079
:1046A000264890ED000A2A48006880ED000A234859
:1046B00090ED010A2648006880ED010A1F4890ED40
:1046C000020A2348006880ED020A00BF00BF2348A9
:1046D000006820F0010021498839C1F8880000BF36
:1046E0001E48006800F001000028F9D11C491B4851
:1046F00001F032F81B48007810B9BDEC048B10BDF6
:10470000194800881549091D086008481349883967
:10471000C1F89400FFF7B9FC4FF08040406A13499C
:10472000086000BFE9E70000AC01002098470020C6
:10473000C6010020BC010020C0010020A8470020C5
:10474000E0010020AD010020B00100200000344451
:10475000D001002000003443DB0F49408860024054
:1047600000880020AB010020A8010020D801002013
:104770009FED5A0A80ED010A9FED580A80ED020A6A
:104780009FED560A80ED030A9FED540A80ED070A5B
:104790007047002100EE901A90ED021ABDEEC11A8A
:1047A00011EE101A002901DB0A4600E04A4201EE30
:1047B000102AB8EEC11AD0ED001AB7EE082A61EE41
:1047C000821AB4EEE11AF1EE10FA03DD002100EED8
:1047D000901A0AE0012100EE901A90ED071AD0ED30
:1047E000021A31EE211A80ED071A90ED001AD0ED71
:1047F000011A31EE611A80ED021A90ED041AD0ED23
:10480000021A21EE211AD0ED051A90ED072A61EE69
:10481000821AB8EEE02A01EE821AD0ED021A90ED6B
:10482000032A71EEC21A90ED062AB0EE410A02EE9A
:10483000210A90ED021A80ED031A70479FED270AB6
:1048400080ED010A9FED250A80ED030A9FED230A02
:1048500080ED040A9FED210A80ED050A9FED1F0AF5
:1048600080ED090A704790ED000A90ED011A30EED4
:10487000410A80ED030A90ED030A90ED051A30EE2F
:10488000410A90ED061A20EE010A90ED071AD0EDCC
:10489000031A01EE210A90ED031AD0ED051AB0EECD
:1048A000002A02EE611AD0ED041A31EE211AD0ED81
:1048B000081A01EE810AF0EE400A90ED020A30EE8D
:1048C000200A80ED020A90ED050A80ED040A90EDC1
:1048D000030A80ED050A90ED020A7047000000000F
:1048E0009B4880ED000A9B48C0ED000A704700B568
:1048F0002DED068B8BB09FED980A8DED070A9FED8D
:10490000970A8DED090A9FED950A8DED080A1DE1C4
:104910008F4890ED000AB5EEC00AF1EE10FA76DD90
:104920008C4890ED000AB5EEC00AF1EE10FAF6DD03
:10493000FCF739F8F1EE0C0AB4EEE00AF1EE10FAE9
:1049400004DDBBEE040A8DED030A03E0B2EE040AB7
:104950008DED030A7E4890ED000ADFED810A30EE0E
:10496000600A8DED040A03A8FFF713FFF0EE408AFA
:1049700018EE900A06F000FF41EC190B53EC192BCE
:1049800078A003F033FD9FED7A0A28EE808ABFEE0F
:10499000000A28EE000ABDEEC00A10EE100A00B2AE
:1049A00074490880BFEE000A28EE000ABDEEC00A76
:1049B00010EE100A00B24880BFEE000A28EE000A8E
:1049C000BDEEC00A10EE100A00B28880BFEE000AE9
:1049D00028EE000ABDEEC00A10EE100A00B2C88030
:1049E00065A1694800F0C5FA002023E0614931F96A
:1049F000101000290CDD5F4931F9101040F6B83273
:104A0000914215DD11465B4A22F8101010E06EE06D
:104A1000584931F9101000290ADA564931F91010B5
:104A20005A4A914204DA4FF24841524A22F8101091
:104A3000411CC8B20428D9DB4E480088A0F5FA60B2
:104A400000B24C49088008464088A0F5FA6000B2E0
:104A500048800846808800F5FA6000B288800846E1
:104A6000C08800F5FA6000B2C8800846B0F90600B8
:104A7000B1F90410CDE900103E48B0F90230B0F9A8
:104A8000002043A1404800F074FA3248006806F064
:104A900073FE41EC190B2E48006806F06DFE41ECE8
:104AA0001A0B8DED009B53EC1A2B3FA003F09EFCDC
:104AB00042A003F09BFC2F48B0F9001043A003F084
:104AC00095FC2C48B0F9021042A003F08FFC294855
:104AD000B0F9041041A003F089FC2648B0F9061093
:104AE00040A003F083FC1E2006F089F919E0194864
:104AF000006806F041FE41EC190B1548006806F00D
:104B00003BFE41EC1A0B8DED009B53EC1A2B26A0BB
:104B100003F06CFCFDF7C0F900200BB0BDEC068B78
:104B200000BDFBF744FFDFED310AB4EEE00AF1EE21
:104B300010FA0BD2074890ED000ADFED2D0AB4EE13
:104B4000E00AF1EE10FA01D20020E6E7E0E600000C
:104B5000E4010020E80100200AD7233C0000000007
:104B60000000B44270726F75743A25660A00000046
:104B700000007A44300100200D41433130303030A4
:104B80000D44454335300D000010014048F4FFFF4F
:104B90000D305625640D315625640D325625640DB1
:104BA000355625640D000000776C5F783D20256642
:104BB00009776C5F793D2025660A00006172675FA6
:104BC0007370656564733A0A0000000009303A2585
:104BD000640A000009313A25640A000009323A25C6
:104BE000640A000009333A25640A0000DB0FC9BFDC
:104BF0000000484210B588B004460121022001F0AF
:104C000011FF0121102001F067FF07220621F6485D
:104C100001F0A9FA07221146F34801F0A4FAC020D6
:104C2000069002208DF81C0000208DF81D008DF8E4
:104C30001E0001208DF81F0006A9EB4801F008FABC
:104C400002940020ADF80C00ADF80E00ADF8100095
:104C5000ADF814000C20ADF8120002A9E34803F0EF
:104C600078F90121E14803F0FCF9012240F22551D5
:104C7000DE4803F0ACFA25208DF8040003208DF8FF
:104C800005008DF8060001208DF8070001A800F04E
:104C900048FB08B010BD10B588B0044601210820BB
:104CA00001F0C0FE0121480401F005FF07220521A3
:104CB000CF4801F058FA07220621CD4801F053FAF7
:104CC0006020069002208DF81C008DF81D00002049
:104CD0008DF81E0001208DF81F0006A9C44801F0C0
:104CE000B7F902940020ADF80C00ADF80E00ADF855
:104CF0001000ADF814000C20ADF8120002A9BD4858
:104D000003F027F90121BB4803F0ABF9012240F27F
:104D10002551B84803F05BFA26208DF804000220E4
:104D20008DF805008DF8060001208DF8070001A818
:104D300000F0F7FA08B010BD10B588B004460121A4
:104D4000082001F06FFE0121880401F0B4FE072263
:104D50000821A74801F007FA07220921A44801F019
:104D600002FA4FF44070069002208DF81C008DF876
:104D70001D0000208DF81E0001208DF81F0006A9DF
:104D80009B4801F065F902940020ADF80C00ADF8E5
:104D90000E00ADF81000ADF814000C20ADF81200B4
:104DA00002A9954803F0D5F80121934803F059F979
:104DB000012240F22551904803F009FA27208DF88E
:104DC000040002208DF805008DF8060001208DF802
:104DD000070001A800F0A5FA08B010BD10B588B012
:104DE00004460121042001F01DFE0121C80401F048
:104DF00062FE08220A21814801F0B5F908220B2140
:104E00007E4801F0B0F94FF44060069002208DF822
:104E10001C008DF81D0000208DF81E0001208DF86B
:104E20001F0006A9754801F013F902940020ADF89F
:104E30000C00ADF80E00ADF81000ADF814000C2019
:104E4000ADF8120002A96E4803F083F801216C4806
:104E500003F007F9012240F22551694803F0B7F940
:104E600034208DF8040002208DF805008DF806002E
:104E700001208DF8070001A800F053FA08B010BD1A
:104E800010B588B004460121042001F0CBFD0121BA
:104E9000082001F0C7FD0121080501F00CFE0822E1
:104EA0000C21564801F05FF908220221504801F018
:104EB0005AF94FF48050069002208DF81C008DF8AE
:104EC0001D0000208DF81E0001208DF81F0006A98E
:104ED0004A4801F0BDF80420069002208DF81C001D
:104EE0008DF81D0000208DF81E0001208DF81F0098
:104EF00006A93F4801F0ACF802940020ADF80C0080
:104F0000ADF80E00ADF81000ADF814000C20ADF8AF
:104F1000120002A93B4803F01CF80121394803F0B4
:104F2000A0F8012240F22551364803F050F935200F
:104F30008DF8040002208DF805008DF80600012090
:104F40008DF8070001A800F0ECF908B010BD10B50D
:104F500004462046FFF74EFE2046FFF79CFE204603
:104F6000FFF7EAFE2046FFF739FF2046FFF788FFEC
:104F700010BD0FB430B59BB00546002420A80090AA
:104F8000652101A8009B1F9A03F016FA802128468C
:104F900003F04FF90EE000BF8021284603F03CF9F2
:104FA0000028F9D02046621CD4B201AA115C284620
:104FB00003F082F8642C03DA01A8005D0028EAD12E
:104FC000002000901BB030BC5DF814FB00BF7047A0
:104FD00000BF094A128802F04002002AF9D0C2B28A
:104FE000054B1B1D1A807047000402400010014051
:104FF000000C02400044004000480040000802400D
:10500000004C0040005000400948804709480047D4
:10501000FEE7FEE7FEE7FEE7FEE7FEE7FEE7FEE768
:10502000FEE7FEE704480549054A064B70470000C5
:10503000711600088901000818480020188801200E
:10504000184801201848012070B50446254600BFC5
:105050000221564802F04AF80028F9D0E84345EA10
:10506000002081B2514801F0F8FF00BF01214F48F4
:1050700002F03CF80028F9D04C4801F0EBFF05465F
:1050800025EA252000B100E00024204670BD00B5CF
:1050900089B00121022001F0C5FC0121042001F0AA
:1050A000C1FC0121880301F006FD4FF4C0400790C8
:1050B00002208DF8200000208DF8220003208DF8BA
:1050C000210001208DF8230007A9394800F0C0FF16
:1050D0000820079002208DF8200000208DF8220083
:1050E00003208DF8210001208DF8230007A9314805
:1050F00000F0AEFF05220D212D4801F034F8052205
:105100000E212B4801F02FF805220321294801F038
:105110002AF80121880301F023FD00214FF480408B
:1051200001F01EFD0020ADF804004FF48270ADF8D0
:1051300006004FF40070ADF80E008000ADF80800D6
:105140000220ADF80A000120ADF80C003820ADF8BF
:1051500010000020ADF812000720ADF8140001A9DE
:10516000124801F0FFFD0121104801F0F5FE602119
:105170000E4801F0E1FF002260210C4801F094FF8D
:1051800000227121094801F08FFF24208DF81800BA
:1051900004208DF819008DF81A0001208DF81B00ED
:1051A00006A800F0BEF809B000BD000000380040BD
:1051B00000040240000802400146086870470146AA
:1051C0004948814201D2002070474848814201D2BB
:1051D0000820F9E74648814201D21020F4E745480B
:1051E000814201D21820EFE74348814201D22020BA
:1051F000EAE74248814201D22820E5E7404881425F
:1052000001D23020E0E73F48814201D23820DBE77D
:105210003D48814201D24020D6E73C48814201D23C
:105220004820D1E73A48814201D25020CCE75820AB
:10523000CAE770B50446B4F1006F02D304F003006E
:1052400000B170BD00F072FB002000F052FB31484D
:10525000844206D22046FFF7B2FF0546022100F045
:10526000B9FB012000F045FB00F06DFB00BFE8E753
:105270002DE9F04104460D461646092704EB960831
:10528000B4F1006F02D304F0030008B1BDE8F0816F
:1052900000F04CFB002000F02CFB092F0CD108E0A3
:1052A0002046296800F0AFFC092800D003E0241D47
:1052B0002D1D4445F4D300BF012000F01AFB00F07F
:1052C00042FB00BFE2E730B503460C46154600221C
:1052D00006E01846FFF770FF44F822001B1D521C21
:1052E000AA42F6D330BD000000400008008000084C
:1052F00000C00008000001080000020800000408C7
:10530000000006080000080800000A0800000C0859
:1053100000000E080000FF1F32490143324A1160AD
:10532000704770B5002100230F22C4781CB32E4CA7
:10533000246804F4E064C4F5E064C4F30721C1F117
:105340000404E3B20A4144789C40E1B284781440FA
:1053500021430C07210E254C05786155047804F093
:105360001F050124AC4005786D11AD0005F1E02565
:10537000C5F8004109E0047804F01F050124AC40A1
:105380001B4D0678761145F8264070BD194A0A4033
:105390000243154B1B1F1A60704739B1124A121D88
:1053A00012680243104B1B1D1A6006E00E4A121DC4
:1053B000126882430C4B1B1D1A607047042808D1E9
:1053C0004FF0E021096941F004014FF0E022116142
:1053D00007E04FF0E021096921F004014FF0E022DD
:1053E000116170470000FA050CED00E000E400E0F8
:1053F00080E100E080FFFF1F016821F001010160F2
:105400000021016041608160C16001612121416131
:10541000DB49884204D13D21D94A103A91608CE0A1
:10542000D7491831884205D14FF47461D44A103AF3
:10543000916082E0D2493031884205D14FF4741135
:10544000CF4A103A916078E0CD494831884205D181
:105450004FF07461CA4A103A91606EE0C8496031F9
:10546000884204D1C749C64A103AD16065E0C449B0
:105470007831884204D1C449C14A103AD1605CE015
:10548000BF499031884204D1C049BD4A103AD16029
:1054900053E0BB49A831884205D14FF03D51B84A8D
:1054A000103AD16049E0BA49884204D13D21B84A56
:1054B000083A116041E0B6491831884205D14FF4ED
:1054C0007461B34A083A116037E0B149303188421B
:1054D00005D14FF47411AE4A083A11602DE0AC4981
:1054E0004831884205D14FF07461A94A083A1160E9
:1054F00023E0A7496031884204D1A249A44A121F7F
:1055000011601AE0A2497831884204D19E49A04A2C
:10551000121F116011E09E499031884204D19B49CD
:105520009B4A121F116008E09949A831884204D1B2
:105530004FF03D51964A121F1160704710B500227E
:105540000268944B1A40CC680B6823434C69234390
:105550008C692343CC6923430C6A23434C6A23435D
:105560008C6A23434C6B23438C6B23431A430260A6
:10557000426922F00702D1E90B3423431A43426106
:105580000B6943604B6883608B68C36010BD00216A
:10559000016041608160C160016141618161C161FF
:1055A000016241628162C16201634163816370474C
:1055B00021B1026842F00102026003E0026822F0B9
:1055C00001020260704721B1026842F400420260A9
:1055D00003E0026822F400420260704721B10268D1
:1055E00042F02002026003E0026822F02002026022
:1055F0007047416070470146486880B2704722B1E9
:10560000036843F40023036003E0036823F40023EA
:1056100003600161704721B1026842F48022026098
:1056200003E0026822F48022026070470AB101613F
:1056300000E0C1607047014600200A6802F40022C1
:105640000AB1012000E000207047014600200A68EE
:1056500002F001020AB1012000E00020704701467B
:1056600000204A6902F03800704730B503460A4608
:1056700000200024464DAB4202D24149103901E0DE
:105680004349103902F000550DB14C6800E00C6838
:10569000414D2C4004EA02050DB1012000E000203C
:1056A00030BD02463A4B9A4202D23548103801E0EA
:1056B0003748103801F000531BB1374B0B40C36023
:1056C00002E0354B0B408360704710B501F080035A
:1056D0004BB122B1436943F08003436103E0436966
:1056E00023F08003436180290BD02AB1036801F0C5
:1056F0001E042343036004E0036801F01E04A34377
:10570000036010BD70B50246002000240025204E25
:10571000B24202D21A4B103B01E01D4B103B1F4E10
:105720000E4036B11E2606EAD124166806EA0405A4
:1057300002E0566906F0800501F000560EB15C6883
:1057400000E01C68144E344004EA010616B10DB1A5
:10575000012000E0002070BD02460D4B9A4202D2AB
:105760000748103801E00A48103801F000531BB117
:10577000094B0B40C36002E0074B0B40836070474E
:10578000106002403D000020400F002000003D203E
:10579000106402403F801CF07D0F7D0F3C0F3C0FDA
:1057A000002041490860091D0860091D0860091DA5
:1057B00008603E483C4914310860704700213A496E
:1057C0008279002A3AD00A46126803689A430B4647
:1057D0001A600A1D126803689A430B1D1A60027949
:1057E00011440A6803681A430A602F4A0832126893
:1057F00003689A432C4B08331A601A1D1268036819
:105800009A43294B0C331A604279102A0ED11A1F81
:10581000126803681A43244B08331A601A1D126871
:1058200003681A43204B0C331A600DE01E4942797D
:1058300011440A6803681A430A6005E002791144BA
:105840000A6803689A430A60704700210160017189
:105850000C21417100218171704713491031096891
:105860000143114A103211607047014600200E4A70
:10587000143212680A400AB1012000E0002070478B
:10588000094914310860704701460020064A143265
:1058900012680A400AB1012000E000207047024966
:1058A0001431086070470000003C0140FFFF7F009A
:1058B000FE4A1070704730B1FC49096841F48071AC
:1058C000FA4A116005E0F949096821F48071F74A44
:1058D0001160704730B1F549096841F40071F34A2D
:1058E000116005E0F149096821F40071EF4A116087
:1058F000704730B1ED49096841F48061EB4A1160AD
:1059000005E0EA49096821F48061E84A11607047BE
:10591000E648006840F40060E44908607047E348E6
:10592000006840F48050E14908607047DF4810305B
:10593000006800F0004028B1DD48DC49091D08601E
:10594000DC4808607047D9481030006840F00040DB
:10595000D6491031086070470920D4490C310968D4
:1059600001F48031B1F5803F01D1012020E0CF4921
:105970000C31096801F0100109B1062018E0CB498B
:105980000C31096801F4807109B1022010E0C749A7
:105990000C31096801F0EF0109B1072008E0C349A3
:1059A0000C31096801F0020109B1082000E009206A
:1059B000704708B509200090FFF7CEFF009002E085
:1059C000FFF7CAFF00909DF800000128F8D09DF86D
:1059D000000008BD70B504460A460026092502B934
:1059E00009E0012A01D1160205E0022A01D11602BE
:1059F00001E04FF44076FFF7DCFF0546092D2DD17D
:105A0000AA481030006820F44070A849103108609E
:105A100008460068304308600846006820F0F80037
:105A200008600846006844F0020108439F491031AD
:105A300008600846006840F480300860FFF7B9FF4E
:105A400005469A481030006820F00200974910314E
:105A500008600846006820F0F8000860284670BD1D
:105A600030B5024600250924FFF7A3FF044602B91A
:105A700009E0012A01D1150205E0022A01D115022F
:105A800001E04FF44075092C20D18848103000689F
:105A900020F44070854910310860084600682843AA
:105AA00008600846006840F0040008600846006886
:105AB00040F480300860FFF77CFF04467B481030DC
:105AC000006820F00400794910310860204630BD9C
:105AD00030B5024600250924FFF76BFF044602B9E2
