:020000040800F2
:10000000C88201201D2D00083503000837030008B1
:100010003B0300083F030008430300080000000002
:10002000000000000000000000000000470300087E
:1000300049030008000000004B0300084D030008BE
:10004000372D0008372D0008372D0008372D000800
:10005000372D0008372D00085F0600088F060008BE
:1000600035060008372D0008372D0008372D000809
:10007000372D0008372D0008372D0008372D0008D0
:10008000372D0008372D0008372D0008372D0008C0
:10009000372D0008372D0008372D0008BF05000850
:1000A000372D000835040008DF040008372D00084C
:1000B000372D0008372D0008372D0008372D000890
:1000C000372D0008372D0008372D0008372D000880
:1000D0004F0300085B0300087B0300089B03000834
:1000E00003060008372D0008372D0008372D0008BB
:1000F000A50500084B040008372D0008372D00081F
:10010000372D0008372D0008372D0008372D00083F
:1001100015040008372D000861040008F9040008E0
:10012000372D0008372D0008372D0008372D00081F
:10013000372D0008372D0008372D0008372D00080F
:10014000372D0008372D0008372D0008372D0008FF
:10015000372D0008372D0008372D0008372D0008EF
:10016000372D0008372D0008372D0008372D0008DF
:10017000372D0008372D0008372D0008372D0008CF
:10018000372D0008372D000800F002F800F092F833
:100190000AA090E8000C82448344AAF10107DA45E2
:1001A00001D100F087F8AFF2090EBAE80F0013F0A2
:1001B000010F18BFFB1A43F00103184730A00000DD
:1001C00050A00000103A24BF78C878C1FAD852076E
:1001D00024BF30C830C144BF04680C6070470000C1
:1001E0000023002400250026103A28BF78C1FBD840
:1001F000520728BF30C148BF0B6070476E2905F019
:10020000F586702905F02D84662909F0AC856529ED
:1002100009F0A985672909F0A685612909F0A58556
:1002200003681B0A28BF41F08001692905F09E83FD
:10023000642905F09B83752905F098836F2906F0E2
:100240000382782905F0F983E92906F09D81E429E4
:1002500006F09A81F52906F09781EF2906F00082D1
:10026000F82905F0F8830368DB0928BF41F0800115
:10027000632906F00C81732906F01181E32906F049
:100280005B84F32906F06084002070471FB509F0F5
:1002900060FD06F033FA04000020002108F024FF7E
:1002A000401C60600020002108F008FFE0601FBDD6
:1002B00010B510BD06F09CFE1146FFF7E7FF00F0F9
:1002C00009F806F0C3FE03B4FFF7F2FF03BC02F027
:1002D00007FD000005F08AFA05F0C6FA02F0B4F84E
:1002E00000F0BBFE4FF4E13002F0BBFC02F059FD20
:1002F00001F072FE01F0C0F900F0E6FF01F017F91D
:1003000001F082FA00F0C2FB02F05FF803A005F0F2
:10031000F7FA01E000F04EFEFCE700000A0A456E25
:10032000746572696E67206D61696E206C6F6F70A5
:100330000A0A0000704700BFFEE700BFFEE700BFEB
:10034000FEE700BFFEE7704770477047704710B583
:100350006021DB4804F07AF910BD10B540F2255158
:10036000D84805F0F9F938B1D64805F033F9044614
:100370002146D54805F02AF910BD10B540F22551A7
:10038000D24805F0E9F938B1D04805F023F9044620
:100390002146CD4805F01AF910BD38B540F2255177
:1003A000C94805F0D9F9002833D0C74805F012F93B
:1003B000C4B22146C64801F0F1F90A2C02D0232C20
:1003C0001AD115E0C348007848B10020C14908702F
:1003D0002146C14801F0E2F902F078FA07E000BFD7
:1003E0006946BD4801F0F3F9B0F1FF3FF8D10BE0E9
:1003F0000120B849087007E0B648007818B12146D6
:10040000B54801F0CBF900BF00BF2146AE4805F06A
:10041000DDF838BD10B540F22551B04805F09CF923
:1004200038B1AE4805F0D6F804462146AB4805F091
:10043000CDF810BD10B50121A94804F0C0FE18B1D7
:100440000121A74804F0CCFE10BD10B50121A5483C
:1004500004F0B5FE18B10121A24804F0C1FE10BDA0
:1004600010B50121A04804F0AAFEB8B300242FE083
:100470009E4830F81400401C9C4921F8140008469E
:1004800030F814009A4951F8241088421ED9974830
:1004900030F81400974951F82410884209D2964A3E
:1004A00032F81410954A52F82400002203F006FB9B
:1004B0000CE0914A32F81410904A52F824000122BC
:1004C00003F0FCFA0020894921F81400601CC4B232
:1004D000052CCDDB0121844804F082FE10BD10B54F
:1004E0000121874804F06BFE28B101F031FE0121A3
:1004F000834804F075FE10BD10B50121814804F059
:100500005EFE00284DD001217E4804F069FE7E4841
:1005100004F0EAF9A0F57A607C49096808447B494F
:1005200008604FF47A6078494862794804F0DCF951
:10053000A0F57A60774909680844764908604FF465
:100540007A60734924310860734804F0CDF9A0F54E
:100550007A60724909680844704908604FF47A600B
:100560006D49243108606E4804F0BEF9A0F57A6048
:100570006C49096808446B4908604FF47A6068491F
:1005800024310860684804F0AFF9A0F57A60674943
:1005900009680844654908604FF47A60624924316B
:1005A000086010BD10B50121614804F008FE28B1B3
:1005B00001215F4804F014FE03F0CDFA10BD10B520
:1005C0000A2008F0EAFC4FF4807002F013FE0128C4
:1005D00012D10102574803F053FA68B9564800781F
:1005E000401C5549087008460078022801D101F0E6
:1005F00001F852A005F084F94FF4807002F005FE76
:1006000010BD10B50A2008F0C8FC4FF4006002F0DD
:10061000F1FD01280DD1C1024E4803F031FA20B995
:1006200000F0E8FF45A005F06BF94FF4006002F020
:10063000ECFD10BD10B50A2008F0AFFC04214648BF
:1006400003F01EFA38B945A005F05AF901F058F840
:1006500046A005F055F9042002F0D7FD10BD10B5F5
:100660000A2008F09AFC01213A4803F009FA01280F
:1006700001D1414908700121364803F001FA10B94F
:1006800000203D490870012002F0BFFD10BD10B5EB
:100690000A2008F082FC02212E4803F0F1F901281B
:1006A00001D13549087002212A4803F0E9F910B94F
:1006B000002031490870022002F0A7FD10BD0000A3
:1006C0000038004000100140004800400044004055
:1006D0008801002000000020D8010020004C0040CC
:1006E00000440140002000400010004014010020A0
:1006F00020010020340100201800002024000020E8
:100700000048014000140040000001404800002063
:100710000004004040000020000800403800002095
:10072000000C00403C000020000401404C00002070
:10073000001C004000100240010000200A73746F8A
:10074000705F66616E5F75705F646F776E28290AEF
:100750000000000000140240000002400A6D6167C2
:100760005F75705F73746F7028290A000A6D616786
:100770005F696E28290A00008C0000200CB500205B
:10078000019000907648006840F480307449086019
:1007900000BF7348006800F4003000900198401CCE
:1007A0000190009818B90198B0F5A04FF1D16C48AC
:1007B000006800F4003010B10120009001E000203A
:1007C00000900098012846D165484030006840F00C
:1007D00080506349403108606248006840F44040FE
:1007E000604908605E48083000685D49083108606B
:1007F0000846006840F4004008600846006840F47D
:10080000A05008605848091F0860081F006840F0A1
:100810008070091F086000BF5148006800F0007038
:100820000028F9D040F20570504908604C48083063
:10083000006820F003004A49083108600846006853
:1008400040F00200086000BF45480830006800F032
:100850000C000828F8D10CBD10B54548006840F4DC
:100860007000434908603E48006840F001003C4980
:10087000086000203A4908310860394800683D495D
:100880000840374908603C48091D0860081F006897
:1008900020F48020091F0860002031490C310860D5
:1008A000FFF76CFF4FF0006031498039086010BDE0
:1008B00070B500200022022300240221284D0835B3
:1008C0002D6805F00C0020B1042806D0082834D18A
:1008D00007E02A4D2A4E356033E02A4D284E356018
:1008E0002FE01F4D2D1D2D68C5F380541C4D2D1D6F
:1008F0002D6805F03F0154B1224DB5FBF1F5184EBE
:10090000361D3668C6F3881605FB06F209E01B4D56
:10091000B5FBF1F5124E361D3668C6F3881605FB99
:1009200006F20F4D2D1D2D68C5F301456D1C6B00A2
:10093000B2FBF3F5124E356003E0104D104E3560FA
:1009400000BF00BF064D08352D68C5F303150E4ED8
:10095000705D0B4D2D68C540094E356070BD0000BF
:10096000003802400070004008544007003C02403C
:1009700088ED00E0FFFFF6FE103000240024F400B4
:100980000400002000127A000800002010B50121A8
:10099000084603F0D1FA0121042003F0CDFA012129
:1009A000402003F0C9FA10BD6E4A52F8202000EE34
:1009B000902AB8EE601A6C4A52F8202000EE902A75
:1009C000F8EE600AC1EE201AB0EE610A674AB2FB87
:1009D000F1F2654B43F820201A4652F8202000EE31
:1009E000902AF8EE600A60EE800AFCEEE00A10EE53
:1009F000902A5C4B43F82020704730B50546002410
:100A000006E055F824102046FFF7CEFF601CC4B264
:100A1000052CF6DB30BD544951F8201000EE901A39
:100A2000F8EE600A60EE800AFCEEE00A10EE901A22
:100A30004C4A42F82010704770B50546002422E069
:100A400005EB840090ED000AB5EEC00AF1EE10FA55
:100A500014DB05EB840090ED000AF7EE000AB4EE1B
:100A6000E00AF1EE10FA09D805EB8400D0ED000A97
:100A7000B0EE600A2046FFF7CEFF02E03CA004F093
:100A80003FFF601CC4B2052CDADB70BD10B590B01E
:100A900014223B490BA805F096F914223849143169
:100AA00006A805F090F9FFF771FF01208DF81400FA
:100AB00002208DF8150000208DF8160001208DF819
:100AC000170000240BE02F4830F8140004902E4942
:100AD00051F8240004A902F071FF601CC4B2052C77
:100AE000F1DB00240AE042F210701F4941F82400B3
:100AF00040101C4941F82400601CC4B2052CF2DBF4
:100B00000BA8FFF799FF06A8FFF777FF0121102038
:100B100003F05BFA132002905320ADF8040000208C
:100B2000ADF80600ADF80C0001A9184803F08FFEDF
:100B300001221146154804F02BFB0121134803F054
:100B40000FFF36208DF8000000208DF801008DF891
:100B5000020001208DF80300684602F06CFA10B024
:100B600010BD00002001002034010020A0860100FB
:100B700057726F6E672044757479210A0000000077
:100B8000609E000818000020240000200010004093
:100B90000146484830F91100704710B546A1474852
:100BA00002F071F80A2008F0F8F910BD10B50446FB
:100BB000214643A004F0A4FE204600F002FF10BD31
:100BC00010B52DED028BB0EE408AF0EE608AF0EEAB
:100BD000680AB0EE480A00F041FFBDEC028B10BD80
:100BE00070B504460D462A46214639A004F088FE19
:100BF0002946204601F008F970BD10B52DED048B93
:100C0000B0EE408A18EE100A09F032F841EC190BE8
:100C100053EC192B33A004F073FEBDEC048B10BD14
:100C2000704710B52DED048BB0EE408A18EE100A17
:100C300009F01EF841EC190B53EC192B2DA004F010
:100C40005FFEBDEC048B10BD704710B50A2008F0A4
:100C5000A4F910BD10B52BA1184802F014F801201A
:100C600008F09BF92AA1154802F00DF8012008F0C0
:100C700094F910BD10B529A1104802F004F8012024
:100C800008F08BF928A10D4801F0FDFF012008F0C4
:100C900084F910BD10B527A1084801F0F4FF012028
:100CA00008F07BF925A1054801F0EDFF012008F0CF
:100CB00074F910BDBC00002056300D00001001403A
:100CC0000D6F746174655F63282564290A00000054
:100CD0000A6D6F76655F78795F632825642C20251F
:100CE00064290A000A6D6F76655F78282566290AEF
:100CF000000000000A6D6F76655F79282566290A75
:100D0000000000000D34562D383030300D0000004A
:100D10000D3356383030300D000000000D345631A0
:100D20003030300D000000000D33562D31303030A2
:100D30000D0000000D3456300D0000000D3356300C
:100D40000D00000070B52DED028B86B005A9C648D8
:100D500000F03DFD002004900390002600259DF842
:100D6000140011287DD00BDC22D2DFE800F021B482
:100D7000B7BDC0B1C3C6C9BACC2121212121A7006A
:100D800022286FD00CDC142813D004DC12286AD07F
:100D900013280DD1F9E0202827D0212808D139E0E7
:100DA00040284CD0412862D0422874D0432873D0C8
:100DB000FAE004A9AC4800F00AFD9DF8100030B13B
:100DC000012807D0022808D0032809D00BE000F042
:100DD000ACFC08E000F094FC05E000F098FC02E0B8
:100DE00000F09CFC00BF00BFDEE004A99E4800F0BC
:100DF000EEFC9DF810604FF6FF7000EA062604A98D
:100E0000994800F0E4FC9DF81000064330B2FFF76B
:100E10001BFFC9E004A9944800F0D9FC9DF81060BC
:100E20004FF6FF7000EA062604A98F4800F0CFFCB9
:100E30009DF81000064330B2FFF7F2FEB4E0002444
:100E400009E004A9884800F0C2FC2D029DF81000BA
:100E50000543601CC4B2042CF3DB01959DED010A2F
:100E600002E083E019E08BE0FFF7DBFE9CE000246A
:100E700009E004A97C4800F0AAFC2D029DF81000AE
:100E80000543601CC4B2042CF3DB02959DED020AFD
:100E9000FFF7B3FE88E039E04DE004A9724800F0A6
:100EA00096FC03A9704800F092FC9DF80C0041B23A
:100EB0009DF8100040B2FFF793FE75E004A96A4860
:100EC00000F085FC9DF8100040B2FFF76FFE6BE06C
:100ED000FFF7BBFE68E0FFF760FE65E0FFF7BAFED4
:100EE00062E0FFF7C7FE5FE0FFF7D4FE5CE000F0D2
:100EF00077FB59E000F091FB56E000F085FB53E0F2
:100F000000F095FB50E008F0CDF84DE000240AE039
:100F100004A9554800F05BFCE1009DF810008840F2
:100F20000543601CC4B2042CF2DB00959DED000A61
:100F300000F01EFB38E000240AE004A94A4800F053
:100F400046FCE1009DF8100088400543601CC4B2D7
:100F5000042CF2DB0095009808F08AFE41EC180B97
:100F600053EC182B41A004F0CBFC1DE004A93E4833
:100F700000F02DFC9DF8100040B200F01DFB13E0C6
:100F800004A9394800F023FC0EE004A9364800F01B
:100F90001EFC00219DF8100000F0C1FC01219DF80D
:100FA000100000F0BCFC00BF00BF002006B0BDEC8C
:100FB000028B70BDF8B5002000902B488089002876
:100FC00048DD29484068401C2749C989B0FBF1F237
:100FD00001FB120524480068475D3E1107F00F072A
:100FE00021488189B01C814231DB002410E028199E
:100FF0001D49C989B0FBF1F201FB12001A490968C9
:10100000085C9DF800100844C0B20090601C84B2D7
:10101000B442ECDD28191449C989B0FBF1F201FB97
:10102000120011490968085C9DF80010884207D138
:10103000FFF788FE69460C4800F0C9FB0020F8BDA8
:101040006946094800F0C3FB6FF00200F7E76FF054
:101050000100F4E74FF0FF30F1E710B540220749F7
:10106000014800F092FB10BD8801002066616E5FB0
:101070006B6F77746F77282566290A004801002076
:101080001CB5DC480068DC490968CDE90010DB4884
:101090000368DB480268DB480168DBA004F030FC31
:1010A0001CBD10B52DED0A8BD448006808F084FAF9
:1010B00041EC1C0B9FEDD90B53EC102B08F024F9DD
:1010C00041EC1B0B9FEDD70B53EC102B08F0DAFA19
:1010D00041EC1A0B9FEDD50B53EC102B08F0D2FA14
:1010E00041EC190B9FEDD30B53EC102B08F0CAFA0F
:1010F00041EC180B08F01AF800EE100ABDEC0A8B50
:1011000010BD10B52DED0A8BBB48006808F054FAED
:1011100041EC1C0B9FEDC10B53EC102B08F0F4F8C5
:1011200041EC1B0B9FEDBF0B53EC102B08F0AAFA00
:1011300041EC1A0B9FEDBD0B53EC102B08F0A2FAFB
:1011400041EC190B9FEDBD0B53EC102B08F09AFAF4
:1011500041EC180B07F0EAFF00EE100ABDEC0A8B19
:1011600010BD10B52DED088BA548006808F024FAD5
:1011700041EC1B0B9FEDA90B53EC102B08F0C4F8AE
:1011800041EC1A0B9FEDA90B53EC102B08F07AFAE7
:1011900041EC190B9FEDA90B53EC102B08F072FAE0
:1011A00041EC180B07F0C2FF00EE100ABDEC088BF3
:1011B00010BD10B52DED0A8B9248006808F0FCF9BF
:1011C00041EC1C0B9FED950B53EC102B08F09CF899
:1011D00041EC1B0B9FED930B53EC102B08F052FAD4
:1011E00041EC1A0B9FED910B53EC102B08F04AFACF
:1011F00041EC190B9FED8F0B53EC102B08F042FACA
:1012000041EC180B07F092FF00EE100ABDEC0A8BC0
:1012100010BD10B52DED0A8B7648006808F0CCF9AA
:1012200041EC1C0B9FED7D0B53EC102B08F06CF880
:1012300041EC1B0B9FED7B0B53EC102B08F022FABB
:1012400041EC1A0B9FED790B53EC102B08F01AFAB6
:1012500041EC190B9FED770B53EC102B08F012FAB1
:1012600041EC180B07F062FF00EE100ABDEC0A8B90
:1012700010BD1FB50121202002F0A7FEA720ADF868
:10128000040040F2E73002900020ADF80C00ADF809
:10129000060001A96B4803F0DAFA012211466948F9
:1012A00003F076FF0121674803F05AFB37208DF8E1
:1012B000000001208DF801008DF802008DF8030078
:1012C000684601F0B8FE1FBD10B588B00121084680
:1012D00002F08CFE002407E05B4951F82400012154
:1012E00002F073FE601C44B2032CF5DB01210220E6
:1012F00002F07CFE002407E0544951F8240001214B
:1013000002F01AFE601C44B2052CF5DB00240BE051
:101310004F4B1A5D4F4B33F814104F4B53F82400CA
:1013200002F0D7FB601C44B20A2CF1DB02208DF8DE
:101330001C0000208DF81D008DF81E0001208DF886
:101340001F0000240BE0454830F814000690424985
:1013500051F8240006A902F031FB601C44B20A2CAB
:10136000F1DB0020ADF80C0047F22F500490002074
:10137000ADF81400ADF80E00684603F076FE0620C6
:10138000ADF8080000242EE0354951F8240003A9E7
:1013900003F05DFA324951F8240000231A46032174
:1013A00003F0C9FF2E4951F82400694603F026FED8
:1013B0004FF47A602A4951F824104862284951F8BC
:1013C0002400012103F0F8FE254951F824000122F0
:1013D000114603F0DDFE224951F82400012103F0FB
:1013E000BFFA601C44B2052CCEDBFFF742FF08B009
:1013F00010BD00004C0000203C0000203800002000
:1014000040000020480000200D0A256409256409D9
:1014100025640925640925640A0000000000000015
:1014200000409F40000000E051B8BE3F0000006057
:10143000FB210940000000000000F03F0000000018
:101440000000F0BF00140040889E00089C9E000829
:10145000C49E0008B09E000850000020CE9E0008E8
:10146000780000201CB5002407E0354951F824001D
:10147000012102F061FD601CC4B2022CF5DB0020EA
:101480008DF804008DF8050001208DF80700002478
:101490000BE02C4830F8140000902B4951F8240040
:1014A000694602F08BFA601CC4B2022CF1DB1CBD51
:1014B0001CB50121880302F099FD002407E0234AAE
:1014C000115D234A105D03F0DCF8601CC4B2022CED
:1014D000F5DB00208DF8040010208DF805000120B8
:1014E0008DF80600002408E01A4850F82400009007
:1014F000684601F019FE601CC4B2022CF4DB1CBD6E
:1015000038B504208DF801008DF8020001208DF817
:101510000300002408E01048005D8DF800006846D4
:1015200001F089FD601CC4B2022CF4DB38BD10B59B
:10153000FFF798FFFFF7BCFFFFF7E2FF10BD0000C9
:10154000E49E0008EC9E000890000020F29E000837
:10155000F09E0008F49E0008FC9E000810B59FED68
:10156000380A0020FFF757FA01203649087010BDED
:1015700010B52DED048BB0EE408A9FED330A28EEB6
:10158000000A9FED321AC0EE010A9FED310A30EEDB
:10159000600AF0EE408A0220FFF73DFA18EE100ACA
:1015A00008F066FB41EC190B53EC192B29A004F051
:1015B000A7F9BDEC048B10BD10B504462948D0ED49
:1015C000000A00EE104AB8EEC00A9FED271A40EE5E
:1015D000010AC0ED000A90ED000AFFF7C9FF10BD37
:1015E00010B5002000F07EF89FED200A0120FFF7E3
:1015F00012FA10BD10B59FED1E0A0120FFF70BFA7D
:10160000002000F065F810BD10B5FFF7E9FF3220AB
:1016100007F0C3FCFFF7EEFF10BD10B5002000F08F
:1016200061F89FED140A0120FFF7F5F910BD10B520
:10163000FFF7F3FF322007F0B0FCFFF7DBFF10BD30
:10164000B81E853D980000208FC2753DDB0FC93F55
:10165000295C0F3E0A66616E5F726F6C6C282566AE
:10166000290A00009C000020CDCCCC3D2506813D00
:101670007368913D508D973D1CB50121402002F0CB
:101680005BFC01208DF8040000208DF805008DF82A
:10169000060001208DF80700002409E0164830F804
:1016A000140000906946154802F088F9601CC4B225
:1016B000032CF3DB002408E00F4830F8141001225B
:1016C0000E4802F0FBF9601CC4B2012CF4DB1CBD17
:1016D00010B50446084830F814100122074802F0FB
:1016E000EDF910BD10B50446034830F8141000227F
:1016F000024802F0E3F910BDA000002000180240EB
:1017000010B59FED0D0A0320FFF785F910BD10B548
:101710009FED0A0A0320FFF77EF910BD10B59FED7B
:10172000080A0420FFF777F910BD10B59FED050AF0
:101730000420FFF770F910BDCDCCCC3D8FC2F53C35
:10174000E7FBA93D4260653D10B52DED048B0446D5
:10175000B4F5004F0DDB204607F045FF41EC190BB7
:101760009FED270B53EC102B08F098F941EC180B68
:1017700004E0204607F020FF41EC180BB0EE480AC9
:10178000F0EE680ABDEC048B10BD03461960501ED4
:101790009860586000209881DA81704710B5024641
:1017A0009089D389984202D14FF0FF3010BD9068E4
:1017B000401CD389B0FBF3F403FB140090609368E2
:1017C0001068C1549089401C90810020EEE710B54C
:1017D0000246908910B94FF0FF3010BD5068401C90
:1017E000D389B0FBF3F403FB14005060D2E900038B
:1017F000C05C08709089401E90810020EDE70000D9
:10180000000000000000F0401CB50121102002F093
:1018100093FB0121402002F08FFB002416E0584882
:1018200030F81400009001208DF8040000208DF89D
:1018300005008DF8060001208DF80700514951F888
:101840002400694602F0BAF8601CC4B2042CE6DB3E
:1018500000240AE04A4A32F814104A4A52F8240096
:10186000002202F02BF9601CC4B2042CF2DB1CBD78
:1018700070B505460C4625B1012D1BD0FF2D4BD16F
:1018800031E062003E4B33F8121062003D4B53F8DA
:101890002200012202F012F96200521C384B33F888
:1018A00012106200521C374B53F82200002202F043
:1018B00005F932E06200324B33F812106200314B0E
:1018C00053F82200002202F0F9F86200521C2C4B5F
:1018D00033F812106200521C2A4B53F822000122E6
:1018E00002F0ECF819E06200254B33F812106200A8
:1018F000244B53F82200002202F0E0F86200521C50
:101900001F4B33F812106200521C1E4B53F822007A
:10191000002202F0D3F800E000BF00BF70BD70B538
:1019200005460C4625B1012D10D0FF2D21D11BE01D
:1019300021460020FFF79CFF012C03D1C82007F0AF
:101940002CFB02E0282007F028FB13E021460120B1
:10195000FFF78EFF012C03D1C82007F01EFB02E029
:10196000282007F01AFB05E02146FF20FFF780FF43
:1019700000E000BF00BF2146FF20FFF779FF70BDE8
:10198000A4000020AC0000201CB5002005E00021D0
:10199000FA4A22F81010411CC8B20428F7DBF748B5
:1019A000B0F90600F549B1F90410CDE90010F3488B
:1019B000B0F90230B0F90020F1A1F74801F063F965
:1019C0001CBD7CB5054600EE105AF8EEC00A9FED2E
:1019D000F31A80EE810ADFEDF20A20EE200ABDEE56
:1019E000C00A10EE100A04B2604200B2E349088057
:1019F000604200B24880604200B28880604200B21B
:101A0000C880E8A003F07CFFDC48B0F90010E9A032
:101A100003F076FFD948B0F90210E8A003F070FF98
:101A2000D648B0F90410E7A003F06AFFD348B0F934
:101A30000610E6A003F064FFD048B0F90600CF49D5
:101A4000B1F90410CDE90010CC48B0F90230B0F97A
:101A50000020CBA1D04801F016F97CBD70B52DED6A
:101A60000E8B84B0F0EE40AAB0EE60AAB0EE4A0A47
:101A700007F004F8CAEE800AB0EE608AF0EE000AC1
:101A80009FEDD40A06F0F4FC10EE106A304608F020
:101A9000EFF841EC1C0B9FEDD01B9FEDD10B05F037
:101AA000CBFEB0EE40DAF0EE60DA53EC1C2B51ECDA
:101AB0001D0B07F06DFB41EC1B0B07F037FB0EEE27
:101AC000100AB0EE4E0A07F0A1F8DFEDC70A80EE6B
:101AD000801AB0EE419A03A9C4A000F0AEFD9DEDBE
:101AE000030AB5EEC00AF1EE10FA06D1C1A003F068
:101AF00007FF04B0BDEC0E8B70BD4FF4FA64DDED52
:101B0000030A8AEE200ADFEDA60A20EE200ABDEEC7
:101B1000C00A10EE100A05B2B5EEC0AAF1EE10FA36
:101B200059DD9FEDB80A38EE400AC0EE089A9FEDE5
:101B3000B50A38EE000AC0EE088A00EE104AB8EE88
:101B4000C00A29EE000AFFEE000A20EE200A20EE6D
:101B5000280ABDEEC00A10EE100A00B287490880BC
:101B6000F1EE490A00EE104AB8EEC00A20EE800AF3
:101B7000FFEE000A20EE200A20EE280ABDEEC00A81
:101B800010EE100A00B2488000EE104AB8EEC00A0B
:101B900029EE000AF7EE000A20EE200A20EE290ABC
:101BA000BDEEC00A10EE100A00B28880F1EE490ABC
:101BB00000EE104AB8EEC00A20EE800AF7EE000AE6
:101BC00020EE200A20EE290ABDEEC00A10EE100A0F
:101BD00000B2C88057E0B5EEC0AAF1EE10FA4ED2BE
:101BE00018EE100A08F044F841EC1D0BB0EE4D0A57
:101BF000F0EE6D0A05F016FEB0EE40BAF0EE60BAF7
:101C00009FED800A38EE000A10EE101A084608F020
:101C10002FF841EC1C0B53EC1B2B07F075FB41EC30
:101C20001E0B07F083FA09EE900A18EE100A08F06E
:101C30001FF841EC1C0BB0EE4C0AF0EE6C0A05F0FC
:101C4000F1FDB0EE40BAF0EE60BADFED670A88EE63
:101C5000200AF0EE000A80EE201A11EE106A3046DB
:101C600008F006F841EC1D0B53EC1B2B07F04CFB66
:101C700041EC1E0B07F05AFA08EE900A03E0F7EE6B
:101C8000009AF7EE008A00EE104AB8EEC00A29EE7C
:101C9000000AFFEE000A20EE200A20EE280ABDEE20
:101CA000C00A10EE100A00B234490880F1EE490A69
:101CB00000EE104AB8EEC00A20EE800AFFEE000ADD
:101CC00020EE200A20EE280ABDEEC00A10EE100A0F
:101CD00000B2488000EE104AB8EEC00A29EE000AB1
:101CE000F7EE000A20EE200A20EE290ABDEEC00A17
:101CF00010EE100A00B28880F1EE490A00EE104A98
:101D0000B8EEC00A20EE800AF7EE000A20EE200AA4
:101D100020EE290ABDEEC00A10EE100A00B2C880FB
:101D200020A003F0EDFD1548B0F9001021A003F04C
:101D3000E7FD1248B0F9021020A003F0E1FD0F48C2
:101D4000B0F904101FA003F0DBFD0C48B0F9061039
:101D50001EA003F0D5FD0948B0F906000749B1F906
:101D60000410CDE900100548B0F90230B0F90020A8
:101D700003A1094800F087FF00BFBAE6BC000020BD
:101D80000D305625640D315625640D325625640DEF
:101D9000355625640D00000000100140000000438E
:101DA0000000FA446172675F7370656564733A0A94
:101DB0000000000009303A25640A000009313A2584
:101DC000640A000009323A25640A000009333A2502
:101DD000640A00000080224400000000000000406F
:101DE0000000000000407F400000FA436469765F15
:101DF000726164000A536574206469765F7261647D
:101E0000210A000000007A4330B52DED068B83B027
:101E100004460D46F0EE000A1FED0D0A06F028FB01
:101E2000F0EE40AAF0EE000A1FED160A06F020FBC5
:101E30003AEE800AB0EE40AA06F0E8FE5FED1B0A1B
:101E400080EE801AB0EE419AF0EE000A1FED1A0AF9
:101E500006F00EFBF0EE40AAF0EE000A1FED230A9A
:101E600006F006FB3AEE800AB0EE40AA06F0CEFE7F
:101E70005FED230A80EE801AF0EE419A00EE104AE0
:101E8000F8EEC00A1FED3B1A80EE810A5FED3C0AB6
:101E900020EE200ABDEEC00A10EE100A00B208EED5
:101EA000100A00EE105AF8EEC00A1FED441A80EE38
:101EB000810A5FED450A20EE200ABDEEC00A10EE51
:101EC000100A00B208EE900AB8EEC80A29EE000A1D
:101ED000F8EEE80A09EEA00AFFEE000A20EE200A5A
:101EE000BDEEC00A10EE100A00B239490880B1EE0A
:101EF000490AF8EEC80A20EE200AF8EEE80A09EED0
:101F0000A00AFFEE000A20EE200ABDEEC00A10EE85
:101F1000100A00B24880B8EEC80A29EE000AF8EEAE
:101F2000E80A09EEA00AF7EE000A20EE200ABDEE4C
:101F3000C00A10EE100A00B28880B1EE490AF8EE2D
:101F4000C80A20EE200AF8EEE80A09EEA00AF7EE29
:101F5000000A20EE200ABDEEC00A10EE100A00B200
:101F6000C880AFF2C01003F0CBFC1948B0F90010E4
:101F7000AFF2C01003F0C4FC1548B0F90210AFF284
:101F8000C41003F0BDFC1248B0F90410AFF2CC103D
:101F900003F0B6FC0E48B0F90610AFF2D01003F013
:101FA000AFFC0B48B0F906000949B1F90410CDE9BE
:101FB00000100748B0F90230B0F90020AFF240211C
:101FC000044800F060FE03B0BDEC068B30BD00009D
:101FD000BC0000200010014010B586B00121022095
:101FE00001F0AAFF00242DE001208DF8140002204A
:101FF0008DF8150000208DF8160001208DF81700CF
:10200000A64830F814000490A54951F8240004A90A
:1020100001F0D4FC00208DF8140002208DF815008A
:1020200000208DF8160001208DF817009D4830F82B
:10203000140004909C4951F8240004A901F0BEFC4E
:10204000601CC4B2012CCFDB0121880401F0CEFF5B
:102050004FF4367002900720ADF804000020ADF870
:102060000600ADF80C0001A9904802F0F0FB012138
:102070008E4803F0A1F8012211468C4803F088F83D
:1020800001218A4802F06CFC1A208DF80000002023
:102090008DF801008DF8020001208DF803006846DC
:1020A00000F0C9FF06B010BD814A125C3AB10022AF
:1020B0007F4B1A547F4A115401227F4B1A547047A8
:1020C00030B504460D4600BF7948005D0028FBD0BE
:1020D00029462046FFF7E8FF30BD0146774A505CAD
:1020E0000022774B5A54704710B5044600BF74481D
:1020F000005D0028FBD02046FFF7EFFF10BD0FB4B6
:1021000030B5ADF5037D0546002488A8019040F266
:10211000012102A8019B879A03F0D8FB07E0204623
:10212000621CD4B202AA115C2846FFF7C9FFB4F5BD
:10213000007F03DA02A8005D0028F0D100200190A2
:10214000022006F02AFF0DF5037D30BC5DF814FB7C
:1021500010B500249EE05B48005D80B35A48005DE6
:10216000401EC0B25849085500283BD103200855ED
:102170005648005D401EC0B25449085550B95448F5
:10218000005D4E49085500204E49085501204C4934
:10219000085527E04E48005D40104D490855414A1A
:1021A00032F81410404A52F8240001F069FCC8B11A
:1021B0004748005D40F080004549085512E0FFE7C0
:1021C000384A32F81410384A52F8240001F058FC0A
:1021D00040B901203B49085504203B4908550920D6
:1021E0003A4908553B48005D401EC0B23949085580
:1021F00000284DD1032008552F48005D002847D006
:102200003548005D80B9254A32F81410244A52F846
:102210002400002201F052FC2648005D2F49085599
:1022200009202D49085533E02B48005D401EC0B2FF
:102230002949085578B9194A32F81410184A52F841
:102240002400012201F03AFC00201B49085501201E
:10225000174908551CE02148005D00F0010048B115
:102260000E4A32F814100E4A52F82400012201F0EE
:1022700025FC08E0094A32F81410094A52F82400F3
:10228000002201F01BFC1548005D40101349085561
:10229000601CC4B2012CFFF65EAF10BDC40000206C
:1022A000C8000020CC000020D000002000480140E1
:1022B000DE000020D4000020DC000020D50000203B
:1022C000DF000020DD000020D9000020DB0000201E
:1022D000D7000020D8000020DA000020D60000201F
:1022E00010B543A003F00CFB0120464908704FF4E1
:1022F000FA6006F052FEFFF731F910BDFEF74DFC13
:1023000006F0C2FE00203F4908703FA003F0F8FA33
:1023100001E0FEF74FFEFCE770471FB501214804BE
:1023200001F064FE40F2E7300290A720ADF804000F
:102330000020ADF80600ADF80C0001A9384802F005
:1023400086FA01221146364802F022FF0121344864
:1023500002F006FB19208DF8000000208DF8010026
:102360008DF8020001208DF80300684600F063FE3E
:102370001FBD1FB50121080201F027FE40F2E73022
:102380000290A720ADF804000020ADF80600ADF8DB
:102390000C0001A9234802F05AFA012211462148F3
:1023A00002F0F6FE01211F4802F0DAFA2D208DF826
:1023B000000000208DF801008DF8020001208DF84A
:1023C0000300684600F037FE1FBD10B5FFF7A5FFFC
:1023D000FFF7CFFF002405E0134951F824008047A0
:1023E000601C84B2104850F824000028F4D110BDBD
:1023F0000A4175746F20636F6E74726F6C6C696ED6
:10240000672E0A00E00000200A4175746F20636F98
:102410006E74726F6C2073746F707065642E0A0036
:102420000044014000200040E400002010B50246B6
:102430000020012105E00002531AF74CE35C184329
:10244000491C0429F7D910BD10B54FF48042F24958
:10245000F24800F0C2FDF04800780A2806D00A20B1
:10246000ED4908700120EE49086012E043F6FF7460
:102470000CE0E948005DFF2807D1601EE649085CD2
:102480000A2802D1E648046002E0641E012CF0D85C
:1024900000BF4022E349E448FFF777F90120E34910
:1024A000087010BD10B5DD4800F04DFDFFF7CCFF02
:1024B00010BD70B5064600242AE0D748005D0A2802
:1024C00006D1D549601C085CFF2801D1002070BDF1
:1024D000D148005D0A281AD1002514E06019401C7B
:1024E000CD49085CD24948550846405D3D2809D190
:1024F000002048553146CE4803F098FC10B96019C9
:10250000801DE4E76D1CC64800688542E6D3641C64
:10251000C34800688442D0D30020D8E72DE9F047B3
:1025200081464FF0000A4846FFF7C3FF05460DB944
:10253000BDE8F0872846FFF779FF82462E4600E087
:10254000761EB548805D0A28FAD105EB0A08A8EB8B
:102550000607444605E0B048005DE11BAE4A505412
:10256000641CAF4800688442F5D3E41B03E0FF20FD
:10257000A9490855641CAA4800688442F7D3A848B2
:102580000068C01BA649086000BFD1E72DE9F047ED
:10259000074688461646A548007808B9BDE8F08782
:1025A0003846FFF786FF10B13846FFF7B7FF3846C9
:1025B00003F0EAFB00F0FF0999480568002404E0F5
:1025C000385D2919944A5054641C4C45F8D33D2079
:1025D0002919914A50542819451C002406E0E000AE
:1025E00026FA00F029198C4A5054641C042CF6D3A6
:1025F0002544002405E018F804002919864A50549F
:10260000641CB442F7D30A202919834A505428196C
:10261000401C8349086000BFC0E710B583480078BC
:1026200000B910BD7D4800F08EFC4FF480427A491D
:102630007A4800F0A7FC00BFF3E72DE9F04180469F
:102640000D467A48007808B9BDE8F0814046FFF7AA
:1026500030FF064616B900202870F5E73046FFF730
:10266000E5FE0746002404E030196B49085C285554
:10267000641CBC42F8D30020285500BFE4E72DE9D4
:10268000F041A2B00546284603F07EFB80460027B5
:10269000287872287DD004DC642872D0682871D133
:1026A00004E073286FD07728F9D133E0022407E0E3
:1026B000285D3D2803D101270020285502E0641C35
:1026C000202CF5D300BF0FB3002404E0601C285C6D
:1026D00011A90855641C601C285C0028F6D1A91CAF
:1026E000081921AA53A103F08BFA042221A911A8E9
:1026F000FFF74CFF0020219021A911A8FFF79DFFB3
:1027000011A94EA0219A03F0FBF802E052A003F0B9
:10271000F7F87CE0012407E0285D3D2803D101277C
:102720000020285502E0641C202CF5D300BF5FB3C5
:10273000012404E0295D601E11AA1154641C285D67
:102740000028F7D10021601E11AA1154661C002434
:1027500004E03019285C01A90855641C3019285C74
:102760000A28F6D1002001A9085501AA11A93EA006
:1027700003F0C6F8224601A911A8FFF707FF07E0FA
:1027800007E021E03FE038E0FFE73CA003F0B8F8C5
:102790003DE001240BE0295D601E11AA1154285D63
:1027A0000A2803D10021601E115402E0641C202C71
:1027B000F1D300BF01A911A8FFF73FFF01AA11A99A
:1027C00034A003F09DF822E001240BE0295D601E97
:1027D00011AA1154285D0A2803D10021601E11544A
:1027E00002E0641C202CF1D300BF11A8FFF796FE75
:1027F00011A92AA003F084F809E0FFF70EFF2BA02F
:1028000003F07EF803E02CA003F07AF800BF00BFCD
:1028100022B0BDE8F0810000E801002000C00008FF
:10282000F400002098010020D8010020F8000020CA
:102830000842002025333278000000000A6E616DE6
:10284000653A25730A6865783A307825782073618F
:102850007665642E0A0000000A496E76616C696430
:10286000206865780A0000000A6E616D653A25737C
:102870002C646174613A25730A0000000A57726F74
:102880006E6720636F646520746F2077726974656A
:102890000A0000000A25733D25730A000A257320EB
:1028A00064656C657465640A000000000A73796EE3
:1028B0006320646F6E650A000A556E7265636F6708
:1028C0006E6973656420636F64650A0010B5002447
:1028D0000FE00B4801190B48FEF779FF0848005D2F
:1028E0000A2804D10021064A601C115403E0601C30
:1028F00084B2402CEDDB00BF0148FFF7C0FE10BDE5
:1029000028420020D801002010B588B004460121DB
:10291000022001F011FB0121102001F067FB0722CA
:102920000621F64801F0D5F807221146F34801F0D8
:10293000D0F8C020069002208DF81C0000208DF8F1
:102940001D008DF81E0001208DF81F0006A9EB4820
:1029500001F034F802940020ADF80C00ADF80E0040
:10296000ADF81000ADF814000C20ADF8120002A96B
:10297000E34802F078FD0121E14802F0FCFD01226C
:1029800040F22551DE4802F0ACFE25208DF804000F
:1029900003208DF805008DF8060001208DF8070052
:1029A00001A800F048FB08B010BD10B588B004467F
:1029B0000121082001F0C0FA0121480401F005FBC3
:1029C00007220521CF4801F084F807220621CD48CF
:1029D00001F07FF86020069002208DF81C008DF831
:1029E0001D0000208DF81E0001208DF81F0006A993
:1029F000C44800F0E3FF02940020ADF80C00ADF8ED
:102A00000E00ADF81000ADF814000C20ADF8120067
:102A100002A9BD4802F027FD0121BB4802F0ABFD31
:102A2000012240F22551B84802F05BFE26208DF8C5
:102A3000040002208DF805008DF8060001208DF8B5
:102A4000070001A800F0F7FA08B010BD10B588B073
:102A500004460121082001F06FFA0121880401F0E9
:102A6000B4FA07220821A74801F033F80722092108
:102A7000A44801F02EF84FF44070069002208DF823
:102A80001C008DF81D0000208DF81E0001208DF81F
:102A90001F0006A99B4800F091FF02940020ADF8AA
:102AA0000C00ADF80E00ADF81000ADF814000C20CD
:102AB000ADF8120002A9954802F0D5FC0121934817
:102AC00002F059FD012240F22551904802F009FE22
:102AD00027208DF8040002208DF805008DF80600EF
:102AE00001208DF8070001A800F0A5FA08B010BD7C
:102AF00010B588B004460121042001F01DFA01211F
:102B0000C80401F062FA08220A21814800F0E1FFBE
:102B100008220B217E4800F0DCFF4FF44060069055
:102B200002208DF81C008DF81D0000208DF81E007D
:102B300001208DF81F0006A9754800F03FFF0294A0
:102B40000020ADF80C00ADF80E00ADF81000ADF8A7
:102B500014000C20ADF8120002A96E4802F083FCAC
:102B600001216C4802F007FD012240F2255169481D
:102B700002F0B7FD34208DF8040002208DF8050026
:102B80008DF8060001208DF8070001A800F053FA27
:102B900008B010BD10B588B004460121042001F032
:102BA000CBF90121082001F0C7F90121080501F046
:102BB0000CFA08220C21564800F08BFF0822022153
:102BC000504800F086FF4FF48050069002208DF8A8
:102BD0001C008DF81D0000208DF81E0001208DF8CE
:102BE0001F0006A94A4800F0E9FE042006900220D2
:102BF0008DF81C008DF81D0000208DF81E000120AE
:102C00008DF81F0006A93F4800F0D8FE029400206E
:102C1000ADF80C00ADF80E00ADF81000ADF81400E2
:102C20000C20ADF8120002A93B4802F01CFC012167
:102C3000394802F0A0FC012240F22551364802F04A
:102C400050FD35208DF8040002208DF805008DF828
:102C5000060001208DF8070001A800F0ECF908B08B
:102C600010BD10B504462046FFF74EFE2046FFF784
:102C70009CFE2046FFF7EAFE2046FFF739FF20467C
:102C8000FFF788FF10BD0FB430B59BB00546002498
:102C900020A80090652101A8009B1F9A02F016FE53
:102CA0008021284602F04FFD0EE000BF802128461B
:102CB00002F03CFD0028F9D02046621CD4B201AAE3
:102CC000115C284602F082FC642C03DA01A8005D46
:102CD0000028EAD1002000901BB030BC5DF814FB46
:102CE00000BF704700BF094A128802F04002002A64
:102CF000F9D0C2B2054B1B1D1A8070470004024078
:102D000000100140000C0240004400400048004018
:102D100000080240004C0040005000400948804735
:102D200009480047FEE7FEE7FEE7FEE7FEE7FEE7AD
:102D3000FEE7FEE7FEE7FEE704480549054A064BC5
:102D4000704700005908000889010008C8420020A7
:102D5000C8820120C8420120C842012070B5044643
:102D6000254600BF0221564801F04AFC0028F9D050
:102D7000E84345EA002081B2514801F0F8FB00BF6A
:102D800001214F4801F03CFC0028F9D04C4801F0EB
:102D9000EBFB054625EA252000B100E00024204693
:102DA00070BD00B589B00121022001F0C5F80121F4
:102DB000042001F0C1F80121880301F006F94FF465
:102DC000C040079002208DF8200000208DF82200DE
:102DD00003208DF8210001208DF8230007A9394830
:102DE00000F0ECFD0820079002208DF82000002064
:102DF0008DF8220003208DF8210001208DF823009A
:102E000007A9314800F0DAFD05220D212D4800F018
:102E100060FE05220E212B4800F05BFE05220321F7
:102E2000294800F056FE0121880301F023F9002112
:102E30004FF4804001F01EF90020ADF804004FF47B
:102E40008270ADF806004FF40070ADF80E008000FF
:102E5000ADF808000220ADF80A000120ADF80C0022
:102E60003820ADF810000020ADF812000720ADF8B2
:102E7000140001A9124801F0FFF90121104801F0E6
:102E8000F5FA60210E4801F0E1FB002260210C48B8
:102E900001F094FB00227121094801F08FFB2420EE
:102EA0008DF8180004208DF819008DF81A00012003
:102EB0008DF81B0006A800F0BEF809B000BD0000A8
:102EC0000038004000040240000802400146086843
:102ED000704701464948814201D200207047484866
:102EE000814201D20820F9E74648814201D21020F0
:102EF000F4E74548814201D21820EFE74348814278
:102F000001D22020EAE74248814201D22820E5E7A9
:102F10004048814201D23020E0E73F48814201D25F
:102F20003820DBE73D48814201D24020D6E73C48CB
:102F3000814201D24820D1E73A48814201D2502053
:102F4000CCE75820CAE770B50446B4F1006F02D34D
:102F500004F0030000B170BD00F09EF9002000F005
:102F60007EF93148844206D22046FFF7B2FF05467B
:102F7000022100F0E5F9012000F071F900F099F963
:102F800000BFE8E72DE9F04104460D461646092743
:102F900004EB9608B4F1006F02D304F0030008B10B
:102FA000BDE8F08100F078F9002000F058F9092F11
:102FB0000CD108E02046296800F0DBFA092800D08F
:102FC00003E0241D2D1D4445F4D300BF012000F073
:102FD00046F900F06EF900BFE2E730B503460C4653
:102FE0001546002206E01846FFF770FF44F822005D
:102FF0001B1D521CAA42F6D330BD00000040000841
:103000000080000800C0000800000108000002085D
:1030100000000408000006080000080800000A0874
:1030200000000C0800000E080000FF1F3249014399
:10303000324A1160704770B5002100230F22C47816
:103040001CB32E4C246804F4E064C4F5E064C4F3BB
:103050000721C1F10404E3B20A4144789C40E1B283
:103060008478144021430C07210E254C05786155C6
:10307000047804F01F050124AC4005786D11AD0003
:1030800005F1E025C5F8004109E0047804F01F05CA
:103090000124AC401B4D0678761145F8264070BDE2
:1030A000194A0A400243154B1B1F1A60704739B179
:1030B000124A121D12680243104B1B1D1A6006E0D3
:1030C0000E4A121D126882430C4B1B1D1A6070477A
:1030D000042808D14FF0E021096941F004014FF0C4
:1030E000E022116107E04FF0E021096921F00401BD
:1030F0004FF0E022116170470000FA050CED00E08E
:1031000000E400E080E100E080FFFF1F0020414973
:103110000860091D0860091D0860091D08603E4817
:103120003C4914310860704700213A498279002AED
:103130003AD00A46126803689A430B461A600A1D81
:10314000126803689A430B1D1A60027911440A68D9
:1031500003681A430A602F4A0832126803689A43C8
:103160002C4B08331A601A1D126803689A43294BC6
:103170000C331A604279102A0ED11A1F12680368A4
:103180001A43244B08331A601A1D126803681A4345
:10319000204B0C331A600DE01E49427911440A6835
:1031A00003681A430A6005E0027911440A6803685B
:1031B0009A430A6070470021016001710C2141713E
:1031C0000021817170471349103109680143114A88
:1031D000103211607047014600200E4A1432126806
:1031E0000A400AB1012000E000207047094914316B
:1031F0000860704701460020064A143212680A40EF
:103200000AB1012000E00020704702491431086033
:1032100070470000003C0140FFFF7F00FE4A107035
:10322000704730B1FC49096841F48071FA4A116075
:1032300005E0F949096821F48071F74A1160704787
:1032400030B1F549096841F40071F34A116005E0B5
:10325000F149096821F40071EF4A1160704730B1FB
:10326000ED49096841F48061EB4A116005E0EA49E3
:10327000096821F48061E84A11607047E6480068F7
:1032800040F40060E44908607047E348006840F497
:103290008050E14908607047DF481030006800F056
:1032A000004028B1DD48DC49091D0860DC480860A1
:1032B0007047D9481030006840F00040D6491031BE
:1032C000086070470920D4490C31096801F4803145
:1032D000B1F5803F01D1012020E0CF490C310968D0
:1032E00001F0100109B1062018E0CB490C31096842
:1032F00001F4807109B1022010E0C7490C3109685E
:1033000001F0EF0109B1072008E0C3490C31096859
:1033100001F0020109B1082000E00920704708B55A
:1033200009200090FFF7CEFF009002E0FFF7CAFFF0
:1033300000909DF800000128F8D09DF8000008BD1D
:1033400070B504460A460026092502B909E0012A9B
:1033500001D1160205E0022A01D1160201E04FF464
:103360004076FFF7DCFF0546092D2DD1AA48103025
:10337000006820F44070A8491031086008460068D1
:10338000304308600846006820F0F80008600846EE
:10339000006844F0020108439F4910310860084664
:1033A000006840F480300860FFF7B9FF05469A488E
:1033B0001030006820F0020097491031086008467C
:1033C000006820F0F8000860284670BD30B502465D
:1033D00000250924FFF7A3FF044602B909E0012AEA
:1033E00001D1150205E0022A01D1150201E04FF4D6
:1033F0004075092C20D188481030006820F44070B6
:10340000854910310860084600682843086008466E
:10341000006840F0040008600846006840F480300E
:103420000860FFF77CFF04467B481030006820F0FE
:103430000400794910310860204630BD30B502469D
:1034400000250924FFF76BFF044602B909E0012AB1
:1034500001D1150205E0022A01D1150201E04FF465
:103460004075092C20D16C481030006820F4407061
:10347000694910310860084600682843086008461A
:10348000006840F0040008600846006840F480309E
:103490000860FFF744FF04465F481030006820F0E2
:1034A00004005D4910310860204630BD30B5024649
:1034B00000250924FFF733FF044602B909E0012A79
:1034C00001D1150205E0022A01D1150201E04FF4F5
:1034D0004075092C20D150481030006820F440700D
:1034E0004D491031086008460068284308600846C6
:1034F000006840F4004008600846006840F48030EE
:103500000860FFF70CFF044643481030006820F4C1
:103510000040414910310860204630BD70B5064674
:1035200014461D460922FFF7FAFE0246092A1ED15B
:1035300039481030006820F4407037491031086075
:103540000846006840F4407008600846006840F093
:103550000100086034607560FFF7E1FE02462E4806
:103560001030006820F001002B491031086010462F
:1035700070BD30B502460C460925FFF7D0FE054662
:10358000092D1DD124481030006820F440702249D4
:10359000103108600846006840F400700860084672
:1035A000006840F0010008601460FFF7B8FE0546AF
:1035B00019481030006820F00100174910310860E8
:1035C000284630BD30B502460C460925FFF7A7FE58
:1035D0000546092D1DD110481030006820F44070B8
:1035E0000D49103108600846006840F4807008609A
:1035F0000846006840F0010008601480FFF78FFE65
:10360000054605481030006820F0010002491031DD
:103610000860284630BD0000003C02402301674599
:10362000AB89EFCD30B502460C460925FFF777FE92
:103630000546092D17D19B48006820F44070994930
:1036400008600846006808600846006840F001000D
:1036500008601470FFF763FE05469248006820F08A
:10366000010090490860284630BD8E48001D006862
:1036700000F0010028B18C488A49083908608B485D
:10368000086070478748001D006840F001008549C8
:10369000091D0860704730B502460C460925FFF742
:1036A0003EFE0546092D10D13CB17E48801D0088A4
:1036B00090437C49891D088007E07A48801D008876
:1036C00091B208437749891D088030BD30B5024664
:1036D0000C460925FFF723FE0546092D10D13CB104
:1036E00070480A30008890436E490A31088007E02C
:1036F0006C480A30008891B208436A490A31088050
:1037000030BDFF21674AD21D127802F07F0140EAE6
:103710000102644BDB1D1A70704730B502460C463F
:103720000925FFF7FCFD0546092D10D144B15D4880
:10373000801D008891B208435A49891D088006E01F
:103740005848801D008890435649891D088030BD27
:1037500030B502460C460925FFF7E1FD0546092D67
:1037600010D144B14F480A30008891B208434D4906
:103770000A31088006E04B480A30008890434949E6
:103780000A31088030BD10B502460924FFF7C7FD95
:103790000446092C02D14348401D027010BDF0B50B
:1037A00004460D46FF260927FFF7B9FD0746092FF6
:1037B0000BD13C48001D007800F00F0645EA0600DA
:1037C000104320433749091D0870F0BD3549091DD4
:1037D000097821F01001334A121D11701146097841
:1037E0000143117070472F49091D097821F00C0120
:1037F0002C4A121D1170114609780143117070474F
:1038000000B509222748001D007840F00200254934
:10381000091D0870FFF783FD0246104600BD2148D0
:10382000001D0068C0F3471070471E48801D0088C7
:1038300070471C480A30008870471A48801D00886D
:10384000704718480A300088704700201549491D04
:103850000978AA2901D0012000E000207047114812
:10386000001D007800F00C00704729B10D4A126865
:1038700002430C4B1A6004E00A4A12688243094B67
:103880001A60704701460020064A121F12680A405B
:103890000AB1012000E0002070470249091F0860BA
:1038A00070470000103C02403B2A19087F6E5D4CB7
:1038B00010B504469848844208D10121084600F01A
:1038C000A6FB0021012000F0A2FB76E09348844291
:1038D00008D10121022000F09AFB0021022000F013
:1038E00096FB6AE08E48844208D10121042000F052
:1038F0008EFB0021042000F08AFB5EE089488442B0
:1039000008D10121082000F082FB0021082000F0EE
:103910007EFB52E08448844208D10121102000F04F
:1039200076FB0021102000F072FB46E07F488442C5
:1039300008D10121202000F06AFB0021202000F0A6
:1039400066FB3AE07A48844208D10121402000F029
:103950005EFB0021402000F05AFB2EE075488442B7
:1039600008D10121802000F052FB0021802000F0CE
:103970004EFB22E07048844208D10121801500F0FE
:1039800046FB0021A01500F042FB16E06B48844284
:1039900008D10121401500F03AFB0021601500F02C
:1039A00036FB0AE06648844207D10121001500F089
:1039B0002EFB0021201500F02AFB10BDF0B50A46B1
:1039C00000210023002400BF3DE0012505FA01F39A
:1039D000156805EA03049C4234D105684F000326AC
:1039E000BE40B543056015794E00B54006683543C5
:1039F00005601579012D02D01579022D16D1856843
:103A00004F000326BE40B543856055794E00B54052
:103A1000866835438560456801268E40B54345601C
:103A2000456896798E40B6B235434560C5684F000B
:103A30000326BE40B543C560D5794E00B540C66883
:103A40003543C560491C1029BFD3F0BD4FF6FF7147
:103A500001600021017141718171C171704708B528
:103A60004FF480320092009A0A430092009AC26199
:103A7000C161009AC261C2690092C269009208BD28
:103A80000246002013690B400BB1012000E000202A
:103A900070470146086980B27047024600205369AA
:103AA0000B400BB1012000E000207047014648693F
:103AB00080B2704701837047418370470AB1018328
:103AC00000E0418370474161704742694A4042616A
:103AD0007047F0B5002300244D07ED0E02FA05F300
:103AE000CE1000F1200555F826504E07F70E0F2690
:103AF000BE40B543CF1000F1200646F82750CE1047
:103B000000F1200555F8265045EA0304CE1000F1D7
:103B1000200545F82640F0BD0000024000040240A8
:103B200000080240000C0240001002400014024055
:103B300000180240001C0240002002400024024005
:103B4000002802400E49086070470D4948607047E0
:103B50000B49886070474AF6AA20094908607047F7
:103B60004CF6CC4006490860704701460020044AE4
:103B7000D2680A400AB1012000E00020704700002E
:103B800000300040F948006840F00100F749086043
:103B90000020F64908310860F4480068F4490840FC
:103BA000F2490860F348091D0860F348EF49843181
:103BB0000860F0481038091D0860EC48006820F4DF
:103BC0008020EA4908600020E8490C310860E74994
:103BD0008C31086070470021E44A921C1170114634
:103BE0000870704710B501460022002300204A11DA
:103BF000012A02D1DD4C236808E0022A03D1DB4C04
:103C00007034236802E0D94C7434236801F01F0239
:103C1000012494401C400CB1012000E0002010BDA4
:103C200038B5002000900024002500BF3120FFF7A8
:103C3000D9FF05460098401C00900098B0F5A04FB1
:103C400001D0002DF2D03120FFF7CCFF08B10124C4
:103C500000E00024204638BD01460020C34A106819
:103C600020F0F80040EAC10010607047C3490860C6
:103C700070470021BD4A703211701170012802D0C6
:103C800004280AD104E00121B84A7032117005E01D
:103C90000521B64A7032117000E000BF00BF7047C6
:103CA000B7490860704770B5049C41EA8215012647
:103CB000C6EB530645EA0645054345EA0465AB4EA7
:103CC000361D356070BDAD4908667047820142EA15
:103CD0000172A64B84331A607047A8498866704702
:103CE00010B5830143EA016343EA02739F4C8834B1
:103CF000236010BDA14908677047A049C864704798
:103D000002460020994B0833186820F0EC6042EA24
:103D100001031843954B0833186070470246002092
:103D2000924B0833186820F0784042EA01031843A8
:103D30008E4B083318607047014600208B4A0832CA
:103D4000106820F00300084310607047874808306F
:103D5000006800F00C00704701460020834A0832DA
:103D6000106820F0F0000843106070470146002002
:103D70007E4A0832106820F4E05008431060704713
:103D800001460020794A0832106820F4604040EA79
:103D9000C10010607047F0B5002100220024022508
:103DA00000260223714F08373F6807F00C0121B14C
:103DB000042905D0082937D105E0724F076036E0A5
:103DC000714F076033E0694F3F1D3F68C7F380566E
:103DD000664F3F1D3F6807F03F036EB16A4FB7FB68
:103DE000F3F7DFF888C10CF1040CDCF800C0CCF369
:103DF000881C07FB0CF40CE0624FB7FBF3F7DFF80D
:103E00006CC10CF1040CDCF800C0CCF3881C07FB7F
:103E10000CF4564F3F1D3F68C7F301477F1C7D00E0
:103E2000B4FBF5F7076002E0564F076000BF00BF24
:103E30004E4F08373F6807F0F0010909534F7A5C8D
:103E40000768D7404760494F08373F6807F4E0519B
:103E5000890A4E4F7A5C4768D7408760434F0837DE
:103E60003F6807F46041490B484F7A5C4768D74088
:103E7000C760F0BD002100F44072B2F5407F0AD166
:103E80003A4A0832116821F4F811414A02401143BC
:103E9000364A08321160354A70321268C0F30B039B
:103EA0001A43324B70331A60704735494439086001
:103EB0007047334940390860704736490860704799
:103EC00001460020294A8C32106820F01F004A1E4B
:103ED0001043264A8C321060704701460020234A66
:103EE0008C32106820F4F8504A1E40EA02201F4A23
:103EF0008C3210607047014600201C4A8C321068DA
:103F000020F4401008431060704701460020174A13
:103F10008C32106820F4400008431060704701465E
:103F20000020124A8C32106820F4403008431060A0
:103F3000704719490860704739B10C4A303212682D
:103F400002430A4B30331A6006E0084A30321268E6
:103F50008243064B30331A607047F9B1034A34325A
:103F600012680243014B34331A601CE000380240EF
:103F7000FFFFF6EA10300024003000200000474226
:103F8000800E47420024F40000127A000001002055
:103F9000FFFCFF0F5C014742E01147428F4A126865
:103FA00082438E4B1A60704739B18C4A121D1268D9
:103FB00002438A4B1B1D1A6006E0884A121D1268D4
:103FC0008243864B1B1D1A60704739B1834A0C32FD
:103FD00012680243814B0C331A6006E07F4A0C32B0
:103FE000126882437D4B0C331A60704739B17B4AAB
:103FF000103212680243794B10331A6006E0774A98
:10400000103212688243754B10331A60704739B111
:10401000724A243A12680243704B243B1A6006E04D
:104020006E4A243A126882436C4B243B1A607047F4
:1040300039B16A4A203A12680243684B203B1A6041
:1040400006E0664A203A12688243644B203B1A60BD
:10405000704739B1614A1C3A126802435F4B1C3BFE
:104060001A6006E05D4A1C3A126882435B4B1C3BB7
:104070001A60704739B1594A143A12680243574BD3
:10408000143B1A6006E0554A143A12688243534BB7
:10409000143B1A60704739B1504A103A1268024313
:1040A0004E4B103B1A6006E04C4A103A12688243AD
:1040B0004A4B103B1A60704739B1484A1C321268AB
:1040C0000243464B1C331A6006E0444A1C32126815
:1040D0008243424B1C331A60704739B13F4A203249
:1040E000126802433D4B20331A6006E03B4A2032FF
:1040F00012688243394B20331A60704739B1374A0E
:10410000243212680243354B24331A6006E0334AE6
:10411000243212688243314B24331A60704739B11C
:104120002E4A2C32126802432C4B2C331A6006E0C4
:104130002A4A2C3212688243284B2C331A6070476B
:1041400039B1264A303212680243244B30331A60A8
:1041500006E0224A303212688243204B30331A6024
:104160007047012808D11D493C31096841F0080118
:104170001A4A3C32116007E018493C31096821F0C5
:104180000801164A3C321160704739B1134A273A88
:1041900012780243114B273B1A7006E00F4A273A68
:1041A000127882430D4B273B1A7070470B48403002
:1041B000006840F08070094940310860704701464E
:1041C0000020064A283A12680A400AB1012000E09D
:1041D0000020704701492639087070473438024082
:1041E00010B50446FB48844208D101218014FFF732
:1041F00052FF0021A014FFF74EFF3CE0F648844236
:1042000008D101210014FFF735FF00212014FFF72A
:1042100031FF30E0F148844208D10121C013FFF79B
:1042200029FF0021E013FFF725FF24E0EC4884423A
:1042300008D101214014FFF72EFF00216014FFF781
:104240002AFF18E0E748844209D101210805FFF759
:1042500022FF00214FF48010FFF71DFF0BE0E24822
:10426000844208D101214805FFF715FF00214FF4D2
:104270000010FFF710FF10BD10B50022028802F4F5
:1042800041520B884C8823438C882343CC8823439A
:104290000C8923434C8923438C892343CC892343B2
:1042A0001A430280838B4FF2FF74234083830B8A6F
:1042B000038210BD2DE9F04F0025022300244FF0AA
:1042C000010900220026002794469046B0F81CA061
:1042D0004FF2400B0AEA0B0AA0F81CA04FF0020AAA
:1042E000A0F820A0858BD1F808A0BAF1020F01D167
:1042F00000BF82E0B1F804A0BAF1000F02D14FF084
:10430000010901E04FF00209DFF8E0A2DAF800A0AD
:104310000AF4000ABAF1000F09D0DFF8D0A2DAF8E7
:1043200000A02AF4000ADFF8C4B2CBF800A0DFF83E
:10433000BCA20AF17C0ADAF800A0CAF3881CDFF8F4
:10434000ACA20AF17C0ADAF800A0CAF30278DFF81E
:104350009CA2AAF1040ADAF800A00AF03F07DFF8ED
:104360008CA2AAF1040ADAF800A00AF4800ABAF5CD
:10437000800F08D1DFF878A2BAFBF7FA0AFB0CFA33
:10438000BAFBF8F607E0DFF86CA2BAFBF7FA0AFB13
:104390000CFABAFBF8F6B1F806A0BAF5007F0ED118
:1043A0004FEA162A0AEB8A0A4FEA4A0AD1F808B0FD
:1043B000BAFBFBFA0AF1050A1FFA8AF20FE04FEA8C
:1043C000491AB6FBFAFA0AEB8A0A4FEA4A0AD1F806
:1043D00008B0BAFBFBFA0AF1050A1FFA8AF24FF09D
:1043E0000A0AB2FBFAF202F00104A2EB040ACAF3D1
:1043F0004F034FF6FF7A0AEA0424022B01DBFF2B5E
:1044000001DD02230024B1F806A04AEA040A4AEAC0
:10441000030AA0F820A0B1F804A0B1F80CB04AEA51
:104420000B0AB1F802B04AEA0B0AB1F800B04AEA46
:104430000B0A4AF4006A4AEA05058583BDE8F08F55
:104440000021018041808180C18001814181818181
:10445000C181072101827047002101804180818054
:10446000C1800221816000218181704721B10288D1
:1044700042F04002028004E002884FF6BF731A4007
:104480000280704721B1828B42F48062828304E013
:10449000828B4FF6FF331A408283704702884FF2B7
:1044A000FF731A40028002880A4302807047B1F508
:1044B000804F04D1028842F48042028004E00288E6
:1044C0004BF6FF731A40028070474FF6FF6291422D
:1044D00004D0028842F48072028004E002884FF621
:1044E000FF631A400280704721B1828842F00402C3
:1044F000828004E082884FF6FB731A408280704706
:1045000021B1828842F01002828004E082884FF656
:10451000EF731A408280704730B500220023848BED
:104520004FF240052C40848302240484828B0C8843
:10453000B4F5007F01D00C8814B94FF4807308E003
:104540000C88B4F5407F03D00C88B4F5807F00D18F
:1045500000238C888D892C434D882C431C4344F4C4
:1045600000642243828330BD01468889704781817F
:10457000704721B1028842F40052028004E00288B0
:104580004DF6FF731A4002807047018841F4805154
:104590000180704702460020012901D0108B00E005
:1045A000908A70470146088A70471AB183880B4386
:1045B000838002E083888B438380704730B500247A
:1045C00000230C110125A540ABB2AAB185881D437B
:1045D000858014E00030014000380040003C00407D
:1045E00000340140005001400054014008380240AE
:1045F00000127A000024F40085889D43858030BD38
:104600000246002013890B400BB1012000E000207E
:104610007047CA4302817047F0B50246002000246B
:104620000023002501F00F070126BE40B4B20B1194
:1046300001269E40B3B2968806EA030516892640F5
:1046400016B10DB1012000E00020F0BD10B5002230
:1046500001F00F040123A3409AB2D343038110BD9C
:1046600010B501218803FFF716FD00214FF48040AB
:10467000FFF711FD10BD1C49086070471B49086217
:10468000704730B500228B071C0F0F2303FA04F28A
:10469000154B08338C1053F824309343124C0834D4
:1046A0008D1044F8253023468C1053F824308C07A5
:1046B000240F00FA04F423430B4C08348D1044F803
:1046C000253030BD0949DC31086070470849086071
:1046D0007047002004492031096801F4807109B154
:1046E000012000E000207047003801400000274210
:1046F0000004274210B50446FE48844208D1012137
:104700000846FFF7C8FC00210120FFF7C4FC9DE02C
:10471000B4F1804F08D101210846FFF7ABFC00211E
:104720000120FFF7A7FC91E0F348844208D1012162
:104730000220FFF79FFC00210220FFF79BFC85E091
:10474000EE48844208D101210420FFF793FC0021A8
:104750000420FFF78FFC79E0E948844208D1012169
:104760000820FFF787FC00210820FFF783FC6DE09D
:10477000E448844208D101211020FFF77BFC00218E
:104780001020FFF777FC61E0DF48844208D1012167
:104790002020FFF76FFC00212020FFF76BFC55E085
:1047A000DA48844208D101210220FFF774FC00217D
:1047B0000220FFF770FC49E0D548844209D101216D
:1047C0000804FFF768FC00214FF48030FFF763FC1A
:1047D0003CE0D048844209D101214804FFF75BFC4A
:1047E00000214FF40030FFF756FC2FE0CA48844206
:1047F00009D101218804FFF74EFC00214FF48020ED
:10480000FFF749FC22E0C548844208D1012140203D
:10481000FFF730FC00214020FFF72CFC16E0C048D9
:10482000844208D101218020FFF724FC0021802050
:10483000FFF720FC0AE0BB48844207D10121801524
:10484000FFF718FC0021A015FFF714FC10BD002293
:104850000288A84B98420ED0AC4B98420BD0B0F1D6
:10486000804F08D0A44B984205D0A44B984202D068
:10487000A34B984204D14FF68F731A404B881A43CA
:10488000A04B984207D0A04B984204D04FF6FF436C
:104890001A400B891A4302804B68C3620B88038558
:1048A000944B984202D0994B984201D18B7A03865F
:1048B0000123838270474FF0FF3141600021018066
:1048C00001814180817270470185828270470A466A
:1048D000002101884FF68F73194011430180704702
:1048E00041627047C16270470146486A704701469D
:1048F000088D704721B1028842F00202028004E074
:1049000002884FF6FD731A400280704721B1028879
:1049100042F00402028004E002884FF6FB731A4062
:104920000280704721B1028842F08002028004E0D8
:1049300002884FF67F731A400280704702884FF654
:10494000F7731A40028002880A4302807047028887
:104950004FF6FF431A40028002880A4302807047E4
:1049600021B1028842F00102028004E002884FF681
:10497000FE731A400280704770B5002400220023A5
:10498000058C4FF6FE7635400584028C8388048BB7
:104990004FF68F752C40B51E2C400D882C43751E8C
:1049A0002A408D892A434D882A43524DA84202D07D
:1049B000564DA84213D14FF6F7752A40CD892A43A8
:1049C0004FF6FB752A408D882A434FF6FF652B4032
:1049D0004FF6FF552B400D8A2B434D8A2B43838086
:1049E00004838D684563028470BD70B50024002285
:1049F0000023058C4FF6EF7635400584028C8388C2
:104A0000048B48F6FF752C404FF6FF452C400D886F
:104A10004FF6FF7606EA05252C434FF6DF752A4050
:104A20008D8906EA05152A434D8806EA05152A43AD
:104A3000304DA84202D0354DA8421DD14FF67F75AA
:104A40002A40CD894FF6FF7606EA05152A434FF630
:104A5000BF752A408D8806EA05152A434FF6FF35B3
:104A60002B404FF2FF752B400D8A06EA85052B433C
:104A70004D8A06EA85052B43838004838D68856310
:104A8000028470BD70B5002400220023058C4FF60F
:104A9000FF6635400584028C8388848B4FF68F75C2
:104AA0002C404FF6FC752C400D882C434FF6FF55DB
:104AB0002A408D894FF6FF7606EA05252A434D8860
:104AC00006EA05252A430B4DA84202D00F4DA84205
:104AD00038D14FF2FF752A40CD894FF6FF7606EAAE
:104AE00005252A434FF6FF352A408D8806EA05251D
:104AF0002A4319E000000140000400400008004083
:104B0000000C004000100040001400400004014070
:104B100000400140004401400048014000180040AE
:104B2000001C0040002000404EF6FF752B404DF663
:104B3000FF752B400D8A06EA05152B434D8A06EAC0
:104B400005152B43838084838D68C563028470BD03
:104B500070B5002200230024058C4EF6FF76354008
:104B60000584038C8488828B48F6FF752A404FF6B3
:104B7000FF452A400D884FF6FF7606EA05252A43B1
:104B80004DF6FF752B408D8906EA05352B434D8880
:104B900006EA05352B43FE4DA84202D0FD4DA84242
:104BA00008D14BF6FF752C400D8A4FF6FF7606EACA
:104BB00085152C43848082838D680564038470BDD1
:104BC000002101804180818081608181C1810182D9
:104BD0004182704770B50346002000241846183003
:104BE00001258D40ACB21D8CA5431D8409B1082957
:104BF0000AD100EB610005684FF68F7635400560FD
:104C00000568154305600FE00D1FC5F34E052844E8
:104C1000056848F6FF763540056005684FF6FF7673
:104C200006EA02263543056070BD41637047816323
:104C30007047C1637047016470470A460021018BC9
:104C40004FF68F7319401143018370470A460021C4
:104C5000018B48F6FF7319404FF6FF7303EA0223F6
:104C60001943018370470A460021818B4FF68F73E9
:104C700019401143818370470A460021818B48F611
:104C8000FF7319404FF6FF7303EA02231943818330
:104C900070470A460021018B4FF6F7731940114304
:104CA000018370470A460021018B4FF2FF731940C0
:104CB0004FF6FF7303EA02231943018370470A4644
:104CC0000021818B4FF6F7731940114381837047A0
:104CD0000A460021818B4FF2FF7319404FF6FF7394
:104CE00003EA02231943818370470A460021018B9E
:104CF0004FF6FB7319401143018370470A460021A8
:104D0000018B4FF6FF3319404FF6FF7303EA02237E
:104D10001943018370470A460021818B4FF6FB73CC
:104D200019401143818370470A460021818B4FF659
:104D3000FF3319404FF6FF7303EA022319438183BF
:104D400070470A460021018B4FF67F7319401143CB
:104D5000018370470A460021018BC1F30E014FF613
:104D6000FF7303EA02231943018370470A460021B7
:104D7000818B4FF67F7319401143818370470A4638
:104D80000021818BC1F30E014FF6FF7303EA02236A
:104D90001943818370470A460021018C4FF6FD7349
:104DA00019401143018470470A460021018C4FF6D7
:104DB000F77319401143018470470A460021018CA2
:104DC0004FF6DF7319404FF6FF7303EA02131943DE
:104DD000018470470A460021018C4FF67F73194009
:104DE0004FF6FF7303EA02131943018470470A4622
:104DF0000021018C4FF6FF5319404FF6FF7303EA71
:104E000002231943018470470A460021018C4FF2A6
:104E1000FF7319404FF6FF7303EA0223194301841D
:104E200070470A460021018C4DF6FF7319404FF67A
:104E3000FF7303EA023319430184704730B500233E
:104E400001248C40A3B2048C9C430484048C02FA99
:104E500001F5ADB22C43048430BD30B500230424E9
:104E60008C40A3B2048C9C430484048C02FA01F5A8
:104E7000ADB22C43048430BD828B4FF2FF331A4015
:104E80008283828B4FF6FF7303EA01231A438283E6
:104E90007047F0B50C461546002100220026078C0D
:104EA0004EF6FF7C07EA0C070784818B028C4FF6D5
:104EB000FF7707EA043640F6FF4739404FF6FF77A1
:104EC00007EA052739434FF6FF7707EA03373943E7
:104ED00045F6FF773A4046F480573A43818302848F
:104EE000F0BD828B4FF6F3731A408283828B0A43A4
:104EF00082837047F0B50C4615460021002200263B
:104F0000078C4FF6FF6C07EA0C070784818B028C35
:104F10004FF6FF7707EA04264FF60C7739404FF635
:104F2000FF7707EA03172F4339434FF2FF573A4001
:104F300046F480773A4381830284F0BD028B4FF2BE
:104F4000FF331A400283028B4FF6FF7303EA0123FB
:104F50001A4302837047F0B50C4615460021002223
:104F60000026078C4FF6EF7C07EA0C070784018BBD
:104F7000028C4FF6FF7707EA041640F6FF473940E8
:104F80004FF6FF7707EA033739434FF6FF7703E021
:104F9000000001400004014007EA052739434FF6AD
:104FA0005F773A4046F010073A4301830284F0BD30
:104FB000028B4FF6F3731A400283028B0A4302837B
:104FC0007047F0B50C46154600210022068C4FF6BE
:104FD000FE773E400684018B028C4FF60C76314002
:104FE0007E1C06EA03162E4331434FF6F576324017
:104FF00044F00106324301830284F0BD70B50546DA
:105000000C46208850B92389A28861882846FFF77A
:10501000D8FFE1882846FFF7CBFF25E02088042849
:105020000AD12389A28861882846FFF794FFE18886
:105030002846FFF783FF17E0208808280AD1238934
:10504000A28861882846FFF755FFE1882846FFF7C8
:1050500048FF09E02389A28861882846FFF719FFE5
:10506000E1882846FFF708FF70BD002101804180DC
:10507000012181800021C180018170472DE9F0412B
:1050800005460C4600260127608808B9022600E084
:105090000026A088012801D1022700E001272088EE
:1050A000A0B92389A28861882846FFF78AFFE18892
:1050B0002846FFF77DFF23893A4631462846FFF709
:1050C0004AFFE1882846FFF739FF13E02389A288C9
:1050D00061882846FFF73FFFE1882846FFF72EFF4B
:1050E00023893A4631462846FFF76BFFE188284678
:1050F000FFF75EFFBDE8F0810146486B704701464F
:10510000886B70470146C86B70470146086C704752
:105110000A884B881A438B881A43CB881A430B8919
:105120001A434B891A438B891A43A0F844207047CD
:105130000021018041808180C18001814181818184
:10514000704731B1B0F8442042F40042A0F8442046
:1051500005E0B0F84420C2F30E02A0F844207047E6
:1051600021B1828842F00402828004E082884FF6F6
:10517000FB731A408280704721B1828842F001029D
:10518000828004E082884FF6FE731A408280704766
:105190001AB183890B43838102E083898B43838126
:1051A00070478182704702460020138A0B400BB182
:1051B000012000E000207047CA430282704730B5EA
:1051C0000246002000230024158A05EA0103958980
:1051D00005EA010413B10CB1012000E0002030BD4C
:1051E000CA430282704741EA0203A0F84830704780
:1051F0001AB183890B43838102E083898B438381C6
:10520000704721B1828842F00802828004E08288DF
:105210004FF6F7731A408280704701894FF6F87293
:105220001140018170470A46002101894FF68F73B2
:10523000194011430181704730B504460D46294697
:105240002046FFF7F0FF208940F00700208130BDA5
:105250002DE9F04104460D4616461F46602D06D145
:105260003B46012231462046FFF775FE05E03B46EE
:10527000012231462046FFF7A4FE29462046FFF7CB
:10528000D2FF208940F007002081BDE8F08130B5D1
:105290000C4600210189C9B24FF6FF7505EA0325C6
:1052A000154325432943018130BD2DE9F0410546D1
:1052B0000E4617469846002443463A46314628464D
:1052C000FFF7E5FF2C894FF6F870044044F007041F
:1052D0004FF68F70044044F070042C81BDE8F081DB
:1052E000F0B504460D4616461F463B463246294653
:1052F0002046FFF7CCFF208940F480402081F0BD9C
:1053000082884FF68F731A40828082880A43828097
:10531000704702894FF6F8731A40028102890A43E6
:105320000281704702894FF67F731A400281028919
:105330000A4302817047F0B50C4615461E4600210F
:10534000002200230189028B038C4FF6F877394045
:1053500021434FF6FC473A4040F201173A434FF6DB
:10536000DD773B404FF6FF7707EA06172F433B43B5
:10537000018102830384F0BD21B1828842F0800262
:10538000828004E082884FF67F731A4082807047E3
:10539000A0F850107047000010B50446FA48844247
:1053A00008D101211020FEF776FE00211020FEF723
:1053B00072FE57E0F548844209D101214804FEF706
:1053C00059FE00214FF40030FEF754FE4AE0F04849
:1053D000844209D101218804FEF74CFE00214FF4DC
:1053E0008020FEF747FE3DE0EA48844209D10121D2
:1053F000C804FEF73FFE00214FF40020FEF73AFEFE
:1054000030E0E548844209D101210805FEF732FE6B
:1054100000214FF48010FEF72DFE23E0DF48844288
:1054200008D101212020FEF736FE00212020FEF7C2
:1054300032FE17E0DA48844209D101218807FEF7DD
:1054400019FE00214FF08040FEF714FE0AE0D54817
:10545000844207D101214005FEF70CFE00216005C2
:10546000FEF708FE10BD2DE9FF4705460E46002455
:10547000A14600BFA046B08900B100BF2C8A24F429
:105480004054F08804432C82AC8941F20C60844380
:10549000B08831890843718908430443AC81AC8AE0
:1054A00024F44074B0890443AC826846FEF773FC70
:1054B000B548854202D0B948854202D1DDF80C904A
:1054C00001E0DDF80890A88900F4004040B109EB44
:1054D000C90000EB091031684900B0FBF1F707E0A3
:1054E00009EBC90000EB091031688900B0FBF1F746
:1054F0006420B7FBF0F004012009642101FB10785F
:10550000A88900F4004040B1322000EBC800B0FB95
:10551000F1F000F00700044308E0322000EB08102F
:105520006421B0FBF1F000F00F0004432C81BDE8D2
:10553000FF874FF41651016000218180C1800181F5
:105540000C21418100218181704710B50246002065
:10555000108A20F470600B884C8823438C88234386
:10556000CC8823431843108210BD00210180418064
:105570008180C180704721B1828942F400528281CA
:1055800004E082894DF6FF731A4082817047028BD6
:1055900002F47F420283028B0A430283704721B1E7
:1055A000828942F40042828103E08289C2F30E02C2
:1055B0008281704721B1828A42F40062828204E0D3
:1055C000828A4FF2FF731A4082827047C1F3080249
:1055D0008280704701468888C0F308007047028ABD
:1055E0004FF6F0731A400282028A0A430282704721
:1055F00021B1828942F00202828104E082894FF661
:10560000FD731A408281704782894FF2FF731A40FE
:10561000828182890A4382817047028A4FF6DF7352
:105620001A400282028A0A430282704721B1028A2A
:1056300042F48042028204E0028A4BF6FF731A4071
:1056400002827047818941F001018181704721B157
:10565000828A42F00802828204E0828A4FF6F7735F
:105660001A4082827047028BD2B20283028B42EAD6
:1056700001220283704721B1828A42F02002828295
:1056800004E0828A4FF6DF731A408282704721B1AC
:10569000828A42F01002828204E0828A4FF6EF731F
:1056A0001A4082827047828A4FF6FB731A408282C8
:1056B000828A0A438282704721B1828A42F00202C2
:1056C000828204E0828A4FF6FD731A40828270471C
:1056D0001AB1838A0B43838202E0838A8B438382DD
:1056E0007047F0B50346002400260025002040F650
:1056F0006A17B94200D100BF1846C1F3421401F045
:105700001F06012707FA06F5012C01D10C3004E031
:10571000022C01D1103000E014301AB107682F4379
:10572000076002E00768AF430760F0BD0246002053
:10573000B1F5007F00D100BF13880B400BB10120F1
:1057400000E00020704701F40072B2F5007F00D144
:1057500000BFCA430280704770B502460024002390
:105760000025002040F66A16B14200D100BFC1F307
:10577000421501F01F03012606FA03F3012D13D190
:105780009689334017E000000010014000440040BB
:1057900000480040004C0040005000400014014010
:1057A00000780040007C0040022D02D1168A334070
:1057B00001E0968A33400C12012606FA04F416889A
:1057C000344013B10CB1012000E0002070BD10B5D1
:1057D0000022002340F66A14A14200D100BF0A1241
:1057E00001249440A3B2DC43048010BD38B5FEF719
:1057F000C9F90120FEF7EFF9FEF712FA0446012C71
:105800002BD10520FDF70AFD0120FDF70AFD002040
:10581000FEF759FA0020FEF79FFA0020FEF7B0FAD3
:105820000020FEF7A3FA072002234FF4A8720821F4
:105830000090C804FEF737FA0120FEF744FA00BFD3
:105840003920FEF7CFF90028FAD00220FEF774FACB
:1058500000BFFEF77BFA0828FBD11848006840F427
:1058600070001649086038BD08B56FF00400FDF7F8
:105870002FFC134800681349B0FBF1F0C0F3CF00D0
:10588000114908804FF0E020006940F002004FF01D
:10589000E02108610846006940F001000861FF202E
:1058A0008DF8000004208DF801008DF80200012021
:1058B0008DF803006846FDF7BEFB08BD88ED00E0EB
:1058C0000400002040420F00100100207CB51D465E
:1058D00016460C00009001D02044401E074B7B442C
:1058E0002A4669460190304600F0A7FD05461CB1E6
:1058F0000020694600F0B4FD28467CBD890B0000FD
:105900000FB4044910B503AA029800F0CDFD10BCF5
:105910005DF814FBFC00002070B50C460546012A1A
:1059200005D02878800600D5EA69002302E001232B
:1059300005E05B1C934202D2E05C0028F9D1A86923
:10594000E618C01AA861286A18442862284600F0A0
:10595000BBFA04E0D5E9012114F8010B9047B442E9
:10596000F8D3284600F0C6FA70BD00002DE9F041DA
:105970000646002410687529314616A510D000F09F
:10598000CAFA002802DA404213A507E031688A0704
:1059900001D512A502E0490704D511A5012401E0B3
:1059A00000F0C2FA00210A2206F1240709E0B0FB48
:1059B000F2FCB0FBF2F302FB1C00303078541846C6
:1059C000491C0028F3D123462A463046BDE8F04161
:1059D00000F0B3BA000000002D0000002B00000012
:1059E00020000000F0B40D460188090502D5214CC5
:1059F0007C4402E01F4C7C440E34002100F124065C
:105A000008E002F00F071209E75D42EA03721B0982
:105A10007754491C52EA0307F3D102780023120796
:105A200004D5702D06D009B1022311342246F0BCF2
:105A300000F083BA01231034F8E770B504460D4630
:105A40002146106800F070FA024629462046BDE85B
:105A500070400023C6E7D21D22F00703D3E90023DC
:105A6000C0E70368126843F0200303600823C361A2
:105A70000023B7E70A4500002DE9F05F8946044698
:105A80004FF0000ADFF874B1FB44C0F820A02046B4
:105A9000E1688847002874D0252806D0D4E9012180
:105AA0009047206A401C2062F1E700265F462046AE
:105AB000E16888472028054607DB312D05D2781993
:105AC00010F8200C08B10643F1E7B00701D526F025
:105AD0000406C4F81CA00027C4F818A02A2D09D079
