:020000040800F2
:10000000E0830120D54A00087D0300087F03000833
:1000100083030008870300088B030008000000002A
:100020000000000000000000000000008F03000836
:1000300091030008000000009303000895030008E6
:10004000EF4A0008EF4A0008EF4A0008EF4A0008AC
:10005000EF4A0008EF4A0008EF4A0008EF4A00089C
:10006000EF4A00083B090008EF4A0008EF4A000881
:10007000EF4A0008E1050008EF4A0008E70600081B
:10008000F7390008EF4A0008EF4A0008EF4A000875
:10009000EF4A0008EF4A0008EF4A0008A3080008EA
:1000A000EF4A000893040008C7050008EF4A00085B
:1000B000EF4A0008EF4A0008EF4A0008EF4A00083C
:1000C000EF4A0008EF4A0008EF4A0008EF4A00082C
:1000D00097030008A3030008C3030008E303000814
:1000E00005090008EF4A0008EF4A0008EF4A000837
:1000F00089080008AD040008EF4A0008EF4A00082C
:10010000EF4A0008EF4A0008EF4A0008EF4A0008EB
:100110000304000823040008490500081507000827
:10012000EF4A0008EF4A0008EF4A0008EF4A0008CB
:10013000EF4A0008EF4A0008EF4A0008EF4A0008BB
:10014000EF4A0008EF4A0008EF4A0008EF4A0008AB
:10015000EF4A0008EF4A0008EF4A0008EF4A00089B
:10016000EF4A0008EF4A0008EF4A0008EF4A00088B
:10017000EF4A0008EF4A0008EF4A0008EF4A00087B
:10018000EF4A0008EF4A000800F002F800F0B2F869
:100190000AA090E8000C82448344AAF10107DA45E2
:1001A00001D100F0A7F8AFF2090EBAE80F0013F082
:1001B000010F18BFFB1A43F001031847A4B4000055
:1001C000C4B400000A444FF0000C10F8013B13F0D7
:1001D000070408BF10F8014B1D1108BF10F8015BA0
:1001E000641E05D010F8016B641E01F8016BF9D193
:1001F00013F0080F1EBF10F8014BAD1C0C1B09D1EA
:100200006D1E58BF01F801CBFAD505E014F8016B5B
:1002100001F8016B6D1EF9D59142D6D370470000ED
:100220000023002400250026103A28BF78C1FBD8FF
:10023000520728BF30C148BF0B6070476E2908F0D5
:10024000B181702907F0E98666290BF0768065296F
:100250000BF0738067290BF0708061290BF06F80C1
:1002600003681B0A28BF41F08001692907F05A86FC
:10027000642907F05786752907F054866F2908F01E
:10028000BF84782907F0B586E92908F05984E42964
:1002900008F05684F52908F05384EF2908F0BC844F
:1002A000F82907F0B4860368DB0928BF41F0800114
:1002B000632908F0C883732908F0CD83E32908F087
:1002C0001787F32908F01C87002070471FB50BF033
:1002D0002AF808F0EFFC0400002000210AF058FB87
:1002E000401C6060002000210AF03CFBE0601FBD64
:1002F00010B510BD09F058F91146FFF7E7FF00F0FF
:1003000009F809F07FF903B4FFF7F2FF03BC04F02A
:10031000C3FB000007F046FD07F082FD4FF4A0602C
:1003200004F060FD01F00DF84FF4E13004F075FBCE
:1003300002F02AFF04F011FC02F010FB01F0B8FB00
:1003400001F03EF901F073FA01F07AFC00F0A4FC30
:1003500001F062FD03A007F0AFFD01E000F09EFF99
:10036000FCE700000A0A456E746572696E67206DCD
:1003700061696E206C6F6F700A0A0000704700BFE1
:10038000FEE700BFFEE700BFFEE700BFFEE77047E5
:1003900070477047704710B56021FE4806F032FC88
:1003A00010BD10B540F22551FB4807F0B1FC38B143
:1003B000F94807F0EBFB04462146F84807F0E2FB5A
:1003C00010BD10B540F22551F54807F0A1FC38B139
:1003D000F34807F0DBFB04462146F04807F0D2FB68
:1003E00010BD10B540F22551EE4807F091FC38B130
:1003F000EC4807F0CBFBC4B22146EB4801F0EAFB26
:1004000010BD10B540F22551E84807F081FC38B125
:10041000E64807F0BBFB04462146E04807F0B2FB84
:1004200010BD38B540F22551DC4807F071FC78B3B7
:10043000DA4807F0ABFBC4B22146D84807F0A2FB6C
:100440000A2C02D0232C1AD115E0D948007848B1E3
:100450000020D74908702146D64801F0BBFB02F0C6
:1004600063FE07E000BF6946D24801F0CCFBB0F163
:10047000FF3FF8D10BE00120CD49087007E0CC48E0
:10048000007818B12146CB4801F0A4FB00BF00BFA3
:1004900038BD10B50121C84807F06DF928B104F046
:1004A0002AF80121C44807F077F910BD10B50121E1
:1004B000C24807F060F9E0B3C1480088401CC04959
:1004C0000880084600881E2839DD00200880BD48C5
:1004D0000078012833D100F0B8FFBB48D0ED000A06
:1004E000BA4890ED001A70EE810A9FEDB91A70EECD
:1004F000C10AB4EEE00AF1EE10FA04D2B2EE040A38
:1005000001F018FA1BE000F0A0FFAF48D0ED000AA0
:10051000AE4890ED001A70EE810A9FEDAE1A70EEB3
:10052000C10AB4EEE00AF1EE10FA06D2B1EE040A06
:1005300000E008E001F0FEF901E001F02BFA0121F2
:100540009E4807F029F910BD10B50121A24807F017
:1005500012F9B8B300242FE0A04830F81400401C72
:100560009E4921F81400084630F814009C4951F8BF
:10057000241088421ED9994830F81400994951F83E
:100580002410884209D2984A32F81410974A52F837
:100590002400002205F042FB0CE0934A32F81410CC
:1005A000924A52F82400012205F038FB00208B49C2
:1005B00021F81400601CC4B2052CCDDB0121864853
:1005C00007F0EAF810BD10B50121894807F0D3F80B
:1005D00028B102F083FA0121854807F0DDF810BD4B
:1005E00010B58449844804F0F3FD01287AD1002134
:1005F000814804F043FD02F041FE804880ED000A8E
:1006000090ED000AB5EEC00AF1EE10FA01D100BF7C
:10061000FEE77A4890ED000A7948D0ED000A30EE06
:10062000600A7848D0ED000A30EE200A80ED000A1A
:10063000724890ED000ADFED740AB4EEE00AF1EEC4
:1006400010FA13D26E4890ED000ADFED700AB4EE96
:10065000E00AF1EE10FA09DD6A4890ED000ADFEDDC
:100660006C0A30EE200A80ED000A1CE0634890ED31
:10067000000ADFED660AB4EEE00AF1EE10FA12DDD0
:100680005F4890ED000ADFED600AB4EEE00AF1EE9B
:1006900010FA08D25B4890ED000ADFED5E0A30EEFA
:1006A000200A80ED000A554890ED000A544880ED7C
:1006B000000A5948007838B99FED580A514880ED32
:1006C000000A012054490870012055490870494921
:1006D000494804F0A7FD0121474804F0CFFC002061
:1006E0004F49087010BD10B54E494348303004F0F2
:1006F0006FFD01280DD14CA1284804F0A0F900217C
:100700003D48303004F0BAFC46493B48303004F0F4
:1007100089FD10BD10B50121464807F02CF80028CE
:1007200036D00121434807F037F8434806F0B8FBBC
:10073000A0F57A60414909680844404908604FF4CF
:100740007A603D4948623E4806F0AAFBA0F57A600F
:100750003C49096808443B4908604FF47A603849CD
:1007600024310860384806F09BFBA0F57A603749D1
:1007700009680844354908604FF47A6032492431E9
:100780000860334806F08CFBA0F57A60314963E0DD
:1007900079E00000003800400010014000500040A7
:1007A000004400400048004020020020004C00406F
:1007B00000000020700200200044014000200040A2
:1007C000020000209D000020A4000020A0000020C6
:1007D000CCCC4C3D0AD7A33C00100040AC0100201B
:1007E000B8010020CC0100201C00002028000020BF
:1007F0000048014000802010406002403401002089
:10080000300100202C010020DB0FC9BFDB0FC93FE6
:10081000DB0FC940DB0FC9C004000020000000004E
:10082000280100202080002053656E644F4B0D0A84
:1008300000000000001400400000014048000020BB
:100840000004004044000020000800403C0000205C
:10085000000C004040000020096808443D49086041
:100860004FF47A603C4908603C4806F019FBA0F55B
:100870007A603B4909680844394908604FF47A6056
:1008800036492431086010BD10B50121354806F005
:1008900072FF28B10121334806F07EFF05F037FCD6
:1008A00010BD10B52DED028B0A200AF00EF84FF4A2
:1008B000807004F04FFD012818D101022A4805F08C
:1008C0008FF978B900F0C1FDB0EE408A00F0BDFDAF
:1008D000B4EEC08AF1EE10FA01DD01F05BF823A05E
:1008E00007F0EAFA4FF4807004F03FFD4FF4007017
:1008F00004F030FD012802D1400204F036FDBDECC9
:10090000028B10BD10B50A2009F0DFFF4FF4006024
:1009100004F020FD01280FD1C1021A4805F060F94A
:1009200030B901F037F801F09AF810A007F0C4FAD6
:100930004FF4006004F019FD10BD10B508211148F6
:1009400005F04EF908B900F02EFA082004F00DFD6C
:1009500010BD000040000020240C004000040140B5
:100960004C000020001C0040001002400A73746F0D
:10097000705F66616E5F75705F646F776E28290ABD
:1009800000000000001402400CB50020019000900F
:100990007648006840F480307449086000BF7348AE
:1009A000006800F4003000900198401C019000980D
:1009B00018B90198B0F5A04FF1D16C48006800F467
:1009C000003010B10120009001E00020009000985C
:1009D000012846D165484030006840F080506349A6
:1009E000403108606248006840F440406049086057
:1009F0005E48083000685D490831086008460068B4
:100A000040F4004008600846006840F4A0500860C8
:100A10005848091F0860081F006840F08070091FCF
:100A2000086000BF5148006800F000700028F9D04D
:100A300040F20570504908604C480830006820F0CA
:100A400003004A49083108600846006840F0020087
:100A5000086000BF45480830006800F00C00082816
:100A6000F8D10CBD10B54548006840F4700043490A
:100A700008603E48006840F001003C4908600020E2
:100A80003A4908310860394800683D49084037490B
:100A900008603C48091D0860081F006820F4802099
:100AA000091F0860002031490C310860FFF76CFF16
:100AB0004FF0006031498039086010BD70B50020EA
:100AC0000022022300240221284D08352D6805F05C
:100AD0000C0020B1042806D0082834D107E02A4DA4
:100AE0002A4E356033E02A4D284E35602FE01F4DE9
:100AF0002D1D2D68C5F380541C4D2D1D2D6805F04E
:100B00003F0154B1224DB5FBF1F5184E361D366844
:100B1000C6F3881605FB06F209E01B4DB5FBF1F59F
:100B2000124E361D3668C6F3881605FB06F20F4DC9
:100B30002D1D2D68C5F301456D1C6B00B2FBF3F54F
:100B4000124E356003E0104D104E356000BF00BFFF
:100B5000064D08352D68C5F303150E4E705D0B4D1F
:100B60002D68C540094E356070BD00000038024058
:100B70000070004008544007003C024088ED00E04F
:100B8000FFFFF6FE103000240024F40008000020CF
:100B900000127A000C00002010B50121084605F073
:100BA000A7FC0121042005F0A3FC0121402005F051
:100BB0009FFC10BD6E4A52F8202000EE902AB8EE3D
:100BC000601A6C4A52F8202000EE902AF8EE600A73
:100BD000C1EE201AB0EE610A674AB2FBF1F2654B32
:100BE00043F820201A4652F8202000EE902AF8EE12
:100BF000600A60EE800AFCEEE00A10EE902A5C4B80
:100C000043F82020704730B50546002406E055F82B
:100C100024102046FFF7CEFF601CC4B2052CF6DB83
:100C200030BD544951F8201000EE901AF8EE600AD9
:100C300060EE800AFCEEE00A10EE901A4C4A42F890
:100C40002010704770B50546002422E005EB8400B3
:100C500090ED000AB5EEC00AF1EE10FA14DB05EBD8
:100C6000840090ED000AF7EE000AB4EEE00AF1EE1F
:100C700010FA09D805EB8400D0ED000AB0EE600A46
:100C80002046FFF7CEFF02E03CA007F015F9601CFC
:100C9000C4B2052CDADB70BD10B590B014223B490C
:100CA0000BA807F06CFB14223849143106A807F092
:100CB00066FBFFF771FF01208DF8140002208DF80C
:100CC000150000208DF8160001208DF81700002473
:100CD0000BE02F4830F8140004902E4951F82400FE
:100CE00004A904F01BFF601CC4B2052CF1DB002436
:100CF0000AE042F210701F4941F8240040101C49DC
:100D000041F82400601CC4B2052CF2DB0BA8FFF7ED
:100D100099FF06A8FFF777FF0121102005F031FCAD
:100D2000132002905320ADF804000020ADF8060017
:100D3000ADF80C0001A9184806F065F8012211462B
:100D4000154806F001FD0121134806F0E5F83620AC
:100D50008DF8000000208DF801008DF802000120C0
:100D60008DF80300684604F042F810B010BD000092
:100D7000B8010020CC010020A086010057726F6EE0
:100D8000672044757479210A0000000044B300080C
:100D90001C000020280000200010004001466A4886
:100DA00030F91100704710B568A1694803F047FE9B
:100DB0000A2009F08AFD10BD10B52DED028BB0EEB2
:100DC000408AB0EE480A01F048F9BDEC028B10BD34
:100DD00010B52DED028BB0EE408A02F09CFA38EE91
:100DE000400AF0EE408AFFF7E7FFBDEC028B10BD32
:100DF00010B50446214657A007F05EF8204601F0E2
:100E0000BFF910BD10B52DED028BB0EE408AF0EEAB
:100E1000608AF0EE680AB0EE480A01F0FEF9BDEC17
:100E2000028B10BD70B504460D462A4621464DA0E2
:100E300007F042F82946204601F080FB70BD00B55E
:100E40002DED068B83B0B0EE408AF0EE608A18EE8E
:100E5000900A0AF0F7F941EC190B18EE100A0AF0A3
:100E6000F1F941EC1A0B8DED009B53EC1A2B42A0CB
:100E700007F022F8F0EE680AB0EE480A01F041FCF3
:100E800003B0BDEC068B00BD10B52DED048BB0EEAC
:100E9000408A18EE100A0AF0D5F941EC190B53EC10
:100EA000192B3AA007F008F8BDEC048B10BD704771
:100EB00010B52DED048BB0EE408A18EE100A0AF042
:100EC000C1F941EC190B53EC192B34A006F0F4FFD7
:100ED000BDEC048B10BD704710B500F0AFFF0A20C9
:100EE00009F0F3FC10BD10B530A1194803F0A7FDBF
:100EF000012009F0EAFC30A1154803F0A0FD012013
:100F000009F0E3FC10BD10B52EA1114803F097FDC8
:100F1000012009F0DAFC2EA10D4803F090FD01201C
:100F200009F0D3FC10BD10B52CA1094803F087FDD2
:100F3000012009F0CAFC2BA1054803F080FD012027
:100F400009F0C3FC10BD0000C400002056300D00A5
:100F5000001001400D6F746174655F63282564297A
:100F60000A0000000A6D6F76655F78795F63282557
:100F7000642C202564290A000A6D6F76655F7879F4
:100F80002825662C202566290A0000000A6D6F7648
:100F9000655F78282566290A000000000A6D6F76D3
:100FA000655F79282566290A000000000D34562D5A
:100FB000383030300D0000000D3356383030300DF1
:100FC000000000000D3456313030300D00000000BC
:100FD0000D33562D313030300D0000000D345630B9
:100FE0000D0000000D3356300D00000070B52DEDE2
:100FF000028B88B007A9D64800F005FE00200690B5
:1010000005900490002600259DF81C00112874D03E
:101010000BDC26D2DFE800F025D2D5DBDECFE3E81B
:10102000EBD8EE2525252525C50022287BD00CDC14
:10103000142831D004DC122876D0132811D11BE1FA
:10104000202845D021280CD158E041286DD004DC5F
:10105000302807D0402804D168E042287AD04328BD
:1010600079D015E106A9BA4800F0CDFD05A9B84828
:1010700000F0C9FD04A9B64800F0C5FD9DF81000B8
:1010800042B29DF8140041B29DF8180040B200F041
:10109000F2FE01F03DFCFBE006A9AD4800F0B3FD17
:1010A0009DF8180030B1012807D0022808D0032885
:1010B00009D00BE000F055FD08E000F03DFD05E033
:1010C00000F041FD02E000F045FD00BF00BFDFE0A1
:1010D00006A99F4800F097FD9DF818604FF6FF7035
:1010E00000EA062606A99A4800F08DFD9DF8180032
:1010F000064330B2FFF7EFFECAE0AEE006A994481F
:1011000000F081FD9DF818604FF6FF7000EA06269A
:1011100006A98F4800F077FD9DF81800064330B20D
:10112000FFF7C5FEB4E02BE0A1E015E0002409E0E4
:1011300006A9874800F067FD2D029DF818000543B9
:10114000601CC4B2042CF3DB02959DED020AFFF78C
:10115000AFFE9DE051E065E0002409E006A97C486F
:1011600000F051FD2D029DF818000543601CC4B22B
:10117000042CF3DB03959DED030AFFF785FE87E062
:1011800006A9734800F03FFD05A9714800F03BFD3A
:101190009DF8140041B29DF8180040B2FFF742FEDE
:1011A00076E006A96A4800F02EFD9DF8180040B2CE
:1011B000FFF71EFE6CE0FFF78FFE69E0FFF7F3FD1F
:1011C00066E0FFF790FE63E0FFF79DFE60E0FFF74B
:1011D000AAFE5DE0B2EE040A00F0ACFB58E0B2EE0D
:1011E000040A00F0ECFB53E000F0DEFB50E000F0FE
:1011F00016FC4DE009F0AAFB4AE000240AE006A92B
:10120000534800F000FDE1009DF8180088400543B8
:10121000601CC4B2042CF2DB01959DED010A00F0C4
:1012200053FB35E000240AE006A9494800F0EBFC36
:10123000E1009DF8180088400543601CC4B2042CEE
:10124000F2DB0195019809F0FDFF41EC180B53EC1E
:10125000182B40A006F030FE1AE006A93C4800F02A
:10126000D2FC9DF8180040B200F052FB10E006A935
:10127000374800F0C8FC0BE006A9354800F0C3FC75
:101280009DF8182002F00F01100900F064FD00BF66
:1012900000BF002008B0BDEC028B70BDF8B5002087
:1012A00000902B488089002848DD29484068401C70
:1012B0002749C989B0FBF1F201FB120524480068F7
:1012C000475D3E1107F00F0721488189B01C81421C
:1012D00031DB002410E028191D49C989B0FBF1F267
:1012E00001FB12001A490968085C9DF800100844C7
:1012F000C0B20090601C84B2B442ECDD28191449DD
:10130000C989B0FBF1F201FB120011490968085CC0
:101310009DF80010884207D1FFF768FE69460C4827
:1013200000F071FC0020F8BD6946094800F06BFC34
:101330006FF00200F7E76FF00100F4E74FF0FF30C5
:10134000F1E710B540220749014800F03AFC10BD12
:101350002002002066616E5F6B6F77746F772825BF
:1013600066290A00E00100201CB5E0480068E04959
:101370000968CDE90010DF480368DF480268DF48EC
:101380000168DFA006F098FD1CBD10B52DED0A8B9D
:10139000D848006809F044FD41EC1C0B9FEDDD0BC3
:1013A00053EC102B09F0E4FB41EC1B0B9FEDDB0B26
:1013B00053EC102B09F05EFD41EC1A0B9FEDD90B9D
:1013C00053EC102B09F056FD41EC190B9FEDD70B98
:1013D00053EC102B09F04EFD41EC180B09F0EEFA1E
:1013E00000EE100ABDEC0A8B10BD10B52DED0A8B76
:1013F000BF48006809F014FD41EC1C0B9FEDC50BC4
:1014000053EC102B09F0B4FB41EC1B0B9FEDC30B0D
:1014100053EC102B09F02EFD41EC1A0B9FEDC10B84
:1014200053EC102B09F026FD41EC190B9FEDC10B7D
:1014300053EC102B09F01EFD41EC180B09F0BEFA1D
:1014400000EE100ABDEC0A8B10BD10B52DED0A8B15
:10145000A948006809F0E4FC41EC1C0B9FEDAD0BC2
:1014600053EC102B09F084FB41EC1B0B9FEDB30BED
:1014700053EC102B09F0FEFC41EC1A0B9FEDA90B6D
:1014800053EC102B09F0F6FC41EC190B9FEDA70B68
:1014900053EC102B09F0EEFC41EC180B09F08EFA1E
:1014A00000EE100ABDEC0A8B10BD10B52DED0A8BB5
:1014B0009248006809F0B4FC41EC1C0B9FED950BC1
:1014C00053EC102B09F054FB41EC1B0B9FED930BDD
:1014D00053EC102B09F0CEFC41EC1A0B9FED910B55
:1014E00053EC102B09F0C6FC41EC190B9FED910B4E
:1014F00053EC102B09F0BEFC41EC180B09F05EFA1E
:1015000000EE100ABDEC0A8B10BD10B52DED0A8B54
:101510007648006809F084FC41EC1C0B9FED7D0BC4
:1015200053EC102B09F024FB41EC1B0B9FED7B0BC4
:1015300053EC102B09F09EFC41EC1A0B9FED790B3C
:1015400053EC102B09F096FC41EC190B9FED790B35
:1015500053EC102B09F08EFC41EC180B09F02EFA1D
:1015600000EE100ABDEC0A8B10BD1FB50121202032
:1015700005F007F8A720ADF8040040F2E73002902C
:101580000020ADF80C00ADF8060001A96D4805F08B
:101590003AFC012211466B4806F0D6F80121694851
:1015A00005F0BAFC37208DF8000001208DF801000D
:1015B0008DF802008DF80300684603F018FC1FBD8B
:1015C00010B588B00121084604F0ECFF002407E0C4
:1015D0005D4951F82400012104F0D3FF601C44B29E
:1015E000032CF5DB0121022004F0DCFF002407E0DE
:1015F000564951F82400012104F07AFF601C44B2DE
:10160000052CF5DB00240BE0514B1A5D514B33F8F0
:101610001410514B53F8240004F00BFB601C44B22F
:101620000A2CF1DB02208DF81C0000208DF81D0033
:101630008DF81E0001208DF81F0000240BE04748A4
:1016400030F814000690444951F8240006A904F02B
:1016500065FA601C44B20A2CF1DB0020ADF80C00E6
:1016600047F22F5004900020ADF81400ADF80E00A2
:10167000684605F0D6FF0620ADF8080000242EE0ED
:10168000374951F8240003A905F0BDFB344951F84E
:10169000240000231A46032106F029F9304951F8A5
:1016A0002400694605F086FF4FF47A602C4951F812
:1016B000241048622A4951F82400012106F058F804
:1016C000274951F824000122114606F03DF824492B
:1016D00051F82400012105F01FFC601C44B2052CC8
:1016E000CEDBFFF742FF08B010BD00004C00002029
:1016F000400000203C000020440000204800002062
:101700000D0A2564092564092564092564092564F1
:101710000A0000000000000000409F40000000A000
:101720009999A93F00000060FB21094000000000DA
:101730000000F0BF000000000000F03F000000E0EB
:101740004D62A03F001400406CB3000880B3000855
:10175000A8B3000894B3000850000020B2B30008FA
:10176000780000201CB5002407E0354951F824001A
:10177000012104F0BDFE601CC4B2042CF5DB002086
:101780008DF804008DF8050001208DF80700002475
:101790000BE02C4830F8140000902B4951F824003D
:1017A000694604F0BBF9601CC4B2042CF1DB1CBD1B
:1017B0001CB50121880304F0F5FE002407E0234A4C
:1017C000115D234A105D05F038FA601CC4B2042C88
:1017D000F5DB00208DF8040010208DF805000120B5
:1017E0008DF80600002408E01A4850F82400009004
:1017F000684603F049FD601CC4B2042CF4DB1CBD38
:1018000038B504208DF801008DF8020001208DF814
:101810000300002408E01048005D8DF800006846D1
:1018200003F0E5FA601CC4B2042CF4DB38BD10B53B
:10183000FFF798FFFFF7BCFFFFF7E2FF10BD0000C6
:10184000C8B30008D8B300088C000020E4B3000837
:10185000E0B30008E8B30008F8B300081FB50121A1
:10186000080204F08EFE40F2E7300290A720ADF8A7
:1018700004000020ADF80600ADF80C0001A97A487C
:1018800005F0C1FA01221146774805F05DFF0121FC
:10189000754805F041FB2D208DF8000003208DF8E0
:1018A00001008DF8020001208DF80300684603F066
:1018B0009EFA1FBD10B59FED6D0A0020FFF7B1F92C
:1018C00001206B49087010BD10B52DED048BB0EEF2
:1018D000408A9FED680A28EE000A9FED671AC0EE65
:1018E000010A9FED660A30EE600AF0EE408A02209F
:1018F000FFF797F918EE100A09F0A4FC41EC190B58
:1019000053EC192B5EA006F0D7FABDEC048B10BD8A
:1019100010B5044600EE904AB8EEE01ADFED5C1A0E
:10192000DFED5C0A41EE210AB0EE600A0220FFF70B
:1019300078F910BD10B52DED028BB0EE408A002075
:1019400000F0ECF8B2EE040AB4EEC08AF1EE10FA40
:1019500005DD9FED460A0120FFF763F917E0BAEEB7
:10196000040AB4EEC08AF1EE10FA05D29FED4A0ADD
:101970000120FFF756F90AE0DFED480A9FED481A0B
:1019800041EE480AB0EE600A0120FFF74AF9BDECCB
:10199000028B10BD10B59FED410A0120FFF741F900
:1019A000002000F0B1F810BD10B5B2EE040AFFF748
:1019B000C1FF322008F089FFFFF7ECFF10BD10B522
:1019C0002DED028BB0EE408A002000F0A7F8B2EEB9
:1019D000040AB4EEC08AF1EE10FA05DD9FED230A89
:1019E0000120FFF71EF917E0BAEE040AB4EEC08A30
:1019F000F1EE10FA05D29FED280A0120FFF711F948
:101A00000AE0DFED260A9FED261A41EE080AB0EE45
:101A1000600A0120FFF705F9BDEC028B10BD10B57F
:101A2000B2EE040AFFF7CBFF322008F04EFFFFF7BB
:101A3000B1FF10BD10B52DED028BB0EE408AFFF75F
:101A40000DFF012017490870FFF7FFFC164880EDD5
:101A5000000A164880ED008ABDEC028B10BD002004
:101A6000104908707047000000200040B81E853DF6
:101A70009C0000208FC2753DDB0FC93F8FC2F53D32
:101A80000A66616E5F726F6C6C282566290A000019
:101A90000AD7A33DB81E053E2DB29D3D7368913D0A
:101AA00052491D3A9D000020A4000020A000002003
:101AB0001CB50121402004F01BFD01208DF804001D
:101AC00000208DF805008DF8060001208DF8070034
:101AD000002409E0164830F81400009069461548C3
:101AE00004F01CF8601CC4B2032CF3DB002408E0F3
:101AF0000F4830F8141001220E4804F08FF8601CD3
:101B0000C4B2012CF4DB1CBD10B50446084830F803
:101B100014100122074804F081F810BD10B50446E6
:101B2000034830F814100022024804F077F810BD82
:101B3000A80000200018024010B59FED0D0A0320F8
:101B4000FFF76FF810BD10B59FED0A0A0320FFF7ED
:101B500068F810BD10B59FED080A0420FFF761F882
:101B600010BD10B59FED050A0420FFF75AF810BD0F
:101B7000CDCCCC3D8FC2F53CE7FBA93D4260653D35
:101B800010B52DED048B0446B4F5004F0DDB204657
:101B900009F05DF941EC190B9FED270B53EC102B6D
:101BA00009F066FA41EC180B04E0204609F038F918
:101BB00041EC180BB0EE480AF0EE680ABDEC048B5D
:101BC00010BD03461960501E98605860002098812F
:101BD000DA81704710B502469089D389984202D1C4
:101BE0004FF0FF3010BD9068401CD389B0FBF3F478
:101BF00003FB1400906093681068C1549089401CE6
:101C000090810020EEE710B50246908910B94FF0A0
:101C1000FF3010BD5068401CD389B0FBF3F403FBC8
:101C200014005060D2E90003C05C08709089401E27
:101C300090810020EDE70000000000000000F0406F
:101C40001CB50121102004F053FC0121402004F0B8
:101C50004FFC002416E0584830F814000090012092
:101C60008DF8040000208DF805008DF80600012095
:101C70008DF80700514951F82400694603F04EFFE2
:101C8000601CC4B2042CE6DB00240AE04A4A32F8A5
:101C900014104A4A52F82400002203F0BFFF601CCF
:101CA000C4B2042CF2DB1CBD70B505460C4625B150
:101CB000012D1BD0FF2D4BD131E062003E4B33F89C
:101CC000121062003D4B53F82200012203F0A6FFE0
:101CD0006200521C384B33F812106200521C374B12
:101CE00053F82200002203F099FF32E06200324BE9
:101CF00033F812106200314B53F82200002203F037
:101D00008DFF6200521C2C4B33F812106200521CE3
:101D10002A4B53F82200012203F080FF19E06200F1
:101D2000254B33F812106200244B53F82200002296
:101D300003F074FF6200521C1F4B33F81210620054
:101D4000521C1E4B53F82200002203F067FF00E0F4
:101D500000BF00BF70BD70B505460C4625B1012D12
:101D600010D0FF2D21D11BE021460020FFF79CFF62
:101D7000012C03D1C82008F0A8FD02E0282008F0BB
:101D8000A4FD13E021460120FFF78EFF012C03D1B3
:101D9000C82008F09AFD02E0282008F096FD05E032
:101DA0002146FF20FFF780FF00E000BF00BF214673
:101DB000FF20FFF779FF70BDAC000020B4000020C9
:101DC0001FB50121802004F0DCFBA720029047F220
:101DD0002F50ADF804000020ADF80600ADF80C005F
:101DE00001A9154805F00FF801221146124805F027
:101DF000ABFC0121104805F08FF82C208DF8000075
:101E000004208DF801008DF8020001208DF80300F8
:101E1000684602F0ECFF1FBD10B545F2555004F0C6
:101E20006DF9802004F070F9032004F06AF904F0E1
:101E300073F9FFF7C5FF10BD001C00401CB5002062
:101E400005E00021FE4A22F81010411CC8B2042807
:101E5000F7DBFB48B0F90600F949B1F90410CDE908
:101E60000010F748B0F90230B0F90020F5A1FB48A6
:101E700002F0E5FD1CBD70B52DED088B04460D4646
:101E80001646F0EE000A9FEDF60A08F059F8F0EE5B
:101E900040BAF0EE000A9FEDF30A08F051F83BEE6D
:101EA000800AB0EE40BA08F019FCDFEDEE0A80EED1
:101EB000801AF0EE419AF0EE000A9FEDE90A08F070
:101EC0003FF8F0EE40BAF0EE000A9FEDE60A08F0A7
:101ED00037F83BEE800AB0EE40BA08F0FFFBDFEDCA
:101EE000E00A80EE801AB0EE41AAB7EE000AF0EEEA
:101EF00040AA00EE104AB8EEC00A9FEDDB1AC0EE11
:101F0000010A9FEDDA0A20EE800ABDEEC00A10EE4B
:101F1000100A00B208EE100A00EE105AF8EEC00ADD
:101F20009FEDD11A80EE810ADFEDD00A20EE200A63
:101F3000BDEEC00A10EE100A00B208EE900A00EEE4
:101F4000106AB8EEC00A9FEDC81AC0EE010A9FEDF4
:101F5000C80A20EE800ABDEEC00A10EE100A00B2D8
:101F600009EE100AB8EEC80A29EE800AF8EEE80A6F
:101F70000AEE200AF8EEC90A0AEEA00AFFEE000AED
:101F800020EE200ABDEEC00A10EE100A00B2AC49E5
:101F90000880B1EE690AF8EEC80A20EE200AF8EED1
:101FA000E80A0AEE200AF8EEC90A0AEEA00AFFEED5
:101FB000000A20EE200ABDEEC00A10EE100A00B2A0
:101FC0004880B8EEC80A29EE800AF8EEE80A0AEE60
:101FD000200AF8EEC90A0AEEE00AF7EE000A20EE3F
:101FE000200ABDEEC00A10EE100A00B28880B1EEE1
:101FF000690AF8EEC80A20EE200AF8EEE80A0AEEAE
:10200000200AF8EEC90A0AEEE00AF7EE000A20EE0E
:10201000200ABDEEC00A10EE100A00B2C88095A0DA
:1020200005F04AFF8648B0F9001096A005F044FF7D
:102030008348B0F9021095A005F03EFF8048B0F942
:10204000041094A005F038FF7D48B0F9061093A065
:1020500005F032FFBDEC088B70BD10B52DED048B83
:1020600088B0B0EE408A9FED8F0A8DED040AB7EE7E
:10207000000A8DED060A9FED8C0A8DED050A684673
:1020800001F024FF01F047F9B0EE409A39EE080A5A
:102090008DED000AB5EEC08AF1EE10FA24DD9DED5B
:1020A000000ADFED820A30EE200A8DED000A11E011
:1020B00001F031F98DED010A684601F018FFBDEE1F
:1020C000C00A10EE100A44B22046FEF791FE0A2024
:1020D00008F0FBFB01F01FF978EE090AB4EEE00A04
:1020E000F1EE10FAE4D345E0B5EEC08AF1EE10FA55
:1020F00040D29DED000ADFED6D0A30EE600A8DEDF5
:10210000000A2EE001F007F98DED010A684601F0A2
:10211000EEFEF0EE408AB0EE000A28EE800AF0EE05
:10212000408A9FED630AF4EEC08AF1EE10FA03DDF7
:102130009FED5F0AF0EE408A9FED5E0AF4EEC08AE2
:10214000F1EE10FA03D29FED5B0AF0EE408ABDEE8D
:10215000E80A10EE100A40B2FEF74AFE0A2008F024
:10216000B4FB01F0D8F878EE090AB4EEE00AF1EE1B
:1021700010FAC7DCFEF7B0FE08B0BDEC048B10BD52
:102180007CB5054600EE105AF8EEC00A9FED361AEF
:1021900080EE810ADFED480A20EE200ABDEEC00A7B
:1021A00010EE100A04B2604200B225490880604275
:1021B00000B24880604200B28880604200B2C880AD
:1021C0002CA005F079FE1E48B0F900102DA005F0F6
:1021D00073FE1B48B0F902102CA005F06DFE1848E4
:1021E000B0F904102BA005F067FE1548B0F90610F1
:1021F0002AA005F061FE1248B0F906001049B1F9B5
:102200000410CDE900100E48B0F90230B0F90020FA
:102210000CA1124802F013FC7CBD00B52DED108B13
:1022200083B0F0EE40DAB0EE608A01F074F8B0EE00
:1022300040EAB0EEC80AB0EE40BA08F087F93DE0D7
:10224000C40000200D305625640D315625640D3232
:102250005625640D355625640D0000000010014020
:102260000000FA4300802244000000430000FA44CA
:1022700000007A446172675F7370656564733A0A3F
:102280000000000009303A25640A000009313A25AF
:10229000640A000009323A25640A000009333A252D
:1022A000640A00000000484200000000295C8F3DE5
:1022B0000000FE420000FEC200007A45CDEE800A1A
:1022C000F0EE608AF0EE000A1FED1B0A07F038FE00
:1022D000F0EE40BAF0EE000A1FED1E0A07F030FEE5
:1022E0003BEE800AB0EE40BA08F0F8F95FED240A40
:1022F00080EE801AF0EE41AAB7EE000AF0EE40EA56
:102300004FF47A6009EE900AB5EEC08AF1EE10FA49
:1023100012DDB5EE000A38EEC00A80EE28AAB5EE4E
:10232000000A38EE800AC0EE280AB0EE609A29EE64
:102330002E0AB0EE409A5FE0B5EEC08AF1EE10FAD8
:1023400056D218EE900A08F07DFF41EC1C0BB0EE5F
:102350004C0AF0EE6C0A07F0E9FDB0EE40BAF0EE80
:1023600060BAB5EE000A38EE800A10EE101A084680
:1023700008F068FF41EC1F0B53EC1B2B08F0F8FB37
:10238000CDE900019DED000B51EC100B08F016FBA0
:102390000AEE100A18EE900A08F054FF41EC1B0BED
:1023A000B0EE4B0AF0EE6B0A07F0C0FDB0EE40CA8B
:1023B000F0EE60CAB5EE000A38EEC00A10EE101A50
:1023C000084608F03FFF41EC1F0B53EC1C2B08F0B4
:1023D000CFFBCDE900019DED000B51EC100B08F097
:1023E000EDFA09EE100A2AEE2E0AB0EE40AA03E03A
:1023F000B7EE00AAB7EE009A3AEE09DA8AEE0D0AB5
:10240000B0EE40AA89EE0D0AB0EE409AB8EEE90AA5
:102410002AEE800AFFEE000A20EE200A20EE090ACA
:10242000BDEEC00A10EE100A00B2F7490880B8EEFF
:10243000E90A2AEE800AFFEE000A20EE200A20EECA
:10244000090ABDEEC00A10EE100A00B24880B8EECC
:10245000E90A2AEE800AF7EE000A20EE200A20EEB2
:102460000A0ABDEEC00A10EE100A00B28880B8EE6B
:10247000E90A2AEE800AF7EE000A20EE200A20EE92
:102480000A0ABDEEC00A10EE100A00B2C880AFF210
:102490001C2005F011FDDC48B0F90010AFF21C2043
:1024A00005F00AFDD848B0F90210AFF2202005F07F
:1024B00003FDD548B0F90410AFF2282005F0FCFC6C
:1024C000D148B0F90610AFF22C2005F0F5FCCE484B
:1024D000B0F90600CC49B1F90410CDE90010CA48A2
:1024E000B0F90230B0F90020AFF2A821C74802F0DD
:1024F000A6FAB5EEC08AF1EE10FA0ADD00BF00F0D0
:102500000AFF78EE0E0AB4EEE00AF1EE10FAF6D306
:102510000EE0B5EEC08AF1EE10FA09D200BF00F06D
:10252000FAFE78EE0E0AB4EEE00AF1EE10FAF6DCEE
:10253000FEF7D2FC03B0BDEC108B00BD30B52DED25
:10254000068B83B004460D46F0EE000A1FEDBC0A70
:1025500007F0F6FCF0EE40AAF0EE000A1FEDBF0A0D
:1025600007F0EEFC3AEE800AB0EE40AA08F0B6F8AA
:102570005FEDC40A80EE801AB0EE419AF0EE000AD8
:102580001FEDC90A07F0DCFCF0EE40AAF0EE000AED
:102590001FEDCC0A07F0D4FC3AEE800AB0EE40AA58
:1025A00008F09CF85FEDD20A80EE801AF0EE419AB6
:1025B00000EE104AF8EEC00A1FEDD51A80EE810A2F
:1025C0005FEDC30A20EE200ABDEEC00A10EE100A2D
:1025D00000B208EE100A00EE105AF8EEC00A1FED25
:1025E000DE1A80EE810A5FEDCC0A20EE200ABDEEF5
:1025F000C00A10EE100A00B208EE900AB8EEC80A3F
:1026000029EE000AF8EEE80A09EEA00AFFEE000A39
:1026100020EE200ABDEEC00A10EE100A00B27A4980
:102620000880B1EE490AF8EEC80A20EE200AF8EE5A
:10263000E80A09EEA00AFFEE000A20EE200ABDEE2D
:10264000C00A10EE100A00B24880B8EEC80A29EE9F
:10265000000AF8EEE80A09EEA00AF7EE000A20EEFA
:10266000200ABDEEC00A10EE100A00B28880B1EE5A
:10267000490AF8EEC80A20EE200AF8EEE80A09EE48
:10268000A00AF7EE000A20EE200ABDEEC00A10EE06
:10269000100A00B2C880AFF2244005F00DFC5A4881
:1026A000B0F90010AFF2244005F006FC5648B0F92E
:1026B0000210AFF2284005F0FFFB5348B0F90410B8
:1026C000AFF2304005F0F8FB4F48B0F90610AFF21A
:1026D000344005F0F1FB4C48B0F906004A49B1F925
:1026E0000410CDE900104848B0F90230B0F90020DC
:1026F000AFF2B041454802F0A2F903B0BDEC068B41
:1027000030BD00B52DED088B89B0F0EE408AB0EEFB
:10271000609AF5EEC08AF1EE10FA0AD1B5EEC09AD1
:10272000F1EE10FA05D1FEF7D7FB09B0BDEC088B2E
:1027300000BD9FED370A8DED050AB7EE000A8DED5D
:10274000070A9FED340A8DED060A01A801F0BEFBD1
:10275000FEF71BFE70EE289AFEF747FE30EE09AA40
:10276000F5EEC08AF1EE10FA6CD1B5EEC09AF1EE3A
:1027700010FA59DD9FED280A3AEE000A8DED010AA4
:102780003AE0FEF732FE8DED020A01A801F0AFFB40
:10279000B0EE408A18EE100A08F054FD41EC1B0B15
:1027A00053EC1B2B1DA005F087FBB0EE000A28EEB2
:1027B000000AB0EE408A9FED1A0AB4EEC08AF1EE2C
:1027C00010FA03DD9FED160AB0EE408A9FED150A60
:1027D000B4EEC08AF1EE10FA03D29FED120AB0EE09
:1027E000408ABDEEC80A10EE100A41B20020FFF781
:1027F000A5FE0A2008F069F8FEF7F7FDB4EECA0A54
:10280000F1EE10FABDD37FE0C400002000100140BB
:102810000000484200000000CDCCCC3D25660A00F7
:102820000000FE420000FEC26FF063010020FFF7CF
:1028300085FE00BFFEF7D9FDB4EECA0AF1EE10FA2C
:10284000F8DC61E0B5EEC09AF1EE10FA5CD1F5EE7D
:10285000C08AF1EE10FA4ADD1FED110A39EE800A46
:102860008DED010A3BE0FEF790FD8DED020A01A817
:1028700001F03DFBB0EE408A18EE100A08F0E2FCD1
:1028800041EC1B0B53EC1B2BAFF2700005F014FB5B
:10289000B0EE000A28EE000AB0EE408A1FED200AD2
:1028A000B4EEC08AF1EE10FA03DD1FED230AB0EE9C
:1028B000408A1FED240AB4EEC08AF1EE10FA03D26A
:1028C0001FED280AB0EE408A0021BDEEC80A10EEC6
:1028D000100A40B2FFF732FE0A2007F0F6FFFEF7BB
:1028E00054FDB4EEE90AF1EE10FABCD30CE000217D
:1028F0006FF06300FFF722FE00BFFEF746FDB4EE67
:10290000E90AF1EE10FAF8DCFEF7E6FA00BF0CE790
:102910001CB50BA10F4802F092F80F48B0F9060061
:102920000D49B1F90410CDE900100B48B0F902309F
:10293000B0F90020AFF2F461064802F080F81CBD47
:102940000D414331303030300D444543313030306B
:10295000300D000000100140C400002010B586B00A
:102960000121022003F0C4FD0121202003F0C0FD5D
:1029700000242DE001208DF8140002208DF81500B0
:1029800000208DF8160001208DF81700A64830F8B9
:1029900014000490A54951F8240004A903F0BEF8DE
:1029A00000208DF8140002208DF8150000208DF80D
:1029B000160001208DF817009D4830F8140004908F
:1029C0009C4951F8240004A903F0A8F8601CC4B283
:1029D000022CCFDB0121880403F0E4FD4FF43670B4
:1029E00002900720ADF804000020ADF80600ADF815
:1029F0000C0001A9904804F006FA01218E4804F069
:102A0000B7FE012211468C4804F09EFE01218A483F
:102A100004F082FA1A208DF8000000208DF80100E1
:102A20008DF8020001208DF80300684602F0DFF9FE
:102A300006B010BD814A125C3AB100227F4B1A5495
:102A40007F4A115401227F4B1A54704730B5044617
:102A50000D4600BF7948005D0028FBD0294620467E
:102A6000FFF7E8FF30BD0146774A505C0022774B04
:102A70005A54704710B5044600BF7448005D0028E2
:102A8000FBD02046FFF7EFFF10BD0FB430B5ADF51A
:102A9000037D0546002488A8019040F2012102A888
:102AA000019B879A05F0EEF907E02046621CD4B23C
:102AB00002AA115C2846FFF7C9FFB4F5007F03DACC
:102AC00002A8005D0028F0D100200190022007F04C
:102AD000FCFE0DF5037D30BC5DF814FB10B5002441
:102AE0009EE05B48005D80B35A48005D401EC0B266
:102AF0005849085500283BD1032008555648005D29
:102B0000401EC0B25449085550B95448005D4E4962
:102B1000085500204E49085501204C49085527E02A
:102B20004E48005D40104D490855414A32F8141096
:102B3000404A52F8240003F053F8C8B14748005DFA
:102B400040F080004549085512E0FFE7384A32F866
:102B50001410384A52F8240003F042F840B901201A
:102B60003B49085504203B49085509203A49085576
:102B70003B48005D401EC0B23949085500284DD180
:102B8000032008552F48005D002847D03548005DD8
:102B900080B9254A32F81410244A52F82400002241
:102BA00003F03CF82648005D2F49085509202D49BF
:102BB000085533E02B48005D401EC0B22949085536
:102BC00078B9194A32F81410184A52F82400012230
:102BD00003F024F800201B49085501201749085527
:102BE0001CE02148005D00F0010048B10E4A32F8B7
:102BF00014100E4A52F82400012203F00FF808E0E6
:102C0000094A32F81410094A52F82400002203F04D
:102C100005F81548005D401013490855601CC4B202
:102C2000022CFFF65EAF10BDCC000020D0000020CB
:102C3000D8000020DC00002000480140F8000020FF
:102C4000E4000020F4000020E6000020FA0000204C
:102C5000F6000020EE000020F2000020EA00002034
:102C6000EC000020F0000020E800002010B5024633
:102C70000020012105E00002531AF74CE35C1843E1
:102C8000491C0429F7D910BD10B54FF48042F24910
:102C9000F24802F07EF8F04800780A2806D00A20B0
:102CA000ED4908700120EE49086012E043F6FF7418
:102CB0000CE0E948005DFF2807D1601EE649085C8A
:102CC0000A2802D1E648046002E0641E012CF0D814
:102CD00000BF4022E349E448FEF773FF0120E349C7
:102CE000087010BD10B5DD4802F009F8FFF7CCFF01
:102CF00010BD70B5064600242AE0D748005D0A28BA
:102D000006D1D549601C085CFF2801D1002070BDA8
:102D1000D148005D0A281AD1002514E06019401C32
:102D2000CD49085CD24948550846405D3D2809D147
:102D3000002048553146CE4805F054FB10B96019C3
:102D4000801DE4E76D1CC64800688542E6D3641C1C
:102D5000C34800688442D0D30020D8E72DE9F0476B
:102D600081464FF0000A4846FFF7C3FF05460DB9FC
:102D7000BDE8F0872846FFF779FF82462E4600E03F
:102D8000761EB548805D0A28FAD105EB0A08A8EB43
:102D90000607444605E0B048005DE11BAE4A5054CA
:102DA000641CAF4800688442F5D3E41B03E0FF20B5
:102DB000A9490855641CAA4800688442F7D3A8486A
:102DC0000068C01BA649086000BFD1E72DE9F047A5
:102DD000074688461646A548007808B9BDE8F0873A
:102DE0003846FFF786FF10B13846FFF7B7FF384681
:102DF00005F0A6FA00F0FF0999480568002404E0F0
:102E0000385D2919944A5054641C4C45F8D33D2030
:102E10002919914A50542819451C002406E0E00065
:102E200026FA00F029198C4A5054641C042CF6D35D
:102E30002544002405E018F804002919864A505456
:102E4000641CB442F7D30A202919834A5054281924
:102E5000401C8349086000BFC0E710B58348007874
:102E600000B910BD7D4801F04AFF4FF480427A4915
:102E70007A4801F063FF00BFF3E72DE9F041804697
:102E80000D467A48007810B90020BDE8F081404630
:102E9000FFF72FFF064616B900202870F5E73046E9
:102EA000FFF7E4FE0746002404E030196A49085C95
:102EB0002855641CBC42F8D3002028550120E4E7C3
:102EC0002DE9F041A2B00546284605F039FA8046C2
:102ED00000272878722876D006DC632874D064280E
:102EE00073D0682872D104E0732870D07728F9D1A4
:102EF00033E0022407E0285D3D2803D101270020AC
:102F0000285502E0641C202CF5D300BF0FB3002429
:102F100004E0601C285C11A90855641C601C285C36
:102F20000028F6D1A91C081921AA52A105F044F9DC
:102F3000042221A911A8FFF749FF0020219021A90F
:102F400011A8FFF79AFF11A94CA0219A04F0B4FF31
:102F500002E051A004F0B0FFE2E0012407E0285DA8
:102F60003D2803D101270020285502E0641C202CB5
:102F7000F5D300BF67B3012404E0295D601E11AAE8
:102F80001154641C285D0028F7D10021601E11AA8D
:102F90001154661C002404E03019285C01A908556E
:102FA000641C3019285C0A28F6D1002001A90855B4
:102FB00001AA11A93CA004F07FFF224601A911A893
:102FC000FFF704FF08E008E0A0E026E0A4E03DE011
:102FD000FFE73AA004F070FFA2E001240BE0295DB6
:102FE000601E11AA1154285D0A2803D10021601E19
:102FF000115402E0641C202CF1D300BF01A911A8D8
:10300000FFF73BFF28B101AA11A932A004F054FF39
:1030100002E032A004F050FF82E001240BE0295DC1
:10302000601E11AA1154285D0A2803D10021601ED8
:10303000115402E0641C202CF1D300BF11A8FFF74B
:103040008DFE11A92AA004F037FF69E0FFF705FF04
:103050002BA004F031FF63E08002002000C00008D4
:10306000FC0000203002002070020020000100203F
:10307000A042002025333278000000000A6E616D06
:10308000653A25730A6865783A3078257820736147
:103090007665642E0A0000000A496E76616C6964E8
:1030A000206865780A0000000A6E616D653A257334
:1030B0002C646174613A25730A0000000A57726F2C
:1030C0006E6720636F646520746F20777269746522
:1030D0000A0000000A25733D25730A000A4B657932
:1030E000206E6F7420666F756E642E0A00000000FB
:1030F0000A25732064656C657465640A000000002D
:103100000A73796E6320646F6E650A00FFF7EAFD4B
:1031100012A004F0D1FE03E014A004F0CDFE00BF25
:1031200000BF22B0BDE8F08110B500240FE01448C4
:1031300001191448FEF767FD1148005D0A2804D103
:1031400000210F4A601C115403E0601C84B2402C23
:10315000EDDB00BF0A48FFF7B3FE10BD0A44422072
:10316000434C454152454421210A00000A556E72E4
:1031700065636F676E6973656420636F64650A00D9
:10318000C04200207002002000B591B00D208DF8E3
:10319000040000208DF805008DF8060001208DF850
:1031A000070001A801F023FE0F208DF8040001A8FC
:1031B00001F01DFE0121480503F09AF9254801F0B0
:1031C00081FE2448303001F07DFE02A801F045FF69
:1031D0000720069000200D900E900F900A904FF45B
:1031E000806008901C480390002010900990079080
:1031F0004FF400300C9000200B904FF000600290D4
:10320000402005901548049002A91248303001F082
:10321000FBFE132006904FF480700B90C0040290C8
:10322000002005900E48049002A90A4801F0ECFE27
:103230000121084801F022FF012240210648001F19
:1032400004F022FD01221021024801F0A4FF11B078
:1032500000BD000040600240044C0040140100200A
:10326000010100200146087800064A7840EA024041
:103270008A7840EA0220CA781043704730B528485F
:10328000007828490978884241D125484078254965
:10329000497888423BD122488078224989788842FF
:1032A00035D11F48C0781F49C97888422FD11C48A2
:1032B000001DFFF7D7FF054619480830FFF7D2FF7A
:1032C000044617480C30FFF7CDFF0346164805604B
:1032D0001648046016480360134890ED000ADFEDBD
:1032E000150A20EE200A80ED000A104890ED000A31
:1032F000DFED100A20EE200A80ED000A0C4890ED68
:10330000000ADFED0C0A20EE200A80ED000A0848D2
:1033100090ED000A30BD084890ED000A70470000AB
:1033200001010020FCB300081C0100202001002046
:10333000240100204DF38E3C2C01002070B5054681
:103340000E46F8480078012801D1801E70BD012189
:10335000F54802F06FFDF54C05E02000A4F10104F2
:1033600001D1801EF2E7F249EF4802F07DFE00280D
:10337000F3D0EF49EC4802F0A1FE0022D021EA4848
:1033800002F070FDE94C05E02000A4F1010401D138
:10339000C01EDBE7E649491CE34802F065FE002851
:1033A000F2D04FF47A7400BF2000A4F10104FBD1E5
:1033B0001421DD4802F022FE1821DB4802F01EFE37
:1033C0002946D94802F0D2FDD84C05E02000A4F1EE
:1033D000010401D1001FB9E7D549C91CD24802F048
:1033E00043FE0028F2D04FF47A7400BF2000A4F10D
:1033F0000104FBD13146CC4802F0B8FDCB4C05E0CE
:103400002000A4F1010401D1401F9FE7C849C91C55
:10341000C54802F029FE0028F2D00121C24802F07E
:1034200015FD4FF47A7400BF2000A4F10104FBD114
:1034300000BF8BE72DE9F04104462078BD490870B4
:10344000BD4960680860BD49A0680860BC49E06883
:1034500008606078BB4908700020BB490880B54807
:10346000007800F0010030B108460088801D088017
:103470004320B6490870AF480078C0F3400038B127
:10348000B1480088801CB04908804120AF490870CD
:10349000A8480078C0F3800070B1AB4800880628C7
:1034A00002D1C01FBDE8F081A7480088801DA64951
:1034B00008803B20A5490870A548006820F001005D
:1034C000A3498839C1F8880000BFA148006800F00E
:1034D00001000028F9D19E48006820F060609C49F6
:1034E0008839C1F888000846D0F8880040F000709C
:1034F000C1F888000846D0F8880020F0F070C1F8C4
:1035000088000846D0F8880020F44020C1F88800E0
:103510000846D0F8880040F44030C1F888000846DA
:10352000D0F8880020F4C040C1F888000846D0F8E0
:10353000880020F4C050C1F888000846D0F8880000
:1035400040F48060C1F888000846D0F8880020F474
:103550000070C1F888000846D0F8880020F4807018
:10356000C1F888000846D0F8880020F0C000C1F8F3
:1035700088000846D0F8880020F02000C1F88800B4
:103580000846D0F8880020F01E00C1F888000846E0
:10359000D0F8880040F01000C1F888006A48008820
:1035A0006B49091D086060481030091D08606948B2
:1035B00067498839C1F894000846D0F89C0020F08B
:1035C0008000C1F89C000846D0F89C0040F0040040
:1035D000C1F89C000846D0F89C0040F00300C1F8F8
:1035E0009C005148001D008840F480504E49091D40
:1035F00008800846008840F400600880002505E047
:10360000002700E07F1C0A2FFCDB6D1CB5F57A7FDC
:10361000F6DB00216B20FFF791FE00211920FFF758
:103620008DFE06211A20FFF789FE18211B20FFF7C7
:1036300085FE01211C20FFF781FE0646002E01DADF
:1036400030462FE700202DE71FB5044602940120E5
:103650008DF8000000208DF801006846FFF7EAFEB3
:10366000002004B010BD70B506460D462D48007808
:10367000012801D1801E70BD01212B4802F0DAFB28
:103680002A4C05E02000A4F1010401D1801EF2E7DC
:103690002749254802F0E8FC0028F3D024492248B5
:1036A00002F00CFD0022D0211F4802F0DBFB1F4C72
:1036B00005E02000A4F1010401D1C01EDBE71C4994
:1036C000491C194802F0D0FC0028F2D014211648F9
:1036D00002F094FC1821144802F090FC1B48017879
:1036E000114802F043FC114C05E02000A4F1010454
:1036F00001D1001FBFE70E49C91C0B4802F0B4FC02
:103700000028F2D00121084802F0A0FB0121064860
:1037100002F090FB054C1FE02000A4F101041BD136
:10372000401FA8E73B0100200054004040420F002A
:10373000010000103C0100205C010020600100201D
:10374000640100203D010020380100203A010020E2
:103750008860024000430020FC49FD4802F084FCE0
:103760000028D9D0F949FA4802F0A8FC0122D0215A
:10377000F74802F077FBF74C05E02000A4F10104C4
:1037800001D1801F77E7F149491CF14802F06CFC38
:103790000028F2D00021EE4802F06CFB0121EC4839
:1037A00002F054FB1421EA4802F028FC1821E848F2
:1037B00002F024FCE74C05E02000A4F1010401D153
:1037C000C01F58E7E1493F31E14802F04DFC0028B5
:1037D000F2D0DF4802F0CCFB28700121DC4802F077
:1037E00049FB002047E770B5DB48006800F00100A6
:1037F00010B14FF0FF3070BDD8480088D649091D80
:103800000860D748D4498839C1F894000121D048CC
:1038100002F010FBCF4C05E02000A4F1010401D11F
:10382000801EE8E7C949CA4802F01EFC0028F3D010
:10383000C649C74802F042FC0022D021C44802F029
:1038400011FBC44C05E02000A4F1010401D1C01E0D
:10385000D1E7BE49491CBE4802F006FC0028F2D060
:103860001421BB4802F0CAFB1821B94802F0C6FB7C
:10387000BC480178B64802F079FBB64C05E0200060
:10388000A4F1010401D1001FB5E7B049C91CB0483B
:1038900002F0EAFB0028F2D00121AD4802F0D6FA8E
:1038A000002505E0002600E0761C642EFCD36D1C8C
:1038B0000A2DF7D30121A64802F0BCFAA54C05E079
:1038C0002000A4F1010401D1401F94E79F49A048C2
:1038D00002F0CAFB0028F3D09C499D4802F0EEFBA1
:1038E0000122D0219A4802F0BDFA9A4C05E020004E
:1038F000A4F1010401D1801F7DE79449491C94483B
:1039000002F0B2FB0028F2D09348006840F00100BA
:1039100091498839C1F8880000BF8F48006800F0DD
:1039200001000028F9D01421894802F067FB182112
:10393000874802F063FB00205DE710B5FFF753FFF7
:10394000041E01DA204610BD0120874908700020BE
:10395000F9E700208449087000BF7F48006800F044
:1039600001000028F9D17047014603290DD07F4896
:1039700030F811007E4A22F811009FED7E0A7E4841
:1039800000EB810080ED000A02E064207B4A1060B9
:10399000002070477A4901EB800181ED000A7047F1
:1039A000774901EB800191ED000A70477548007876
:1039B000704700B503467348007830B91846FFF7E2
:1039C000D3FF01206F49087013E06E48007801288A
:1039D0000FD1694800EB830090ED000A684800EBC6
:1039E000830080ED000A0020664908701846FFF742
:1039F000BBFF002000BD10B52DED048B6249564879
:103A000001F0E6FB00287DD00121514802F01EFAAA
:103A10004FF08040406A5D490968401A5B49086080
:103A200008460068002802DA5948006808605748CC
:103A30000068574908605548006807F0F1F941EC03
:103A4000190B9FED540B53EC102B07F013FA41ECBC
:103A5000180B06F0B3FF5149086051480078C0F3D5
:103A6000800000285ED03E4840783D49097840EA11
:103A7000012000EE100AB8EEC00A4A48006880ED46
:103A8000000A3748C0783649897840EA012000EEBC
:103A9000100AB8EEC00A4348006880ED010A3048B9
:103AA00040792F49097940EA012000EE100AB8EE6A
:103AB000C00A3C48006880ED020A39480078C0F32B
:103AC000400000282DD02648C0792549897940EA50
:103AD000012000EE100AB8EEC00A3348006880EDFD
:103AE000000A2F48007800F00100002819D01C4877
:103AF000407A1B49097A40EA012000B21B4908803C
:103B0000174800E0BBE1807A40EA002000B248801C
:103B10001348C07A1249097B40EA012000B21349D8
:103B2000888080E01E480078C0F34000F0B30C4865
:103B300040780B49097840EA012000EE100AB8EEFF
:103B4000C00A1948006880ED000A30E0010000104A
:103B50000054004040420F008860024038010020BD
:103B6000004300203A0100203B01002056010020C4
:103B70005001002000000000104300204C010020F4
:103B8000400100203E010020008800206801002044
:103B90006C010020B345D26EF4310F3F700100205C
:103BA0003C0100205C0100206401002020E0B548B9
:103BB000007800F00100B0B3B348C078B24989780A
:103BC00040EA012000B2B1490880AF484079AE49CF
:103BD000097940EA012000B2AC494880AA48C0797E
:103BE000A949897940EA012000B2A84988801AE0F1
:103BF000A5484078A449097840EA012000B2A349C9
:103C00000880A148C078A049897840EA012000B224
:103C10009E4948809C4840799B49097940EA0120A7
:103C200000B29A4988809748007800F00100002887
:103C30007CD097480068D8B195480068401E9449E8
:103C400008609248008893490880904840884880DE
:103C50008E48808888801FED390A8F4880ED000AE1
:103C60001FED3C0A80ED010A1FED3E0A80ED020ABD
:103C70008648B0F900008749B1F90010401A00EEFB
:103C8000100AF8EEC00A844890ED000A834890EDCF
:103C9000001A00EE810A804880ED000A7B48B0F9E6
:103CA00002007C49B1F90210401A00EE100AF8EE49
:103CB000C00A794890ED010A784890ED001A00EEAC
:103CC000810A754880ED010A7048B0F90400714915
:103CD000B1F90410401A00EE100AF8EEC00A6E485E
:103CE00090ED020A6D4890ED001A00EE810A6A48D4
:103CF00080ED020A6A48007820B1012835D00228F8
:103D000032D17BE0674890ED000ADFED670A80EE74
:103D1000801A614890ED000A21EE000A63480068AD
:103D200080ED000A5F4890ED010A00E07DE0DFEDE4
:103D30005E0A80EE801A584890ED010A21EE000AD2
:103D40005A48006880ED010A564890ED020ADFEDFE
:103D5000560A80EE801A504890ED020A21EE000AC1
:103D60005248006880ED020A5EE04E4890ED000A7D
:103D7000DFED4D0A80EE801A474890ED000A21EEF3
:103D8000000ADFED4B0A80EE201A9FED4A0A21EE71
:103D9000000A4648006880ED000A424890ED010A9A
:103DA000DFED410A80EE801A3B4890ED010A21EEDA
:103DB000000ADFED3F0A80EE201A9FED3E0A21EE59
:103DC000000A3A48006880ED010A364890ED020A80
:103DD000DFED350A80EE801A2F4890ED020A21EEC1
:103DE000000ADFED330A80EE201A9FED320A21EE41
:103DF000000A2E48006880ED020A15E0264890ED82
:103E0000000A2A48006880ED000A234890ED010A64
:103E10002648006880ED010A1F4890ED020A2348F9
:103E2000006880ED020A00BF00BF2348006820F050
:103E3000010021498839C1F8880000BF1E48006888
:103E400000F001000028F9D11C491B4801F0EAF9F3
:103E50001B48007810B9BDEC048B10BD19480088D0
:103E60001549091D0860084813498839C1F89400AC
:103E7000FFF7B9FC4FF08040406A1349086000BF6B
:103E8000E9E700003C01002000430020560100202B
:103E90004C01002050010020104300207001002040
:103EA0003D0100204001002000003444600100205A
:103EB00000003443DB0F4940886002400088002046
:103EC0003B01002038010020680100209FED5A0AC4
:103ED00080ED010A9FED580A80ED020A9FED560A17
:103EE00080ED030A9FED540A80ED070A7047002118
:103EF00000EE901A90ED021ABDEEC11A11EE101AE2
:103F0000002901DB0A4600E04A4201EE102AB8EE21
:103F1000C11AD0ED001AB7EE082A61EE821AB4EE8B
:103F2000E11AF1EE10FA03DD002100EE901A0AE02A
:103F3000012100EE901A90ED071AD0ED021A31EE31
:103F4000211A80ED071A90ED001AD0ED011A31EE1A
:103F5000611A80ED021A90ED041AD0ED021A21EEDA
:103F6000211AD0ED051A90ED072A61EE821AB8EEFB
:103F7000E02A01EE821AD0ED021A90ED032A71EECA
:103F8000C21A90ED062AB0EE410A02EE210A90ED27
:103F9000021A80ED031A70479FED270A80ED010A8F
:103FA0009FED250A80ED030A9FED230A80ED040AA8
:103FB0009FED210A80ED050A9FED1F0A80ED090A99
:103FC000704790ED000A90ED011A30EE410A80ED45
:103FD000030A90ED030A90ED051A30EE410A90EDC8
:103FE000061A20EE010A90ED071AD0ED031A01EE31
:103FF000210A90ED031AD0ED051AB0EE002A02EE68
:10400000611AD0ED041A31EE211AD0ED081A01EE32
:10401000810AF0EE400A90ED020A30EE200A80EDAF
:10402000020A90ED050A80ED040A90ED030A80ED86
:10403000050A90ED020A704700000000002005E02C
:104040000021F84A22F81010411CC8B20428F7DBFE
:10405000704710B52DED068BF0EE408AB0EE609AF9
:1040600039EE680AB0EE40AAB7EE000AEE4880EDDD
:10407000040A9FEDEE0A80ED060A9FEDEC0A80ED42
:10408000050A80ED009AC0ED018AFFF730FFF0EEDF
:10409000409A9FEDE70A29EE800AB0EE408A9FED34
:1040A000E40AB4EEC08AF1EE10FA03DD9FEDE00AF7
:1040B000B0EE408ADB48B0F9000000EE100AB8EE1E
:1040C000C00AFFEE000A00EE880ABDEEC00A10EE3C
:1040D000100A00B2D34908800846B0F9020000EE89
:1040E000100AB8EEC00AFFEE000A00EE880ABDEE24
:1040F000C00A10EE100A00B248800846B0F9040069
:1041000000EE100AB8EEC00AFFEE000A00EE880AC0
:10411000BDEEC00A10EE100A00B288800846B0F961
:10412000060000EE100AB8EEC00AFFEE000A00EE2C
:10413000880ABDEEC00A10EE100A00B2C880BDECBD
:10414000068B10BD10B52DED108BB0EE409AF0EE41
:10415000609AB0EE41AAF0EE61AAB0EE42BAF0EE7B
:10416000000A9FEDB40A05F0EBFEB0EE40FAF0EE67
:10417000000A9FEDB10A05F0E3FE3FEE000AF0EE03
:1041800040DA06F0ABFADFEDAC0A80EE801AF0EE12
:1041900041BAF0EE000A9FEDA70A05F0D1FEB0EE9D
:1041A00040FAF0EE000A9FEDA40A05F0C9FE3FEECA
:1041B000000AF0EE40DA06F091FADFED9E0A80EE9A
:1041C000801AB0EE41CA3AEE490AB0EE40EA3AEE41
:1041D000E90AF0EE40EAB0EE080A984880ED040AD9
:1041E0009FED920A80ED060A9FED900A80ED050A88
:1041F00080ED00AA80ED019AFFF779FEF0EE40CA4B
:10420000B0EE080A8E4880ED040A9FED880A80ED22
:10421000060A9FED860A80ED050AC0ED00AAC0EDF2
:10422000019AFFF764FEB0EE40DA2BEEAC0ADFED48
:10423000800A20EE200AB0EE408A2CEE0D0ADFED57
:104240007C0A20EE200AF0EE408A9FED7E0AB4EE52
:10425000C08AF1EE10FA03DD9FED7A0AB0EE408AD3
:104260009FED780AF4EEC08AF1EE10FA03DD9FEDBF
:10427000750AF0EE408AB0EE4B0A05F0AFFD60EE35
:1042800008DAB0EE4B0A06F061F948EE80DAB0EEDB
:104290004B0A06F05BF9F1EE480A20EE20FAB0EE88
:1042A0004B0A05F09BFD08EE80FA7DEE8F0A5D4813
:1042B000B0F9000000EE100AB8EEC00ABFEE001A16
:1042C00001EE200ABDEEC00A10EE100A00B25549F8
:1042D0000880B0EE4B0A05F081FD60EE08DAB0EE22
:1042E0004B0A06F033F948EE80DAB1EE6DFAB0EE23
:1042F0004B0A06F02BF9F1EE480A60EE20DAB0EE38
:104300004B0A05F06BFD48EE80DA7FEE2D0A45483A
:10431000B0F9020000EE100AB8EEC00ABFEE001AB3
:1043200001EE200ABDEEC00A10EE100A00B23D49AF
:104330004880B0EE4B0A05F051FD60EE08DAB0EEB1
:104340004B0A06F003F948EE80DAB0EE4B0A06F0AD
:10435000FDF8F1EE480A20EE20FAB0EE4B0A05F027
:104360003DFD08EE80FA7DEE8F0A2E48B0F904007C
:1043700000EE100AB8EEC00AB7EE001A01EE200AED
:10438000BDEEC00A10EE100A00B226498880B0EED9
:104390004B0A05F023FD60EE08DAB0EE4B0A06F09A
:1043A000D5F848EE80DAB1EE6DFAB0EE4B0A06F0C1
:1043B000CDF8F1EE480A60EE20DAB0EE4B0A05F0D7
:1043C0000DFD48EE80DA7FEE2D0A1648B0F90600A2
:1043D00000EE100AB8EEC00AB7EE001A01EE200A8D
:1043E000BDEEC00A10EE100A00B20E49C880BDEC46
:1043F000108B10BD1CB514A1174800F020FB094814
:10440000B0F906000749B1F90410CDE900100548DC
:10441000B0F90230B0F9002010A10F4800F00FFBF6
:104420001CBD0000C40000201C4300200000000050
:1044300000007A440000FA43008022443C430020FC
:104440005C4300200000FA440D41433130303030ED
:104450000D44454335300D00001001400D30562508
:10446000640D315625640D325625640D355625648C
:104470000D000000854880ED000A8548C0ED000A67
:10448000844880ED001A7047804890ED000A824809
:10449000D0ED000A30EE600AB0EEC00ADFED7F0A10
:1044A000B4EEE00AF1EE10FA23D8794890ED000A54
:1044B0007B48D0ED000A30EE600AB0EEC00ADFEDB6
:1044C000770AB4EEE00AF1EE10FA12D8714890EDD6
:1044D000000A7448D0ED000A30EE600AB0EEC00A5F
:1044E000DFED6E0AB4EEE00AF1EE10FA01D8012019
:1044F00070470020FCE710B52DED088BFEF70BFF91
:10450000B0EE408A9FED680A28EE000AB0EE001A6D
:10451000C0EE010A9FED650A80EE801AF0EE41AA16
:10452000FCF733FF30EE6A0AF0EE409A604890EDF7
:10453000000A39EEC00AF0EE408A9FED5E0A68EE8E
:10454000000AB0EE001A80EE810ADFED580A80EE14
:10455000201AF0EE41AAFCF748FF30EE6A0AB0EEEE
:1045600040AA554890ED000A3AEE400AB0EE409A53
:104570004F48C0ED009A504880ED00AAB0EE480ABE
:1045800005F0E4FFF1EE490A20EE20BAB0EE480A49
:1045900005F024FC08EE80BA3F4890ED000A3BEE9F
:1045A000000A80ED000AB0EE480A05F017FC20EE84
:1045B00009BAB0EE480A05F0C9FF08EE80BA3848DB
:1045C00090ED000A3BEE000A80ED000A354880EDD0
:1045D000008AFFF733FD2F48D0ED000A314890EDF7
:1045E000000AFFF736FD2F4890ED002A2848D0ED4D
:1045F000001A264890ED001A2948D0ED000A2648F6
:1046000090ED000AFFF79EFDFFF7F4FEBDEC088B6E
:1046100010BD214890ED000A7047214890ED000A36
:104620007047204890ED000A70471FB501214804EB
:1046300001F0B8FF42F20F70029040F28F60ADF8C7
:1046400004000020ADF80600ADF80C0001A91B48DD
:1046500002F0D9FB01221146184803F075F8012138
:10466000164802F059FC19208DF8000003208DF83F
:1046700001008DF8020001208DF80300684600F06B
:10468000B6FB1FBD10B5FFF7D0FF10BD74010020B1
:10469000780100207C01002080010020CDCCCC3DA1
:1046A0008401002088010020E5D0023FDB0F494053
:1046B0008C010020C3F5983F900100200044014088
:1046C00010B588B004460121022001F011FF01213C
:1046D000102001F067FF07220621F64801F0A9FA31
:1046E00007221146F34801F0A4FAC02006900220E8
:1046F0008DF81C0000208DF81D008DF81E00012093
:104700008DF81F0006A9EB4801F008FA029400207A
:10471000ADF80C00ADF80E00ADF81000ADF81400C7
:104720000C20ADF8120002A9E34803F078F901214A
:10473000E14803F0FCF9012240F22551DE4803F084
:10474000ACFA25208DF8040003208DF805008DF8C3
:10475000060001208DF8070001A800F048FB08B012
:1047600010BD10B588B004460121082001F0C0FE3C
:104770000121480401F005FF07220521CF4801F07F
:1047800058FA07220621CD4801F053FA602006901E
:1047900002208DF81C008DF81D0000208DF81E00F1
:1047A00001208DF81F0006A9C44801F0B7F9029452
:1047B0000020ADF80C00ADF80E00ADF81000ADF81B
:1047C00014000C20ADF8120002A9BD4803F027F92F
:1047D0000121BB4803F0ABF9012240F22551B84852
:1047E00003F05BFA26208DF8040002208DF8050006
:1047F0008DF8060001208DF8070001A800F0F7FAF7
:1048000008B010BD10B588B004460121082001F0A1
:104810006FFE0121880401F0B4FE07220821A74899
:1048200001F007FA07220921A44801F002FA4FF427
:104830004070069002208DF81C008DF81D000020AD
:104840008DF81E0001208DF81F0006A99B4801F07D
:1048500065F902940020ADF80C00ADF80E00ADF83B
:104860001000ADF814000C20ADF8120002A9954814
:1048700003F0D5F80121934803F059F9012240F2E1
:104880002551904803F009FA27208DF804000220F2
:104890008DF805008DF8060001208DF8070001A8AD
:1048A00000F0A5FA08B010BD10B588B0044601218B
:1048B000042001F01DFE0121C80401F062FE08225F
:1048C0000A21814801F0B5F908220B217E4801F048
:1048D000B0F94FF44060069002208DF81C008DF86E
:1048E0001D0000208DF81E0001208DF81F0006A974
:1048F000754801F013F902940020ADF80C00ADF8F2
:104900000E00ADF81000ADF814000C20ADF8120048
:1049100002A96E4803F083F801216C4803F007F9FF
:10492000012240F22551694803F0B7F934208DF88F
:10493000040002208DF805008DF8060001208DF896
:10494000070001A800F053FA08B010BD10B588B0F8
:1049500004460121042001F0CBFD0121082001F0D3
:10496000C7FD0121080501F00CFE08220C21564864
:1049700001F05FF908220221504801F05AF94FF482
:104980008050069002208DF81C008DF81D0000203C
:104990008DF81E0001208DF81F0006A94A4801F07D
:1049A000BDF80420069002208DF81C008DF81D0033
:1049B00000208DF81E0001208DF81F0006A93F4839
:1049C00001F0ACF802940020ADF80C00ADF80E0038
:1049D000ADF81000ADF814000C20ADF8120002A9DB
:1049E0003B4803F01CF80121394803F0A0F80122EC
:1049F00040F22551364803F050F935208DF8040077
:104A000002208DF805008DF8060001208DF80700C2
:104A100001A800F0ECF908B010BD10B5044620461E
:104A2000FFF74EFE2046FFF79CFE2046FFF7EAFE0A
:104A30002046FFF739FF2046FFF788FF10BD0FB46F
:104A400030B59BB00546002420A80090652101A840
:104A5000009B1F9A03F016FA8021284603F04FF9B5
:104A60000EE000BF8021284603F03CF90028F9D071
:104A70002046621CD4B201AA115C284603F082F8D9
:104A8000642C03DA01A8005D0028EAD10020009020
:104A90001BB030BC5DF814FB00BF704700BF094A73
:104AA000128802F04002002AF9D0C2B2054B1B1D49
:104AB0001A8070470004024000100140000C0240C0
:104AC000004400400048004000080240004C004004
:104AD000005000400948804709480047FEE7FEE7CC
:104AE000FEE7FEE7FEE7FEE7FEE7FEE7FEE7FEE79E
:104AF00004480549054A064B70470000650A00084E
:104B000089010008E0430020E0830120E043012008
:104B1000E043012070B50446254600BF02215648F7
:104B200002F04AF80028F9D0E84345EA002081B2B3
:104B3000514801F0F8FF00BF01214F4802F03CF856
:104B40000028F9D04C4801F0EBFF054625EA252066
:104B500000B100E00024204670BD00B589B00121FD
:104B6000022001F0C5FC0121042001F0C1FC01215B
:104B7000880301F006FD4FF4C040079002208DF835
:104B8000200000208DF8220003208DF82100012054
:104B90008DF8230007A9394800F0C0FF08200790CE
:104BA00002208DF8200000208DF8220003208DF8CF
:104BB000210001208DF8230007A9314800F0AEFF45
:104BC00005220D212D4801F034F805220E212B4835
:104BD00001F02FF805220321294801F02AF80121CC
:104BE000880301F023FD00214FF4804001F01EFDF9
:104BF0000020ADF804004FF48270ADF806004FF4C9
:104C00000070ADF80E008000ADF808000220ADF88D
:104C10000A000120ADF80C003820ADF8100000208B
:104C2000ADF812000720ADF8140001A9124801F0F8
:104C3000FFFD0121104801F0F5FE60210E4801F052
:104C4000E1FF002260210C4801F094FF0022712155
:104C5000094801F08FFF24208DF8180004208DF8FA
:104C600019008DF81A0001208DF81B0006A800F02D
:104C7000BEF809B000BD000000380040000402404A
:104C800000080240014608687047014649488142D1
:104C900001D2002070474848814201D20820F9E73C
:104CA0004648814201D21020F4E74548814201D2B2
:104CB0001820EFE74348814201D22020EAE742482A
:104CC000814201D22820E5E74048814201D23020CC
:104CD000E0E73F48814201D23820DBE73D4881428E
:104CE00001D24020D6E73C48814201D24820D1E79A
:104CF0003A48814201D25020CCE75820CAE770B52B
:104D00000446B4F1006F02D304F0030000B170BD9B
:104D100000F072FB002000F052FB3148844206D2C2
:104D20002046FFF7B2FF0546022100F0B9FB012043
:104D300000F045FB00F06DFB00BFE8E72DE9F04116
:104D400004460D461646092704EB9608B4F1006F99
:104D500002D304F0030008B1BDE8F08100F04CFB81
:104D6000002000F02CFB092F0CD108E02046296818
:104D700000F0AFFC092800D003E0241D2D1D4445A0
:104D8000F4D300BF012000F01AFB00F042FB00BF8B
:104D9000E2E730B503460C461546002206E0184609
:104DA000FFF770FF44F822001B1D521CAA42F6D3E5
:104DB00030BD0000004000080080000800C000086E
:104DC00000000108000002080000040800000608B6
:104DD0000000080800000A0800000C0800000E0887
:104DE0000000FF1F32490143324A1160704770B51D
:104DF000002100230F22C4781CB32E4C246804F435
:104E0000E064C4F5E064C4F30721C1F10404E3B233
:104E10000A4144789C40E1B28478144021430C0755
:104E2000210E254C05786155047804F01F050124F6
:104E3000AC4005786D11AD0005F1E025C5F80041E5
:104E400009E0047804F01F050124AC401B4D0678EE
:104E5000761145F8264070BD194A0A400243154BA9
:104E60001B1F1A60704739B1124A121D12680243A3
:104E7000104B1B1D1A6006E00E4A121D1268824379
:104E80000C4B1B1D1A607047042808D14FF0E0211D
:104E9000096941F004014FF0E022116107E04FF091
:104EA000E021096921F004014FF0E022116170470F
:104EB0000000FA050CED00E000E400E080E100E015
:104EC00080FFFF1F016821F00101016000210160E6
:104ED00041608160C160016121214161DB498842FB
:104EE00004D13D21D94A103A91608CE0D74918315C
:104EF000884205D14FF47461D44A103A916082E03F
:104F0000D2493031884205D14FF47411CF4A103A5A
:104F1000916078E0CD494831884205D14FF0746105
:104F2000CA4A103A91606EE0C8496031884204D1A3
:104F3000C749C64A103AD16065E0C4497831884211
:104F400004D1C449C14A103AD1605CE0BF499031F4
:104F5000884204D1C049BD4A103AD16053E0BB49F0
:104F6000A831884205D14FF03D51B84A103AD1607E
:104F700049E0BA49884204D13D21B84A083A116053
:104F800041E0B6491831884205D14FF47461B34A03
:104F9000083A116037E0B1493031884205D14FF409
:104FA0007411AE4A083A11602DE0AC49483188428C
:104FB00005D14FF07461A94A083A116023E0A7496E
:104FC0006031884204D1A249A44A121F11601AE03C
:104FD000A2497831884204D19E49A04A121F11602B
:104FE00011E09E499031884204D19B499B4A121F8F
:104FF000116008E09949A831884204D14FF03D5131
:10500000964A121F1160704710B500220268944B37
:105010001A40CC680B6823434C6923438C692343B3
:10502000CC6923430C6A23434C6A23438C6A234391
:105030004C6B23438C6B23431A430260426922F07A
:105040000702D1E90B3423431A4342610B694360E1
:105050004B6883608B68C36010BD002101604160B4
:105060008160C160016141618161C1610162416230
:105070008162C162016341638163704721B102684B
:1050800042F00102026003E0026822F001020260C5
:10509000704721B1026842F40042026003E00268F6
:1050A00022F400420260704721B1026842F02002FF
:1050B000026003E0026822F0200202607047416053
:1050C00070470146486880B2704722B1036843F4D4
:1050D0000023036003E0036823F4002303600161FD
:1050E000704721B1026842F48022026003E0026846
:1050F00022F48022026070470AB1016100E0C160C1
:105100007047014600200A6802F400220AB101201B
:1051100000E000207047014600200A6802F001020A
:105120000AB1012000E000207047014600204A69D2
:1051300002F03800704730B503460A4600200024CC
:10514000464DAB4202D24149103901E04349103982
:1051500002F000550DB14C6800E00C68414D2C4048
:1051600004EA02050DB1012000E0002030BD024636
:105170003A4B9A4202D23548103801E0374810388D
:1051800001F000531BB1374B0B40C36002E0354BBD
:105190000B408360704710B501F080034BB122B122
:1051A000436943F08003436103E0436923F08003D4
:1051B000436180290BD02AB1036801F01E04234308
:1051C000036004E0036801F01E04A343036010BD04
:1051D00070B50246002000240025204EB24202D2C3
:1051E0001A4B103B01E01D4B103B1F4E0E4036B1D9
:1051F0001E2606EAD124166806EA040502E056696E
:1052000006F0800501F000560EB15C6800E01C68F5
:10521000144E344004EA010616B10DB1012000E03D
:10522000002070BD02460D4B9A4202D2074810384A
:1052300001E00A48103801F000531BB1094B0B4044
:10524000C36002E0074B0B40836070471060024070
:105250003D000020400F002000003D20106402406F
:105260003F801CF07D0F7D0F3C0F3C0F002041491B
:105270000860091D0860091D0860091D08603E4896
:105280003C4914310860704700213A498279002A6C
:105290003AD00A46126803689A430B461A600A1D00
:1052A000126803689A430B1D1A60027911440A6858
:1052B00003681A430A602F4A0832126803689A4347
:1052C0002C4B08331A601A1D126803689A43294B45
:1052D0000C331A604279102A0ED11A1F1268036823
:1052E0001A43244B08331A601A1D126803681A43C4
:1052F000204B0C331A600DE01E49427911440A68B4
:1053000003681A430A6005E0027911440A680368D9
:105310009A430A6070470021016001710C214171BC
:105320000021817170471349103109680143114A06
:10533000103211607047014600200E4A1432126884
:105340000A400AB1012000E00020704709491431E9
:105350000860704701460020064A143212680A406D
:105360000AB1012000E000207047024914310860B2
:1053700070470000003C0140FFFF7F00FE4A1070B4
:10538000704730B1FC49096841F48071FA4A1160F4
:1053900005E0F949096821F48071F74A1160704706
:1053A00030B1F549096841F40071F34A116005E034
:1053B000F149096821F40071EF4A1160704730B17A
:1053C000ED49096841F48061EB4A116005E0EA4962
:1053D000096821F48061E84A11607047E648006876
:1053E00040F40060E44908607047E348006840F416
:1053F0008050E14908607047DF481030006800F0D5
:10540000004028B1DD48DC49091D0860DC4808601F
:105410007047D9481030006840F00040D64910313C
:10542000086070470920D4490C31096801F48031C3
:10543000B1F5803F01D1012020E0CF490C3109684E
:1054400001F0100109B1062018E0CB490C310968C0
:1054500001F4807109B1022010E0C7490C310968DC
:1054600001F0EF0109B1072008E0C3490C310968D8
:1054700001F0020109B1082000E00920704708B5D9
:1054800009200090FFF7CEFF009002E0FFF7CAFF6F
:1054900000909DF800000128F8D09DF8000008BD9C
:1054A00070B504460A460026092502B909E0012A1A
:1054B00001D1160205E0022A01D1160201E04FF4E3
:1054C0004076FFF7DCFF0546092D2DD1AA481030A4
:1054D000006820F44070A849103108600846006850
:1054E000304308600846006820F0F800086008466D
:1054F000006844F0020108439F49103108600846E3
:10550000006840F480300860FFF7B9FF05469A480C
:105510001030006820F002009749103108600846FA
:10552000006820F0F8000860284670BD30B50246DB
:1055300000250924FFF7A3FF044602B909E0012A68
:1055400001D1150205E0022A01D1150201E04FF454
:105550004075092C20D188481030006820F4407034
:1055600085491031086008460068284308600846ED
:10557000006840F0040008600846006840F480308D
:105580000860FFF77CFF04467B481030006820F07D
:105590000400794910310860204630BD30B502461C
:1055A00000250924FFF76BFF044602B909E0012A30
:1055B00001D1150205E0022A01D1150201E04FF4E4
:1055C0004075092C20D16C481030006820F44070E0
:1055D0006949103108600846006828430860084699
:1055E000006840F0040008600846006840F480301D
:1055F0000860FFF744FF04465F481030006820F061
:1056000004005D4910310860204630BD30B50246C7
:1056100000250924FFF733FF044602B909E0012AF7
:1056200001D1150205E0022A01D1150201E04FF473
:105630004075092C20D150481030006820F440708B
:105640004D49103108600846006828430860084644
:10565000006840F4004008600846006840F480306C
:105660000860FFF70CFF044643481030006820F440
:105670000040414910310860204630BD70B50646F3
:1056800014461D460922FFF7FAFE0246092A1ED1DA
:1056900039481030006820F44070374910310860F4
:1056A0000846006840F4407008600846006840F012
:1056B0000100086034607560FFF7E1FE02462E4885
:1056C0001030006820F001002B49103108601046AE
:1056D00070BD30B502460C460925FFF7D0FE0546E1
:1056E000092D1DD124481030006820F44070224953
:1056F000103108600846006840F4007008600846F1
:10570000006840F0010008601460FFF7B8FE05462D
:1057100019481030006820F0010017491031086066
:10572000284630BD30B502460C460925FFF7A7FED6
:105730000546092D1DD110481030006820F4407036
:105740000D49103108600846006840F48070086018
:105750000846006840F0010008601480FFF78FFEE3
:10576000054605481030006820F00100024910315C
:105770000860284630BD0000003C02402301674518
:10578000AB89EFCD30B502460C460925FFF777FE11
:105790000546092D17D19B48006820F440709949AF
:1057A00008600846006808600846006840F001008C
:1057B00008601470FFF763FE05469248006820F009
:1057C000010090490860284630BD8E48001D0068E1
:1057D00000F0010028B18C488A49083908608B48DC
:1057E000086070478748001D006840F00100854947
:1057F000091D0860704730B502460C460925FFF7C1
:105800003EFE0546092D10D13CB17E48801D008822
:1058100090437C49891D088007E07A48801D0088F4
:1058200091B208437749891D088030BD30B50246E2
:105830000C460925FFF723FE0546092D10D13CB182
:1058400070480A30008890436E490A31088007E0AA
:105850006C480A30008891B208436A490A310880CE
:1058600030BDFF21674AD21D127802F07F0140EA65
:105870000102644BDB1D1A70704730B502460C46BE
:105880000925FFF7FCFD0546092D10D144B15D48FF
:10589000801D008891B208435A49891D088006E09E
:1058A0005848801D008890435649891D088030BDA6
:1058B00030B502460C460925FFF7E1FD0546092DE6
:1058C00010D144B14F480A30008891B208434D4985
:1058D0000A31088006E04B480A3000889043494965
:1058E0000A31088030BD10B502460924FFF7C7FD14
:1058F0000446092C02D14348401D027010BDF0B58A
:1059000004460D46FF260927FFF7B9FD0746092F74
:105910000BD13C48001D007800F00F0645EA060058
:10592000104320433749091D0870F0BD3549091D52
:10593000097821F01001334A121D117011460978BF
:105940000143117070472F49091D097821F00C019E
:105950002C4A121D117011460978014311707047CD
:1059600000B509222748001D007840F002002549B3
:10597000091D0870FFF783FD0246104600BD21484F
:10598000001D0068C0F3471070471E48801D008846
:1059900070471C480A30008870471A48801D0088EC
:1059A000704718480A300088704700201549491D83
:1059B0000978AA2901D0012000E000207047114891
:1059C000001D007800F00C00704729B10D4A1268E4
:1059D00002430C4B1A6004E00A4A12688243094BE6
:1059E0001A60704701460020064A121F12680A40DA
:1059F0000AB1012000E0002070470249091F086039
:105A000070470000103C02403B2A19087F6E5D4C35
:105A100010B504469848844208D10121084600F098
:105A2000D2FD0021012000F0CEFD76E093488442B3
:105A300008D10121022000F0C6FD0021022000F063
:105A4000C2FD6AE08E48844208D10121042000F0A2
:105A5000BAFD0021042000F0B6FD5EE089488442D2
:105A600008D10121082000F0AEFD0021082000F03F
:105A7000AAFD52E08448844208D10121102000F0A0
:105A8000A2FD0021102000F09EFD46E07F488442E8
:105A900008D10121202000F096FD0021202000F0F7
:105AA00092FD3AE07A48844208D10121402000F07A
:105AB0008AFD0021402000F086FD2EE075488442DA
:105AC00008D10121802000F07EFD0021802000F01F
:105AD0007AFD22E07048844208D10121801500F04F
