:020000040800F2
:10000000E8840120214B0008ED0C0008EF0C0008EB
:10001000F30C0008F70C0008FB0C000800000000BF
:10002000000000000000000000000000FF0C0008BD
:10003000010D000800000000030D0008050D000878
:100040003B4B00083B4B00083B4B00083B4B000878
:100050003B4B00083B4B00083B4B00083B4B000868
:100060003B4B00086F1300083B4B00083B4B00085C
:100070003B4B0008611000083B4B0008F5110008DD
:10008000C74000083B4B00083B4B00083B4B0008B7
:100090003B4B00083B4B00083B4B0008E9120008B3
:1000A0003B4B0008130F0008471000083B4B0008AB
:1000B0003B4B00083B4B00083B4B00083B4B000808
:1000C0003B4B00083B4B00083B4B00083B4B0008F8
:1000D000070D0008130D0008330D0008530D00082C
:1000E000391300083B4B00083B4B00083B4B000812
:1000F000CF1200082D0F00083B4B00083B4B0008B7
:100100003B4B00083B4B00083B4B00083B4B0008B7
:10011000730D0008A30E0008C90F00082312000881
:100120003B4B00083B4B00083B4B00083B4B000897
:100130003B4B00083B4B00083B4B00083B4B000887
:100140003B4B00083B4B00083B4B00083B4B000877
:100150003B4B00083B4B00083B4B00083B4B000867
:100160003B4B00083B4B00083B4B00083B4B000857
:100170003B4B00083B4B00083B4B00083B4B000847
:100180003B4B00083B4B000800F002F800F0B2F8CF
:100190000AA090E8000C82448344AAF10107DA45E2
:1001A00001D100F0A7F8AFF2090EBAE80F0013F082
:1001B000010F18BFFB1A43F001031847F0B4000009
:1001C00010B500000A444FF0000C10F8013B13F08A
:1001D000070408BF10F8014B1D1108BF10F8015BA0
:1001E000641E05D010F8016B641E01F8016BF9D193
:1001F00013F0080F1EBF10F8014BAD1C0C1B09D1EA
:100200006D1E58BF01F801CBFAD505E014F8016B5B
:1002100001F8016B6D1EF9D59142D6D370470000ED
:100220000023002400250026103A28BF78C1FBD8FF
:10023000520728BF30C148BF0B6070476E2908F0D5
:10024000D781702907F00F8766290BF09C806529FC
:100250000BF0998067290BF0968061290BF095804F
:1002600003681B0A28BF41F08001692907F08086D6
:10027000642907F07D86752907F07A866F2908F0D2
:10028000E584782907F0DB86E92908F07F84E429F2
:1002900008F07C84F52908F07984EF2908F0E284DD
:1002A000F82907F0DA860368DB0928BF41F08001EE
:1002B000632908F0EE83732908F0F383E32908F03B
:1002C0003D87F32908F04287002070471FB50BF0E7
:1002D00050F808F015FD0400002000210AF07EFB14
:1002E000401C6060002000210AF062FBE0601FBD3E
:1002F00010B510BD09F07EF91146FFF7E7FF00F0D9
:10030000C3FC09F0A5F903B4FFF7F2FF03BC04F046
:10031000EAFB0000002005E00021FB4A22F8101053
:10032000411CC8B20428F7DB704710B52DED088BCF
:10033000F0EE408AB0EE609A39EE680AB0EE40BA4C
:10034000B7EE000AF14880ED040A9FEDF10A80ED56
:10035000060A9FEDF00A80ED050A80ED009AC0EDD7
:10036000018A04F02CF9F0EE409A19EE900A0AF096
:100370008FFF41EC1A0B53EC1A2BE7A007F0C2FDDC
:100380009FEDE70A29EE800AB0EE408A9FEDE40A6D
:10039000B4EEC08AF1EE10FA03DD9FEDE10AB0EE93
:1003A000408AD948B0F9000000EE100AB8EEC00A41
:1003B000FFEE000A00EE880ABDEEC00A10EE100A39
:1003C00000B2D14908800846B0F9020000EE100AD8
:1003D000B8EEC00AFFEE000A00EE880ABDEEC00AC1
:1003E00010EE100A00B248800846B0F9040000EE92
:1003F000100AB8EEC00AFFEE000A00EE880ABDEE51
:10040000C00A10EE100A00B288800846B0F9060053
:1004100000EE100AB8EEC00AFFEE000A00EE880AED
:10042000BDEEC00A10EE100A00B2C880BDEC088B09
:1004300010BD10B52DED108BB0EE409AF0EE609A25
:10044000B0EE41AAF0EE61AAB0EE42BAF0EE000AB8
:100450009FEDB40A09F09AFDB0EE40FAF0EE000A02
:100460009FEDB10A09F092FD3FEE000AF0EE40DA8E
:100470000AF05AF9DFEDAC0A80EE801AF0EE41BACC
:10048000F0EE000A9FEDA70A09F080FDB0EE40FAF9
:10049000F0EE000A9FEDA40A09F078FD3FEE000A95
:1004A000F0EE40DA0AF040F9DFED9E0A80EE801AA5
:1004B000B0EE41CA3AEE490AB0EE40EA3AEEE90A35
:1004C000F0EE40EAB0EE080A984880ED040A9FED8D
:1004D000900A80ED060A9FED8F0A80ED050A80EDF7
:1004E00000AA80ED019A04F06AF8F0EE40CAB0EE7E
:1004F000080A8F4880ED040A9FED850A80ED060A00
:100500009FED840A80ED050AC0ED00AAC0ED019AB6
:1005100004F055F8B0EE40DA2BEEAC0ADFED800ABD
:1005200020EE200AB0EE408A2CEE0D0ADFED7C0AA8
:1005300020EE200AF0EE408A9FED7E0AB4EEC08ADB
:10054000F1EE10FA03DD9FED7B0AB0EE408A9FEDDD
:10055000790AF4EEC08AF1EE10FA03DD9FED750A18
:10056000F0EE408AB0EE4B0A09F05EFC60EE08DA6D
:10057000B0EE4B0A0AF010F848EE80DAB0EE4B0A03
:100580000AF00AF8F1EE480A20EE20FAB0EE4B0A23
:1005900009F04AFC08EE80FA7DEE8F0A5A48B0F95D
:1005A000000000EE100AB8EEC00ABFEE001A01EE1D
:1005B000200ABDEEC00A10EE100A00B252490880AF
:1005C000B0EE4B0A09F030FC60EE08DAB0EE4B0AF0
:1005D00009F0E2FF48EE80DAB1EE6DFAB0EE4B0AB8
:1005E00009F0DAFFF1EE480A60EE20DAB0EE4B0ACD
:1005F00009F01AFC48EE80DA7FEE2D0A4248B0F985
:10060000020000EE100AB8EEC00ABFEE001A01EEBA
:10061000200ABDEEC00A10EE100A00B23A49488026
:10062000B0EE4B0A09F000FC60EE08DAB0EE4B0ABF
:1006300009F0B2FF48EE80DAB0EE4B0A09F0ACFFE9
:10064000F1EE480A20EE20FAB0EE4B0A09F0ECFB7E
:1006500008EE80FA7DEE8F0A2B48B0F9040000EE18
:10066000100AB8EEC00AB7EE001A01EE200ABDEE7D
:10067000C00A10EE100A00B223498880B0EE4B0A7F
:1006800009F0D2FB60EE08DAB0EE4B0A09F084FF05
:1006900048EE80DAB1EE6DFAB0EE4B0A09F07CFF5D
:1006A000F1EE480A60EE20DAB0EE4B0A09F0BCFB2E
:1006B00048EE80DA7FEE2D0A1348B0F9060000EE0E
:1006C000100AB8EEC00AB7EE001A01EE200ABDEE1D
:1006D000C00A10EE100A00B20B49C880BDEC108BA6
:1006E00010BD1CB514A1184804F0D0F90648B0F9A3
:1006F00006000549B1F90410CDE900100248B0F92F
:100700000230B0F9002021E0EC010020B802002006
:10071000CDCCCC3D0000000070723A25660A000086
:1007200000007A440000FA4300802244D8020020EE
:10073000F80200200000FA440D41433130303030DF
:100740000D44454335300D0000100140B1A1B748BC
:1007500004F09CF9B6A007F0D5FBB948B0F9001039
:10076000B8A007F0CFFBB648B0F90210B7A007F069
:10077000C9FBB348B0F90410B6A007F0C3FBB048FA
:10078000B0F90610B5A007F0BDFB1CBDB54880ED63
:10079000000AB548C0ED000AB44880ED001A704761
:1007A000B04890ED000AB248D0ED000A30EE600A81
:1007B000B0EEC00A5FED2A0AB4EEE00AF1EE10FADC
:1007C00023D8A94890ED000AAA48D0ED000A30EEDF
:1007D000600AB0EEC00A5FED320AB4EEE00AF1EE54
:1007E00010FA12D8A14890ED000AA348D0ED000AF3
:1007F00030EE600AB0EEC00A5FED3B0AB4EEE00AEC
:10080000F1EE10FA01D8012070470020FCE700B596
:100810002DED108B8DB003F0E6F8B0EE408A9FED21
:10082000970A28EE000AB0EE001AC0EE010A9FED0A
:10083000940A80EE801AF0EE41FA01F0C8FA30EE28
:100840006F0AF0EE409A8F4890ED000A39EEC00A28
:10085000F0EE408A9FED8C0A68EE000AB0EE001AB6
:1008600080EE810ADFED860A80EE201AF0EE41FA72
:1008700001F0DDFA30EE6F0AB0EE40FA834890EDF9
:10088000000A3FEE400AB0EE409A7E48C0ED009A62
:100890007E4880ED00FAB0EE480A09F07DFEF1EEE8
:1008A000490A20EE20AAB0EE480A09F0BDFA08EE87
:1008B00080AA6F4890ED000A3AEE000A80ED000A27
:1008C000B0EE480A09F0B0FA20EE09AAB0EE480AE4
:1008D00009F062FE08EE80AA664890ED000A3AEE42
:1008E000000A80ED000A644880ED008AFFF712FDDF
:1008F0005E48D0ED000A604890ED000AFFF715FD54
:100900005D4890ED002A5848D0ED001A554890ED0A
:10091000001A5848D0ED000A554890ED000AFFF73C
:1009200088FDFFF7DEFE514800680AF0B1FC41EC9B
:100930001A0B514800680AF0ABFC41EC1B0B4A480B
:1009400000680AF0A5FC41EC1C0B4A4800680AF05C
:100950009FFC41EC1D0B434800680AF099FC41ECF8
:100960001E0B434800680AF093FCCDE90A018DEDA7
:1009700008AB8DED06BB8DED04CB8DED02DB8DED6F
:1009800000EB9DED0A0B53EC102B41A007F0BAFAD7
:100990000DB0BDEC108B00BD354890ED000A7047DE
:1009A000344890ED000A7047334890ED000A7047D4
:1009B0001FB50121480405F01BFE42F20F700290A2
:1009C00040F28F60ADF804000020ADF80600ADF8ED
:1009D0000C0001A9334806F03CFA012211463148C7
:1009E00006F0D8FE01212F4806F0BCFA19208DF838
:1009F000000003208DF801008DF8020001208DF821
:100A00000300684604F019FA1FBD10B5FFF7D0FFC8
:100A100010BD00000D305625640D315625640D3291
:100A20005625640D355625640D0000000010014068
:100A30006172675F7370656564733A0A0000000055
:100A4000EC01002009303A25640A000009313A25FA
:100A5000640A000009323A25640A000009333A2585
:100A6000640A0000000000200400002008000020AC
:100A70000C0000201000002014000020E5D0023FF0
:100A8000DB0F494018000020C3F5983F1C000020F0
:100A90002566202566092566202566092566202508
:100AA000660A0A000044014010B501F025FC4FF42D
:100AB000FA6009F030FF10BD10B59FED5F0A01F03C
:100AC000DBFC10BD10B59FED5C0A01F0D5FC10BD3C
:100AD00010B59FED5A0A01F0CFFC10BD10B509F01A
:100AE0004DFF9FED570A022000F0DBFD01F0D9FC1D
:100AF0004FF4967009F00FFF9FED520A002000F0AE
:100B0000D0FD40F2A46009F006FF9FED4F0A0020DF
:100B100000F0C7FD4FF47A7009F0FDFE09F02EFFDA
:100B200010BD10B5B2EE040A01F06BFC10BD10B59B
:100B30002DED028BFFF769FF44A007F0E3F90120D8
:100B400047490870002432E0464800EB041090ED5D
:100B5000010ADFED450A80EE201AB0EE418A4148D5
:100B600000EB041090ED000ADFED3F0A80EE201A42
:100B7000F0EE418A3B4800EB041090ED020AB0EE23
:100B8000401AF0EE480AB0EE680AFFF7FFFD00BF1A
:100B9000FFF706FE0028FBD0324800EB0410C068C7
:100BA00020B1304901EB0411C8688047641C2D480E
:100BB00000EB041090ED000AB5EEC00AF1EE10FA59
:100BC000C2D1284800EB041090ED010AB5EEC00A2E
:100BD000F1EE10FAB8D1234800EB041090ED020AB0
:100BE000B5EEC00AF1EE10FAAED11E4800EB0410CB
:100BF000C0680028A8D1BDEC028B10BD00F0B3FF87
:100C000009F0BCFE00201649087018A007F07AF918
:100C100001E000F03CFFFCE710B5002405E01949B5
:100C200051F824008047601C84B2164850F8240014
:100C30000028F4D110BD0000CDCC4C3ECDCCCC3D35
:100C4000CDCC4C3D8FC2753DB81E853D0A417574B3
:100C50006F20636F6E74726F6C6C696E672E0A0022
:100C6000200000203C00002000007A440A417574F6
:100C70006F20636F6E74726F6C2073746F70706529
:100C8000642E0A001C01002007F0B2F807F0EEF80D
:100C90004FF4A06004F0CCF800F04CFF4FF4E130CA
:100CA00003F0E2FE03F07FFF02F02EFA01F020FCD9
:100CB00001F0A8F901F0DDFA01F0E2FC00F02CFDF2
:100CC000FFF7AAFF03A007F01DF901E000F0DFFE27
:100CD000FCE700000A0A456E746572696E67206D54
:100CE00061696E206C6F6F700A0A0000704700BF68
:100CF000FEE700BFFEE700BFFEE700BFFEE770476C
:100D000070477047704710B56021FE4805F0A0FF9E
:100D100010BD10B540F22551FB4807F01FF838B15F
:100D2000F94806F059FF04462146F84806F050FFFE
:100D300010BD10B540F22551F54807F00FF838B155
:100D4000F34806F049FF04462146F04806F040FF0C
:100D500010BD10B540F22551EE4806F0FFFF38B146
:100D6000EC4806F039FFC4B22146EB4801F052FCD2
:100D700010BD10B540F22551E84806F0EFFF0028FD
:100D80007ED0E7480078132864DB0020E44908702F
:100D900002F0DCFDE34880ED000A90ED000AE24835
:100DA000D0ED000A30EE600AE048D0ED000A30EEE7
:100DB000200A80ED000ADB4890ED000ADFEDDC0A36
:100DC000B4EEE00AF1EE10FA13D2D74890ED000A23
:100DD000DFEDD80AB4EEE00AF1EE10FA09DDD348EF
:100DE00090ED000ADFEDD40A30EE200A80ED000A13
:100DF0001CE0CC4890ED000ADFEDCE0AB4EEE00A2C
:100E0000F1EE10FA12DDC84890ED000ADFEDC80AD5
:100E1000B4EEE00AF1EE10FA08D2C44890ED000AF0
:100E2000DFEDC60A30EE200A80ED000ABD4890EDE5
:100E3000000ABD4880ED000AC148007838B99FED2E
:100E4000C10ABA4880ED000A0120BD49087001209E
:100E5000BD490870B14806F0BFFEBC49B04A1278DF
:100E60008854AF480078042815DA0846AC49097858
:100E7000405CB749AA4A1278895C884207D100E0F1
:100E80000EE0A7480078401CA549087008E0002043
:100E9000A349087004E0A2480078401CA0490870EB
:100EA00010BD38B540F22551984806F057FF78B389
:100EB000964806F091FEC4B22146944806F088FE9A
:100EC0000A2C02D0232C1AD115E0A248007848B190
:100ED0000020A049087021469F4801F09BFB02F0CA
:100EE000F9FC07E000BF69469B4801F0ACFBB0F19C
:100EF000FF3FF8D10BE001209649087007E09548C4
:100F0000007818B12146944801F084FB00BF00BF6F
:100F100038BD10B50121914806F053FC28B1FFF708
:100F200076FC01218D4806F05DFC10BD10B5012155
:100F30008B4806F046FCE0B38A480088401C89498B
:100F40000880084600881E2839DD00200880864871
:100F50000078012833D100F09AFF8448D0ED000AD0
:100F6000834890ED001A70EE810A9FED821A70EEB0
:100F7000C10AB4EEE00AF1EE10FA04D2B2EE040AAD
:100F800001F0FAF91BE000F082FF7848D0ED000A8A
:100F9000774890ED001A70EE810A9FED771A70EE97
:100FA000C10AB4EEE00AF1EE10FA06D2B1EE040A7C
:100FB00000E008E001F0E0F901E001F00DFA0121A4
:100FC000674806F00FFC10BD10B501216B4806F014
:100FD000F8FBB8B300242FE0694830F81400401C37
:100FE000674921F81400084630F81400654951F8A3
:100FF000241088421ED9624830F81400624951F822
:101000002410884209D2614A32F81410604A52F81A
:101010002400002204F028FE0CE05C4A32F8141090
:101020005B4A52F82400012204F01EFE00205449BD
:1010300021F81400601CC4B2052CCDDB01214F48FF
:1010400006F0D0FB10BD10B50121524806F0B9FBE7
:1010500028B102F019F901214E4806F0C3FB10BD7A
:1010600010B54D494D4804F0D9F8012848D1002168
:101070004A4804F029F802F069FC2A4880ED000A89
:1010800090ED000A2848D0ED000A30EE600A2748AB
:10109000D0ED000A30EE200A80ED000A214890EDE4
:1010A000000ADFED230AB4EEE00AF1EE10FA13D2E3
:1010B0001D4890ED000ADFED1F0AB4EEE00AF1EEE4
:1010C00010FA09DD194890ED000ADFED1B0A30EE39
:1010D000200A80ED000A6DE0124890ED000ADFED75
:1010E000150AB4EEE00AF1EE10FA63DD0E4890ED59
:1010F000000ADFED0F0AB4EEE00AF1EE10FA4FE05D
:1011000077E000000038004000100140005000402F
:1011100000440040004800408C030020004C004088
:1011200029010020600200205C02002058020020FB
:10113000DB0FC9BFDB0FC93FDB0FC940DB0FC9C0E5
:101140002801002000000000540200202C02002092
:1011500048B400082A010020DC03002000440140BC
:10116000002000402C010020C5010020CC010020FF
:10117000C8010020CCCC4C3D0AD7A33C0010004055
:10118000180300202403002038030020440100201D
:1011900050010020004801400080201040600240C3
:1011A00008D2794890ED000A5FED1C0A30EE200A63
:1011B00080ED000A754890ED000A754880ED000A40
:1011C0007448007838B91FED210A6F4880ED000A95
:1011D00001207049087001206F4908706F497048FC
:1011E00004F046F801216E4803F06EFF00206A49C2
:1011F000087010BD10B56B496948303004F00EF826
:1012000001280DD168A16B4803F040FC002164481F
:10121000303003F059FF63496148303004F028F85A
:1012200010BD10B50121644806F0CBFA00284DD05E
:101230000121614806F0D6FA604805F057FEA0F596
:101240007A605F49096808445D4908604FF47A6034
:101250005A4948625B4805F049FEA0F57A605A4950
:1012600009680844584908604FF47A6055492431A8
:101270000860564805F03AFEA0F57A6054490968BE
:101280000844534908604FF47A605049243108609B
:10129000504805F02BFEA0F57A604F4909680844D4
:1012A0004D4908604FF47A604A49243108604B4840
:1012B00005F01CFEA0F57A604949096808444849D0
:1012C00008604FF47A6045492431086010BD10B5BC
:1012D0000121444806F075FA28B10121414806F081
:1012E00081FA04F03AFF10BD10B52DED028B0A20F3
:1012F00009F011FB4FF4807004F052F8012818D166
:101300000102394804F092FC78B900F0C0FDB0EE5B
:10131000408A00F0BCFDB4EEC08AF1EE10FA01DDA7
:1013200001F05AF831A006F0EDFD4FF4807004F0A2
:1013300042F8BDEC028B10BD10B50A2009F0EBFAA3
:101340004FF4006004F02CF801280FD1C1022D48A1
:1013500004F06CFC30B901F03FF801F0A2F823A0D2
:1013600006F0D0FD4FF4006004F025F810BD10B574
:101370000821244804F05AFC08B900F0F4FB0820C6
:1013800004F019F810BD000058020020600200208F
:101390005C0200202E01002054020020008020105A
:1013A000406002402080002053656E644F4B0D0A60
:1013B0000000000000500040001400400000014008
:1013C00070010020000400406C0100200008004073
:1013D00064010020000C004068010020000401406E
:1013E00074010020001C0040001002400A73746F5A
:1013F000705F66616E5F75705F646F776E28290A33
:1014000000000000001402400CB500200190009084
:101410007648006840F480307449086000BF734823
:10142000006800F4003000900198401C0190009882
:1014300018B90198B0F5A04FF1D16C48006800F4DC
:10144000003010B10120009001E0002000900098D1
:10145000012846D165484030006840F0805063491B
:10146000403108606248006840F4404060490860CC
:101470005E48083000685D49083108600846006829
:1014800040F4004008600846006840F4A05008603E
:101490005848091F0860081F006840F08070091F45
:1014A000086000BF5148006800F000700028F9D0C3
:1014B00040F20570504908604C480830006820F040
:1014C00003004A49083108600846006840F00200FD
:1014D000086000BF45480830006800F00C0008288C
:1014E000F8D10CBD10B54548006840F47000434980
:1014F00008603E48006840F001003C490860002058
:101500003A4908310860394800683D490840374980
:1015100008603C48091D0860081F006820F480200E
:10152000091F0860002031490C310860FFF76CFF8B
:101530004FF0006031498039086010BD70B500205F
:101540000022022300240221284D08352D6805F0D1
:101550000C0020B1042806D0082834D107E02A4D19
:101560002A4E356033E02A4D284E35602FE01F4D5E
:101570002D1D2D68C5F380541C4D2D1D2D6805F0C3
:101580003F0154B1224DB5FBF1F5184E361D3668BA
:10159000C6F3881605FB06F209E01B4DB5FBF1F515
:1015A000124E361D3668C6F3881605FB06F20F4D3F
:1015B0002D1D2D68C5F301456D1C6B00B2FBF3F5C5
:1015C000124E356003E0104D104E356000BF00BF75
:1015D000064D08352D68C5F303150E4E705D0B4D95
:1015E0002D68C540094E356070BD000000380240CE
:1015F0000070004008544007003C024088ED00E0C5
:10160000FFFFF6FE103000240024F400300100201B
:1016100000127A003401002010B50121084604F0C0
:101620008DFF0121042004F089FF0121402004F0F6
:1016300085FF10BD6E4A52F8202000EE902AB8EEC9
:10164000601A6C4A52F8202000EE902AF8EE600AE8
:10165000C1EE201AB0EE610A674AB2FBF1F2654BA7
:1016600043F820201A4652F8202000EE902AF8EE87
:10167000600A60EE800AFCEEE00A10EE902A5C4BF5
:1016800043F82020704730B50546002406E055F8A1
:1016900024102046FFF7CEFF601CC4B2052CF6DBF9
:1016A00030BD544951F8201000EE901AF8EE600A4F
:1016B00060EE800AFCEEE00A10EE901A4C4A42F806
:1016C0002010704770B50546002422E005EB840029
:1016D00090ED000AB5EEC00AF1EE10FA14DB05EB4E
:1016E000840090ED000AF7EE000AB4EEE00AF1EE95
:1016F00010FA09D805EB8400D0ED000AB0EE600ABC
:101700002046FFF7CEFF02E03CA006F0FBFB601C8A
:10171000C4B2052CDADB70BD10B590B014223B4981
:101720000BA806F052FE14223849143106A806F020
:101730004CFEFFF771FF01208DF8140002208DF898
:10174000150000208DF8160001208DF817000024E8
:101750000BE02F4830F8140004902E4951F8240073
:1017600004A904F001FA601CC4B2052CF1DB0024CA
:101770000AE042F210701F4941F8240040101C4951
:1017800041F82400601CC4B2052CF2DB0BA8FFF763
:1017900099FF06A8FFF777FF0121102004F017FF3B
:1017A000132002905320ADF804000020ADF806008D
:1017B000ADF80C0001A9184805F04BFB01221146B9
:1017C000154805F0E7FF0121134805F0CBFB362053
:1017D0008DF8000000208DF801008DF80200012036
:1017E0008DF80300684603F028FB10B010BD000020
:1017F0002403002038030020A086010057726F6E7A
:10180000672044757479210A0000000090B3000835
:1018100044010020500100200010004070B52DED63
:10182000028B86B005A9C74800F00DFF0020049088
:101830000390002600259DF8140011287DD00BDCB4
:1018400022D2DFE800F021B4B7BDC0B1C5CACDBA1D
:10185000D02121212121A70022286FD00CDC1428BF
:1018600013D004DC12286AD013280DD1FDE0202803
:1018700027D0212808D139E040284CD0412862D017
:10188000422874D0432873D0FBE004A9AD4800F08F
:10189000DAFE9DF8100030B1012807D0022808D0E8
:1018A000032809D00BE000F07CFE08E000F064FEA5
:1018B00005E000F068FE02E000F06CFE00BF00BF33
:1018C000DFE004A99F4800F0BEFE9DF810604FF6CF
:1018D000FF7000EA062604A99A4800F0B4FE9DF8BD
:1018E0001000064330B200F0D6F9CAE004A99548CA
:1018F00000F0A9FE9DF810604FF6FF7000EA062682
:1019000004A9904800F09FFE9DF81000064330B2F5
:1019100000F0ADF9B5E0002409E004A9894800F021
:1019200092FE2D029DF810000543601CC4B2042CE9
:10193000F3DB01959DED010A02E087E019E08FE0FD
:1019400000F096F99DE0002409E004A97D4800F02C
:101950007AFE2D029DF810000543601CC4B2042CD1
:10196000F3DB02959DED020A00F06EF989E03DE09F
:1019700051E004A9734800F066FE03A9714800F025
:1019800062FE9DF80C0041B29DF8100040B200F0DC
:1019900029F976E004A96B4800F055FE9DF8100087
:1019A00040B200F005F96CE000F076F969E000F073
:1019B000DAF866E000F077F963E000F084F960E0BF
:1019C00000F091F95DE0B2EE040A00F0D5FC58E0B9
:1019D000B2EE040A00F015FD53E000F007FD50E000
:1019E00000F03FFD4DE008F0D7FF4AE000240AE098
:1019F00004A9544800F027FEE1009DF8100088403B
:101A00000543601CC4B2042CF2DB00959DED000A76
:101A100000F07CFC35E000240AE004A9494800F00D
:101A200012FEE1009DF8100088400543601CC4B21E
:101A3000042CF2DB0095009809F02AFC41EC180B0D
:101A400053EC182B40A006F05DFA1AE004A93D48BB
:101A500000F0F9FD9DF8100040B200F07BFC10E0B2
:101A600004A9384800F0EFFD0BE004A9354800F068
:101A7000EAFD9DF8102002F00F01100900F08BFE26
:101A800000BF00BF002006B0BDEC028B70BDF8B5F2
:101A9000002000902B488089002848DD29484068B4
:101AA000401C2849C989B0FBF1F201FB1205254809
:101AB0000068475D3E1107F00F0722488189B01C7E
:101AC000814231DB002410E028191E49C989B0FB8E
:101AD000F1F201FB12001B490968085C9DF8001037
:101AE0000844C0B20090601C84B2B442ECDD2819F6
:101AF0001449C989B0FBF1F201FB120011490968D0
:101B0000085C9DF80010884207D1FFF787FE694600
:101B10000C4800F098FD0020F8BD6946094800F027
:101B200092FD6FF00200F7E76FF00100F4E74FF06D
:101B3000FF30F1E710B540220749024800F061FD8F
:101B400010BD00008C03002066616E5F6B6F7774C0
:101B50006F77282566290A004C03002001466A4851
:101B600030F91100704710B568A1694802F08EFF86
:101B70000A2008F0D0FE10BD10B52DED028BB0EE9E
:101B8000408AB0EE480A00F06BFEBDEC028B10BD3F
:101B900010B52DED028BB0EE408A01F024FF38EE37
:101BA000400AF0EE408AFFF7E7FFBDEC028B10BD64
:101BB00010B50446214657A006F0A4F9204600F0CF
:101BC000E2FE10BD10B52DED028BB0EE408AF0EEB6
:101BD000608AF0EE680AB0EE480A00F021FFBDEC22
:101BE000028B10BD70B504460D462A4621464DA015
:101BF00006F088F92946204601F09FF870BD00B52F
:101C00002DED068B83B0B0EE408AF0EE608A18EEC0
:101C1000900A09F03DFB41EC190B18EE100A09F08F
:101C200037FB41EC1A0B8DED009B53EC1A2B42A0B5
:101C300006F068F9F0EE680AB0EE480A01F060F9C3
:101C400003B0BDEC068B00BD10B52DED048BB0EEDE
:101C5000408A18EE100A09F01BFB41EC190B53ECFB
:101C6000192B3AA006F04EF9BDEC048B10BD70475D
:101C700010B52DED048BB0EE408A18EE100A09F075
:101C800007FB41EC190B53EC192B34A006F03AF981
:101C9000BDEC048B10BD704710B500F0C4FD0A20E8
:101CA00008F039FE10BD10B530A1194802F0EEFE63
:101CB000012008F030FE30A1154802F0E7FE0120B7
:101CC00008F029FE10BD10B52EA1114802F0DEFE6D
:101CD000012008F020FE2EA10D4802F0D7FE0120C1
:101CE00008F019FE10BD10B52CA1094802F0CEFE77
:101CF000012008F010FE2BA1054802F0C7FE0120CC
:101D000008F009FE10BD0000EC01002056300D0067
:101D1000001001400D6F746174655F6328256429AC
:101D20000A0000000A6D6F76655F78795F63282589
:101D3000642C202564290A000A6D6F76655F787926
:101D40002825662C202566290A0000000A6D6F767A
:101D5000655F78282566290A000000000A6D6F7605
:101D6000655F79282566290A000000000D34562D8C
:101D7000383030300D0000000D3356383030300D23
:101D8000000000000D3456313030300D00000000EE
:101D90000D33562D313030300D0000000D345630EB
:101DA0000D0000000D3356300D0000001CB5E0485A
:101DB0000068E0490968CDE90010DF480368DF48A2
:101DC0000268DF480168DFA006F09CF81CBD10B572
:101DD0002DED0A8BD848006809F048F841EC1C0B3F
:101DE0009FEDDD0B53EC102B08F0E8FE41EC1B0BD4
:101DF0009FEDDB0B53EC102B09F062F841EC1A0B52
:101E00009FEDD90B53EC102B09F05AF841EC190B4C
:101E10009FEDD70B53EC102B09F052F841EC180B47
:101E200008F0F2FD00EE100ABDEC0A8B10BD10B5F3
:101E30002DED0A8BBF48006809F018F841EC1C0B27
:101E40009FEDC50B53EC102B08F0B8FE41EC1B0BBB
:101E50009FEDC30B53EC102B09F032F841EC1A0B39
:101E60009FEDC10B53EC102B09F02AF841EC190B34
:101E70009FEDC10B53EC102B09F022F841EC180B2D
:101E800008F0C2FD00EE100ABDEC0A8B10BD10B5C3
:101E90002DED0A8BA948006808F0E8FF41EC1C0B07
:101EA0009FEDAD0B53EC102B08F088FE41EC1B0BA3
:101EB0009FEDB30B53EC102B09F002F841EC1A0B19
:101EC0009FEDA90B53EC102B08F0FAFF41EC190B16
:101ED0009FEDA70B53EC102B08F0F2FF41EC180B11
:101EE00008F092FD00EE100ABDEC0A8B10BD10B593
:101EF0002DED0A8B9248006808F0B8FF41EC1C0BEE
:101F00009FED950B53EC102B08F058FE41EC1B0B8A
:101F10009FED930B53EC102B08F0D2FF41EC1A0B02
:101F20009FED910B53EC102B08F0CAFF41EC190BFD
:101F30009FED910B53EC102B08F0C2FF41EC180BF6
:101F400008F062FD00EE100ABDEC0A8B10BD10B562
:101F50002DED0A8B7648006808F088FF41EC1C0BD9
:101F60009FED7D0B53EC102B08F028FE41EC1B0B72
:101F70009FED7B0B53EC102B08F0A2FF41EC1A0BEA
:101F80009FED790B53EC102B08F09AFF41EC190BE5
:101F90009FED790B53EC102B08F092FF41EC180BDE
:101FA00008F032FD00EE100ABDEC0A8B10BD1FB523
:101FB0000121202004F00BFBA720ADF8040040F223
:101FC000E73002900020ADF80C00ADF8060001A942
:101FD0006D4804F03EFF012211466B4805F0DAFB24
:101FE0000121694804F0BEFF37208DF80000012070
:101FF0008DF801008DF802008DF80300684602F0AC
:102000001CFF1FBD10B588B00121084604F0F0FA8E
:10201000002407E05D4951F82400012104F0D7FABB
:10202000601C44B2032CF5DB0121022004F0E0FA2D
:10203000002407E0564951F82400012104F07EFAFB
:10204000601C44B2052CF5DB00240BE0514B1A5DFB
:10205000514B33F81410514B53F8240003F00FFE8A
:10206000601C44B20A2CF1DB02208DF81C00002019
:102070008DF81D008DF81E0001208DF81F00002432
:102080000BE0474830F814000690444951F824000A
:1020900006A903F069FD601C44B20A2CF1DB0020A4
:1020A000ADF80C0047F22F5004900020ADF814005A
:1020B000ADF80E00684605F0DAFA0620ADF8080023
:1020C00000242EE0374951F8240003A904F0C1FE92
:1020D000344951F8240000231A46032105F02DFC51
:1020E000304951F82400694605F08AFA4FF47A60C5
:1020F0002C4951F8241048622A4951F82400012142
:1021000005F05CFB274951F824000122114605F037
:1021100041FB244951F82400012104F023FF601CF5
:1021200044B2052CCEDBFFF742FF08B010BD000023
:102130007401002068010020640100206C0100206F
:10214000700100200D0A256409256409256409250C
:10215000640925640A0000000000000000409F4060
:10216000000000A09999A93F00000060FB210940F0
:10217000000000000000F0BF000000000000F03F81
:10218000000000E04D62A03F00140040B8B300081A
:10219000CCB30008F4B30008E0B3000878010020D5
:1021A000FEB30008A00100201CB5002407E035495B
:1021B00051F82400012104F0C1F9601CC4B2042CC0
:1021C000F5DB00208DF804008DF8050001208DF866
:1021D000070000240BE02C4830F8140000902B4935
:1021E00051F82400694603F0BFFC601CC4B2042C03
:1021F000F1DB1CBD1CB50121880304F0F9F90024B2
:1022000007E0234A115D234A105D04F03CFD601C89
:10221000C4B2042CF5DB00208DF8040010208DF8EA
:10222000050001208DF80600002408E01A4850F847
:1022300024000090684603F04DF8601CC4B2042CE2
:10224000F4DB1CBD38B504208DF801008DF80200C8
:1022500001208DF80300002408E01048005D8DF88F
:102260000000684602F0E9FD601CC4B2042CF4DBF7
:1022700038BD10B5FFF798FFFFF7BCFFFFF7E2FF8F
:1022800010BD000014B4000824B40008B4010020FC
:1022900030B400082CB4000834B4000844B400087A
:1022A0001FB50121080204F092F940F2E7300290D4
:1022B000A720ADF804000020ADF80600ADF80C0032
:1022C00001A97A4804F0C5FD01221146774805F0BE
:1022D00061FA0121754804F045FE2D208DF80000BB
:1022E00003208DF801008DF8020001208DF8030015
:1022F000684602F0A2FD1FBD10B59FED6D0A0020DB
:10230000FFF7CFF901206B49087010BD10B52DED16
:10231000048BB0EE408A9FED680A28EE000A9FED1C
:10232000671AC0EE010A9FED660A30EE600AF0EE11
:10233000408A0220FFF7B5F918EE100A08F0A8FF4E
:1023400041EC190B53EC192B5EA005F0DBFDBDEC45
:10235000048B10BD10B5044600EE904AB8EEE01AAA
:10236000DFED5C1ADFED5B0A41EE210AB0EE600A98
:102370000220FFF796F910BD10B52DED028BB0EEDF
:10238000408A002000F0EAF8B2EE040AB4EEC08AF7
:10239000F1EE10FA05DD9FED460A0120FFF781F905
:1023A00017E0BAEE040AB4EEC08AF1EE10FA05D2D4
:1023B0009FED490A0120FFF774F90AE0DFED470AB3
:1023C0009FED471A41EE480AB0EE600A0120FFF780
:1023D00068F9BDEC028B10BD10B59FED400A0120DD
:1023E000FFF75FF9002000F0AFF810BD10B5B2EEB6
:1023F000040AFFF7C1FF322008F08DFAFFF7ECFF67
:1024000010BD10B52DED028BB0EE408A002000F01B
:10241000A5F8B2EE040AB4EEC08AF1EE10FA05DDBA
:102420009FED230A0120FFF73CF917E0BAEE040AFA
:10243000B4EEC08AF1EE10FA05D29FED270A012012
:10244000FFF72FF90AE0DFED250A9FED251A41EE8F
:10245000080AB0EE600A0120FFF723F9BDEC028BF9
:1024600010BD10B5B2EE040AFFF7CBFF322008F022
:1024700052FAFFF7B1FF10BD10B52DED028BB0EE93
:10248000408AFFF70DFF012016490870FFF7FFFC97
:10249000154880ED000A154880ED008ABDEC028BDE
:1024A00010BD00200F490870704700000020004058
:1024B000B81E853DC4010020CDCC4C3DDB0FC93F8B
:1024C0008FC2F53D0A66616E5F726F6C6C2825667F
:1024D000290A00008FC2753D2DB29D3D7368913D64
:1024E00052491D3AC5010020CC010020C80100203E
:1024F0001CB50121402004F021F801208DF80400D2
:1025000000208DF805008DF8060001208DF80700E9
:10251000002409E0164830F8140000906946154878
:1025200003F022FB601CC4B2032CF3DB002408E0A0
:102530000F4830F8141001220E4803F095FB601C80
:10254000C4B2012CF4DB1CBD10B50446084830F8B9
:1025500014100122074803F087FB10BD10B5044694
:10256000034830F814100022024803F07DFB10BD30
:10257000D00100200018024010B59FED0D0A032085
:10258000FFF78FF810BD10B59FED0A0A0320FFF783
:1025900088F810BD10B59FED080A0420FFF781F8F8
:1025A00010BD10B59FED050A0420FFF77AF810BDA5
:1025B000AAF1D23DEC51383DEC51B83DCDCC4C3D6B
:1025C00010B52DED048B0446B4F5004F0DDB20460D
:1025D00008F063FC41EC190B9FED270B53EC102B1B
:1025E00008F06CFD41EC180B04E0204608F03EFCBE
:1025F00041EC180BB0EE480AF0EE680ABDEC048B13
:1026000010BD03461960501E9860586000209881E4
:10261000DA81704710B502469089D389984202D179
:102620004FF0FF3010BD9068401CD389B0FBF3F42D
:1026300003FB1400906093681068C1549089401C9B
:1026400090810020EEE710B50246908910B94FF056
:10265000FF3010BD5068401CD389B0FBF3F403FB7E
:1026600014005060D2E90003C05C08709089401EDD
:1026700090810020EDE70000000000000000F04025
:102680001CB50121102003F059FF0121402003F067
:1026900055FF002416E0584830F81400009001203F
:1026A0008DF8040000208DF805008DF8060001204B
:1026B0008DF80700514951F82400694603F054FA97
:1026C000601CC4B2042CE6DB00240AE04A4A32F85B
:1026D00014104A4A52F82400002203F0C5FA601C84
:1026E000C4B2042CF2DB1CBD70B505460C4625B106
:1026F000012D1BD0FF2D4BD131E062003E4B33F852
:10270000121062003D4B53F82200012203F0ACFA94
:102710006200521C384B33F812106200521C374BC7
:1027200053F82200002203F09FFA32E06200324B9D
:1027300033F812106200314B53F82200002203F0EC
:1027400093FA6200521C2C4B33F812106200521C98
:102750002A4B53F82200012203F086FA19E06200A6
:10276000254B33F812106200244B53F8220000224C
:1027700003F07AFA6200521C1F4B33F81210620009
:10278000521C1E4B53F82200002203F06DFA00E0A9
:1027900000BF00BF70BD70B505460C4625B1012DC8
:1027A00010D0FF2D21D11BE021460020FFF79CFF18
:1027B000012C03D1C82008F0AEF802E0282008F070
:1027C000AAF813E021460120FFF78EFF012C03D168
:1027D000C82008F0A0F802E0282008F09CF805E0E6
:1027E0002146FF20FFF780FF00E000BF00BF214629
:1027F000FF20FFF779FF70BDD4010020DC0100202D
:102800001CB5FE48B0F90600FC49B1F90410CDE949
:102810000010FA48B0F90230B0F90020F8A1FE48E3
:1028200002F034F91CBD1CB5002005E00021F34A7C
:1028300022F81010411CC8B20428F7DBEF48B0F9A9
:102840000600EE49B1F90410CDE90010EB48B0F9EB
:102850000230B0F90020EAA1EF4802F017F91CBDE0
:1028600010B52DED048B88B0B0EE408A9FEDEB0AD9
:102870008DED040AB7EE000A8DED060A9FEDE80A19
:102880008DED050A684601F089FE01F0ACF8B0EE66
:10289000409A39EE080A8DED000AB5EEC08AF1EED5
:1028A00010FA24DD9DED000ADFEDDE0A30EE200A8D
:1028B0008DED000A11E001F096F88DED010A6846F1
:1028C00001F07DFEBDEEC00A10EE100A44B22046B3
:1028D000FFF76EF90A2008F01EF801F084F878EE90
:1028E000090AB4EEE00AF1EE10FAE4D345E0B5EEE1
:1028F000C08AF1EE10FA40D29DED000ADFEDC90A60
:1029000030EE600A8DED000A2EE001F06CF88DEDDE
:10291000010A684601F053FEF0EE408AB0EE000A6C
:1029200028EE800AF0EE408A9FEDBF0AF4EEC08ADE
:10293000F1EE10FA03DD9FEDBC0AF0EE408A9FED48
:10294000BB0AF4EEC08AF1EE10FA03D29FEDB70A8B
:10295000F0EE408ABDEEE80A10EE100A40B2FFF732
:1029600027F90A2007F0D7FF01F03DF878EE090AB1
:10297000B4EEE00AF1EE10FAC7DCFFF78DF908B00B
:10298000BDEC048B10BD7CB5054600EE105AF8EE88
:10299000C00A9FEDA71A80EE810ADFEDA60A20EE9D
:1029A000200ABDEEC00A10EE100A04B2604200B266
:1029B00092490880604200B24880604200B288803C
:1029C000604200B2C8809CA005F09CFA8B48B0F928
:1029D00000109DA005F096FA8848B0F902109CA05E
:1029E00005F090FA8548B0F904109BA005F08AFA2A
:1029F0008248B0F906109AA005F084FA7F48B0F931
:102A000006007E49B1F90410CDE900107B48B0F909
:102A10000230B0F900207AA17F4802F037F87CBD7F
:102A200000B52DED108B83B0F0EE40DAB0EE608A89
:102A300000F0D9FFB0EE40EAB0EEC80AB0EE40BAFE
:102A400007F0AAFDCDEE800AF0EE608AF0EE000AF3
:102A50009FED850A07F09AFAF0EE40BAF0EE000A10
:102A60009FED820A07F092FA3BEE800AB0EE40BA80
:102A700007F05AFEDFED7C0A80EE801AF0EE41AAE4
:102A8000B7EE000AF0EE40EA4FF47A6009EE900AE1
:102A9000B5EEC08AF1EE10FA12DDB5EE000A38EE9E
:102AA000C00A80EE28AAB5EE000A38EE800AC0EE11
:102AB000280AB0EE609A29EE2E0AB0EE409A5FE046
:102AC000B5EEC08AF1EE10FA56D218EE900A08F070
:102AD000DFFB41EC1C0BB0EE4C0AF0EE6C0A07F089
:102AE0004BFAB0EE40BAF0EE60BAB5EE000A38EE3E
:102AF000800A10EE101A084608F0CAFB41EC1F0BC2
:102B000053EC1B2B08F05AF8CDE900019DED000BAA
:102B100051EC100B07F078FF0AEE100A18EE900A3D
:102B200008F0B6FB41EC1B0BB0EE4B0AF0EE6B0A63
:102B300007F022FAB0EE40CAF0EE60CAB5EE000A25
:102B400038EEC00A10EE101A084608F0A1FB41EC5E
:102B50001F0B53EC1C2B08F031F8CDE900019DED63
:102B6000000B51EC100B07F04FFF09EE100A2AEE94
:102B70002E0AB0EE40AA03E0B7EE00AAB7EE009A24
:102B80003AEE09DA8AEE0D0AB0EE40AA89EE0D0A95
:102B9000B0EE409AB8EEE90A2AEE800AFFEE000A8B
:102BA00020EE200A20EE090ABDEEC00A10EE100A3F
:102BB00000B212490880B8EEE90A2AEE800AFFEE58
:102BC000000A20EE200A20EE090ABDEEC00A10EE2F
:102BD000100A00B24880B8EEE90A2AEE800AF7EE41
:102BE000000A20EE200A20EE0A0ABDEEC00A10EE0E
:102BF000100A00B28880B8EEE90A39E0EC01002042
:102C00000D305625640D315625640D325625640D60
:102C1000355625640D0000000010014000004842B8
:102C200000000000295C8F3D0000FE420000FEC253
:102C30000000004300007A456172675F737065654C
:102C400064733A0A0000000009303A25640A000063
:102C500009313A25640A000009323A25640A000065
:102C600009333A25640A00000000FA430080224438
:102C70002AEE800AF7EE000A20EE200A20EE0A0A69
:102C8000BDEEC00A10EE100A00B2C880AFF25800C4
:102C900005F038F9FE48B0F90010AFF2540005F025
:102CA00031F9FB48B0F90210AFF25C0005F02AF9E7
:102CB000F748B0F90410AFF2600005F023F9F448CA
:102CC000B0F90610AFF2680005F01CF9F048B0F951
:102CD0000600EF49B1F90410CDE90010EC48B0F955
:102CE0000230B0F90020AFF2E801EA4801F0CEFE70
:102CF000B5EEC08AF1EE10FA0ADD00BF00F073FEF7
:102D000078EE0E0AB4EEE00AF1EE10FAF6D30EE019
:102D1000B5EEC08AF1EE10FA09D200BF00F063FEF2
:102D200078EE0E0AB4EEE00AF1EE10FAF6DCFEF7E9
:102D3000B3FF03B0BDEC108B00BD30B52DED068B9D
:102D400083B004460D46F0EE000A1FED390A07F085
:102D50001DF9F0EE40AAF0EE000A1FED3C0A07F064
:102D600015F93AEE800AB0EE40AA07F0DDFC5FEDFF
:102D7000410A80EE801AB0EE419AF0EE000A1FED93
:102D8000460A07F003F9F0EE40AAF0EE000A1FED44
:102D9000490A07F0FBF83AEE800AB0EE40AA07F0C5
:102DA000C3FC5FED4F0A80EE801AF0EE419A00EE10
:102DB000104AF8EEC00A1FED621A80EE810A5FED3C
:102DC000630A20EE200ABDEEC00A10EE100A00B21F
:102DD00008EE100A00EE105AF8EEC00A1FED6C1A49
:102DE00080EE810A5FED6D0A20EE200ABDEEC00A7A
:102DF00010EE100A00B208EE900AB8EEC80A29EEEA
:102E0000000AF8EEE80A09EEA00AFFEE000A20EE3A
:102E1000200ABDEEC00A10EE100A00B29C490880DC
:102E2000B1EE490AF8EEC80A20EE200AF8EEE80AE8
:102E300009EEA00AFFEE000A20EE200ABDEEC00A4D
:102E400010EE100A00B24880B8EEC80A29EE000A57
:102E5000F8EEE80A09EEA00AF7EE000A20EE200AD2
:102E6000BDEEC00A10EE100A00B28880B1EE490A29
:102E7000F8EEC80A20EE200AF8EEE80A09EEA00AE9
:102E8000F7EE000A20EE200ABDEEC00A10EE100A8E
:102E900000B2C880AFF2602005F034F87C48B0F989
:102EA0000010AFF25C2005F02DF87948B0F902105F
:102EB000AFF2642005F026F87548B0F90410AFF2BF
:102EC000682005F01FF87248B0F90610AFF27020C4
:102ED00005F018F86E48B0F906006D49B1F9041014
:102EE000CDE900106A48B0F90230B0F90020AFF225
:102EF000F021684801F0CAFD03B0BDEC068B30BD7F
:102F000000B52DED088B89B0F0EE408AB0EE609AE6
:102F1000F5EEC08AF1EE10FA0AD1B5EEC09AF1EEE4
:102F200010FA05D1FEF7B8FE09B0BDEC088B00BD64
:102F30001FEDC60A8DED050AB7EE000A8DED070AF2
:102F40001FEDC90A8DED060A01A801F027FBFEF767
:102F50003EFF70EE289AFEF76AFF30EE09AAF5EE02
:102F6000C08AF1EE10FA5CD1B5EEC09AF1EE10FA1B
:102F700049DD9FED490A3AEE000A8DED010A3AE07B
:102F8000FEF755FF8DED020A01A801F018FBB0EE27
:102F9000408A18EE100A08F07BF941EC1B0B53EC49
:102FA0001B2B3EA004F0AEFFB0EE000A28EE000A94
:102FB000B0EE408A1FEDE40AB4EEC08AF1EE10FADA
:102FC00003DD1FEDE70AB0EE408A1FEDE80AB4EE1C
:102FD000C08AF1EE10FA03D21FEDEC0AB0EE408A7F
:102FE000BDEEC80A10EE100A41B20020FFF7A5FEA0
:102FF0000A2007F090FCFEF71AFFB4EECA0AF1EEC1
:1030000010FABDD379E06FF063010020FFF795FE61
:1030100000BFFEF70CFFB4EECA0AF1EE10FAF8DCBE
:103020006BE0B5EEC09AF1EE10FA66D1F5EEC08A0B
:10303000F1EE10FA54DD9FED180A39EE800A8DED9D
:10304000010A45E0FEF7C3FE8DED020A01A801F07A
:10305000B6FAB0EE408A18EE100A08F019F941EC01
:103060001B0B53EC1B2B0DA004F04CFFB0EE000A21
:1030700028EE000AB0EE408A9FED090AB4EEC08A3D
:10308000F1EE10FA03DD9FED060AB0EE408A09E08A
:10309000EC01002000100140CDCCCC3D25660A009B
:1030A0000000FE429FED170AB4EEC08AF1EE10FA5E
:1030B00003D29FED140AB0EE408A0021BDEEC80A8B
:1030C00010EE100A40B2FFF738FE0A2007F023FC8A
:1030D000FEF77DFEB4EEE90AF1EE10FAB2D30CE091
:1030E00000216FF06300FFF728FE00BFFEF76FFEC0
:1030F000B4EEE90AF1EE10FAF8DCFEF7CDFD00BF00
:1031000012E700000000FEC210B586B001210220C7
:1031100003F014FA0121202003F010FA00242DE01E
:1031200001208DF8140002208DF8150000208DF884
:10313000160001208DF81700A64830F814000490FE
:10314000A54951F8240004A902F00EFD00208DF8D5
:10315000140002208DF8150000208DF816000120C3
:103160008DF817009D4830F8140004909C4951F8E0
:10317000240004A902F0F8FC601CC4B2022CCFDBCE
:103180000121880403F034FA4FF4367002900720CE
:10319000ADF804000020ADF80600ADF80C0001A960
:1031A000904803F056FE01218E4804F007FB0122EF
:1031B00011468C4804F0EEFA01218A4803F0D2FE51
:1031C0001A208DF8000000208DF801008DF8020013
:1031D00001208DF80300684601F02FFE06B010BDF7
:1031E000814A125C3AB100227F4B1A547F4A115433
:1031F00001227F4B1A54704730B504460D4600BF7C
:103200007948005D0028FBD029462046FFF7E8FFFB
:1032100030BD0146774A505C0022774B5A547047C4
:1032200010B5044600BF7448005D0028FBD020465E
:10323000FFF7EFFF10BD0FB430B5ADF5037D0546C8
:10324000002488A8019040F2012102A8019B879ADE
:1032500004F03EFE07E02046621CD4B202AA115CD4
:103260002846FFF7C9FFB4F5007F03DA02A8005D26
:103270000028F0D100200190022007F04CFB0DF552
:10328000037D30BC5DF814FB10B500249EE05B4864
:10329000005D80B35A48005D401EC0B258490855D1
:1032A00000283BD1032008555648005D401EC0B29F
:1032B0005449085550B95448005D4E4908550020FE
:1032C0004E49085501204C49085527E04E48005DFD
:1032D00040104D490855414A32F81410404A52F8FE
:1032E000240002F0A3FCC8B14748005D40F0800014
:1032F0004549085512E0FFE7384A32F81410384AB9
:1033000052F8240002F092FC40B901203B490855D4
:1033100004203B49085509203A4908553B48005DBF
:10332000401EC0B23949085500284DD10320085528
:103330002F48005D002847D03548005D80B9254AF8
:1033400032F81410244A52F82400002202F08CFCB7
:103350002648005D2F49085509202D49085533E0BE
:103360002B48005D401EC0B22949085578B9194A5A
:1033700032F81410184A52F82400012202F074FCAA
:1033800000201B4908550120174908551CE0214819
:10339000005D00F0010048B10E4A32F814100E4AE8
:1033A00052F82400012202F05FFC08E0094A32F8DA
:1033B0001410094A52F82400002202F055FC154866
:1033C000005D401013490855601CC4B2022CFFF682
:1033D0005EAF10BDF4010020F801002000020020C3
:1033E0000402002000480140200200200C020020BE
:1033F0001C0200200E020020220200201E020020DB
:10340000160200201A0200201202002014020020DE
:10341000180200201002002010B5024600200121F1
:1034200005E00002531AF74CE35C1843491C0429D9
:10343000F7D910BD10B54FF48042F249F24801F0BF
:10344000CEFCF04800780A2806D00A20ED49087022
:103450000120EE49086012E043F6FF740CE0E948F1
:10346000005DFF2807D1601EE649085C0A2802D1EA
:10347000E648046002E0641E012CF0D800BF402240
:10348000E349E448FFF7BDF80120E349087010BDA7
:1034900010B5DD4801F059FCFFF7CCFF10BD70B549
:1034A000064600242AE0D748005D0A2806D1D549FF
:1034B000601C085CFF2801D1002070BDD148005D70
:1034C0000A281AD1002514E06019401CCD49085C77
:1034D000D24948550846405D3D2809D1002048554D
:1034E0003146CE4804F0A4FF10B96019801DE4E70E
:1034F0006D1CC64800688542E6D3641CC34800685A
:103500008442D0D30020D8E72DE9F04781464FF020
:10351000000A4846FFF7C3FF05460DB9BDE8F0872E
:103520002846FFF779FF82462E4600E0761EB54812
:10353000805D0A28FAD105EB0A08A8EB0607444685
:1035400005E0B048005DE11BAE4A5054641CAF4832
:1035500000688442F5D3E41B03E0FF20A949085525
:10356000641CAA4800688442F7D3A8480068C01BBE
:10357000A649086000BFD1E72DE9F0470746884615
:103580001646A548007808B9BDE8F0873846FFF729
:1035900086FF10B13846FFF7B7FF384604F0F6FE55
:1035A00000F0FF0999480568002404E0385D2919F6
:1035B000944A5054641C4C45F8D33D202919914A33
:1035C00050542819451C002406E0E00026FA00F0BB
:1035D00029198C4A5054641C042CF6D32544002429
:1035E00005E018F804002919864A5054641CB442B6
:1035F000F7D30A202919834A50542819401C8349BB
:10360000086000BFC0E710B58348007800B910BD5E
:103610007D4801F09AFB4FF480427A497A4801F0E4
:10362000B3FB00BFF3E72DE9F04180460D467A4831
:10363000007810B90020BDE8F0814046FFF72FFF69
:10364000064616B900202870F5E73046FFF7E4FE7D
:103650000746002404E030196A49085C2855641CB8
:10366000BC42F8D3002028550120E4E72DE9F041C1
:10367000A2B00546284604F089FE80460027287837
:10368000722876D006DC632874D0642873D068284A
:1036900072D104E0732870D07728F9D133E0022486
:1036A00007E0285D3D2803D101270020285502E0CE
:1036B000641C202CF5D300BF0FB3002404E0601C71
:1036C000285C11A90855641C601C285C0028F6D1F0
:1036D000A91C081921AA52A104F094FD042221A9D1
:1036E00011A8FFF749FF0020219021A911A8FFF799
:1036F0009AFF11A94CA0219A04F004FC02E051A009
:1037000004F000FCE2E0012407E0285D3D2803D13D
:1037100001270020285502E0641C202CF5D300BFAF
:1037200067B3012404E0295D601E11AA1154641CD2
:10373000285D0028F7D10021601E11AA1154661CD3
:10374000002404E03019285C01A90855641C3019D4
:10375000285C0A28F6D1002001A9085501AA11A960
:103760003CA004F0CFFB224601A911A8FFF704FFFB
:1037700008E008E0A0E026E0A4E03DE0FFE73AA092
:1037800004F0C0FBA2E001240BE0295D601E11AA39
:103790001154285D0A2803D10021601E115402E053
:1037A000641C202CF1D300BF01A911A8FFF73BFF37
:1037B00028B101AA11A932A004F0A4FB02E032A0B2
:1037C00004F0A0FB82E001240BE0295D601E11AA39
:1037D0001154285D0A2803D10021601E115402E013
:1037E000641C202CF1D300BF11A8FFF78DFE11A996
:1037F0002AA004F087FB69E0FFF705FF2BA004F087
:1038000081FB63E0EC03002000000208240200209A
:103810009C030020DC030020280200200C44002030
:1038200025333278000000000A6E616D653A257319
:103830000A6865783A307825782073617665642E59
:103840000A0000000A496E76616C69642068657838
:103850000A0000000A6E616D653A25732C6461747C
:10386000613A25730A0000000A57726F6E67206381
:103870006F646520746F2077726974650A000000B8
:103880000A25733D25730A000A4B6579206E6F7413
:1038900020666F756E642E0A000000000A257320F2
:1038A00064656C657465640A000000000A73796ED3
:1038B0006320646F6E650A00FFF7EAFD12A004F052
:1038C00021FB03E014A004F01DFB00BF00BF22B0E9
:1038D000BDE8F08110B500240FE014480119144828
:1038E000FEF7B1FE1148005D0A2804D100210F4AFD
:1038F000601C115403E0601C84B2402CEDDB00BF5F
:103900000A48FFF7B3FE10BD0A444220434C45412C
:1039100052454421210A00000A556E7265636F67A3
:103920006E6973656420636F64650A002C4400202F
:10393000DC0300200146087800064A7840EA02408D
:103940008A7840EA0220CA781043704730B5284888
:10395000007828490978884241D12548407825498E
:10396000497888423BD12248807822498978884228
:1039700035D11F48C0781F49C97888422FD11C48CB
:10398000001DFFF7D7FF054619480830FFF7D2FFA3
:10399000044617480C30FFF7CDFF03461648056074
:1039A0001648046016480360134890ED000ADFEDE6
:1039B000150A20EE200A80ED000A104890ED000A5A
:1039C000DFED100A20EE200A80ED000A0C4890ED91
:1039D000000ADFED0C0A20EE200A80ED000A0848FC
:1039E00090ED000A30BD084890ED000A70470000D5
:1039F0002C02002048B40008480200204C0200209D
:103A0000500200204DF38E3C5802002070B5054650
:103A10000E46F8480078012801D1801E70BD0121B2
:103A2000F54802F02DFAF54C05E02000A4F1010460
:103A300001D1801EF2E7F249EF4802F03BFB00287B
:103A4000F3D0EF49EC4802F05FFB0022D021EA48B6
:103A500002F02EFAE94C05E02000A4F1010401D1A6
:103A6000C01EDBE7E649491CE34802F023FB0028BF
:103A7000F2D04FF47A7400BF2000A4F10104FBD10E
:103A80001421DD4802F0E0FA1821DB4802F0DCFAEC
:103A90002946D94802F090FAD84C05E02000A4F15C
:103AA000010401D1001FB9E7D549C91CD24802F071
:103AB00001FB0028F2D04FF47A7400BF2000A4F17B
:103AC0000104FBD13146CC4802F076FACB4C05E03C
:103AD0002000A4F1010401D1401F9FE7C849C91C7F
:103AE000C54802F0E7FA0028F2D00121C24802F0EE
:103AF000D3F94FF47A7400BF2000A4F10104FBD184
:103B000000BF8BE72DE9F04104462078BD490870DD
:103B1000BD4960680860BD49A0680860BC49E068AC
:103B200008606078BB4908700020BB490880B54830
:103B3000007800F0010030B108460088801D088040
:103B40004320B6490870AF480078C0F3400038B150
:103B5000B1480088801CB04908804120AF490870F6
:103B6000A8480078C0F3800070B1AB4800880628F0
:103B700002D1C01FBDE8F081A7480088801DA6497A
:103B800008803B20A5490870A548006820F0010086
:103B9000A3498839C1F8880000BFA148006800F037
:103BA00001000028F9D19E48006820F060609C491F
:103BB0008839C1F888000846D0F8880040F00070C5
:103BC000C1F888000846D0F8880020F0F070C1F8ED
:103BD00088000846D0F8880020F44020C1F888000A
:103BE0000846D0F8880040F44030C1F88800084604
:103BF000D0F8880020F4C040C1F888000846D0F80A
:103C0000880020F4C050C1F888000846D0F8880029
:103C100040F48060C1F888000846D0F8880020F49D
:103C20000070C1F888000846D0F8880020F4807041
:103C3000C1F888000846D0F8880020F0C000C1F81C
:103C400088000846D0F8880020F02000C1F88800DD
:103C50000846D0F8880020F01E00C1F88800084609
:103C6000D0F8880040F01000C1F888006A48008849
:103C70006B49091D086060481030091D08606948DB
:103C800067498839C1F894000846D0F89C0020F0B4
:103C90008000C1F89C000846D0F89C0040F0040069
:103CA000C1F89C000846D0F89C0040F00300C1F821
:103CB0009C005148001D008840F480504E49091D69
:103CC00008800846008840F400600880002505E070
:103CD000002700E07F1C0A2FFCDB6D1CB5F57A7F06
:103CE000F6DB00216B20FFF791FE00211920FFF782
:103CF0008DFE06211A20FFF789FE18211B20FFF7F1
:103D000085FE01211C20FFF781FE0646002E01DA08
:103D100030462FE700202DE71FB50446029401200E
:103D20008DF8000000208DF801006846FFF7EAFEDC
:103D3000002004B010BD70B506460D462D48007831
:103D4000012801D1801E70BD01212B4802F098F896
:103D50002A4C05E02000A4F1010401D1801EF2E705
:103D60002749254802F0A6F90028F3D02449224823
:103D700002F0CAF90022D0211F4802F099F81F4C26
:103D800005E02000A4F1010401D1C01EDBE71C49BD
:103D9000491C194802F08EF90028F2D01421164867
:103DA00002F052F91821144802F04EF91B4801782C
:103DB000114802F001F9114C05E02000A4F10104C2
:103DC00001D1001FBFE70E49C91C0B4802F072F970
:103DD0000028F2D00121084802F05EF801210648CF
:103DE00002F04EF8054C1FE02000A4F101041BD1A5
:103DF000401FA8E7670200200054004040420F0027
:103E00000100001068020020880200208C020020BF
:103E10009002002069020020640200206602002057
:103E2000886002406C440020FC49FD4802F042F9E1
:103E30000028D9D0F949FA4802F066F90122D021C8
:103E4000F74802F035F8F74C05E02000A4F1010432
:103E500001D1801F77E7F149491CF14802F02AF9A6
:103E60000028F2D00021EE4802F02AF80121EC48A7
:103E700002F012F81421EA4802F0E6F81821E848A6
:103E800002F0E2F8E74C05E02000A4F1010401D1C2
:103E9000C01F58E7E1493F31E14802F00BF9002823
:103EA000F2D0DF4802F08AF828700121DC4802F0E5
:103EB00007F8002047E770B5DB48006800F0010014
:103EC00010B14FF0FF3070BDD8480088D649091DA9
:103ED0000860D748D4498839C1F894000121D048F6
:103EE00001F0CEFFCF4C05E02000A4F1010401D188
:103EF000801EE8E7C949CA4802F0DCF80028F3D080
:103F0000C649C74802F000F90022D021C44801F098
:103F1000CFFFC44C05E02000A4F1010401D1C01E74
:103F2000D1E7BE49491CBE4802F0C4F80028F2D0CF
:103F30001421BB4802F088F81821B94802F084F82F
:103F4000BC480178B64802F037F8B64C05E02000CE
:103F5000A4F1010401D1001FB5E7B049C91CB04864
:103F600002F0A8F80028F2D00121AD4801F094FF3A
:103F7000002505E0002600E0761C642EFCD36D1CB5
:103F80000A2DF7D30121A64801F07AFFA54C05E0E0
:103F90002000A4F1010401D1401F94E79F49A048EB
:103FA00002F088F80028F3D09C499D4802F0ACF854
:103FB0000122D0219A4801F07BFF9A4C05E02000B5
:103FC000A4F1010401D1801F7DE79449491C944864
:103FD00002F070F80028F2D09348006840F0010029
:103FE00091498839C1F8880000BF8F48006800F007
:103FF00001000028F9D01421894802F025F8182181
:10400000874802F021F800205DE710B5FFF753FF65
:10401000041E01DA204610BD0120874908700020E7
:10402000F9E700208449087000BF7F48006800F06D
:1040300001000028F9D17047014603290DD07F48BF
:1040400030F811007E4A22F811009FED7E0A7E486A
:1040500000EB810080ED000A02E064207B4A1060E2
:10406000002070477A4901EB800181ED000A70471A
:10407000774901EB800191ED000A7047754800789F
:10408000704700B503467348007830B91846FFF70B
:10409000D3FF01206F49087013E06E4800780128B3
:1040A0000FD1694800EB830090ED000A684800EBEF
:1040B000830080ED000A0020664908701846FFF76B
:1040C000BBFF002000BD10B52DED048B62495648A2
:1040D00001F0A4F800287DD00121514801F0DCFE58
:1040E0004FF08040406A5D490968401A5B490860AA
:1040F00008460068002802DA5948006808605748F6
:104100000068574908605548006806F0AFFE41EC6A
:10411000190B9FED540B53EC102B06F0D1FE41EC24
:10412000180B06F071FC5149086051480078C0F343
:10413000800000285ED03E4840783D49097840EA3A
:10414000012000EE100AB8EEC00A4A48006880ED6F
:10415000000A3748C0783649897840EA012000EEE5
:10416000100AB8EEC00A4348006880ED010A3048E2
:1041700040792F49097940EA012000EE100AB8EE93
:10418000C00A3C48006880ED020A39480078C0F354
:10419000400000282DD02648C0792549897940EA79
:1041A000012000EE100AB8EEC00A3348006880ED26
:1041B000000A2F48007800F00100002819D01C48A0
:1041C000407A1B49097A40EA012000B21B49088065
:1041D000174800E0BBE1807A40EA002000B2488046
:1041E0001348C07A1249097B40EA012000B2134902
:1041F000888080E01E480078C0F34000F0B30C488F
:1042000040780B49097840EA012000EE100AB8EE28
:10421000C00A1948006880ED000A30E00100001073
:104220000054004040420F008860024064020020B9
:104230006C440020660200206702002082020020F9
:104240007C020020000000007C4400207802002056
:104250006C0200206A0200200088002094020020E6
:1042600098020020B345D26EF4310F3F9C0200202B
:1042700068020020880200209002002020E0B5485B
:10428000007800F00100B0B3B348C078B249897833
:1042900040EA012000B2B1490880AF484079AE49F8
:1042A000097940EA012000B2AC494880AA48C079A7
:1042B000A949897940EA012000B2A84988801AE01A
:1042C000A5484078A449097840EA012000B2A349F2
:1042D0000880A148C078A049897840EA012000B24E
:1042E0009E4948809C4840799B49097940EA0120D1
:1042F00000B29A4988809748007800F001000028B1
:104300007CD097480068D8B195480068401E944911
:104310000860924800889349088090484088488007
:104320008E48808888801FED390A8F4880ED000A0A
:104330001FED3C0A80ED010A1FED3E0A80ED020AE6
:104340008648B0F900008749B1F90010401A00EE24
:10435000100AF8EEC00A844890ED000A834890EDF8
:10436000001A00EE810A804880ED000A7B48B0F90F
:1043700002007C49B1F90210401A00EE100AF8EE72
:10438000C00A794890ED010A784890ED001A00EED5
:10439000810A754880ED010A7048B0F9040071493E
:1043A000B1F90410401A00EE100AF8EEC00A6E4887
:1043B00090ED020A6D4890ED001A00EE810A6A48FD
:1043C00080ED020A6A48007820B1012835D0022821
:1043D00032D17BE0674890ED000ADFED670A80EE9E
:1043E000801A614890ED000A21EE000A63480068D7
:1043F00080ED000A5F4890ED010A00E07DE0DFED0E
:104400005E0A80EE801A584890ED010A21EE000AFB
:104410005A48006880ED010A564890ED020ADFED27
:10442000560A80EE801A504890ED020A21EE000AEA
:104430005248006880ED020A5EE04E4890ED000AA6
:10444000DFED4D0A80EE801A474890ED000A21EE1C
:10445000000ADFED4B0A80EE201A9FED4A0A21EE9A
:10446000000A4648006880ED000A424890ED010AC3
:10447000DFED410A80EE801A3B4890ED010A21EE03
:10448000000ADFED3F0A80EE201A9FED3E0A21EE82
:10449000000A3A48006880ED010A364890ED020AA9
:1044A000DFED350A80EE801A2F4890ED020A21EEEA
:1044B000000ADFED330A80EE201A9FED320A21EE6A
:1044C000000A2E48006880ED020A15E0264890EDAB
:1044D000000A2A48006880ED000A234890ED010A8E
:1044E0002648006880ED010A1F4890ED020A234823
:1044F000006880ED020A00BF00BF2348006820F07A
:10450000010021498839C1F8880000BF1E480068B1
:1045100000F001000028F9D11C491B4800F0A8FE5A
:104520001B48007810B9BDEC048B10BD19480088F9
:104530001549091D0860084813498839C1F89400D5
:10454000FFF7B9FC4FF08040406A1349086000BF94
:10455000E9E70000680200206C440020820200208D
:10456000780200207C0200207C4400209C02002075
:10457000690200206C020020000034448C020020FC
:1045800000003443DB0F494088600240008800206F
:104590006702002064020020940200209FED5A0A66
:1045A00080ED010A9FED580A80ED020A9FED560A40
:1045B00080ED030A9FED540A80ED070A7047002141
:1045C00000EE901A90ED021ABDEEC11A11EE101A0B
:1045D000002901DB0A4600E04A4201EE102AB8EE4B
:1045E000C11AD0ED001AB7EE082A61EE821AB4EEB5
:1045F000E11AF1EE10FA03DD002100EE901A0AE054
:10460000012100EE901A90ED071AD0ED021A31EE5A
:10461000211A80ED071A90ED001AD0ED011A31EE43
:10462000611A80ED021A90ED041AD0ED021A21EE03
:10463000211AD0ED051A90ED072A61EE821AB8EE24
:10464000E02A01EE821AD0ED021A90ED032A71EEF3
:10465000C21A90ED062AB0EE410A02EE210A90ED50
:10466000021A80ED031A70479FED270A80ED010AB8
:104670009FED250A80ED030A9FED230A80ED040AD1
:104680009FED210A80ED050A9FED1F0A80ED090AC2
:10469000704790ED000A90ED011A30EE410A80ED6E
:1046A000030A90ED030A90ED051A30EE410A90EDF1
:1046B000061A20EE010A90ED071AD0ED031A01EE5A
:1046C000210A90ED031AD0ED051AB0EE002A02EE91
:1046D000611AD0ED041A31EE211AD0ED081A01EE5C
:1046E000810AF0EE400A90ED020A30EE200A80EDD9
:1046F000020A90ED050A80ED040A90ED030A80EDB0
:10470000050A90ED020A70470000000010B588B05D
:1047100004460121022001F011FF0121102001F0C7
:1047200067FF07220621F64801F0A9FA0722114681
:10473000F34801F0A4FAC020069002208DF81C0076
:1047400000208DF81D008DF81E0001208DF81F003F
:1047500006A9EB4801F008FA02940020ADF80C001D
:10476000ADF80E00ADF81000ADF814000C20ADF857
:10477000120002A9E34803F078F90121E14803F0AF
:10478000FCF925208DF8040003208DF805008DF834
:10479000060001208DF8070001A800F04EFB08B0CC
:1047A00010BD10B588B004460121082001F0C6FEF6
:1047B0000121480401F00BFF07220521D24801F036
:1047C0005EFA07220621D04801F059FA60200690CF
:1047D00002208DF81C008DF81D0000208DF81E00B1
:1047E00001208DF81F0006A9C74801F0BDF9029409
:1047F0000020ADF80C00ADF80E00ADF81000ADF8DB
:1048000014000C20ADF8120002A9C04803F02DF9E5
:104810000121BE4803F0B1F9012240F22551BB4805
:1048200003F061FA26208DF8040002208DF80500BF
:104830008DF8060001208DF8070001A800F0FDFAB0
:1048400008B010BD10B588B004460121082001F061
:1048500075FE0121880401F0BAFE07220821AA484A
:1048600001F00DFA07220921A74801F008FA4FF4D8
:104870004070069002208DF81C008DF81D0000206D
:104880008DF81E0001208DF81F0006A99E4801F03A
:104890006BF902940020ADF80C00ADF80E00ADF8F5
:1048A0001000ADF814000C20ADF8120002A99848D1
:1048B00003F0DBF80121964803F05FF9012240F292
:1048C0002551934803F00FFA27208DF804000220A9
:1048D0008DF805008DF8060001208DF8070001A86D
:1048E00000F0ABFA08B010BD10B588B00446012145
:1048F000042001F023FE0121C80401F068FE02201B
:104900008DF81C0000208DF81E0001208DF81F007E
:1049100002208DF81D004002069006A97D4801F096
:1049200023F94FF40060069006A97A4801F01CF9BB
:1049300008220A21774801F0A2F908220B217548C4
:1049400001F09DF902940020ADF80C00ADF80E00C6
:10495000ADF81000ADF814000C20ADF8120002A95B
:104960006D4803F082F801216B4803F006F901223B
:1049700040F22551684803F0B6F934208DF8040060
:1049800000208DF805008DF8060001208DF8070045
:1049900001A800F052FA08B010BD10B588B0044666
:1049A0000121042001F0CAFD0121082001F0C6FD0B
:1049B0000121080501F00BFE08220C21554801F0E9
:1049C0005EF908220221504801F059F94FF4805055
:1049D000069002208DF81C008DF81D0000208DF837
:1049E0001E0001208DF81F0006A94A4801F0BCF8FE
:1049F0000420069002208DF81C008DF81D00002078
:104A00008DF81E0001208DF81F0006A93E4801F018
:104A1000ABF802940020ADF80C00ADF80E00ADF834
:104A20001000ADF814000C20ADF8120002A93B48AC
:104A300003F01BF80121394803F09FF8012240F2EE
:104A40002551364803F04FF935208DF80400022037
:104A50008DF805008DF8060001208DF8070001A8EB
:104A600000F0EBF908B010BD10B504462046FFF782
:104A70004DFE2046FFF795FE2046FFF7E3FE204659
:104A8000FFF732FF2046FFF788FF10BD0FB430B5A7
:104A90009BB00546002420A80090652101A8009B3A
:104AA0001F9A03F015FA8021284603F04EF90EE014
:104AB00000BF8021284603F03BF90028F9D02046AA
:104AC000621CD4B201AA115C284603F081F8642C60
:104AD00003DA01A8005D0028EAD1002000901BB095
:104AE00030BC5DF814FB00BF704700BF0B4A128852
:104AF00002F04002002AF9D0C2B2084B9A807047F7
:104B00000004024000100140000C0240004400403C
:104B10000048004000080240004C004000500040A7
:104B20000948804709480047FEE7FEE7FEE7FEE741
:104B3000FEE7FEE7FEE7FEE7FEE7FEE7044805497D
:104B4000054A064B70470000E5140008890100087B
:104B5000E8440020E8840120E8440120E8440120E2
:104B600070B50446254600BF0221564802F04AF8B7
:104B70000028F9D0E84345EA002081B2514801F00D
:104B8000F8FF00BF01214F4802F03CF80028F9D09F
:104B90004C4801F0EBFF054625EA252000B100E076
:104BA0000024204670BD00B589B00121022001F02B
:104BB000C5FC0121042001F0C1FC0121880301F0A2
:104BC00006FD4FF4C040079002208DF82000002021
:104BD0008DF8220003208DF8210001208DF823009C
:104BE00007A9394800F0C0FF0820079002208DF87F
:104BF000200000208DF8220003208DF821000120E4
:104C00008DF8230007A9314800F0AEFF05220D21E1
:104C10002D4801F034F805220E212B4801F02FF821
:104C200005220321294801F02AF80121880301F017
:104C300023FD00214FF4804001F01EFD0020ADF85F
:104C400004004FF48270ADF806004FF40070ADF828
:104C50000E008000ADF808000220ADF80A00012027
:104C6000ADF80C003820ADF810000020ADF81200AF
:104C70000720ADF8140001A9124801F0FFFD012141
:104C8000104801F0F5FE60210E4801F0E1FF00221E
:104C900060210C4801F094FF00227121094801F0C5
:104CA0008FFF24208DF8180004208DF819008DF84E
:104CB0001A0001208DF81B0006A800F0BEF809B00C
:104CC00000BD00000038004000040240000802401F
:104CD00001460868704701464948814201D20020D8
:104CE00070474848814201D20820F9E7464881428E
:104CF00001D21020F4E74548814201D21820EFE7A5
:104D00004348814201D22020EAE74248814201D251
:104D10002820E5E74048814201D23020E0E73F48C3
:104D2000814201D23820DBE73D48814201D2402058
:104D3000D6E73C48814201D24820D1E73A48814237
:104D400001D25020CCE75820CAE770B50446B4F130
:104D5000006F02D304F0030000B170BD00F072FBDD
:104D6000002000F052FB3148844206D22046FFF773
:104D7000B2FF0546022100F0B9FB012000F045FB1F
:104D800000F06DFB00BFE8E72DE9F04104460D4659
:104D90001646092704EB9608B4F1006F02D304F01D
:104DA000030008B1BDE8F08100F04CFB002000F0EA
:104DB0002CFB092F0CD108E02046296800F0AFFC3D
:104DC000092800D003E0241D2D1D4445F4D300BF65
:104DD000012000F01AFB00F042FB00BFE2E730B513
:104DE00003460C461546002206E01846FFF770FF02
:104DF00044F822001B1D521CAA42F6D330BD00000D
:104E0000004000080080000800C000080000010801
:104E1000000002080000040800000608000008085E
:104E200000000A0800000C0800000E080000FF1F28
:104E300032490143324A1160704770B500210023A6
:104E40000F22C4781CB32E4C246804F4E064C4F52B
:104E5000E064C4F30721C1F10404E3B20A414478D9
:104E60009C40E1B28478144021430C07210E254C6C
:104E700005786155047804F01F050124AC400578DD
:104E80006D11AD0005F1E025C5F8004109E0047899
:104E900004F01F050124AC401B4D0678761145F83F
:104EA000264070BD194A0A400243154B1B1F1A6069
:104EB000704739B1124A121D12680243104B1B1D74
:104EC0001A6006E00E4A121D126882430C4B1B1D2D
:104ED0001A607047042808D14FF0E021096941F0B9
:104EE00004014FF0E022116107E04FF0E021096971
:104EF00021F004014FF0E022116170470000FA0533
:104F00000CED00E000E400E080E100E080FFFF1F26
:104F1000016821F0010101600021016041608160B0
:104F2000C160016121214161DB49884204D13D21F9
:104F3000D94A103A91608CE0D7491831884205D19E
:104F40004FF47461D44A103A916082E0D249303112
:104F5000884205D14FF47411CF4A103A916078E03D
:104F6000CD494831884205D14FF07461CA4A103AA0
:104F700091606EE0C8496031884204D1C749C64A91
:104F8000103AD16065E0C4497831884204D1C449FF
:104F9000C14A103AD1605CE0BF499031884204D1E7
:104FA000C049BD4A103AD16053E0BB49A83188429C
:104FB00005D14FF03D51B84A103AD16049E0BA49A5
:104FC000884204D13D21B84A083A116041E0B6490F
:104FD0001831884205D14FF47461B34A083A116020
:104FE00037E0B1493031884205D14FF47411AE4AEF
:104FF000083A11602DE0AC494831884205D14FF0A4
:105000007461A94A083A116023E0A74960318842D7
:1050100004D1A249A44A121F11601AE0A2497831B2
:10502000884204D19E49A04A121F116011E09E4996
:105030009031884204D19B499B4A121F116008E0BD
:105040009949A831884204D14FF03D51964A121F28
:105050001160704710B500220268944B1A40CC686A
:105060000B6823434C6923438C692343CC69234356
:105070000C6A23434C6A23438C6A23434C6B2343BF
:105080008C6B23431A430260426922F00702D1E984
:105090000B3423431A4342610B6943604B688360BE
:1050A0008B68C36010BD0021016041608160C160F8
:1050B000016141618161C161016241628162C162DC
:1050C000016341638163704721B1026842F00102CC
:1050D000026003E0026822F001020260704721B121
:1050E000026842F40042026003E0026822F40042D7
:1050F0000260704721B1026842F02002026003E0C2
:10510000026822F020020260704741607047014649
:10511000486880B2704722B1036843F400230360FB
:1051200003E0036823F4002303600161704721B1A9
:10513000026842F48022026003E0026822F48022C6
:10514000026070470AB1016100E0C160704701462A
:1051500000200A6802F400220AB1012000E00020C9
:105160007047014600200A6802F001020AB10120DE
:1051700000E000207047014600204A6902F0380034
:10518000704730B503460A4600200024464DAB4226
:1051900002D24149103901E04349103902F000556B
:1051A0000DB14C6800E00C68414D2C4004EA02054A
:1051B0000DB1012000E0002030BD02463A4B9A427A
:1051C00002D23548103801E03748103801F000535A
:1051D0001BB1374B0B40C36002E0354B0B40836083
:1051E000704710B501F080034BB122B1436943F021
:1051F0008003436103E0436923F080034361802916
:105200000BD02AB1036801F01E042343036004E0BD
:10521000036801F01E04A343036010BD70B502468D
:10522000002000240025204EB24202D21A4B103B2F
:1052300001E01D4B103B1F4E0E4036B11E2606EA04
:10524000D124166806EA040502E0566906F08005D6
:1052500001F000560EB15C6800E01C68144E34404A
:1052600004EA010616B10DB1012000E0002070BD76
:1052700002460D4B9A4202D20748103801E00A4814
:10528000103801F000531BB1094B0B40C36002E022
:10529000074B0B4083607047106002403D000020C8
:1052A000400F002000003D20106402403F801CF0B1
:1052B0007D0F7D0F3C0F3C0F002041490860091D08
:1052C0000860091D0860091D08603E483C4914310A
:1052D0000860704700213A498279002A3AD00A468C
:1052E000126803689A430B461A600A1D1268036825
:1052F0009A430B1D1A60027911440A6803681A4325
:105300000A602F4A0832126803689A432C4B08330C
:105310001A601A1D126803689A43294B0C331A60ED
:105320004279102A0ED11A1F126803681A43244BBF
:1053300008331A601A1D126803681A43204B0C3395
:105340001A600DE01E49427911440A6803681A4345
:105350000A6005E0027911440A6803689A430A600A
:1053600070470021016001710C21417100218171A0
:1053700070471349103109680143114A1032116016
:105380007047014600200E4A143212680A400AB1E2
:10539000012000E00020704709491431086070477F
:1053A00001460020064A143212680A400AB1012060
:1053B00000E0002070470249143108607047000087
:1053C000003C0140FFFF7F00FE4A1070704730B183
:1053D000FC49096841F48071FA4A116005E0F94915
:1053E000096821F48071F74A1160704730B1F549BE
:1053F000096841F40071F34A116005E0F149096858
:1054000021F40071EF4A1160704730B1ED4909682D
:1054100041F48061EB4A116005E0EA49096821F432
:105420008061E84A11607047E648006840F4006017
:10543000E44908607047E348006840F48050E1495F
:1054400008607047DF481030006800F0004028B165
:10545000DD48DC49091D0860DC4808607047D94810
:105460001030006840F00040D649103108607047A5
:105470000920D4490C31096801F48031B1F5803F2D
:1054800001D1012020E0CF490C31096801F0100161
:1054900009B1062018E0CB490C31096801F480718C
:1054A00009B1022010E0C7490C31096801F0EF0191
:1054B00009B1072008E0C3490C31096801F0020175
:1054C00009B1082000E00920704708B509200090C4
:1054D000FFF7CEFF009002E0FFF7CAFF00909DF8B3
:1054E00000000128F8D09DF8000008BD70B5044602
:1054F0000A460026092502B909E0012A01D116024F
:1055000005E0022A01D1160201E04FF44076FFF7D0
:10551000DCFF0546092D2DD1AA481030006820F483
:105520004070A849103108600846006830430860A0
:105530000846006820F0F80008600846006844F05B
:10554000020108439F49103108600846006840F492
:1055500080300860FFF7B9FF05469A4810300068B0
:1055600020F002009749103108600846006820F0DA
:10557000F8000860284670BD30B5024600250924B1
:10558000FFF7A3FF044602B909E0012A01D1150281
:1055900005E0022A01D1150201E04FF44075092C03
:1055A00020D188481030006820F4407085491031BF
:1055B000086008460068284308600846006840F014
:1055C000040008600846006840F480300860FFF777
:1055D0007CFF04467B481030006820F004007949C5
:1055E00010310860204630BD30B502460025092440
:1055F000FFF76BFF044602B909E0012A01D1150249
:1056000005E0022A01D1150201E04FF44075092C92
:1056100020D16C481030006820F440706949103186
:10562000086008460068284308600846006840F0A3
:10563000040008600846006840F480300860FFF706
:1056400044FF04465F481030006820F004005D49C4
:1056500010310860204630BD30B5024600250924CF
:10566000FFF733FF044602B909E0012A01D1150210
:1056700005E0022A01D1150201E04FF44075092C22
:1056800020D150481030006820F440704D4910314E
:10569000086008460068284308600846006840F42F
:1056A000004008600846006840F480300860FFF75A
:1056B0000CFF044643481030006820F40040414984
:1056C00010310860204630BD70B5064614461D46B0
:1056D0000922FFF7FAFE0246092A1ED13948103086
:1056E000006820F4407037491031086008460068AF
:1056F00040F4407008600846006840F0010008600F
:1057000034607560FFF7E1FE02462E4810300068F5
:1057100020F001002B4910310860104670BD30B5F3
:1057200002460C460925FFF7D0FE0546092D1DD17E
:1057300024481030006820F440702249103108607D
:105740000846006840F4007008600846006840F0B1
:10575000010008601460FFF7B8FE054619481030D4
:10576000006820F00100174910310860284630BD5C
:1057700030B502460C460925FFF7A7FE0546092D60
:105780001DD110481030006820F440700D491031D0
:1057900008600846006840F48070086008460068A9
:1057A00040F0010008601480FFF78FFE05460548B1
:1057B0001030006820F001000249103108602846CE
:1057C00030BD0000003C024023016745AB89EFCDAE
:1057D00030B502460C460925FFF777FE0546092D30
:1057E00017D19B48006820F440709949086008462A
:1057F000006808600846006840F001000860147006
:10580000FFF763FE05469248006820F001009049CA
:105810000860284630BD8E48001D006800F0010079
:1058200028B18C488A49083908608B48086070475D
:105830008748001D006840F001008549091D086087
:10584000704730B502460C460925FFF73EFE054677
:10585000092D10D13CB17E48801D008890437C49C1
:10586000891D088007E07A48801D008891B20843AE
:105870007749891D088030BD30B502460C460925A0
:10588000FFF723FE0546092D10D13CB170480A30C0
:10589000008890436E490A31088007E06C480A305E
:1058A000008891B208436A490A31088030BDFF215F
:1058B000674AD21D127802F07F0140EA0102644B70
:1058C000DB1D1A70704730B502460C460925FFF7FC
:1058D000FCFD0546092D10D144B15D48801D0088AE
:1058E00091B208435A49891D088006E05848801D36
:1058F000008890435649891D088030BD30B5024666
:105900000C460925FFF7E1FD0546092D10D144B1EC
:105910004F480A30008891B208434D490A31088047
:1059200006E04B480A300088904349490A31088014
:1059300030BD10B502460924FFF7C7FD0446092C07
:1059400002D14348401D027010BDF0B504460D461B
:10595000FF260927FFF7B9FD0746092F0BD13C4861
:10596000001D007800F00F0645EA060010432043B2
:105970003749091D0870F0BD3549091D097821F026
:105980001001334A121D117011460978014311703C
:1059900070472F49091D097821F00C012C4A121D6E
:1059A00011701146097801431170704700B5092242
:1059B0002748001D007840F002002549091D0870A5
:1059C000FFF783FD0246104600BD2148001D006818
:1059D000C0F3471070471E48801D008870471C4860
:1059E0000A30008870471A48801D008870471848A0
:1059F0000A300088704700201549491D0978AA29F6
:105A000001D0012000E0002070471148001D0078FF
:105A100000F00C00704729B10D4A126802430C4B8C
:105A20001A6004E00A4A12688243094B1A60704700
:105A300001460020064A121F12680A400AB10120DE
:105A400000E0002070470249091F0860704700000D
:105A5000103C02403B2A19087F6E5D4C10B504468D
:105A60009848844208D10121084600F0D2FD002167
:105A7000012000F0CEFD76E09348844208D1012158
:105A8000022000F0C6FD0021022000F0C2FD6AE005
:105A90008E48844208D10121042000F0BAFD002183
:105AA000042000F0B6FD5EE08948844208D101215F
:105AB000082000F0AEFD0021082000F0AAFD52E011
:105AC0008448844208D10121102000F0A2FD002169
:105AD000102000F09EFD46E07F48844208D101215D
