:020000040800F2
:10000000C846012035550008190500081B050008E1
:100010001F05000823050008270500080000000050
:100020000000000000000000000000002B05000898
:100030002D050008000000002F050008310500080C
:100040004F5500084F5500084F5500084F55000800
:100050004F5500084F5500084F5500084F550008F0
:100060004F550008B50A00084F5500084F550008C5
:100070004F550008790700084F5500087F08000811
:10008000573300084F5500084F5500084F550008DA
:100090004F5500084F5500084F5500082F0A00081B
:1000A0004F550008BF0500085F0700084F550008BE
:1000B0004F5500084F5500084F5500084F55000890
:1000C0004F5500084F5500084F5500084F55000880
:1000D000330500083F0500085F0500087F0500089C
:1000E0007F0A00084F5500084F5500084F5500087B
:1000F000150A0008D90500084F5500084F5500089B
:100100004F5500084F5500084F5500084F5500083F
:100110009F05000805420008E1060008AD08000838
:100120004F5500084F5500084F5500084F5500081F
:100130004F5500084F5500084F5500084F5500080F
:100140004F5500084F5500084F5500084F550008FF
:100150004F5500084F5500084F5500084F550008EF
:100160004F5500084F5500084F5500084F550008DF
:100170004F5500084F5500084F5500084F550008CF
:100180004F5500084F55000800F002F800F0B6F88F
:100190000AA090E8000C82448344AAF10107DA45E2
:1001A00001D100F0ABF8AFF2090EBAE80F0013F07E
:1001B000010F18BFFB1A43F001031847E0CB000002
:1001C00000CC00000A444FF0000C10F8013B13F083
:1001D000070408BF10F8014B1D1108BF10F8015BA0
:1001E000641E05D010F8016B641E01F8016BF9D193
:1001F00013F0080F1EBF10F8014BAD1C0C1B09D1EA
:100200006D1E58BF01F801CBFAD505E014F8016B5B
:1002100001F8016B6D1EF9D59142D6D370470000ED
:100220000023002400250026103A28BF78C1FBD8FF
:10023000520728BF30C148BF0B6070476E2908F0D5
:100240007286702908F0BF8366290CF09E836529A9
:100250000CF09B8367290CF0988361290CF097833D
:1002600003681B0A28BF41F08001692908F0308328
:10027000642908F02D83752908F02A836F2909F075
:100280007F81782908F08B83E92909F01981E42915
:1002900009F01681F52909F01381EF2909F07C8115
:1002A000F82908F08A830368DB0928BF41F0800140
:1002B000632909F08880732909F08D80E32909F00A
:1002C0006B84F32909F07084002070471FB50CF08F
:1002D00052FB9DE8030008F053FD09F029FA0400E1
:1002E000002000210BF0BAFD401C606000200021BE
:1002F0000BF09EFDE0601FBD10B510BD09F042FD82
:100300001146FFF7E3FF00F0D1F809F0B3FF03B4A3
:10031000FFF7F2FF03BC05F0F0F8000010B52DED7B
:10032000028B03F060FE51A008F09CFA01205449B2
:100330000870002428E0534800EB041090ED010AF7
:10034000DFED510A80EE201AB0EE418A4D4800EBF5
:10035000041090ED000ADFED4C0A80EE201AF0EE5A
:10036000418A484800EB041090ED020AB0EE401AB2
:10037000F0EE480AB0EE680A03F02DFD00BF03F06E
:1003800034FD0028FBD0641C3E4800EB041090EDC7
:10039000000AB5EEC00AF1EE10FACCD1394800EBF4
:1003A000041090ED010AB5EEC00AF1EE10FAC2D1C8
:1003B000344800EB041090ED020AB5EEC00AF1EEED
:1003C00010FAB8D12F4800EB0410C0680028B2D151
:1003D000BDEC028B10BD00F0A2FD0BF00FFD002064
:1003E0002749087029A008F03DFA01E000F0F3FF6A
:1003F000FCE71FB50121080206F043FD40F2E7309B
:100400000290A720ADF804000020ADF80600ADF87A
:100410000C0001A9234807F076F901221146214872
:1004200007F012FE01211F4807F0F6F92D208DF884
:10043000000003208DF801008DF8020001208DF8E6
:100440000300684605F053F91FBD10B5FFF7D1FF53
:10045000002405E0144951F824008047601C84B250
:10046000114850F824000028F4D110BD0A417574D9
:100470006F20636F6E74726F6C6C696E672E0A000A
:10048000000000201C00002000007A440A4175741E
:100490006F20636F6E74726F6C2073746F70706511
:1004A000642E0A0000200040FC00002008F0FAF84A
:1004B00008F036F94FF4A06005F014F900F0DEFF03
:1004C0004FF4E13004F0DAFF03F00DFE02F00CFB14
:1004D00005F073F802F080F901F072FB01F00EF9FB
:1004E00001F043FA01F034FC00F092FCFFF7ADFF9D
:1004F00003A008F0B7F901E000F06DFFFCE7000091
:100500000A0A456E746572696E67206D61696E20B6
:100510006C6F6F700A0A0000704700BFFEE700BFF3
:10052000FEE700BFFEE700BFFEE770477047704779
:10053000704710B56021FE4806F0E4FF10BD10B50D
:1005400040F22551FB4808F063F838B1F94807F04C
:100550009DFF04462146F84807F094FF10BD10B5F2
:1005600040F22551F54808F053F838B1F34807F048
:100570008DFF04462146F04807F084FF10BD10B5FA
:1005800040F22551EE4808F043F838B1EC4807F046
:100590007DFFC4B22146EB4801F0A4FB10BD10B5AD
:1005A00040F22551E84808F033F838B1E64807F042
:1005B0006DFF04462146E04807F064FF10BD10B50A
:1005C0000121E24807F057FD28B103F045FC012165
:1005D000DE4807F061FD10BD10B50121DC4807F0D1
:1005E0004AFD00287BD00121D94807F055FD4FF482
:1005F000FA640121D54807F03EFD00286ED0D548A9
:100600000088401CD349088008460088B0F57A7FEE
:100610004FDC08460088214690FBF1F201FB1200F6
:100620000A2190FBF1F0E0BBCB480078012840D1D3
:1006300000F0A9FFC948D0ED000A30EE600AC848B2
:10064000D0ED000A9FEDC71A70EE810AB4EEE00A01
:10065000F1EE10FA12DC00F096FFC048D0ED000A6F
:1006600030EE600ABE48D0ED000A9FEDBE1A70EE73
:10067000C10AB4EEE00AF1EE10FA18D200F083FFDE
:10068000B648D0ED000A30EE600AB548D0ED000A59
:10069000B4EEE00AF1EE10FA04D2B2EE040A01F070
:1006A000BBF906E0B2EE040A01F0FBF901E001F04B
:1006B000E3F9A8480088B0F57A7F01DD01F0DCF9A4
:1006C000A44800884FF4FA6190FBF1F201FB12009C
:1006D000A049088001219D4807F0DEFC00BF10BD45
:1006E00010B50121A04807F0C6FCB8B300242FE0E4
:1006F0009E4830F81400401C9C4921F8140008461C
:1007000030F814009A4951F8241088421ED99748AD
:1007100030F81400974951F82410884209D2964ABB
:1007200032F81410954A52F82400002205F0F6FE23
:100730000CE0914A32F81410904A52F82400012239
:1007400005F0ECFE0020894921F81400601CC4B2B9
:10075000052CCDDB0121844807F09EFC10BD10B5AF
:100760000121874807F087FC28B102F0F5F8012144
:10077000834807F091FC10BD10B58249824805F00E
:10078000A7F901287AD100217F4805F0F7F802F097
:1007900025FA7E4880ED000A90ED000AB5EEC00A09
:1007A000F1EE10FA01D100BFFEE7784890ED000AA3
:1007B0007748D0ED000A30EE600A7648D0ED000AA6
:1007C00030EE200A80ED000A704890ED000ADFED5F
:1007D000720AB4EEE00AF1EE10FA13D26C4890ED12
:1007E000000ADFED6E0AB4EEE00AF1EE10FA09DD60
:1007F000684890ED000ADFED6A0A30EE200A80EDCD
:10080000000A1CE0614890ED000ADFED640AB4EED6
:10081000E00AF1EE10FA12DD5D4890ED000ADFED1E
:100820005E0AB4EEE00AF1EE10FA08D2594890EDF3
:10083000000ADFED5C0A30EE200A80ED000A534822
:1008400090ED000A524880ED000A5748007838B908
:100850009FED560A4F4880ED000A0120524908706A
:100860000120534908704749474805F05BF90121C9
:10087000454805F083F800204D49087010BD10B5BB
:100880004C494148303005F023F901280DD14AA1E7
:10089000294804F005FE00213B48303005F06EF891
:1008A00044493948303005F03DF910BD10B50121FB
:1008B000444807F0E0FB002838D00121414807F008
:1008C000EBFB414806F06CFFA0F57A603F490968F0
:1008D00008443E4908604FF47A603B4948623C480E
:1008E00006F05EFFA0F57A603A4909680844394984
:1008F00008604FF47A60364924310860364806F0C3
:100900004FFFA0F57A60354909680844334908600B
:100910004FF47A60304924310860314806F040FFD6
:10092000A0F57A602F49096808445DE071E0000095
:1009300000380040001001400050004000440040DA
:100940000048004090040020004C0040004401405A
:1009500000200040080100209D010020A00100208F
:10096000A40100200AD7233C001000401C040020F2
:10097000280400203C040020200100202C0100203D
:1009800000480140008020104060024030020020FA
:100990002C02002028020020DB0FC9BFDB0FC93F5B
:1009A000DB0FC940DB0FC9C00A01002000000000B6
:1009B000240200202080002053656E644F4B0D0AF6
:1009C0000000000000140040000001404C01002025
:1009D00000040040480100200008004040010020C1
:1009E000000C004044010020384908604FF47A6050
:1009F00037490860374806F0D3FEA0F57A603649DB
:100A000009680844344908604FF47A603149243158
:100A1000086010BD10B50121304807F02CFB28B14B
:100A200001212E4807F038FB05F0F1FF10BD10B58D
:100A30002DED028B0A200BF066F94FF4807005F063
:100A400009F9012818D10102254805F049FD78B9B6
:100A500000F099FDB0EE408A00F095FDB4EEC08A3A
:100A6000F1EE10FA01DD01F007F81EA007F0FAFE22
:100A70004FF4807005F0F9F8BDEC028B10BD10B595
:100A80000A200BF040F94FF4006005F0E3F801286C
:100A90000FD1C102194805F023FD30B900F0ECFF79
:100AA00001F064F80FA007F0DDFE4FF4006005F0E0
:100AB000DCF810BD10B50821104805F011FD08B98B
:100AC00000F02DFA082005F0D0F810BD44010020F8
:100AD000240C00400004014050010020001C004094
:100AE000001002400A73746F705F66616E5F75700C
:100AF0005F646F776E28290A00000000001402402E
:100B00000CB50020019000907648006840F48030D9
:100B10007449086000BF7348006800F4003000901A
:100B20000198401C0190009818B90198B0F5A04FA9
:100B3000F1D16C48006800F4003010B10120009041
:100B400001E0002000900098012846D1654840301F
:100B5000006840F080506349403108606248006896
:100B600040F44040604908605E48083000685D49D4
:100B7000083108600846006840F4004008600846F4
:100B8000006840F4A05008605848091F0860081F1A
:100B9000006840F08070091F086000BF514800687D
:100BA00000F000700028F9D040F20570504908604C
:100BB0004C480830006820F003004A4908310860BA
:100BC0000846006840F00200086000BF4548083051
:100BD000006800F00C000828F8D10CBD10B545489D
:100BE000006840F47000434908603E48006840F0E7
:100BF00001003C49086000203A4908310860394842
:100C000000683D490840374908603C48091D0860B4
:100C1000081F006820F48020091F08600020314967
:100C20000C310860FFF76CFF4FF0006031498039EC
:100C3000086010BD70B500200022022300240221AC
:100C4000284D08352D6805F00C0020B1042806D089
:100C5000082834D107E02A4D2A4E356033E02A4D6A
:100C6000284E35602FE01F4D2D1D2D68C5F3805493
:100C70001C4D2D1D2D6805F03F0154B1224DB5FBD3
:100C8000F1F5184E361D3668C6F3881605FB06F2D8
:100C900009E01B4DB5FBF1F5124E361D3668C6F363
:100CA000881605FB06F20F4D2D1D2D68C5F3014575
:100CB0006D1C6B00B2FBF3F5124E356003E0104D76
:100CC000104E356000BF00BF064D08352D68C5F3D6
:100CD00003150E4E705D0B4D2D68C540094E3560F5
:100CE00070BD00000038024000700040085440070A
:100CF000003C024088ED00E0FFFFF6FE10300024CB
:100D00000024F4000C01002000127A0010010020E1
:100D100010B50121084606F06BF80121042006F009
:100D200067F80121402006F063F810BD6E4A52F8C2
:100D3000202000EE902AB8EE601A6C4A52F820206B
:100D400000EE902AF8EE600AC1EE201AB0EE610AB9
:100D5000674AB2FBF1F2654B43F820201A4652F87D
:100D6000202000EE902AF8EE600A60EE800AFCEE89
:100D7000E00A10EE902A5C4B43F82020704730B513
:100D80000546002406E055F824102046FFF7CEFF64
:100D9000601CC4B2052CF6DB30BD544951F820105C
:100DA00000EE901AF8EE600A60EE800AFCEEE00AAF
:100DB00010EE901A4C4A42F82010704770B5054664
:100DC000002422E005EB840090ED000AB5EEC00A95
:100DD000F1EE10FA14DB05EB840090ED000AF7EE5B
:100DE000000AB4EEE00AF1EE10FA09D805EB84002F
:100DF000D0ED000AB0EE600A2046FFF7CEFF02E019
:100E00003CA007F02FFD601CC4B2052CDADB70BDDE
:100E100010B590B014223B490BA807F0F3FE142242
:100E20003849143106A807F0EDFEFFF771FF0120E5
:100E30008DF8140002208DF8150000208DF81600A2
:100E400001208DF8170000240BE02F4830F8140023
:100E500004902E4951F8240004A905F0DFFA601C23
:100E6000C4B2052CF1DB00240AE042F210701F49E5
:100E700041F8240040101C4941F82400601CC4B211
:100E8000052CF2DB0BA8FFF799FF06A8FFF777FF09
:100E90000121102005F0F5FF132002905320ADF83A
:100EA00004000020ADF80600ADF80C0001A91848B8
:100EB00006F029FC01221146154807F0C5F801216A
:100EC000134806F0A9FC36208DF8000000208DF8AC
:100ED00001008DF8020001208DF80300684604F03F
:100EE00006FC10B010BD0000280400203C040020C7
:100EF000A086010057726F6E672044757479210ACD
:100F00000000000090CA0008200100202C010020F1
:100F10000010004001466A4830F91100704710B5D2
:100F200068A1694804F0BCFA0A200AF0ECFE10BD82
:100F300010B52DED028BB0EE408AB0EE480A00F0FD
:100F4000F7FFBDEC028B10BD10B52DED028BB0EE9E
:100F5000408A01F090FE38EE400AF0EE408AFFF73A
:100F6000E7FFBDEC028B10BD10B50446214657A02B
:100F700007F078FC204601F06EF810BD10B52DED9D
:100F8000028BB0EE408AF0EE608AF0EE680AB0EEB6
:100F9000480A01F0ADF8BDEC028B10BD70B50446F7
:100FA0000D462A4621464DA007F05CFC2946204606
:100FB00001F02BFA70BD00B52DED068B83B0B0EEBD
:100FC000408AF0EE608A18EE900A0BF063FC41EC68
:100FD000190B18EE100A0BF05DFC41EC1A0B8DEDAD
:100FE000009B53EC1A2B42A007F03CFCF0EE680A81
:100FF000B0EE480A01F0ECFA03B0BDEC068B00BD80
:1010000010B52DED048BB0EE408A18EE100A0BF0EF
:1010100041FC41EC190B53EC192B3AA007F022FCD0
:10102000BDEC048B10BD704710B52DED048BB0EEF8
:10103000408A18EE100A0BF02DFC41EC190B53EC12
:10104000192B34A007F00EFCBDEC048B10BD7047CB
:1010500010B500F050FF0A200AF055FE10BD10B583
:1010600030A1194804F01CFA01200AF04CFE30A10E
:10107000154804F015FA01200AF045FE10BD10B520
:101080002EA1114804F00CFA01200AF03CFE2EA11A
:101090000D4804F005FA01200AF035FE10BD10B528
:1010A0002CA1094804F0FCF901200AF02CFE2BA128
:1010B000054804F0F5F901200AF025FE10BD0000F6
:1010C000C401002056300D00001001400D6F746106
:1010D00074655F63282564290A0000000A6D6F7635
:1010E000655F78795F632825642C202564290A00D0
:1010F0000A6D6F76655F78792825662C202566292C
:101100000A0000000A6D6F76655F78282566290A57
:10111000000000000A6D6F76655F79282566290A50
:10112000000000000D34562D383030300D00000026
:101130000D3356383030300D000000000D3456317C
:101140003030300D000000000D33562D313030307E
:101150000D0000000D3456300D0000000D335630E8
:101160000D00000070B52DED028B86B005A9C748B3
:1011700000F0D1FD002004900390002600259DF88A
:10118000140011287DD00BDC22D2DFE800F021B45E
:10119000B7BDC0B1C5CACDBAD02121212121A70038
:1011A00022286FD00CDC142813D004DC12286AD05B
:1011B00013280DD1FDE0202827D0212808D139E0BF
:1011C00040284CD0412862D0422874D0432873D0A4
:1011D000FBE004A9AD4800F09EFD9DF8100030B181
:1011E000012807D0022808D0032809D00BE000F01E
:1011F00040FD08E000F028FD05E000F02CFD02E0D5
:1012000000F030FD00BF00BFDFE004A99F4800F000
:1012100082FD9DF810604FF6FF7000EA062604A9D3
:101220009A4800F078FD9DF81000064330B2FFF7B1
:101230000EFFCAE004A9954800F06DFD9DF810600E
:101240004FF6FF7000EA062604A9904800F063FDFF
:101250009DF81000064330B2FFF7E5FEB5E000242C
:1012600009E004A9894800F056FD2D029DF8100000
:101270000543601CC4B2042CF3DB01959DED010A0B
:1012800002E087E019E08FE0FFF7CEFE9DE000244A
:1012900009E004A97D4800F03EFD2D029DF81000F4
:1012A0000543601CC4B2042CF3DB02959DED020AD9
:1012B000FFF7A6FE89E03DE051E004A9734800F085
:1012C0002AFD03A9714800F026FD9DF80C0041B2EB
:1012D0009DF8100040B2FFF761FE76E004A96B486C
:1012E00000F019FD9DF8100040B2FFF73DFE6CE0E4
:1012F000FFF7AEFE69E0FFF712FE66E0FFF7AFFE14
:1013000063E0FFF7BCFE60E0FFF7C9FE5DE0B2EE10
:10131000040A00F081FB58E0B2EE040A00F0C1FBC1
:1013200053E000F0B3FB50E000F0EBFB4DE00AF0BF
:1013300073FD4AE000240AE004A9544800F0EBFCE5
:10134000E1009DF8100088400543601CC4B2042CE5
:10135000F2DB00959DED000A00F028FB35E000244B
:101360000AE004A9494800F0D6FCE1009DF810000D
:1013700088400543601CC4B2042CF2DB0095009841
:101380000BF088FA41EC180B53EC182B40A007F037
:1013900069FA1AE004A93D4800F0BDFC9DF8100070
:1013A00040B200F027FB10E004A9384800F0B3FC7D
:1013B0000BE004A9354800F0AEFC9DF8102002F0C7
:1013C0000F01100900F04FFD00BF00BF002006B064
:1013D000BDEC028B70BDF8B5002000902B488089D1
:1013E000002848DD29484068401C2849C989B0FBCD
:1013F000F1F201FB120525480068475D3E1107F038
:101400000F0722488189B01C814231DB002410E0A3
:1014100028191E49C989B0FBF1F201FB12001B49D2
:101420000968085C9DF800100844C0B20090601C78
:1014300084B2B442ECDD28191449C989B0FBF1F239
:1014400001FB120011490968085C9DF800108842F0
:1014500007D1FFF787FE69460C4800F05CFC0020CE
:10146000F8BD6946094800F056FC6FF00200F7E746
:101470006FF00100F4E74FF0FF30F1E710B54022C4
:101480000749024800F025FC10BD00009004002030
:1014900066616E5F6B6F77746F77282566290A0027
:1014A000500400201CB5E0480068E0490968CDE917
:1014B0000010DF480368DF480268DF480168DFA0EA
:1014C00007F0D0F91CBD10B52DED0A8BD848006887
:1014D0000AF05CFF41EC1C0B9FEDDD0B53EC102B75
:1014E0000AF0C0FD41EC1B0B9FEDDB0B53EC102B06
:1014F0000AF0B2FF41EC1A0B9FEDD90B53EC102B05
:101500000AF0AAFF41EC190B9FEDD70B53EC102BFF
:101510000AF0A2FF41EC180B0AF0B6FC00EE100A2C
:10152000BDEC0A8B10BD10B52DED0A8BBF480068CD
:101530000AF02CFF41EC1C0B9FEDC50B53EC102B5C
:101540000AF090FD41EC1B0B9FEDC30B53EC102BED
:101550000AF082FF41EC1A0B9FEDC10B53EC102BEC
:101560000AF07AFF41EC190B9FEDC10B53EC102BE5
:101570000AF072FF41EC180B0AF086FC00EE100A2C
:10158000BDEC0A8B10BD10B52DED0A8BA948006883
:101590000AF0FCFE41EC1C0B9FEDAD0B53EC102B45
:1015A0000AF060FD41EC1B0B9FEDB30B53EC102BCD
:1015B0000AF052FF41EC1A0B9FEDA90B53EC102BD4
:1015C0000AF04AFF41EC190B9FEDA70B53EC102BCF
:1015D0000AF042FF41EC180B0AF056FC00EE100A2C
:1015E000BDEC0A8B10BD10B52DED0A8B924800683A
:1015F0000AF0CCFE41EC1C0B9FED950B53EC102B2D
:101600000AF030FD41EC1B0B9FED930B53EC102BBC
:101610000AF022FF41EC1A0B9FED910B53EC102BBB
:101620000AF01AFF41EC190B9FED910B53EC102BB4
:101630000AF012FF41EC180B0AF026FC00EE100A2B
:10164000BDEC0A8B10BD10B52DED0A8B76480068F5
:101650000AF09CFE41EC1C0B9FED7D0B53EC102B14
:101660000AF000FD41EC1B0B9FED7B0B53EC102BA4
:101670000AF0F2FE41EC1A0B9FED790B53EC102BA4
:101680000AF0EAFE41EC190B9FED790B53EC102B9D
:101690000AF0E2FE41EC180B0AF0F6FB00EE100A2D
:1016A000BDEC0A8B10BD1FB50121202005F0E9FB20
:1016B000A720ADF8040040F2E73002900020ADF81A
:1016C0000C00ADF8060001A96D4806F01CF80122D7
:1016D00011466B4806F0B8FC0121694806F09CF8F9
:1016E00037208DF8000001208DF801008DF80200F0
:1016F0008DF80300684603F0FAFF1FBD10B588B0EF
:101700000121084605F0CEFB002407E05D4951F8B1
:101710002400012105F0B5FB601C44B2032CF5DB6D
:101720000121022005F0BEFB002407E0564951F8D4
:101730002400012105F05CFB601C44B2052CF5DBA4
:1017400000240BE0514B1A5D514B33F81410514BF0
:1017500053F8240004F0EDFE601C44B20A2CF1DBC7
:1017600002208DF81C0000208DF81D008DF81E0051
:1017700001208DF81F0000240BE0474830F81400CA
:101780000690444951F8240006A904F047FE601C65
:1017900044B20A2CF1DB0020ADF80C0047F22F50C8
:1017A00004900020ADF81400ADF80E00684606F075
:1017B000B8FB0620ADF8080000242EE0374951F8A8
:1017C000240003A905F09FFF344951F824000023A9
:1017D0001A46032106F00BFD304951F824006946F2
:1017E00006F068FB4FF47A602C4951F824104862E7
:1017F0002A4951F82400012106F03AFC274951F802
:1018000024000122114606F01FFC244951F824004F
:10181000012106F001F8601C44B2052CCEDBFFF775
:1018200042FF08B010BD000050010020440100201C
:1018300040010020480100204C0100200D0A2564D1
:101840000925640925640925640925640A00000046
:101850000000000000409F40000000A09999A93FAF
:1018600000000060FB210940000000000000F0BF04
:10187000000000000000F03F000000E04D62A03FCB
:1018800000140040B8CA0008CCCA0008F4CA000816
:10189000E0CA000854010020FECA00087C010020B4
:1018A0001CB5002407E0354951F82400012105F05A
:1018B0009FFA601CC4B2032CF5DB00208DF80400F5
:1018C0008DF8050001208DF8070000240BE02C485E
:1018D00030F8140000902B4951F82400694604F0B8
:1018E0009DFD601CC4B2032CF1DB1CBD1CB50121A5
:1018F000880305F0D7FA002407E0234A115D234A44
:10190000105D05F01AFE601CC4B2032CF5DB00204C
:101910008DF8040010208DF8050001208DF80600D8
:10192000002408E01A4850F824000090684604F0AB
:101930002BF9601CC4B2032CF4DB1CBD38B50420A9
:101940008DF801008DF8020001208DF803000024BD
:1019500008E01048005D8DF80000684603F0C7FEFF
:10196000601CC4B2032CF4DB38BD10B5FFF798FF40
:10197000FFF7BCFFFFF7E2FF10BD000014CB00082B
:1019800020CB00089001002029CB000826CB0008BE
:101990002CCB000838CB000810B59FED760A00204C
:1019A000FFF7FBF901207449087010BD10B52DED4B
:1019B000048BB0EE408A9FED710A28EE000A9FED7D
:1019C000701AC0EE010A9FED6F0A30EE600AF0EE69
:1019D000408A0220FFF7E1F918EE100A0AF05AFFD8
:1019E00041EC190B53EC192B67A006F03BFFBDEC43
:1019F000048B10BD10B5044600EE904AB8EEE01A14
:101A0000DFED651ADFED650A41EE210AB0EE600AEE
:101A10000220FFF7C2F910BD10B52DED028BB0EE1C
:101A2000408A002000F002F9B2EE040AB4EEC08A47
:101A3000F1EE10FA05DD9FED4F0A0120FFF7ADF939
:101A400017E0BAEE040AB4EEC08AF1EE10FA05D23D
:101A50009FED530A0120FFF7A0F90AE0DFED510ADC
:101A60009FED511A41EE480AB0EE600A0120FFF7DF
:101A700094F9BDEC028B10BD10B59FED4A0A012010
:101A8000FFF78BF9002000F0C7F810BD10B5B2EEDB
:101A9000040AFFF7C1FF32200AF035F9FFF7ECFF27
:101AA00010BD10B52DED028BB0EE408A002000F085
:101AB000BDF8B2EE040AB4EEC08AF1EE10FA05DD0C
:101AC0009FED2C0A0120FFF768F917E0BAEE040A2F
:101AD000B4EEC08AF1EE10FA05D29FED310A012072
:101AE000FFF75BF90AE0DFED2F0A9FED2F1A41EEB9
:101AF000080AB0EE600A0120FFF74FF9BDEC028B37
:101B000010BD10B5B2EE040AFFF7CBFF32200AF089
:101B1000FAF8FFF7B1FF10BD10B52DED028BB0EE56
:101B2000408A012021490870FFF72DFD204880EDF3
:101B3000000A204880ED008AB3EE040A1E4880EDBA
:101B4000040A9FED1E0A80ED050A9FED1C0A80ED38
:101B5000060A01F06BFE164890ED000A30EE080A06
:101B6000154880ED000ABDEC028B10BD00200F4926
:101B700008707047B81E853D9C0100208FC2753DDE
:101B8000DB0FC93F8FC2F53D0A66616E5F726F6CF5
:101B90006C282566290A00000AD7A33DB81E053E19
:101BA0002DB29D3D7368913DA69BC43B9D010020D5
:101BB000A0010020A4010020A004002000000000DB
:101BC0001CB50121402005F013F901208DF8040017
:101BD00000208DF805008DF8060001208DF8070023
:101BE000002409E0164830F81400009069461548B2
:101BF00004F014FC601CC4B2032CF3DB002408E0E6
:101C00000F4830F8141001220E4804F087FC601CC5
:101C1000C4B2012CF4DB1CBD10B50446084830F8F2
:101C200014100122074804F079FC10BD10B50446D9
:101C3000034830F814100022024804F06FFC10BD75
:101C4000A80100200018024010B59FED0D0A0320E6
:101C5000FFF7A3F810BD10B59FED0A0A0320FFF7A8
:101C60009CF810BD10B59FED080A0420FFF795F809
:101C700010BD10B59FED050A0420FFF78EF810BDCA
:101C8000EC51383DAAF1D23DEC51B83DCDCC4C3DA4
:101C900010B52DED048B0446B4F5004F0DDB204646
:101CA0000AF08BFB41EC190B9FED270B53EC102B2B
:101CB0000AF006FD41EC180B04E020460AF066FB32
:101CC00041EC180BB0EE480AF0EE680ABDEC048B4C
:101CD00010BD03461960501E98605860002098811E
:101CE000DA81704710B502469089D389984202D1B3
:101CF0004FF0FF3010BD9068401CD389B0FBF3F467
:101D000003FB1400906093681068C1549089401CD4
:101D100090810020EEE710B50246908910B94FF08F
:101D2000FF3010BD5068401CD389B0FBF3F403FBB7
:101D300014005060D2E90003C05C08709089401E16
:101D400090810020EDE70000000000000000F0405E
:101D50001CB50121102005F04BF80121402005F0B1
:101D600047F8002416E0584830F81400009001208D
:101D70008DF8040000208DF805008DF80600012084
:101D80008DF80700514951F82400694604F046FBDC
:101D9000601CC4B2042CE6DB00240AE04A4A32F894
:101DA00014104A4A52F82400002204F0B7FB601CC9
:101DB000C4B2042CF2DB1CBD70B505460C4625B13F
:101DC000012D1BD0FF2D4BD131E062003E4B33F88B
:101DD000121062003D4B53F82200012204F09EFBDA
:101DE0006200521C384B33F812106200521C374B01
:101DF00053F82200002204F091FB32E06200324BE3
:101E000033F812106200314B53F82200002204F024
:101E100085FB6200521C2C4B33F812106200521CDE
:101E20002A4B53F82200012204F078FB19E06200EB
:101E3000254B33F812106200244B53F82200002285
:101E400004F06CFB6200521C1F4B33F8121062004E
:101E5000521C1E4B53F82200002204F05FFB00E0EE
:101E600000BF00BF70BD70B505460C4625B1012D01
:101E700010D0FF2D21D11BE021460020FFF79CFF51
:101E8000012C03D1C82009F03EFF02E0282009F010
:101E90003AFF13E021460120FFF78EFF012C03D10A
:101EA000C82009F030FF02E0282009F02CFF05E0EF
:101EB0002146FF20FFF780FF00E000BF00BF214662
:101EC000FF20FFF779FF70BDAC010020B4010020B6
:101ED0001CB5FE48B0F90600FC49B1F90410CDE983
:101EE0000010FA48B0F90230B0F90020F8A1FE481D
:101EF00003F0D6FA1CBD1CB5002005E00021F34A12
:101F000022F81010411CC8B20428F7DBEF48B0F9E2
:101F10000600EE49B1F90410CDE90010EB48B0F924
:101F20000230B0F90020EAA1EF4803F0B9FA1CBD75
:101F300010B52DED048B88B0B0EE408A9FEDEB0A12
:101F40008DED040AB7EE000A8DED060A9FEDE80A52
:101F50008DED050A684601F069FC00F08CFEB0EEDC
:101F6000409A39EE080A8DED000AB5EEC08AF1EE0E
:101F700010FA24DD9DED000ADFEDDE0A30EE200AC6
:101F80008DED000A11E000F076FE8DED010A684645
:101F900001F05DFCBDEEC00A10EE100A44B220460E
:101FA000FEF7E2FF0A2009F0AEFE00F064FE78EED4
:101FB000090AB4EEE00AF1EE10FAE4D345E0B5EE1A
:101FC000C08AF1EE10FA40D29DED000ADFEDC90A99
:101FD00030EE600A8DED000A2EE000F04CFE8DED33
:101FE000010A684601F033FCF0EE408AB0EE000AC8
:101FF00028EE800AF0EE408A9FEDBF0AF4EEC08A18
:10200000F1EE10FA03DD9FEDBC0AF0EE408A9FED81
:10201000BB0AF4EEC08AF1EE10FA03D29FEDB70AC4
:10202000F0EE408ABDEEE80A10EE100A40B2FEF76C
:102030009BFF0A2009F067FE00F01DFE78EE090AFA
:10204000B4EEE00AF1EE10FAC7DCFFF701F808B0D1
:10205000BDEC048B10BD7CB5054600EE105AF8EEC1
:10206000C00A9FEDA71A80EE810ADFEDA60A20EED6
:10207000200ABDEEC00A10EE100A04B2604200B29F
:1020800092490880604200B24880604200B2888075
:10209000604200B2C8809CA006F0E4FB8B48B0F917
:1020A00000109DA006F0DEFB8848B0F902109CA04D
:1020B00006F0D8FB8548B0F904109BA006F0D2FBCF
:1020C0008248B0F906109AA006F0CCFB7F48B0F920
:1020D00006007E49B1F90410CDE900107B48B0F943
:1020E0000230B0F900207AA17F4803F0D9F97CBD15
:1020F00000B52DED108B83B0F0EE40DAB0EE608AC3
:1021000000F0B9FDB0EE40EAB0EEC80AB0EE40BA59
:1021100009F0B4FBCDEE800AF0EE608AF0EE000A22
:102120009FED850A09F0A4F8F0EE40BAF0EE000A3F
:102130009FED820A09F09CF83BEE800AB0EE40BAAF
:1021400009F064FCDFED7C0A80EE801AF0EE41AA13
:10215000B7EE000AF0EE40EA4FF47A6009EE900A1A
:10216000B5EEC08AF1EE10FA12DDB5EE000A38EED7
:10217000C00A80EE28AAB5EE000A38EE800AC0EE4A
:10218000280AB0EE609A29EE2E0AB0EE409A5FE07F
:10219000B5EEC08AF1EE10FA56D218EE900A0AF0A7
:1021A00079FB41EC1C0BB0EE4C0AF0EE6C0A08F027
:1021B000EBFFB0EE40BAF0EE60BAB5EE000A38EED2
:1021C000800A10EE101A08460AF064FB41EC1F0B5F
:1021D00053EC1B2B09F046FFCDE900019DED000BF0
:1021E00051EC100B09F050FE0AEE100A18EE900A9E
:1021F0000AF050FB41EC1B0BB0EE4B0AF0EE6B0A01
:1022000008F0C2FFB0EE40CAF0EE60CAB5EE000AB8
:1022100038EEC00A10EE101A08460AF03BFB41ECFB
:102220001F0B53EC1C2B09F01DFFCDE900019DEDA8
:10223000000B51EC100B09F027FE09EE100A2AEEF4
:102240002E0AB0EE40AA03E0B7EE00AAB7EE009A5D
:102250003AEE09DA8AEE0D0AB0EE40AA89EE0D0ACE
:10226000B0EE409AB8EEE90A2AEE800AFFEE000AC4
:1022700020EE200A20EE090ABDEEC00A10EE100A78
:1022800000B212490880B8EEE90A2AEE800AFFEE91
:10229000000A20EE200A20EE090ABDEEC00A10EE68
:1022A000100A00B24880B8EEE90A2AEE800AF7EE7A
:1022B000000A20EE200A20EE0A0ABDEEC00A10EE47
:1022C000100A00B28880B8EEE90A39E0C4010020A3
:1022D0000D305625640D315625640D325625640D9A
:1022E000355625640D0000000010014000004842F2
:1022F00000000000295C8F3D0000FE420000FEC28D
:102300000000004300007A456172675F7370656585
:1023100064733A0A0000000009303A25640A00009C
:1023200009313A25640A000009323A25640A00009E
:1023300009333A25640A00000000FA430080224471
:102340002AEE800AF7EE000A20EE200A20EE0A0AA2
:10235000BDEEC00A10EE100A00B2C880AFF25800FD
:1023600006F080FAFE48B0F90010AFF2540006F013
:1023700079FAFB48B0F90210AFF25C0006F072FA8D
:10238000F748B0F90410AFF2600006F06BFAF448B9
:10239000B0F90610AFF2680006F064FAF048B0F940
:1023A0000600EF49B1F90410CDE90010EC48B0F98E
:1023B0000230B0F90020AFF2E801EA4803F070F80B
:1023C000B5EEC08AF1EE10FA0ADD00BF00F053FC52
:1023D00078EE0E0AB4EEE00AF1EE10FAF6D30EE053
:1023E000B5EEC08AF1EE10FA09D200BF00F043FC4E
:1023F00078EE0E0AB4EEE00AF1EE10FAF6DCFEF723
:1024000027FE03B0BDEC108B00BD30B52DED068B63
:1024100083B004460D46F0EE000A1FED390A08F0BD
:1024200027FFF0EE40AAF0EE000A1FED3C0A08F08C
:102430001FFF3AEE800AB0EE40AA09F0E7FA5FED1E
:10244000410A80EE801AB0EE419AF0EE000A1FEDCC
:10245000460A08F00DFFF0EE40AAF0EE000A1FED6C
:10246000490A08F005FF3AEE800AB0EE40AA09F0EA
:10247000CDFA5FED4F0A80EE801AF0EE419A00EE41
:10248000104AF8EEC00A1FED621A80EE810A5FED75
:10249000630A20EE200ABDEEC00A10EE100A00B258
:1024A00008EE100A00EE105AF8EEC00A1FED6C1A82
:1024B00080EE810A5FED6D0A20EE200ABDEEC00AB3
:1024C00010EE100A00B208EE900AB8EEC80A29EE23
:1024D000000AF8EEE80A09EEA00AFFEE000A20EE74
:1024E000200ABDEEC00A10EE100A00B29C49088016
:1024F000B1EE490AF8EEC80A20EE200AF8EEE80A22
:1025000009EEA00AFFEE000A20EE200ABDEEC00A86
:1025100010EE100A00B24880B8EEC80A29EE000A90
:10252000F8EEE80A09EEA00AF7EE000A20EE200A0B
:10253000BDEEC00A10EE100A00B28880B1EE490A62
:10254000F8EEC80A20EE200AF8EEE80A09EEA00A22
:10255000F7EE000A20EE200ABDEEC00A10EE100AC7
:1025600000B2C880AFF2602006F07CF97C48B0F978
:102570000010AFF25C2006F075F97948B0F902104E
:10258000AFF2642006F06EF97548B0F90410AFF2AE
:10259000682006F067F97248B0F90610AFF27020B3
:1025A00006F060F96E48B0F906006D49B1F9041003
:1025B000CDE900106A48B0F90230B0F90020AFF25E
:1025C000F021684802F06CFF03B0BDEC068B30BD13
:1025D00000B52DED088B89B0F0EE408AB0EE609A20
:1025E000F5EEC08AF1EE10FA0AD1B5EEC09AF1EE1E
:1025F00010FA05D1FEF72CFD09B0BDEC088B00BD2B
:102600001FEDC60A8DED050AB7EE000A8DED070A2B
:102610001FEDC90A8DED060A01A801F007F9FEF7C2
:1026200052FF70EE289AFEF77EFF30EE09AAF5EE13
:10263000C08AF1EE10FA5CD1B5EEC09AF1EE10FA54
:1026400049DD9FED490A3AEE000A8DED010A3AE0B4
:10265000FEF769FF8DED020A01A801F0F8F8B0EE6F
:10266000408A18EE100A0AF015F941EC1B0B53ECE6
:102670001B2B3EA006F0F6F8B0EE000A28EE000A8A
:10268000B0EE408A1FEDE40AB4EEC08AF1EE10FA13
:1026900003DD1FEDE70AB0EE408A1FEDE80AB4EE55
:1026A000C08AF1EE10FA03D21FEDEC0AB0EE408AB8
:1026B000BDEEC80A10EE100A41B20020FFF7A5FED9
:1026C0000A2009F020FBFEF72EFFB4EECA0AF1EE55
:1026D00010FABDD379E06FF063010020FFF795FE9B
:1026E00000BFFEF720FFB4EECA0AF1EE10FAF8DCE4
:1026F0006BE0B5EEC09AF1EE10FA66D1F5EEC08A45
:10270000F1EE10FA54DD9FED180A39EE800A8DEDD6
:10271000010A45E0FEF7D7FE8DED020A01A801F09F
:1027200096F8B0EE408A18EE100A0AF0B3F841ECC1
:102730001B0B53EC1B2B0DA006F094F8B0EE000A17
:1027400028EE000AB0EE408A9FED090AB4EEC08A76
:10275000F1EE10FA03DD9FED060AB0EE408A09E0C3
:10276000C401002000100140CDCCCC3D25660A00FC
:102770000000FE429FED170AB4EEC08AF1EE10FA97
:1027800003D29FED140AB0EE408A0021BDEEC80AC4
:1027900010EE100A40B2FFF738FE0A2009F0B3FA33
:1027A000FEF791FEB4EEE90AF1EE10FAB2D30CE0B6
:1027B00000216FF06300FFF728FE00BFFEF783FEE5
:1027C000B4EEE90AF1EE10FAF8DCFEF741FC00BFC6
:1027D00012E700000000FEC210B586B00121022001
:1027E00004F006FB0121202004F002FB00242DE070
:1027F00001208DF8140002208DF8150000208DF8BE
:10280000160001208DF81700A64830F81400049037
:10281000A54951F8240004A903F000FE00208DF81A
:10282000140002208DF8150000208DF816000120FC
:102830008DF817009D4830F8140004909C4951F819
:10284000240004A903F0EAFD601CC4B2022CCFDB13
:102850000121880404F026FB4FF436700290072013
:10286000ADF804000020ADF80600ADF80C0001A999
:10287000904804F048FF01218E4805F0F9FB012241
:1028800011468C4805F0E0FB01218A4804F0C4FFA2
:102890001A208DF8000000208DF801008DF802004C
:1028A00001208DF80300684602F021FF06B010BD3C
:1028B000814A125C3AB100227F4B1A547F4A11546C
:1028C00001227F4B1A54704730B504460D4600BFB5
:1028D0007948005D0028FBD029462046FFF7E8FF35
:1028E00030BD0146774A505C0022774B5A547047FE
:1028F00010B5044600BF7448005D0028FBD0204698
:10290000FFF7EFFF10BD0FB430B5ADF5037D054601
:10291000002488A8019040F2012102A8019B879A17
:1029200005F086FF07E02046621CD4B202AA115CC3
:102930002846FFF7C9FFB4F5007F03DA02A8005D5F
:102940000028F0D100200190022009F0DCF90DF5FB
:10295000037D30BC5DF814FB10B500249EE05B489D
:10296000005D80B35A48005D401EC0B2584908550A
:1029700000283BD1032008555648005D401EC0B2D8
:102980005449085550B95448005D4E490855002037
:102990004E49085501204C49085527E04E48005D36
:1029A00040104D490855414A32F81410404A52F837
:1029B000240003F095FDC8B14748005D40F0800059
:1029C0004549085512E0FFE7384A32F81410384AF2
:1029D00052F8240003F084FD40B901203B4908551A
:1029E00004203B49085509203A4908553B48005DF9
:1029F000401EC0B23949085500284DD10320085562
:102A00002F48005D002847D03548005D80B9254A31
:102A100032F81410244A52F82400002203F07EFDFC
:102A20002648005D2F49085509202D49085533E0F7
:102A30002B48005D401EC0B22949085578B9194A93
:102A400032F81410184A52F82400012203F066FDEF
:102A500000201B4908550120174908551CE0214852
:102A6000005D00F0010048B10E4A32F814100E4A21
:102A700052F82400012203F051FD08E0094A32F81F
:102A80001410094A52F82400002203F047FD1548AB
:102A9000005D401013490855601CC4B2022CFFF6BB
:102AA0005EAF10BDCC010020D0010020D801002075
:102AB000DC01002000480140F8010020E401002072
:102AC000F4010020E6010020FA010020F6010020B8
:102AD000EE010020F2010020EA010020EC010020BC
:102AE000F0010020E801002000B591B00D208DF824
:102AF000040000208DF805008DF8060001208DF8F7
:102B0000070001A802F0F3FD0F208DF8040001A8D2
:102B100002F0EDFD0121480504F06AF9254802F0B4
:102B200051FE2448303002F04DFE02A802F015FF9D
:102B30000720069000200D900E900F900A904FF401
:102B4000806008901C480390002010900990079026
:102B50004FF400300C9000200B904FF0006002907A
:102B6000402005901548049002A91248303002F028
:102B7000CBFE132006904FF480700B90C00402909F
:102B8000002005900E48049002A90A4802F0BCFEFD
:102B90000121084802F0F2FE012240210648001FF0
:102BA00005F0F2FC01221021024802F074FF11B07E
:102BB00000BD000040600240044C00400F020020B5
:102BC000FC0100200146087800064A7840EA0240ED
:102BD0008A7840EA0220CA781043704730B5284806
:102BE000007828490978884241D12548407825490C
:102BF000497888423BD122488078224989788842A6
:102C000035D11F48C0781F49C97888422FD11C4848
:102C1000001DFFF7D7FF054619480830FFF7D2FF20
:102C2000044617480C30FFF7CDFF034616480560F1
:102C30001648046016480360134890ED000ADFED63
:102C4000150A20EE200A80ED000A104890ED000AD7
:102C5000DFED100A20EE200A80ED000A0C4890ED0E
:102C6000000ADFED0C0A20EE200A80ED000A084879
:102C700090ED000A30BD084890ED000A7047000052
:102C8000FC0100203BCB0008180200201C020020A1
:102C9000200200204DF38E3C2802002070B505462E
:102CA0000E46F8480078012801D1801E70BD012130
:102CB000F54803F03FFDF54C05E02000A4F10104C8
:102CC00001D1801EF2E7F249EF4803F04DFE0028E3
:102CD000F3D0EF49EC4803F071FE0022D021EA481E
:102CE00003F040FDE94C05E02000A4F1010401D10E
:102CF000C01EDBE7E649491CE34803F035FE002827
:102D0000F2D04FF47A7400BF2000A4F10104FBD18B
:102D10001421DD4803F0F2FD1821DB4803F0EEFD3D
:102D20002946D94803F0A2FDD84C05E02000A4F1C3
:102D3000010401D1001FB9E7D549C91CD24803F0ED
:102D400013FE0028F2D04FF47A7400BF2000A4F1E3
:102D50000104FBD13146CC4803F088FDCB4C05E0A3
:102D60002000A4F1010401D1401F9FE7C849C91CFC
:102D7000C54803F0F9FD0028F2D00121C24803F054
:102D8000E5FC4FF47A7400BF2000A4F10104FBD1EC
:102D900000BF8BE72DE9F04104462078BD4908705B
:102DA000BD4960680860BD49A0680860BC49E0682A
:102DB00008606078BB4908700020BB490880B548AE
:102DC000007800F0010030B108460088801D0880BE
:102DD0004320B6490870AF480078C0F3400038B1CE
:102DE000B1480088801CB04908804120AF49087074
:102DF000A8480078C0F3800070B1AB48008806286E
:102E000002D1C01FBDE8F081A7480088801DA649F7
:102E100008803B20A5490870A548006820F0010003
:102E2000A3498839C1F8880000BFA148006800F0B4
:102E300001000028F9D19E48006820F060609C499C
:102E40008839C1F888000846D0F8880040F0007042
:102E5000C1F888000846D0F8880020F0F070C1F86A
:102E600088000846D0F8880020F44020C1F8880087
:102E70000846D0F8880040F44030C1F88800084681
:102E8000D0F8880020F4C040C1F888000846D0F887
:102E9000880020F4C050C1F888000846D0F88800A7
:102EA00040F48060C1F888000846D0F8880020F41B
:102EB0000070C1F888000846D0F8880020F48070BF
:102EC000C1F888000846D0F8880020F0C000C1F89A
:102ED00088000846D0F8880020F02000C1F888005B
:102EE0000846D0F8880020F01E00C1F88800084687
:102EF000D0F8880040F01000C1F888006A480088C7
:102F00006B49091D086060481030091D0860694858
:102F100067498839C1F894000846D0F89C0020F031
:102F20008000C1F89C000846D0F89C0040F00400E6
:102F3000C1F89C000846D0F89C0040F00300C1F89E
:102F40009C005148001D008840F480504E49091DE6
:102F500008800846008840F400600880002505E0ED
:102F6000002700E07F1C0A2FFCDB6D1CB5F57A7F83
:102F7000F6DB00216B20FFF791FE00211920FFF7FF
:102F80008DFE06211A20FFF789FE18211B20FFF76E
:102F900085FE01211C20FFF781FE0646002E01DA86
:102FA00030462FE700202DE71FB50446029401208C
:102FB0008DF8000000208DF801006846FFF7EAFE5A
:102FC000002004B010BD70B506460D462D480078AF
:102FD000012801D1801E70BD01212B4803F0AAFBFE
:102FE0002A4C05E02000A4F1010401D1801EF2E783
:102FF0002749254803F0B8FC0028F3D0244922488B
:1030000003F0DCFC0022D0211F4803F0ABFB1F4C77
:1030100005E02000A4F1010401D1C01EDBE71C493A
:10302000491C194803F0A0FC0028F2D014211648CE
:1030300003F064FC1821144803F060FC1B4801787D
:10304000114803F013FC114C05E02000A4F1010429
:1030500001D1001FBFE70E49C91C0B4803F084FCD7
:103060000028F2D00121084803F070FB0121064836
:1030700003F060FB054C1FE02000A4F101041BD10C
:10308000401FA8E7370200200054004040420F00D4
:103090000100001038020020580200205C020020CD
:1030A0006002002039020020340200203602002095
:1030B00088600240C0040020FC49FD4803F054FC35
:1030C0000028D9D0F949FA4803F078FC0122D02130
:1030D000F74803F047FBF74C05E02000A4F101049A
:1030E00001D1801F77E7F149491CF14803F03CFC0E
:1030F0000028F2D00021EE4803F03CFB0121EC480F
:1031000003F024FB1421EA4803F0F8FB1821E848F7
:1031100003F0F4FBE74C05E02000A4F1010401D129
:10312000C01F58E7E1493F31E14803F01DFC00288A
:10313000F2D0DF4803F09CFB28700121DC4803F04B
:1031400019FB002047E770B5DB48006800F001007C
:1031500010B14FF0FF3070BDD8480088D649091D26
:103160000860D748D4498839C1F894000121D04873
:1031700003F0E0FACF4C05E02000A4F1010401D1F6
:10318000801EE8E7C949CA4803F0EEFB0028F3D0E7
:10319000C649C74803F012FC0022D021C44803F0FE
:1031A000E1FAC44C05E02000A4F1010401D1C01EE5
:1031B000D1E7BE49491CBE4803F0D6FB0028F2D037
:1031C0001421BB4803F09AFB1821B94803F096FB81
:1031D000BC480178B64803F049FBB64C05E0200036
:1031E000A4F1010401D1001FB5E7B049C91CB048E2
:1031F00003F0BAFB0028F2D00121AD4803F0A6FA93
:10320000002505E0002600E0761C642EFCD36D1C32
:103210000A2DF7D30121A64803F08CFAA54C05E04E
:103220002000A4F1010401D1401F94E79F49A04868
:1032300003F09AFB0028F3D09C499D4803F0BEFBA5
:103240000122D0219A4803F08DFA9A4C05E0200023
:10325000A4F1010401D1801F7DE79449491C9448E1
:1032600003F082FB0028F2D09348006840F0010090
:1032700091498839C1F8880000BF8F48006800F084
:1032800001000028F9D01421894803F037FB1821E8
:10329000874803F033FB00205DE710B5FFF753FFCD
:1032A000041E01DA204610BD012087490870002065
:1032B000F9E700208449087000BF7F48006800F0EB
:1032C00001000028F9D17047014603290DD07F483D
:1032D00030F811007E4A22F811009FED7E0A7E48E8
:1032E00000EB810080ED000A02E064207B4A106060
:1032F000002070477A4901EB800181ED000A704798
:10330000774901EB800191ED000A7047754800781C
:10331000704700B503467348007830B91846FFF788
:10332000D3FF01206F49087013E06E480078012830
:103330000FD1694800EB830090ED000A684800EB6C
:10334000830080ED000A0020664908701846FFF7E8
:10335000BBFF002000BD10B52DED048B624956481F
:1033600002F0B6FB00287DD00121514803F0EEF9B0
:103370004FF08040406A5D490968401A5B49086027
:1033800008460068002802DA594800680860574873
:103390000068574908605548006808F0F7FF41EC9D
:1033A000190B9FED540B53EC102B09F055F841EC21
:1033B000180B08F069FD5149086051480078C0F3C6
:1033C000800000285ED03E4840783D49097840EAB8
:1033D000012000EE100AB8EEC00A4A48006880EDED
:1033E000000A3748C0783649897840EA012000EE63
:1033F000100AB8EEC00A4348006880ED010A304860
:1034000040792F49097940EA012000EE100AB8EE10
:10341000C00A3C48006880ED020A39480078C0F3D1
:10342000400000282DD02648C0792549897940EAF6
:10343000012000EE100AB8EEC00A3348006880EDA3
:10344000000A2F48007800F00100002819D01C481D
:10345000407A1B49097A40EA012000B21B490880E2
:10346000174800E0BBE1807A40EA002000B24880C3
:103470001348C07A1249097B40EA012000B213497F
:10348000888080E01E480078C0F34000F0B30C480C
:1034900040780B49097840EA012000EE100AB8EEA6
:1034A000C00A1948006880ED000A30E001000010F1
:1034B0000054004040420F00886002403402002067
:1034C000C0040020360200203702002052020020F3
:1034D0004C02002000000000D00400204802002020
:1034E0003C0200203A0200200088002064020020F4
:1034F00068020020B345D26EF4310F3F6C02002009
:1035000038020020580200206002002020E0B54868
:10351000007800F00100B0B3B348C078B2498978B0
:1035200040EA012000B2B1490880AF484079AE4975
:10353000097940EA012000B2AC494880AA48C07924
:10354000A949897940EA012000B2A84988801AE097
:10355000A5484078A449097840EA012000B2A3496F
:103560000880A148C078A049897840EA012000B2CB
:103570009E4948809C4840799B49097940EA01204E
:1035800000B29A4988809748007800F0010000282E
:103590007CD097480068D8B195480068401E94498F
:1035A0000860924800889349088090484088488085
:1035B0008E48808888801FED390A8F4880ED000A88
:1035C0001FED3C0A80ED010A1FED3E0A80ED020A64
:1035D0008648B0F900008749B1F90010401A00EEA2
:1035E000100AF8EEC00A844890ED000A834890ED76
:1035F000001A00EE810A804880ED000A7B48B0F98D
:1036000002007C49B1F90210401A00EE100AF8EEEF
:10361000C00A794890ED010A784890ED001A00EE52
:10362000810A754880ED010A7048B0F904007149BB
:10363000B1F90410401A00EE100AF8EEC00A6E4804
:1036400090ED020A6D4890ED001A00EE810A6A487A
:1036500080ED020A6A48007820B1012835D002289E
:1036600032D17BE0674890ED000ADFED670A80EE1B
:10367000801A614890ED000A21EE000A6348006854
:1036800080ED000A5F4890ED010A00E07DE0DFED8B
:103690005E0A80EE801A584890ED010A21EE000A79
:1036A0005A48006880ED010A564890ED020ADFEDA5
:1036B000560A80EE801A504890ED020A21EE000A68
:1036C0005248006880ED020A5EE04E4890ED000A24
:1036D000DFED4D0A80EE801A474890ED000A21EE9A
:1036E000000ADFED4B0A80EE201A9FED4A0A21EE18
:1036F000000A4648006880ED000A424890ED010A41
:10370000DFED410A80EE801A3B4890ED010A21EE80
:10371000000ADFED3F0A80EE201A9FED3E0A21EEFF
:10372000000A3A48006880ED010A364890ED020A26
:10373000DFED350A80EE801A2F4890ED020A21EE67
:10374000000ADFED330A80EE201A9FED320A21EEE7
:10375000000A2E48006880ED020A15E0264890ED28
:10376000000A2A48006880ED000A234890ED010A0B
:103770002648006880ED010A1F4890ED020A2348A0
:10378000006880ED020A00BF00BF2348006820F0F7
:10379000010021498839C1F8880000BF1E4800682F
:1037A00000F001000028F9D11C491B4802F0BAF9C9
:1037B0001B48007810B9BDEC048B10BD1948008877
:1037C0001549091D0860084813498839C1F8940053
:1037D000FFF7B9FC4FF08040406A1349086000BF12
:1037E000E9E7000038020020C00400205202002057
:1037F000480200204C020020D00400206C0200206F
:10380000390200203C020020000034445C02002009
:1038100000003443DB0F49408860024000880020EC
:103820003702002034020020640200209FED5A0A73
:1038300080ED010A9FED580A80ED020A9FED560ABD
:1038400080ED030A9FED540A80ED070A70470021BE
:1038500000EE901A90ED021ABDEEC11A11EE101A88
:10386000002901DB0A4600E04A4201EE102AB8EEC8
:10387000C11AD0ED001AB7EE082A61EE821AB4EE32
:10388000E11AF1EE10FA03DD002100EE901A0AE0D1
:10389000012100EE901A90ED071AD0ED021A31EED8
:1038A000211A80ED071A90ED001AD0ED011A31EEC1
:1038B000611A80ED021A90ED041AD0ED021A21EE81
:1038C000211AD0ED051A90ED072A61EE821AB8EEA2
:1038D000E02A01EE821AD0ED021A90ED032A71EE71
:1038E000C21A90ED062AB0EE410A02EE210A90EDCE
:1038F000021A80ED031A70479FED270A80ED010A36
:103900009FED250A80ED030A9FED230A80ED040A4E
:103910009FED210A80ED050A9FED1F0A80ED090A3F
:10392000704790ED000A90ED011A30EE410A80EDEB
:10393000030A90ED030A90ED051A30EE410A90ED6E
:10394000061A20EE010A90ED071AD0ED031A01EED7
:10395000210A90ED031AD0ED051AB0EE002A02EE0E
:10396000611AD0ED041A31EE211AD0ED081A01EED9
:10397000810AF0EE400A90ED020A30EE200A80ED56
:10398000020A90ED050A80ED040A90ED030A80ED2D
:10399000050A90ED020A704700000000002005E0D3
:1039A0000021F84A22F81010411CC8B20428F7DBA5
:1039B000704710B52DED068BF0EE408AB0EE609AA0
:1039C00039EE680AB0EE40AAEF48006890ED040AAC
:1039D000EE4880ED040AEC48006890ED060AEB48DA
:1039E00080ED060AE848006890ED050AE74880ED9A
:1039F000050A80ED009AC0ED018AFFF728FFF0EE7E
:103A0000409A9FEDE30A29EE800AB0EE408A9FEDCE
:103A1000E00AB4EEC08AF1EE10FA03DD9FEDDC0A95
:103A2000B0EE408AD748B0F9000000EE100AB8EEB8
:103A3000C00AFFEE000A00EE880ABDEEC00A10EED2
:103A4000100A00B2CF4908800846B0F9020000EE23
:103A5000100AB8EEC00AFFEE000A00EE880ABDEEBA
:103A6000C00A10EE100A00B248800846B0F90400FF
:103A700000EE100AB8EEC00AFFEE000A00EE880A57
:103A8000BDEEC00A10EE100A00B288800846B0F9F8
:103A9000060000EE100AB8EEC00AFFEE000A00EEC3
:103AA000880ABDEEC00A10EE100A00B2C880BDEC54
:103AB000068B10BD10B52DED108BB0EE409AF0EED8
:103AC000609AB0EE41AAF0EE61AAB0EE42BAF0EE12
:103AD000000A9FEDB00A07F0CBFBB0EE40FAF0EE23
:103AE000000A9FEDAD0A07F0C3FB3FEE000AF0EEBF
:103AF00040DA07F08BFFDFEDA80A80EE801AF0EEC7
:103B000041BAF0EE000A9FEDA30A07F0B1FBB0EE58
:103B100040FAF0EE000A9FEDA00A07F0A9FB3FEE85
:103B2000000AF0EE40DA07F071FFDFED9A0A80EE4E
:103B3000801AB0EE41CA3AEE490AB0EE40EA3AEED7
:103B4000E90AF0EE40EA9048006890ED010A9348D7
:103B500080ED040A8C48006890ED030A8F4880EDE0
:103B6000060A8948006890ED020A8C4880ED050A33
:103B700080ED00AA80ED019AFFF769FEF0EE40CAE1
:103B80008148006890ED010A854880ED040A7E486E
:103B9000006890ED030A824880ED060A7A480068C2
:103BA00090ED020A7E4880ED050AC0ED00AAC0ED46
:103BB000019AFFF74CFEB0EE40DA2BEEAC0ADFEDD7
:103BC000740A20EE200AB0EE408A2CEE0D0ADFEDDA
:103BD000700A20EE200AF0EE408A9FED720AB4EEE1
:103BE000C08AF1EE10FA03DD9FED6E0AB0EE408A56
:103BF0009FED6C0AF4EEC08AF1EE10FA03DD9FED42
:103C0000690AF0EE408AB0EE4B0A07F015FA60EE52
:103C100008DAB0EE4B0A07F031FE48EE80DAB0EE7B
:103C20004B0A07F02BFEF1EE480A20EE20FAB0EE28
:103C30004B0A07F001FA08EE80FA7DEE8F0A514830
:103C4000B0F9000000EE100AB8EEC00ABFEE001A8C
:103C500001EE200ABDEEC00A10EE100A00B249497A
:103C60000880B0EE4B0A07F0E7F960EE08DAB0EE34
:103C70004B0A07F003FE48EE80DAB1EE6DFAB0EEC3
:103C80004B0A07F0FBFDF1EE480A60EE20DAB0EED9
:103C90004B0A07F0D1F948EE80DA7FEE2D0A394859
:103CA000B0F9020000EE100AB8EEC00ABFEE001A2A
:103CB00001EE200ABDEEC00A10EE100A00B2314932
:103CC0004880B0EE4B0A07F0B7F960EE08DAB0EEC4
:103CD0004B0A07F0D3FD48EE80DAB0EE4B0A07F04E
:103CE000CDFDF1EE480A20EE20FAB0EE4B0A07F0C7
:103CF000A3F908EE80FA7DEE8F0A2248B0F904009D
:103D000000EE100AB8EEC00AB7EE001A01EE200A63
:103D1000BDEEC00A10EE100A00B21A498880B0EE5B
:103D20004B0A07F089F960EE08DAB0EE4B0A07F0AB
:103D3000A5FD48EE80DAB1EE6DFAB0EE4B0A07F061
:103D40009DFDF1EE480A60EE20DAB0EE4B0A07F076
:103D500073F948EE80DA7FEE2D0A0A48B0F90600C2
:103D600000EE100AB8EEC00AB7EE001A01EE200A03
:103D7000BDEEC00A10EE100A00B20249C880BDECC8
:103D8000108B10BDC401002070020020DC04002054
:103D900000007A440000FA4300802244FC04002022
:103DA0001C0500200000FA441CB592A1954801F0C2
:103DB00077FB9548B0F906009349B1F90410CDE9B5
:103DC00000109148B0F90230B0F900208FA18D4861
:103DD00001F066FB1CBD934880ED000A9248C0EDDF
:103DE000000A924880ED001A70478E4890ED000A54
:103DF0008F48D0ED000A30EE600AB0EEC00ADFED69
:103E00008D0AB4EEE00AF1EE10FA23D8864890ED60
:103E1000000A8948D0ED000A30EE600AB0EEC00A10
:103E2000DFED840AB4EEE00AF1EE10FA12D87F4812
:103E300090ED000A8148D0ED000A30EE600AB0EE45
:103E4000C00ADFED7C0AB4EEE00AF1EE10FA01D808
:103E5000012070470020FCE710B52DED088BFEF720
:103E60000AFFB0EE408A9FED760A28EE000AB0EE17
:103E7000001AC0EE010A9FED730A80EE801AF0EE80
:103E800041AAFDF720FB30EE6A0AF0EE409A6E4838
:103E900090ED000A39EEC00AF0EE408A9FED6B0A01
:103EA00068EE000AB0EE001A80EE810ADFED650AC6
:103EB00080EE201AF0EE41AAFDF735FB30EE6A0ADB
:103EC000B0EE40AA624890ED000A3AEE400AB0EE29
:103ED000409A5D48C0ED009A5D4880ED00AAB0EEC2
:103EE000480A07F0CBFCF1EE490A20EE20BAB0EE0A
:103EF000480A07F0A1F808EE80BA4D4890ED000A94
:103F00003BEE000A80ED000AB0EE480A07F094F894
:103F100020EE09BAB0EE480A07F0B0FC08EE80BA0D
:103F2000454890ED000A3BEE000A80ED000A434848
:103F300080ED008AFFF732FD3C48D0ED000A3F4893
:103F400090ED000AFFF735FD3C4890ED002A364819
:103F5000D0ED001A334890ED001A3748D0ED000A32
:103F6000334890ED000AFFF7A5FDFFF71DFFBDECFC
:103F7000088B10BD2E4890ED000A70472E4890ED3A
:103F8000000A70472D4890ED000A70471FB50121C7
:103F9000480402F087FF42F20F70029040F28F60F7
:103FA000ADF804000020ADF80600ADF80C0001A942
:103FB000284803F0A8FB01221146264804F044F8E3
:103FC0000121244803F028FC19208DF8000003206B
:103FD0008DF801008DF8020001208DF8030068467D
:103FE00001F085FB1FBD10B5FFF7D0FF1A4800F0A8
:103FF000A0FF10BD0D414331303030300D444543FA
:1040000035300D0000100140C40100200D30562550
:10401000640D315625640D325625640D35562564E0
:104020000D00000074020020780200207C020020B5
:1040300080020020CDCCCC3D8402002088020020EC
:10404000E5D0023FDB0F49408C020020C3F5983FCA
:104050009002002000440140700200200FB430B5EF
:10406000A3B00546002428A80190812102A8019B45
:10407000279A04F0DDFB8021284604F0C0FA26E0F0
:1040800002A8005D0A2813D12046621CD4B202AAFD
:10409000115C284604F0F6F900BF8021284604F0A0
:1040A000A1FA0028F9D00D21284604F0EBF907E029
:1040B0002046621CD4B202AA115C284604F0E2F940
:1040C00000BF8021284604F08DFA0028F9D0802C0A
:1040D00003DA02A8005D0028D2D10020019023B0AD
:1040E00030BC5DF814FB10B5002406E0112004F08C
:1040F00049FBFC4941F82400641C082CF6DB002431
:1041000006E0812004F03EFBF74941F82400641CDE
:10411000052CF6DBF5A1F648FFF7A0FF10BD2DE951
:10412000F04103460F461446002500220021284690
:104130006D1C1E5C26E0202E15D11AB928466D1C78
:104140001E5C1FE0082903D14FF0FF30BDE8F0816D
:10415000002054F821C00CF80200491C0022284617
:104160006D1C1E5C0EE0102A02D16FF00100EDE71D
:1041700054F821801046521C08F8006028466D1C37
:104180001E5C00BF0D2ED6D119B912B96FF0020016
:10419000DCE74FF000080846491C54F8200000F8FE
:1041A000028039600020D1E72DE9F04105460E4636
:1041B0000024042715B9601EBDE8F08100241CE02E
:1041C000C4EBC40202EB4202CA4B03EB820031682B
:1041D00004F072FD80B9C8A1C548FFF73FFFC4EBEA
:1041E000C40000EB4000C34901EB80003146026D82
:1041F000284690470020DFE7641CBC42E0D36FF004
:104200000100D9E72DE9F84340F22551B84804F000
:10421000FFF900287DD040F22551B54804F033FA6B
:10422000B34804F033F9C5B20D2D73D10120B34961
:104230000870B348006828B9ACA1AD48FFF70EFF7D
:10424000BDE8F883AF4801680068401CAD4A1060C3
:10425000052091FBF0F200FB1210A34951F82080D9
:10426000A949404604F08BFCA84801680068401C3E
:10427000A64A1060A44845549A4A6946FFF74FFF82
:104280000646002E2ADAF01C68B998A19848FFF774
:10429000E5FE00209A4908609C49086081219A48FF
:1042A00004F0E2FCCCE7B01C20B999A19048FFF7DC
:1042B000D5FE05E0701C18B99CA18D48FFF7CEFE15
:1042C0008AA18B48FFF7CAFE00208D4908608F49FC
:1042D000086081218C4804F0C7FCB1E7814900984F
:1042E000FFF762FF0646002E18DAB01C28B97D4899
:1042F00093A102687E48FFF7B1FE7CA17C48FFF7DE
:10430000ADFE00207E4908608049086081217E481A
:1043100001E01FE210E004F0A7FC91E700207849DB
:1043200008607A4908608121774804F09DFC6FA1FC
:104330006F48FFF793FE0DE27F2D50D16F48007854
:1043400001284CD16E48006800B979E700240BE0E1
:104350006B48006820446C49095C69480068204447
:10436000401E694A1154641C684800686449096821
:10437000401AA042ECD862480068401E60490860BC
:1043800062480068401E6149086000205E495F4A3B
:10439000126888540A4670A15548FFF75FFE00BFB7
:1043A0008021534804F01EF90028F9D020215048FC
:1043B00004F068F8524804680BE000BF80214C48C4
:1043C00004F010F90028F9D00821494804F05AF8FF
:1043D000641C4E480068401C8442EED3BAE11B2D99
:1043E00003D05F48007801287AD11B2D03D101202A
:1043F0005B49087024E75A48007801289BD15B2D5F
:1044000003D05848007801286BD15B2D03D10120DF
:104410005449087014E75348007801288BD10020D4
:10442000504908704E490870442D2AD1344800681C
:104430000028D3D000BF80212D4804F0D3F80028F5
:10444000F9D01B212A4804F01DF800BF802128481C
:1044500004F0C8F80028F9D05B21254804F012F8D0
:1044600000BF8021224804F0BDF80028F9D0442183
:104470001F4804F007F822480068401E20490860E1
:1044800068E1432D71D11E480068204909688842BF
:10449000A4D000BF8021164804F0A4F80028F9D069
:1044A0001B21134803F0EEFF00BF8021104804F0E9
:1044B00099F80028F9D05B210D4803F0E3FF00BF15
:1044C00080210B4804F08EF80028F9D043210848D9
:1044D00003F0D8FF0A480068401C0949086039E128
:1044E000E9E0E2E0C0050020E00500200A3E3E00D1
:1044F00000500040940200200A000000E403002065
:10450000E8030020F40300203C050020EC03002019
:104510000AE591BDE4BBA4E58F82E695B0E995BFBD
:10452000E5BAA6E8BF87E995BF0000000AE591BD9E
:10453000E4BBA4E58F82E695B0E8BF87E5A49A00C6
:104540000D0AE69CAAE689BEE588B0E591BDE4BB0C
:10455000A43A2573000000000D3E3E2573000000C4
:10456000F0030020F1030020FFE7412D4DD18E48DC
:104570000068401E052190FBF1F201FB12008B49FF
:1045800051F82080404604F01EFB00B958E68648EA
:104590000068401E84490860052190FBF1F201FB90
:1045A0001200824951F820804146814804F0E7FA20
:1045B0007F4804F008FB7F490860084600687E4990
:1045C0000968884204D27C4800687A490968471A19
:1045D000774804F0F8FA7849086000240BE000BF3F
:1045E0008021764803F0FEFF0028F9D07F21734830
:1045F00003F048FF641C781C8442F0DB6C4AAFF285
:10460000A8016E48FFF72AFDA4E0422DFCD16648C0
:104610000068401C052190FBF1F201FB1200634988
:1046200051F82080404604F0CEFA00B908E65E4812
:104630000068401C5C490860052190FBF1F201FB19
:1046400012005A4951F820804146594804F097FA1F
:10465000574804F0B8FA57490860084600685649B8
:104660000968884204D25448006852490968471AC8
:104670004F4804F0A8FA5049086000240BE000BF3E
:1046800080214E4803F0AEFF0028F9D07F214B482F
:1046900003F0F8FE641C781C8442F0DB444AAFF25D
:1046A00048114648FFF7DAFC54E0002044490870FE
:1046B000444908704EE0242D03D10020424908707F
:1046C00048E03C480068802805D10020394908604E
:1046D00039490860B4E500240BE037480068001B46
:1046E000401E3349085C34490968091B304A50545C
:1046F000641C314800682F490968401AA042ECD870
:104700002C4801680068401C2A4A1060284845541B
:1047100029480068401C284908602B480078012877
:1047200018D1234AAFF2D0112448FFF797FC214853
:1047300004680BE000BF8021204803F053FF0028ED
:10474000F9D008211D4803F09DFE641C1A4800683A
:104750008442EFD300BF73E52DE9F04105460F46D3
:104760000426012D05DD19A11448FFF777FCBDE8EB
:10477000F081002413E0C4EBC40000EB40001949B1
:1047800001EB800000F11003C4EBC40000EB40001B
:1047900001EB800214A10948FFF760FC641CB442DD
:1047A000E9D300BFE3E70000F4030020E0050020A8
:1047B0003C050020E8030020EC03002000500040EE
:1047C000F0030020F1030020E403002068656C7012
:1047D000E591BDE4BBA4E58F82E695B0E8BF87E52F
:1047E000A49A0A0094020020636D643A2573202085
:1047F0002075736167653A25730A00002DE9F04161
:104800002DED048B82B006460C46022E03DA49A138
:104810004B4800F045FE4BA1606804F04DFA28B902
:1048200000F0A9FB804600F0A9FB69E047A16068A1
:1048300004F042FAC8B9E06806F0E2FBB0EE409A34
:10484000F0EE609A51EC190B07F01EFB08EE100A0F
:10485000B0EE480AA06800F09DFB002850DA3CA1A9
:104860003748A26800F01CFE4AE03FA1606804F0EF
:1048700023FA10B900F0E4FB42E03DA1606804F0C7
:104880001BFA30B9A06804F06DF9804600F0C8FA50
:1048900036E039A1606804F00FFA00BBA06804F0AC
:1048A00061F9074600F064FB05466D6814E028686E
:1048B000203000EB870090ED000A10EE101A084639
:1048C00007F0E8FF41EC190B8DED009B2EA11C4871
:1048D0002A6800F0E5FD6D68002DE8D110E02DA1FB
:1048E000606804F0E9F910B900F0CEFA08E02BA1F5
:1048F000134800F0D5FD02B0BDEC048BBDE8F0819B
:1049000000BFF8E700BFBFF34F8F2848006800F4EE
:10491000E06027490843001D24490860BFF34F8F1A
:1049200000BF00BFFEE770B504460D46FCF7F7FA7E
:1049300070BD0000706172616D203C636D643E006B
:10494000005000407072696E74000000736574005E
:104950006E6F7420666F756E6420706172616D2079
:104960006E616D653A257300736176650000000025
:1049700073776974636800006D6F62696C652D7090
:1049800072696E74000000005B5023257323253488
:10499000665D0000726573657400000061726720D7
:1049A0006E6F7420666F756E640000000CED00E0A1
:1049B0000000FA0510B50446082003F0E3FE20606D
:1049C00014B94FF0FF3010BD00202168486001206D
:1049D000F9E770B5044607E0206845686868216813
:1049E0004860284603F0FDFE206840680028F3D1A7
:1049F00070BD01460B685A68002001E0401C5268F7
:104A0000002AFBD1704701460868406808B90120B8
:104A100070470020FCE770B505460E4628684468DC
:104A200000E064682CB13146206804F045F90028A4
:104A3000F7D1204670BD10B504460A46002A01DAB7
:104A4000002010BD2168002301E05B1C496809B10A
:104A50009342FADB0846F4E72DE9F05F8346884687
:104A600091469A46A8F101015846FFF7E4FF074630
:104A700017B90020BDE8F09F082003F083FE06462A
:104A80002C2003F07FFE05464946284604F077F8BF
:104A900000240AE00AEB840090ED000A05F12000F2
:104AA00000EB840080ED000A641C032CF2DB35600F
:104AB000786870607E600120DCE72DE9F0410546F2
:104AC0000F462E682868446801E0766864682CB157
:104AD0003946206804F0F0F80028F6D114B9002017
:104AE000BDE8F08160687060206803F07AFE2046BF
:104AF00003F077FE0120F3E72DE9F04781468A466F
:104B0000DAF800004468D9F80000476821E02C205A
:104B100003F038FE05462846216804F030F80026E8
:104B20000CE02068203000EB860090ED000A05F1D3
:104B3000200000EB860080ED000A761C032EF0DBDF
:104B4000C8F800500020C8F80400C7F804807F6847
:104B50006468002CDBD100207860BDE8F08770B578
:104B60002DED028B82B006460C4615462068406843
:104B700008B3206840680068203000EB850090EDA5
:104B8000000A10EE101A084607F084FE41EC180BDC
:104B90008DED008B2068406809A10268304600F066
:104BA0007FFC0AA1304600F07BFC2068011D2A46EC
:104BB0003046FFF7D4FF02B0BDEC028B70BD0000A1
:104BC00025733D25332E3266000000000A0D0000DB
:104BD0003EB5FBA1FC48FFF71EFFB0B1002411E079
:104BE000F7A1F948FFF717FF0068203000EB8400B9
:104BF00090ED000AC4EBC400F44901EB800080EDA5
:104C0000000A641C032CEBDB0DE0002000900190F7
:104C10000290ED48FFF7EDFE441C6B46E8A22146EA
:104C2000E948FFF719FFEAA1E748FFF7F4FEB0B142
:104C3000002411E0E6A1E448FFF7EDFE0068203013
:104C400000EB840090ED000AC4EBC400DF4901EBE7
:104C5000800080ED010A641C032CEBDB0DE00020DA
:104C6000009001900290D848FFF7C3FE441C6B46A9
:104C7000D7A22146D448FFF7EFFED6A1D248FFF7CE
:104C8000CAFEB0B1002411E0D2A1CF48FFF7C3FEA5
:104C90000068203000EB840090ED000AC4EBC400F3
:104CA000CA4901EB800080ED020A641C032CEBDB97
:104CB0000DE00020009001900290C348FFF799FE9C
:104CC000441C6B46C3A22146BF48FFF7C5FEC2A1E4
:104CD000BD48FFF7A0FEB0B1002411E0BEA1BA4864
:104CE000FFF799FE0068203000EB840090ED000A89
:104CF000C4EBC400B54901EB800080ED030A641CDD
:104D0000032CEBDB0DE00020009001900290AE48F8
:104D1000FFF76FFE441C6B46AFA22146AA48FFF77F
:104D20009BFEAEA1A848FFF776FEB0B1002411E0CB
:104D3000AAA1A548FFF76FFE0068203000EB8400B1
:104D400090ED000AC4EBC400A04901EB800080EDA7
:104D5000040A641C032CEBDB0DE0002000900190A2
:104D600002909948FFF745FE441C6B469BA22146E2
:104D70009548FFF771FE9BA19348FFF74CFEB0B139
:104D8000002411E097A19048FFF745FE006820300D
:104D900000EB840090ED000AC4EBC4008B4901EBEA
:104DA000800080ED050A641C032CEBDB0DE0002085
:104DB0000090019002908448FFF71BFE441C6B4654
:104DC00088A221468048FFF747FE88A17E48FFF76A
:104DD00022FEB0B1002411E084A17B48FFF71BFE46
:104DE0000068203000EB840090ED000AC4EBC400A2
:104DF000764901EB800080ED060A641C032CEBDB96
:104E00000DE000200090019002906F48FFF7F1FD47
:104E1000441C6B4675A221466B48FFF71DFE3EBD44
:104E200070B5044666A16848FFF7F5FD0646022CFA
:104E300001DC002C02DA4FF0FF3070BDC4EBC4007F
:104E4000624901EB80006B4909680860002515E0A4
:104E500000EE104AB8EEC00AC5EBC5005B4901EB95
:104E6000800080ED000A00EE104AB8EEC00A3068FB
:104E7000203000EB850080ED000A6D1C032DE7DB80
:104E80005D4804600120D8E710B54F48006818B1AC
:104E90004D48FFF79EFD07E04B48FFF78BFD401C98
:104EA00010B94FF0FF3010BD0120FCE72DE9F047AD
:104EB000524C4548006818B14348FFF78AFD08E0A6
:104EC0004148FFF777FD401C18B94FF0FF30BDE8AF
:104ED000F08728E04FF000082021494803F0C4FE85
:104EE000002604E0277846488755641C761C1F2E50
:104EF000F8DB641C43A1424803F0DEFE00B913E076
:104F000025460C344048844202D96FF00100DEE7A8
:104F10002D48FFF76EFD00F101092B46384A49463E
:104F20002948FFF799FDD5E700BFFFF751FE0120A3
:104F3000CDE710B504462448FFF73CFDFFF7B6FF68
:104F4000002803DAFFF7A0FFFFF742FE29480460BC
:104F500001460968096891ED000ABDEEC00A10EE2D
:104F6000100AFFF75DFF10BD224800680068704717
:104F700015480068704720480068704710B504461F
:104F800017A1224800F08CFA22460F491F48FFF76C
:104F9000E6FD10BD70B52DED028B0546B0EE408AE2
:104FA00007A1284603F088FE48B9BDEEC80A10EEF6
:104FB000100AFFF735FF0020BDEC028B70BD27E023
:104FC00067726F7570000000FC030020F40500207C
:104FD0006B7000006B6900006B6400006B705F72A7
:104FE000000000006B695F72000000006B645F727C
:104FF00000000000F8030020000400200000010869
:1050000048060020656E6400FC0401080050004062
:1050100029464A48FFF7FFFC040008D0FFF7ABFF22
:105020002168203101EB800080ED008A04E04FF020
:10503000FF30BDEC028B70BDFFF7CAFD0020F8E722
:105040002DE9F84FAFF24400006800903C4C3B481B
:105050000068466800F050FE002000F030FEF320AB
:1050600001F04BF90221202000F09AFE092808D017
:10507000012000F024FE00F04CFE4FF0FF30BDE8B0
:10508000F88F32E0D6F80090306800F1200B4FF036
:105090000008002509E0404608F1010819F8001051
:1050A000204600F0EFFF641C6D1C202DF3DB002771
:1050B0000DE00BEB870A002506E01AF8011B2046DD
:1050C000641C00F0DFFF6D1C042DF6DB7F1C032F3A
:1050D000EFDB1C48844207D9012000F0F0FD00F00E
:1050E00018FE6FF00100CAE77668002ECAD1B046FC
:1050F00008E0424608F101081DF802102046641C31
:1051000000F0C0FF1DF808000028F2D12046641C02
:10511000002100F0B7FF0021204600F05AFF241DB7
:10512000012000F0CCFD00F0F4FD0648844202D9D5
:105130006FF00100A3E70120A1E70000FC030020BD
:1051400000000108FC04010810B588B004460121E4
:10515000022001F04DFE0121102001F0A3FE0722E4
:105160000621EC4801F0E5F907221146E94801F073
:10517000E0F9C020069002208DF81C0000208DF878
:105180001D008DF81E0001208DF81F0006A9E148C2
:1051900001F044F902940020ADF80C00ADF80E00C7
:1051A000ADF81000ADF814000C20ADF8120002A903
:1051B000D94803F0B4F80121D74803F038F9252085
:1051C0008DF8040003208DF805008DF806000120FD
:1051D0008DF8070001A800F08AFA08B010BD10B5DC
:1051E00088B004460121082001F002FE0121480494
:1051F00001F047FE07220521C84801F09AF907226D
:105200000621C64801F095F96020069002208DF82D
:105210001C008DF81D0000208DF81E0001208DF867
:105220001F0006A9BD4801F0F9F802940020ADF86E
:105230000C00ADF80E00ADF81000ADF814000C2015
:10524000ADF8120002A9B64803F069F80121B4488C
:1052500003F0EDF8012240F22551B14803F09DF929
:1052600026208DF8040002208DF805008DF8060038
:1052700001208DF8070001A800F039FA08B010BD30
:1052800010B588B004460121082001F0B1FD0121CC
:10529000880401F0F6FD07220821A04801F049F931
:1052A000072209219D4801F044F94FF4407006900F
:1052B00002208DF81C008DF81D0000208DF81E00C6
:1052C00001208DF81F0006A9944801F0A7F8029468
:1052D0000020ADF80C00ADF80E00ADF81000ADF8F0
:1052E00014000C20ADF8120002A98E4803F017F844
:1052F00001218C4803F09BF8012240F22551894896
:1053000003F04BF927208DF8040002208DF80500EA
:105310008DF8060001208DF8070001A800F0E7F9DC
:1053200008B010BD10B586B004460121042001F07C
:105330005FFD0121C80401F0A4FD02208DF81400D6
:1053400000208DF8160001208DF8170002208DF83E
:1053500015004002049004A9734801F05FF84FF46F
:105360000060049004A9704801F058F808220A214E
:105370006D4801F0DEF808220B216B4801F0D9F8E6
:1053800000940020ADF80400ADF80600ADF8080068
:10539000ADF80C000C20ADF80A006946634802F035
:1053A000BEFF0121614803F042F806B010BD10B500
:1053B00088B004460121042001F01AFD01210820D3
:1053C00001F016FD0121080501F05BFD08220C210A
:1053D000554801F0AEF808220221504801F0A9F822
:1053E0004FF48050069002208DF81C008DF81D00AF
:1053F00000208DF81E0001208DF81F0006A94A48E4
:1054000001F00CF80420069002208DF81C008DF8A5
:105410001D0000208DF81E0001208DF81F0006A938
:105420003E4800F0FBFF02940020ADF80C00ADF800
:105430000E00ADF81000ADF814000C20ADF812000D
:1054400002A93B4802F06BFF0121394802F0EFFF4F
:10545000012240F22551364803F09FF835208DF89F
:10546000040002208DF805008DF8060001208DF85B
:10547000070001A800F03BF908B010BD10B50446C4
:105480002046FFF761FE2046FFF7A9FE2046FFF702
:10549000F7FE2046FFF746FF2046FFF788FF10BDC6
:1054A0000FB430B59BB00546002420A800906521BC
:1054B00001A8009B1F9A03F0BBF98021284603F046
:1054C0009EF80EE000BF8021284603F08BF80028EC
:1054D000F9D02046621CD4B201AA115C284602F021
:1054E000D1FF642C03DA01A8005D0028EAD1002076
:1054F00000901BB030BC5DF814FB00BF704700BFCC
:105500000B4A128802F04002002AF9D0C2B2084BBE
:105510009A8070470004024000100140000C0240D5
:10552000004400400048004000080240004C004099
:10553000005000400948804709480047FEE7FEE761
:10554000FEE7FEE7FEE7FEE7FEE7FEE7FEE7FEE733
:1055500004480549054A064B70470000DD0B00086A
:1055600089010008C8060020C8460120C80601209D
:10557000C806012070B50446254600BF02215648E2
:1055800001F09AFF0028F9D0E84345EA002081B2F3
:10559000514801F048FF00BF01214F4801F08CFF46
:1055A0000028F9D04C4801F03BFF054625EA2520AC
:1055B00000B100E00024204670BD00B589B0012193
:1055C000022001F015FC0121042001F011FC012151
:1055D000880301F056FC4FF4C040079002208DF87C
:1055E000200000208DF8220003208DF821000120EA
:1055F0008DF8230007A9394800F010FF0820079014
:1056000002208DF8200000208DF8220003208DF864
:10561000210001208DF8230007A9314800F0FEFE8B
:1056200005220D212D4800F084FF05220E212B4874
:1056300000F07FFF05220321294800F07AFF0121B5
:10564000880301F073FC00214FF4804001F06EFCF0
:105650000020ADF804004FF48270ADF806004FF45E
:105660000070ADF80E008000ADF808000220ADF823
:105670000A000120ADF80C003820ADF81000002021
:10568000ADF812000720ADF8140001A9124801F08E
:105690004FFD0121104801F045FE60210E4801F048
:1056A00031FF002260210C4801F0E4FE002271214C
:1056B000094801F0DFFE24208DF8180004208DF841
:1056C00019008DF81A0001208DF81B0006A800F0C3
:1056D0000EF809B000BD0000003800400004024090
:1056E0000008024032490143324A1160704770B5E8
:1056F000002100230F22C4781CB32E4C246804F42C
:10570000E064C4F5E064C4F30721C1F10404E3B22A
:105710000A4144789C40E1B28478144021430C074C
:10572000210E254C05786155047804F01F050124ED
:10573000AC4005786D11AD0005F1E025C5F80041DC
:1057400009E0047804F01F050124AC401B4D0678E5
:10575000761145F8264070BD194A0A400243154BA0
:105760001B1F1A60704739B1124A121D126802439A
:10577000104B1B1D1A6006E00E4A121D1268824370
:105780000C4B1B1D1A607047042808D14FF0E02114
:10579000096941F004014FF0E022116107E04FF088
:1057A000E021096921F004014FF0E0221161704706
:1057B0000000FA050CED00E000E400E080E100E00C
:1057C00080FFFF1F016821F00101016000210160DD
:1057D00041608160C160016121214161DB498842F2
:1057E00004D13D21D94A103A91608CE0D749183153
:1057F000884205D14FF47461D44A103A916082E036
:10580000D2493031884205D14FF47411CF4A103A51
:10581000916078E0CD494831884205D14FF07461FC
:10582000CA4A103A91606EE0C8496031884204D19A
:10583000C749C64A103AD16065E0C4497831884208
:1058400004D1C449C14A103AD1605CE0BF499031EB
:10585000884204D1C049BD4A103AD16053E0BB49E7
:10586000A831884205D14FF03D51B84A103AD16075
:1058700049E0BA49884204D13D21B84A083A11604A
:1058800041E0B6491831884205D14FF47461B34AFA
:10589000083A116037E0B1493031884205D14FF400
:1058A0007411AE4A083A11602DE0AC494831884283
:1058B00005D14FF07461A94A083A116023E0A74965
:1058C0006031884204D1A249A44A121F11601AE033
:1058D000A2497831884204D19E49A04A121F116022
:1058E00011E09E499031884204D19B499B4A121F86
:1058F000116008E09949A831884204D14FF03D5128
:10590000964A121F1160704710B500220268944B2E
:105910001A40CC680B6823434C6923438C692343AA
:10592000CC6923430C6A23434C6A23438C6A234388
:105930004C6B23438C6B23431A430260426922F071
:105940000702D1E90B3423431A4342610B694360D8
:105950004B6883608B68C36010BD002101604160AB
:105960008160C160016141618161C1610162416227
:105970008162C162016341638163704721B1026842
:1059800042F00102026003E0026822F001020260BC
:10599000704721B1026842F40042026003E00268ED
:1059A00022F400420260704721B1026842F02002F6
:1059B000026003E0026822F020020260704741604A
:1059C00070470146486880B2704722B1036843F4CB
:1059D0000023036003E0036823F4002303600161F4
:1059E000704721B1026842F48022026003E002683D
:1059F00022F48022026070470AB1016100E0C160B8
:105A00007047014600200A6802F400220AB1012012
:105A100000E000207047014600200A6802F0010201
:105A20000AB1012000E000207047014600204A69C9
:105A300002F03800704730B503460A4600200024C3
:105A4000464DAB4202D24149103901E04349103979
:105A500002F000550DB14C6800E00C68414D2C403F
:105A600004EA02050DB1012000E0002030BD02462D
:105A70003A4B9A4202D23548103801E03748103884
:105A800001F000531BB1374B0B40C36002E0354BB4
:105A90000B408360704710B501F080034BB122B119
:105AA000436943F08003436103E0436923F08003CB
:105AB000436180290BD02AB1036801F01E042343FF
:105AC000036004E0036801F01E04A343036010BDFB
:105AD00070B50246002000240025204EB24202D2BA
